:020000040800F2
:1000000000500020ED1300081D1300082513000800
:100010002D130008351300083D13000800000000F0
:100020000000000000000000000000004513000870
:1000300051130008000000005D1300086913000858
:10004000351400083514000835140008351400086C
:10005000351400083514000835140008351400085C
:10006000351400083514000835140008351400084C
:10007000351400083514000835140008351400083C
:10008000351400083514000835140008351400082C
:10009000351400083514000835140008351400081C
:1000A000351400083514000835140008351400080C
:1000B00035140008351400083514000835140008FC
:1000C00035140008351400083514000835140008EC
:1000D00035140008351400083514000835140008DC
:1000E000351400083514000835140008000000001D
:1000F0000000000000000000000000000000000000
:0C01000000000000000000005FF808F1A3
:10010C0010B5054C237833B9044B13B10448AFF345
:10011C0000800123237010BD5C0000200000000053
:10012C002840000808B5034B1BB103490348AFF343
:10013C00008008BD0000000060000020284000087E
:10014C0080F0004002E000BF81F0004142001FBF80
:10015C005FEA410392EA030F7FEA226C7FEA236C89
:10016C006AD04FEA1262D2EB1363C1BFD21841407E
:10017C0048404140B8BF5B42192B88BF704710F014
:10018C00004F40F4000020F07F4018BF404211F0B7
:10019C00004F41F4000121F07F4118BF494292EA1F
:1001AC00030F3FD0A2F1010241FA03FC10EB0C004B
:1001BC00C3F1200301FA03F100F0004302D54942D8
:1001CC0060EB4000B0F5000F13D3B0F1807F06D385
:1001DC0040084FEA310102F10102FE2A51D2B1F17D
:1001EC00004F40EBC25008BF20F0010040EA030072
:1001FC007047490040EB0000013A28BFB0F5000FF2
:10020C00EDD2B0FA80FCACF1080CB2EB0C0200FAA7
:10021C000CF0AABF00EBC25052421843BCBFD040F6
:10022C001843704792F0000F81F4000106BF80F470
:10023C0000000132013BB5E74FEA41037FEA226C33
:10024C0018BF7FEA236C21D092EA030F04D092F0FE
:10025C00000F08BF0846704790EA010F1CBF002032
:10026C00704712F07F4F04D1400028BF40F000408F
:10027C00704712F100723CBF00F50000704700F0AF
:10028C00004343F0FE4040F4000070477FEA2262D6
:10029C0016BF08467FEA23630146420206BF5FEAA7
:1002AC00412390EA010F40F4800070474FF00003A7
:1002BC0004E000BF10F0004348BF40425FEA000C6E
:1002CC0008BF704743F0964301464FF000001CE016
:1002DC0050EA010208BF70474FF000030AE000BF6C
:1002EC0050EA010208BF704711F0004302D54042AA
:1002FC0061EB41015FEA010C02BF8446014600201C
:10030C0043F0B64308BFA3F18053A3F50003BCFA36
:10031C008CF2083AA3EBC25310DB01FA02FC6344E3
:10032C0000FA02FCC2F12002BCF1004F20FA02F2EA
:10033C0043EB020008BF20F00100704702F12002DD
:10034C0001FA02FCC2F1200250EA4C0021FA02F23E
:10035C0043EB020008BF20EADC7070474FF0FF0C43
:10036C001CEAD0521EBF1CEAD15392EA0C0F93EA3E
:10037C000C0F6FD01A4480EA010C400218BF5FEAE0
:10038C0041211ED04FF0006343EA501043EA511153
:10039C00A0FB01310CF00040B1F5000F3EBF49004D
:1003AC0041EAD3715B0040EA010062F17F02FD2A51
:1003BC001DD8B3F1004F40EBC25008BF20F0010034
:1003CC00704790F0000F0CF0004C08BF49024CEA4B
:1003DC00502040EA51207F3AC2BFD2F1FF0340EADD
:1003EC00C250704740F400004FF00003013A5DDC4E
:1003FC0012F1190FDCBF00F000407047C2F100028F
:10040C00410021FA02F1C2F1200200FA02FC5FEA7B
:10041C00310040F1000053EA4C0308BF20EADC70C5
:10042C00704792F0000F00F0004C02BF400010F437
:10043C00000F013AF9D040EA0C0093F0000F01F0E4
:10044C00004C02BF490011F4000F013BF9D041EA06
:10045C000C018FE70CEAD15392EA0C0F18BF93EA08
:10046C000C0F0AD030F0004C18BF31F0004CD8D132
:10047C0080EA010000F00040704790F0000F17BFB9
:10048C0090F0004F084691F0000F91F0004F14D0FF
:10049C0092EA0C0F01D142020FD193EA0C0F03D157
:1004AC004B0218BF084608D180EA010000F000405A
:1004BC0040F0FE4040F40000704740F0FE4040F435
:1004CC00400070474FF0FF0C1CEAD0521EBF1CEAD4
:1004DC00D15392EA0C0F93EA0C0F69D0A2EB0302F2
:1004EC0080EA010C49024FEA402037D04FF080538C
:1004FC0043EA111143EA10130CF000408B4238BF51
:10050C005B0042F17D024FF4000C8B4224BF5B1A5E
:10051C0040EA0C00B3EB510F24BFA3EB510340EAAC
:10052C005C00B3EB910F24BFA3EB910340EA9C005A
:10053C00B3EBD10F24BFA3EBD10340EADC001B01CA
:10054C0018BF5FEA1C1CE0D1FD2A3FF650AF8B426E
:10055C0040EBC25008BF20F0010070470CF0004C7B
:10056C004CEA50207F32C2BFD2F1FF0340EAC250A6
:10057C00704740F400004FF00003013A37E792F067
:10058C00000F00F0004C02BF400010F4000F013AC5
:10059C00F9D040EA0C0093F0000F01F0004C02BFC0
:1005AC00490011F4000F013BF9D041EA0C0195E729
:1005BC000CEAD15392EA0C0F08D142027FF47DAFC2
:1005CC0093EA0C0F7FF470AF084676E793EA0C0FB2
:1005DC0004D14B023FF44CAF08466EE730F0004CB0
:1005EC0018BF31F0004CCAD130F000427FF45CAF40
:1005FC0031F000437FF43CAF5FE700BF4FF0FF3CAE
:10060C0006E000BF4FF0010C02E000BF4FF0010C00
:10061C004DF804CD4FEA40024FEA41037FEA226CC9
:10062C0018BF7FEA236C11D001B052EA530C18BFEB
:10063C0090EA010F58BFB2EB030088BFC81738BF50
:10064C006FEAE17018BF40F0010070477FEA226C3E
:10065C0002D15FEA402C05D17FEA236CE4D15FEA3A
:10066C00412CE1D05DF8040B704700BF844608466E
:10067C006146FFE70FB5FFF7C9FF002848BF10F12F
:10068C00000F0FBD4DF808EDFFF7F4FF0CBF012074
:10069C0000205DF808FB00BF4DF808EDFFF7EAFFFE
:1006AC0034BF012000205DF808FB00BF4DF808EDB9
:1006BC00FFF7E0FF94BF012000205DF808FB00BFAE
:1006CC004DF808EDFFF7D2FF94BF012000205DF834
:1006DC0008FB00BF4DF808EDFFF7C8FF34BF012041
:1006EC0000205DF808FB00BF4FEA4002B2F1FE4F5C
:1006FC000FD34FF09E03B3EB12620DD94FEA0023D8
:10070C0043F0004310F0004F23FA02F018BF4042B0
:10071C0070474FF00000704712F1610F01D1420297
:10072C0005D110F0004008BF6FF0004070474FF04B
:10073C000000704780B582B000AF78600846114663
:10074C001A460346FB700B46BB7013467B702F4A50
:10075C007B681360FB785B00DAB22C4B1A712B4A66
:10076C00BB785371294A7B789371284B0822DA7134
:10077C00322000F0BDFE254BDB79184600F07EF9E7
:10078C004FF47A7000F0B4FE302000F066F90520CA
:10079C0000F0AEFE302000F060F9052000F0A8FE5D
:1007AC00302000F05AF9012000F0A2FE202000F0C9
:1007BC0054F9164B00221A72144B9B79012B06D953
:1007CC00124B1B7A43F00803DAB2104B1A720F4B20
:1007DC001B7A43F02003DBB2184600F065F80B4B94
:1007EC0004225A7200F01EF8084B02229A72074B30
:1007FC009B7A43F00403DBB2184600F055F800F086
:10080C0007F800BF0837BD4680BD00BF7800002048
:10081C0080B500AF012000F047F8022000F068FE20
:10082C0000BF80BD80B500AF084B5B7A43F004037A
:10083C00DAB2064B5A72054B5B7A43F00803DBB213
:10084C00184600F031F800BF80BD00BF78000020D2
:10085C0080B584B000AF03460A46FB711346BB71EA
:10086C000F4BFB600F4B9B79BA799A4203D30D4B1C
:10087C009B79013BBB71BB7910333B4413F8042CBF
:10088C00FB791344DBB25BB263F07F035BB2DBB288
:10089C00184600F009F800BF1037BD4680BD00BFF8
:1008AC00004014547800002080B582B000AF03469D
:1008BC00FB71FB790021184600F0AEF800BF083739
:1008CC00BD4680BD80B582B000AF0346FB71FB799D
:1008DC000121184600F0A0F800BF0837BD4680BDC6
:1008EC0080B582B000AF786006E07B685A1C7A60F5
:1008FC001B781846FFF7E6FF7B681B78002BF4D1BA
:10090C0000BF00BF0837BD4680BD000080B58CB06D
:10091C0000AF78600B46FB704FF000017868FFF772
:10092C00BBFE0346002B06D02D20FFF7CBFF7B68C8
:10093C0083F000437B604FF07C53FB62002387F80D
:10094C002B300AE03249F86AFFF7BCFD0346FB6224
:10095C0097F82B30013387F82B3097F82B20FB7846
:10096C009A42EFD3F96A7868FFF7F0FB03467B6095
:10097C007868FFF7B9FE0346FB61F869FFF79AFC4C
:10098C00034619467868FFF7DFFB03467B6207F1E5
:10099C000C00FB691F4A0C2102F07CFE07F10C03D2
:1009AC001846FFF79DFFFB78002B2CD02E20FFF76D
:1009BC0089FF002387F8233020E01549786AFFF778
:1009CC00CDFC03467B62786AFFF78EFE0346BB6163
:1009DC00BB69DBB23033DBB21846FFF773FFB86983
:1009EC00FFF768FC03461946786AFFF7ADFB034630
:1009FC007B6297F82330013387F8233097F8232054
:100A0C00FB789A42D9D300BF3037BD4680BD00BFBA
:100A1C00000020414040000880B584B000AF034680
:100A2C000A46FB711346BB71FB7923F00F03FB7372
:100A3C00FB791B01BB73FA7BBB791343DBB2184602
:100A4C0000F00BF8BA7BBB791343DBB2184600F00D
:100A5C0004F800BF1037BD4680BD80B582B000AF32
:100A6C000346FB71FB79184600F008F8FB79184631
:100A7C0000F022F800BF0837BD4680BD80B586B0B7
:100A8C0002AF0346FB710B4BDA79FB791343DBB2F4
:100A9C003B73084B1868074B1B79194607F10C027E
:100AAC000A230093012301F00BF900BF1037BD4658
:100ABC0080BD00BF7800002080B582B000AF034637
:100ACC00FB71FB7943F00403DBB21846FFF7D6FF4A
:100ADC00FB7923F00403DBB21846FFF7CFFF00BF0E
:100AEC000837BD4680BD80B582B000AF78607868AD
:100AFC00FFF7F6FE00BF0837BD4680BD80B584B059
:100B0C0000AF78600B46FB701346BB70FB7863F04C
:100B1C007F03FB70FB783B73BB787B737B685868F7
:100B2C007B681B890022194600F06EFF7B681868F1
:100B3C0007F10C014FF0FF33022202F099F87B68A9
:100B4C0058687B681B890122194600F05DFF00BFC5
:100B5C001037BD4680BD80B584B000AFF8607A60B8
:100B6C001A460B46FB721346BB72FB7A03F07F03EB
:100B7C00DBB2FB72FB685868FB681B8900221946C4
:100B8C0000F042FFFB68186807F10B014FF0FF33D0
:100B9C00012202F06DF8FB681868BB7A9AB24FF02C
:100BAC00FF33796802F0A8F9FB685868FB681B8969
:100BBC000122194600F028FF00BF1037BD4680BD4A
:100BCC0080B584B000AF78600B46FB700023FB73DC
:100BDC0007F10F02F97801237868FFF7BCFFFB7B64
:100BEC0018461037BD4680BD80B584B000AF786024
:100BFC000B46FB7007F1080300210A461A800A46CF
:100C0C009A7007F10802F97803237868FFF7A3FFBD
:100C1C003B7AFB60FB681B02FB607B7A1A46FB6825
:100C2C001343FB60FB681B02FB60BB7A1A46FB6834
:100C3C001343FB60FB6818461037BD4680BD80B57A
:100C4C0084B000AFF860B9607A607B80FB68002BE1
:100C5C0005D0BB68002B02D07B68002B01D1002390
:100C6C002BE0FB68BA681A60FB687A685A60FB680C
:100C7C007A881A81FB680122DA72FB685868FB6873
:100C8C001B890122194600F0BFFE00220221F868E0
:100C9C00FFF734FF10220021F868FFF72FFF002226
:100CAC000921F868FFF72AFF0321F86800F037F8EC
:100CBC000021F86800F005F8012318461037BD46EE
:100CCC0080BD80B584B000AF78600B46FB707B684C
:100CDC00FA789A7200217868FFF772FF0346FB736B
:100CEC007B689B7A022B08D1FB7B63F07F03FB7341
:100CFC00FB7B23F04003FB7307E0FB7B03F07F03DC
:100D0C00FB73FB7B43F04003FB73FB7B1A46002118
:100D1C007868FFF7F3FE00BF1037BD4680BD80B585
:100D2C0084B000AF78600B46FB7001217868FFF748
:100D3C0047FF0346FB73FB7B23F00F03FB7397F911
:100D4C00033003F00F035AB297F90F3013435BB221
:100D5C00FB73FB7B1A4601217868FFF7CFFE00BFBF
:100D6C001037BD4680BD80B582B000AF78600F21D2
:100D7C007868FFF725FF034618460837BD4680BD47
:100D8C0080B584B000AF78607B689B7A022B14D05E
:100D9C0000217868FFF714FF0346FB73FB7B03F01D
:100DAC007F03FB73FB7B43F04003FB73FB7B1A4617
:100DBC0000217868FFF7A2FE00E000BF1037BD46A7
:100DCC0080BD80B582B000AF78607B689B7A022BC7
:100DDC0001D101230BE000217868FFF7F1FE0346F7
:100DEC0003F04003002B0CBF01230023DBB2184699
:100DFC000837BD4680BD000080B584B000AF786078
:100E0C007B689B7A002B1BD17868FFF7B9FF00F049
:100E1C0065FBB8600BE000F061FB0246BB68D31ABF
:100E2C00FA2B01D9164B27E00A2000F061FB7868F9
:100E3C00FFF7C7FF034683F00103DBB2002BEAD1B7
:100E4C000C217868FFF7D0FE0346FB60FB6803F4C7
:100E5C000003002B03D0FB6843F07F43FB60FB686F
:100E6C005B11FB60F868FFF725FA03464FF07051F1
:100E7C001846FFF773FA034618461037BD4680BD77
:100E8C000000C07F80B582B000AF00F0CFFA00F058
:100E9C0077F800F01FF900F0B9F800F0E5F802233C
:100EAC00102227212B48FFF745FC00210020FFF7DB
:100EBC00CFFC2948FFF717FE4FF40043274A284977
:100ECC002848FFF7BCFE03212648FFF728FF2548DA
:100EDC00FFF749FF0346FB7101210020FFF7B8FC27
:100EEC00FB79002B0CD0FB7903F00103002B03D012
:100EFC001D48FFF7F8FD28E01C48FFF7F4FD24E03F
:100F0C001848FFF779FF386019493868FFF7E2FB9A
:100F1C000346002B16D017493868FFF7BDFB034674
:100F2C00002B0FD001210020FFF792FC1248FFF795
:100F3C00DAFD01210620FFF78BFC02213868FFF750
:100F4C00E5FC02E00D48FFF7CEFD642000F0D0FA7E
:100F5C00BDE700BF840000204440000800080140A9
:100F6C00D800002030010020584000086C400008D8
:100F7C00000048C30080A244804000089440000850
:100F8C0080B590B000AF07F1180328220021184655
:100F9C0002F0B6FB3B1D00221A605A609A60DA60C0
:100FAC001A610123BB614FF48033FB6100233B6268
:100FBC000123BB6202237B634FF48033BB634FF48A
:100FCC00E013FB6307F11803184601F0D1F903464F
:100FDC00002B01D000F0CAF80F237B600223BB600A
:100FEC000023FB604FF480633B6100237B613B1D5E
:100FFC000221184601F03EFC0346002B01D000F004
:10100C00B5F800BF4037BD4680BD000080B500AFCD
:10101C00124B134A1A60114B124A5A600F4B0022A2
:10102C009A600E4B0022DA600C4B4FF480421A612E
:10103C000A4B00225A61094B00229A61074B00228D
:10104C00DA61064B00221A62044800F0F5FC0346F4
:10105C00002B01D000F08AF800BF80BD8400002076
:10106C0000580040A086010080B500AF174B184A0D
:10107C001A60164B4FF482725A60144B00229A601D
:10108C00124B0022DA60114B00221A610F4B012225
:10109C005A610E4B4FF400729A610C4B1822DA61B4
:1010AC000A4B00221A62094B00225A62074B00229B
:1010BC009A62064B0A22DA62044801F055FD034697
:1010CC00002B01D000F052F800BF80BDD8000020EA
:1010DC000030014080B588B000AF07F1100300224A
:1010EC001A605A609A60DA601E4B9B691D4A43F085
:1010FC00200393611B4B9B6903F02003FB60FB688F
:10110C00184B9B69174A43F008039361154B9B6975
:10111C0003F00803BB60BB68124B9B69114A43F098
:10112C00040393610F4B9B6903F004037B607B68A2
:10113C0001224FF400410C4800F066FC4FF40043D0
:10114C003B6101237B610023BB610223FB6107F13F
:10115C0010031946044800F0D3FA00BF2037BD46EF
:10116C0080BD00BF001002400008014080B400AFF9
:10117C0072B600BF00BFFDE780B485B000AF154B61
:10118C009B69144A43F001039361124B9B6903F072
:10119C000103BB60BB680F4BDB690E4A43F0805305
:1011AC00D3610C4BDB6903F080537B607B680A4B8B
:1011BC005B68FB60FB6823F0E063FB60FB6843F05B
:1011CC000073FB60044AFB68536000BF1437BD46D4
:1011DC0080BC7047001002400000014080B588B010
:1011EC0000AF786007F1100300221A605A609A6011
:1011FC00DA607B681B68164A934224D1154B9B69B5
:10120C00144A43F008039361124B9B6903F00803E3
:10121C00FB60FB684FF440633B6112237B6103234B
:10122C00FB6107F1100319460B4800F069FA094BF2
:10123C00DB69084A43F48003D361064BDB6903F492
:10124C008003BB60BB6800BF2037BD4680BD00BFBC
:10125C000058004000100240000C014080B58AB0DC
:10126C0000AF786007F1140300221A605A609A608C
:10127C00DA607B681B68224A93423DD1214B9B6903
:10128C00204A43F4805393611E4B9B6903F48053B3
:10129C003B613B691B4B9B691A4A43F00803936102
:1012AC00184B9B6903F00803FB60FB6828237B61E8
:1012BC000223BB6103233B6207F114031946124856
:1012CC0000F01EFA10237B610023BB610023FB613D
:1012DC0007F1140319460C4800F012FA0B4B5B682B
:1012EC007B627B6A43F0E0637B627B6A43F00103C1
:1012FC007B62064A7B6A536000BF2837BD4680BDBF
:10130C000030014000100240000C01400000014080
:10131C0080B400AF00BFFDE780B400AF00BFFDE7B5
:10132C0080B400AF00BFFDE780B400AF00BFFDE7A5
:10133C0080B400AF00BFFDE780B400AF00BFBD4676
:10134C0080BC704780B400AF00BFBD4680BC704706
:10135C0080B400AF00BFBD4680BC704780B500AF05
:10136C0000F0AAF800BF80BD80B586B000AF7860F1
:10137C00144A154BD31A7B617B693B61134B1B6879
:10138C00002B02D1114B124A1A60104B1A687B6861
:10139C0013443A699A4207D202F0BAF903460C2276
:1013AC001A604FF0FF3309E0084B1B68FB60074BDA
:1013BC001A687B681344054A1360FB681846183793
:1013CC00BD4680BD00500020000400003C01002000
:1013DC009002002080B400AF00BFBD4680BC7047B7
:1013EC00FFF7F8FF0B480C490C4A002302E0D458D5
:1013FC00C4500433C4188C42F9D3094A094C002355
:10140C0001E013600432A242FBD302F087F9FFF72C
:10141C0039FD7047000000205C00002010410008DE
:10142C005C0000208C020020FEE7000080B500AFBD
:10143C00084B1B68074A43F010031360032000F0AD
:10144C002BF90F2000F008F8FFF796FE0023184642
:10145C0080BD00BF0020024080B582B000AF786034
:10146C00124B1A68124B1B7819464FF47A73B3FB64
:10147C00F1F3B2FBF3F3184600F035F90346002BF9
:10148C0001D001230EE07B680F2B0AD8002279686B
:10149C004FF0FF3000F00BF9064A7B681360002315
:1014AC0000E0012318460837BD4680BD000000202F
:1014BC00080000200400002080B400AF054B1B780E
:1014CC001A46054B1B681344034A136000BFBD4604
:1014DC0080BC7047080000204001002080B400AFA1
:1014EC00024B1B681846BD4680BC7047400100206B
:1014FC0080B584B000AF7860FFF7F0FFB8607B6810
:10150C00FB60FB68B3F1FF3F05D00A4B1B781A4612
:10151C00FB681344FB6000BFFFF7E0FF0246BB68AB
:10152C00D31AFA689A42F7D800BF00BF1037BD46ED
:10153C0080BD00BF0800002080B485B000AF78608B
:10154C007B6803F00703FB600C4BDB68BB60BA687D
:10155C004FF6FF031340BB60FB681A02BB681343D2
:10156C0043F0BF6343F40033BB60044ABB68D360F1
:10157C0000BF1437BD4680BC704700BF00ED00E0D3
:10158C0080B400AF044BDB681B0A03F0070318465A
:10159C00BD4680BC704700BF00ED00E080B483B056
:1015AC0000AF03463960FB7197F90730002B0ADB5B
:1015BC003B68DAB20C4997F907301201D2B20B44EE
:1015CC0083F800230AE03B68DAB20849FB7903F0A0
:1015DC000F03043B1201D2B20B441A7600BF0C3736
:1015EC00BD4680BC704700BF00E100E000ED00E0AC
:1015FC0080B489B000AFF860B9607A60FB6803F022
:10160C000703FB61FB69C3F10703042B28BF042309
:10161C00BB61FB690433062B02D9FB69033B00E079
:10162C0000237B614FF0FF32BB6902FA03F3DA430C
:10163C00BB681A407B699A404FF0FF317B6901FA15
:10164C0003F3D9437B680B40134318462437BD463C
:10165C0080BC704780B582B000AF78607B68013B7E
:10166C00B3F1807F01D301230FE00A4A7B68013B71
:10167C0053600F214FF0FF30FFF790FF054B002216
:10168C009A60044B07221A60002318460837BD469F
:10169C0080BD00BF10E000E080B582B000AF786084
:1016AC007868FFF749FF00BF0837BD4680BD80B59D
:1016BC0086B000AF0346B9607A60FB7300237B6190
:1016CC00FFF75EFF78617A68B9687869FFF790FF79
:1016DC00024697F90F3011461846FFF75FFF00BF1F
:1016EC001837BD4680BD80B582B000AF7860786891
:1016FC00FFF7B0FF034618460837BD4680BD000013
:10170C0080B48BB000AF7860396000237B6200231B
:10171C003B6269E101227B6A02FA03F3FB613B68DD
:10172C001B68FA691340BB61BA69FB699A4240F0C5
:10173C0058813B685B689A4A93425ED0984A9342C0
:10174C0075D8984A934258D0964A93426FD8964A85
:10175C00934252D0944A934269D8944A93424CD0C3
:10176C00924A934263D8924A934246D0904A93420B
:10177C005DD8122B2AD8122B59D801A252F823F07B
:10178C0007180008E1170008F317000835180008BF
:10179C003B1800083B1800083B1800083B180008D1
:1017AC003B1800083B1800083B1800083B180008C1
:1017BC003B1800083B1800083B1800083B180008B1
:1017CC003B180008E9170008FD170008794A9342F6
:1017DC0013D02CE03B68DB683B6229E03B68DB689C
:1017EC0004333B6224E03B68DB6808333B621FE058
:1017FC003B68DB680C333B621AE03B689B68002B50
:10180C0002D104233B6213E03B689B68012B05D19A
:10181C0008233B627B68FA691A6109E008233B6282
:10182C007B68FA695A6103E000233B6200E000BF69
:10183C00BB69FF2B01D87B6801E07B6804337B61BB
:10184C00BB69FF2B02D87B6A9B0002E07B6A083BDA
:10185C009B003B617B691A680F213B6901FA03F31A
:10186C00DB431A40396A3B6901FA03F31A437B697B
:10187C001A603B685B6803F08053002B00F0B1806A
:10188C004D4B9B694C4A43F0010393614A4B9B6956
:10189C0003F00103BB60BB68484A7B6A9B080233B8
:1018AC0052F82330FB607B6A03F003039B000F228A
:1018BC0002FA03F3DB43FA681340FB607B68404A8F
:1018CC00934213D07B683F4A93420DD07B683E4ACB
:1018DC00934207D07B683D4A934201D1032306E033
:1018EC00042304E0022302E0012300E000237A6ACF
:1018FC0002F0030292009340FA681343FB602F49F5
:10190C007B6A9B080233FA6841F823203B685B68CA
:10191C0003F48013002B06D02D4B9A682C49BB691D
:10192C0013438B6006E02A4B9A68BB69DB4328495A
:10193C0013408B603B685B6803F40013002B06D0EC
:10194C00234BDA682249BB691343CB6006E0204B7A
:10195C00DA68BB69DB431E491340CB603B685B68AC
:10196C0003F40033002B06D0194B5A681849BB6995
:10197C0013434B6006E0164B5A68BB69DB431449B2
:10198C0013404B603B685B6803F48033002B21D021
:10199C000F4B1A680E49BB6913430B6021E000BF63
:1019AC000000321000003110000022100000211045
:1019BC000000121000001110001002400000014045
:1019CC0000080140000C01400010014000140140CF
:1019DC00000401400B4B1A68BB69DB4309491340F7
:1019EC000B607B6A01337B623B681A687B6A22FA64
:1019FC0003F3002B7FF48EAE00BF00BF2C37BD4627
:101A0C0080BC70470004014080B483B000AF7860A4
:101A1C000B467B8013467B707B78002B03D07A8837
:101A2C007B681A6103E07B881A047B681A6100BF2B
:101A3C000C37BD4680BC704780B584B000AF786071
:101A4C007B68002B01D101232BE17B6893F83D309F
:101A5C00DBB2002B06D17B68002283F83C2078682F
:101A6C00FFF7BCFB7B68242283F83D207B681B6856
:101A7C001A687B681B6822F001021A607B681B687D
:101A8C001A687B681B6842F400421A607B681B680A
:101A9C001A687B681B6822F400421A6001F032F865
:101AAC00F8607B685B68814A934207D8FB68804A80
:101ABC00934294BF01230023DBB206E0FB687D4A0E
:101ACC00934294BF01230023DBB2002B01D00123EE
:101ADC00E7E0FB68784AA2FB03239B0CBB607B68A6
:101AEC001B685B6823F03F017B681B68BA680A437C
:101AFC005A607B681B681B6A23F03F017B685B683C
:101B0C006A4A934202D8BB68013309E0BB684FF4C0
:101B1C00967202FB03F3694AA2FB03239B09013370
:101B2C007A6812680B4313627B681B68DB6923F4C9
:101B3C004F4222F0FF027B685B685C498B4219D8EC
:101B4C00FB68591E7B685B685B00B1FBF3F3591CA7
:101B5C0040F6FC730B40002B0AD0FB68591E7B68C7
:101B6C005B685B00B1FBF3F30133C3F30B0351E090
:101B7C0004234FE07B689B68002B11D1FB68581E37
:101B8C007B6859680B465B000B44B0FBF3F30133E5
:101B9C00C3F30B03002B0CBF01230023DBB212E0B9
:101BAC00FB68581E7B6859680B469B000B449900D8
:101BBC000B44B0FBF3F30133C3F30B03002B0CBF4B
:101BCC0001230023DBB2002B01D0012322E07B6830
:101BDC009B68002B0ED1FB68581E7B6859680B461E
:101BEC005B000B44B0FBF3F30133C3F30B0343F47F
:101BFC0000430FE0FB68581E7B6859680B469B003E
:101C0C000B4499000B44B0FBF3F30133C3F30B0308
:101C1C0043F44043796809681343CB617B681B68C4
:101C2C001B6823F0C0017B68DA697B681B6A1A4366
:101C3C007B681B680A431A607B681B689B6823F4EB
:101C4C00034323F0FF037A6811697A68D268114361
:101C5C007A6812680B4393607B681B68DB6823F01F
:101C6C00FF017B685A697B689B691A437B681B6818
:101C7C000A43DA607B681B681A687B681B6842F051
:101C8C0001021A607B6800221A647B68202283F8A8
:101C9C003D207B6800221A637B68002283F83E207B
:101CAC00002318461037BD4680BD00BFA08601003A
:101CBC007F841E00FF083D0083DE1B43D34D621062
:101CCC0080B588B002AFF8607A601A460B467B810B
:101CDC0013463B81FFF702FC7861FB6893F83D30BB
:101CEC00DBB2202B40F0E0807B69009319230122AA
:101CFC007049F86800F064F90346002B01D0022308
:101D0C00D3E0FB6893F83C30012B01D10223CCE0EB
:101D1C00FB68012283F83C20FB681B681B6803F0FE
:101D2C000103012B07D0FB681B681A68FB681B6852
:101D3C0042F001021A60FB681B681A68FB681B689A
:101D4C0022F400621A60FB68212283F83D20FB68B4
:101D5C00102283F83E20FB6800221A64FB687A6824
:101D6C005A62FB683A895A85FB685B8D9AB2FB68AC
:101D7C001A85FB68504ADA6279897B693A6AF86895
:101D8C0000F09CF80346002B01D001238DE00023CA
:101D9C003B61FB681B685B693B61FB681B689B696B
:101DAC003B613B6966E07A69396AF86800F022FAAF
:101DBC000346002B0DD0FB681B6C042B07D1FB6872
:101DCC001B681A68FB681B6842F400721A600123D6
:101DDC006BE0FB685B6A1A78FB681B681A61FB682E
:101DEC005B6A5A1CFB685A62FB685B8D9BB2013BB9
:101DFC009AB2FB685A85FB681B8D013B9AB2FB6853
:101E0C001A85FB681B685B6903F00403042B1BD168
:101E1C00FB681B8D002B17D0FB685B6A1A78FB687C
:101E2C001B681A61FB685B6A5A1CFB685A62FB6888
:101E3C005B8D9BB2013B9AB2FB685A85FB681B8D8C
:101E4C00013B9AB2FB681A857A69396AF86800F026
:101E5C0019FA0346002B0DD0FB681B6C042B07D121
:101E6C00FB681B681A68FB681B6842F400721A60F6
:101E7C0001231AE0FB681B8D002B94D1FB681B68B7
:101E8C001A68FB681B6842F400721A60FB68202217
:101E9C0083F83D20FB68002283F83E20FB6800227B
:101EAC0083F83C20002300E0022318461837BD4677
:101EBC0080BD00BF020010000000FFFF80B588B09D
:101ECC0002AFF8607A603B600B467B81FB68DB6A93
:101EDC007B617B69082B06D07B69012B03D07B6966
:101EEC0013F5803F08D1FB681B681A68FB681B68F8
:101EFC0042F480721A600BE0FB681B6B122B07D14B
:101F0C00FB681B681A68FB681B6842F480721A60D5
:101F1C003B6800937B6800224FF00111F86800F0D9
:101F2C004FF80346002B0DD0FB681B681B6803F4AD
:101F3C008073B3F5807F03D1FB684FF400721A6491
:101F4C00032335E0FB681B69B3F5804F08D17B890F
:101F5C00DBB21A46FB681B6802F0FE021A611BE03A
:101F6C007B89DB11DBB203F00603DBB263F00F03FA
:101F7C00DAB2FB681B681A613B687A680E49F8682C
:101F8C0000F098F80346002B01D0012310E07B8968
:101F9C00DAB2FB681B681A613B687A680749F86813
:101FAC0000F088F80346002B01D0012300E0002349
:101FBC0018461837BD4680BD08000100020001001C
:101FCC0080B584B000AFF860B9603B601346FB711C
:101FDC0048E03B68B3F1FF3F44D0FFF77FFA02467D
:101FEC00BB69D31A3A689A4202D33B68002B39D1A9
:101FFC00BB681B0CDBB2012B0DD1FB681B685B694A
:10200C00DA43BB6813409BB2002B0CBF01230023A7
:10201C00DBB21A460CE0FB681B689B69DA43BB68B1
:10202C0013409BB2002B0CBF01230023DBB21A46DA
:10203C00FB799A4216D1FB6800221A63FB682022B6
:10204C0083F83D20FB68002283F83E20FB681B6C64
:10205C0043F02002FB681A64FB68002283F83C20E2
:10206C00012323E0BB681B0CDBB2012B0DD1FB68F9
:10207C001B685B69DA43BB6813409BB2002B0CBF37
:10208C0001230023DBB21A460CE0FB681B689B693A
:10209C00DA43BB6813409BB2002B0CBF0123002317
:1020AC00DBB21A46FB799A4293D0002318461037BC
:1020BC00BD4680BD80B584B000AFF860B9607A6071
:1020CC003B6071E0FB681B685B6903F48063B3F5EC
:1020DC00806F23D1FB681B681A68FB681B6842F48D
:1020EC0000721A60FB681B686FF480625A61FB68AF
:1020FC0000221A63FB68202283F83D20FB68002233
:10210C0083F83E20FB681B6C43F00402FB681A64E6
:10211C00FB68002283F83C20012367E07B68B3F165
:10212C00FF3F41D0FFF7DAF902463B68D31A7A68D1
:10213C009A4202D37B68002B36D1BB681B0CDBB2F6
:10214C00012B0CD1FB681B685B69DA43BB6813403D
:10215C009BB2002B14BF01230023DBB20BE0FB6806
:10216C001B689B69DA43BB6813409BB2002B14BFFE
:10217C0001230023DBB2002B16D0FB6800221A636C
:10218C00FB68202283F83D20FB68002283F83E2068
:10219C00FB681B6C43F02002FB681A64FB6800228E
:1021AC0083F83C20012321E0BB681B0CDBB2012B24
:1021BC000CD1FB681B685B69DA43BB6813409BB2AC
:1021CC00002B14BF01230023DBB20BE0FB681B6860
:1021DC009B69DA43BB6813409BB2002B14BF0123ED
:1021EC000023DBB2002B7FF46DAF002318461037B1
:1021FC00BD4680BD80B584B000AFF860B9607A6030
:10220C0034E0F86800F086F80346002B01D0012377
:10221C0034E0BB68B3F1FF3F28D0FFF75FF902460B
:10222C007B68D31ABA689A4202D3BB68002B1DD1C3
:10223C00FB681B685B6903F08003802B16D0FB687E
:10224C0000221A63FB68202283F83D20FB680022E1
:10225C0083F83E20FB681B6C43F02002FB681A6479
:10226C00FB68002283F83C20012307E0FB681B6815
:10227C005B6903F08003802BC3D100231846103711
:10228C00BD4680BD80B584B000AFF860B9607A609F
:10229C0034E0F86800F03EF80346002B01D001232F
:1022AC0034E0BB68B3F1FF3F28D0FFF717F90246C3
:1022BC007B68D31ABA689A4202D3BB68002B1DD133
:1022CC00FB681B685B6903F00403042B16D0FB68E6
:1022DC0000221A63FB68202283F83D20FB68002251
:1022EC0083F83E20FB681B6C43F02002FB681A64E9
:1022FC00FB68002283F83C20012307E0FB681B6885
:10230C005B6903F00403042BC3D100231846103778
:10231C00BD4680BD80B483B000AF78607B681B681D
:10232C005B6903F48063B3F5806F1BD17B681B681A
:10233C006FF480625A617B6800221A637B682022EA
:10234C0083F83D207B68002283F83E207B681B6C61
:10235C0043F004027B681A647B68002283F83C20FB
:10236C00012300E0002318460C37BD4680BC7047A3
:10237C0080B586B000AF78607B68002B01D101235B
:10238C0072E27B681B6803F00103002B00F087806E
:10239C00924B5B6803F00C03042B0CD08F4B5B68E7
:1023AC0003F00C03082B12D18C4B5B6803F48033C5
:1023BC00B3F5803F0BD1894B1B6803F40033002B22
:1023CC006CD07B685B68002B68D101234CE27B6886
:1023DC005B68B3F5803F06D1804B1B687F4A43F4A2
:1023EC00803313602EE07B685B68002B0CD17B4B39
:1023FC001B687A4A23F480331360784B1B68774A46
:10240C0023F4802313601DE07B685B68B3F5A02F79
:10241C000CD1724B1B68714A43F4802313606F4BD1
:10242C001B686E4A43F4803313600BE06B4B1B68E4
:10243C006A4A23F480331360684B1B68674A23F4A1
:10244C00802313607B685B68002B13D0FFF746F882
:10245C00386108E0FFF742F802463B69D31A642B57
:10246C0001D9032300E25D4B1B6803F40033002BFE
:10247C00F0D014E0FFF732F8386108E0FFF72EF8DF
:10248C0002463B69D31A642B01D90323ECE1534B6D
:10249C001B6803F40033002BF0D100E000BF7B6815
:1024AC001B6803F00203002B63D04C4B5B6803F0FA
:1024BC000C03002B0BD0494B5B6803F00C03082B6F
:1024CC001CD1464B5B6803F48033002B16D1434B75
:1024DC001B6803F00203002B05D07B681B69012BE2
:1024EC0001D00123C0E13D4B1B6823F0F8027B684F
:1024FC005B69DB00394913430B603AE07B681B696D
:10250C00002B20D0364B01221A60FEF7E7FF386112
:10251C0008E0FEF7E3FF02463B69D31A022B01D910
:10252C000323A1E12D4B1B6803F00203002BF0D019
:10253C002A4B1B6823F0F8027B685B69DB00274998
:10254C0013430B6015E0264B00221A60FEF7C6FF02
:10255C00386108E0FEF7C2FF02463B69D31A022B32
:10256C0001D9032380E11D4B1B6803F00203002BF0
:10257C00F0D17B681B6803F00803002B3AD07B6812
:10258C009B69002B19D0174B01221A60FEF7A6FF8E
:10259C00386108E0FEF7A2FF02463B69D31A022B12
:1025AC0001D9032360E10D4B5B6A03F00203002B9E
:1025BC00F0D0012000F0BAFA1CE00A4B00221A609D
:1025CC00FEF78CFF38610FE0FEF788FF02463B698F
:1025DC00D31A022B08D9032346E100BF0010024096
:1025EC000000424280044242924B5B6A03F00203B9
:1025FC00002BE9D17B681B6803F00403002B00F06F
:10260C00A6800023FB758B4BDB6903F08053002BFA
:10261C000DD1884BDB69874A43F08053D361854BDE
:10262C00DB6903F08053BB60BB680123FB75824BF5
:10263C001B6803F48073002B18D17F4B1B687E4AF8
:10264C0043F480731360FEF749FF386108E0FEF72E
:10265C0045FF02463B69D31A642B01D9032303E1DE
:10266C00754B1B6803F48073002BF0D07B68DB6820
:10267C00012B06D16F4B1B6A6E4A43F001031362A8
:10268C002DE07B68DB68002B0CD16A4B1B6A694A16
:10269C0023F001031362674B1B6A664A23F00403A1
:1026AC0013621CE07B68DB68052B0CD1614B1B6A49
:1026BC00604A43F0040313625E4B1B6A5D4A43F0AD
:1026CC00010313620BE05B4B1B6A5A4A23F00103B4
:1026DC001362584B1B6A574A23F0040313627B683E
:1026EC00DB68002B15D0FEF7F9FE38610AE0FEF727
:1026FC00F5FE02463B69D31A41F28832934201D966
:10270C000323B1E04B4B1B6A03F00203002BEED00A
:10271C0014E0FEF7E3FE38610AE0FEF7DFFE024646
:10272C003B69D31A41F28832934201D903239BE0CF
:10273C00404B1B6A03F00203002BEED1FB7D012BF7
:10274C0005D13C4BDB693B4A23F08053D3617B685A
:10275C00DB69002B00F08780364B5B6803F00C03C1
:10276C00082B61D07B68DB69022B46D1334B0022EE
:10277C001A60FEF7B3FE386108E0FEF7AFFE0246C2
:10278C003B69D31A022B01D903236DE0294B1B683B
:10279C0003F00073002BF0D17B681B6AB3F5803F0C
:1027AC0008D1244B5B6823F400327B689B68214979
:1027BC0013434B601F4B5B6823F474127B68196ADC
:1027CC007B685B6A0B431B4913434B601B4B012219
:1027DC001A60FEF783FE386108E0FEF77FFE0246C2
:1027EC003B69D31A022B01D903233DE0114B1B6823
:1027FC0003F00073002BF0D035E0104B00221A6070
:10280C00FEF76CFE386108E0FEF768FE02463B6995
:10281C00D31A022B01D9032326E0064B1B6803F0C5
:10282C000073002BF0D11EE07B68DB69012B07D114
:10283C00012319E000100240007000406000424289
:10284C000B4B5B68FB60FB6803F480327B681B6A94
:10285C009A4206D1FB6803F470127B685B6A9A4259
:10286C0001D0012300E0002318461837BD4680BD77
:10287C000010024080B584B000AF786039607B688E
:10288C00002B01D10123D0E06A4B1B6803F0070336
:10289C003A689A4210D9674B1B6823F007026549C6
:1028AC003B6813430B60634B1B6803F007033A68E8
:1028BC009A4201D00123B8E07B681B6803F0020345
:1028CC00002B20D07B681B6803F00403002B05D081
:1028DC00594B5B68584A43F4E06353607B681B6850
:1028EC0003F00803002B05D0534B5B68524A43F4AA
:1028FC0060535360504B5B6823F0F0027B689B681D
:10290C004D4913434B607B681B6803F00103002B9C
:10291C0040D07B685B68012B07D1474B1B6803F4E5
:10292C000033002B15D101237FE07B685B68022B01
:10293C0007D1414B1B6803F00073002B09D1012315
:10294C0073E03D4B1B6803F00203002B01D1012304
:10295C006BE0394B5B6823F003027B685B6836499C
:10296C0013434B60FEF7BAFDF8600AE0FEF7B6FDC4
:10297C000246FB68D31A41F28832934201D90323F1
:10298C0053E02D4B5B6803F00C027B685B689B008B
:10299C009A42EBD1274B1B6803F007033A689A4223
:1029AC0010D2244B1B6823F0070222493B681343C7
:1029BC000B60204B1B6803F007033A689A4201D066
:1029CC00012332E07B681B6803F00403002B08D062
:1029DC00194B5B6823F4E0627B68DB681649134390
:1029EC004B607B681B6803F00803002B09D0124B6B
:1029FC005B6823F460527B681B69DB000E49134350
:102A0C004B6000F021F802460B4B5B681B0903F08E
:102A1C000F030A49CB5C22FA03F3094A1360094BF2
:102A2C001B681846FEF718FD002318461037BD46E4
:102A3C0080BD00BF0020024000100240A8400008EA
:102A4C00000000200400002080B487B000AF0023F9
:102A5C00FB600023BB6000237B6100237B600023B1
:102A6C003B611E4B5B68FB60FB6803F00C03042BA3
:102A7C0002D0082B03D027E0194B3B6127E0FB6801
:102A8C009B0C03F00F03174AD35C7B60FB6803F4C9
:102A9C008033002B10D0114B5B685B0C03F00103EF
:102AAC00114AD35CBB607B680D4A03FB02F2BB6826
:102ABC00B2FBF3F37B6104E07B680C4A02FB03F38B
:102ACC007B617B693B6102E0054B3B6100BF3B696D
:102ADC0018461C37BD4680BC704700BF0010024032
:102AEC0000127A00C0400008D040000800093D00E8
:102AFC0080B400AF024B1B681846BD4680BC7047C3
:102B0C000000002080B500AFFFF7F2FF0246054B36
:102B1C005B681B0A03F007030349CB5C22FA03F33F
:102B2C00184680BD00100240B840000880B485B043
:102B3C0000AF78600A4B1B680A4AA2FB03235B0AAE
:102B4C007A6802FB03F3FB6000BFFB685A1EFA6055
:102B5C00002BF9D100BF00BF1437BD4680BC7047B5
:102B6C0000000020D34D621080B582B000AF7860B9
:102B7C007B68002B01D1012376E07B685B6A002B1C
:102B8C0008D17B685B68B3F5827F09D07B68002233
:102B9C00DA6105E07B6800221A617B6800225A61C9
:102BAC007B6800229A627B6893F85130DBB2002B71
:102BBC0006D17B68002283F850207868FEF74EFB24
:102BCC007B68022283F851207B681B681A687B683B
:102BDC001B6822F040021A607B685B6803F4827207
:102BEC007B689B6803F404431A437B68DB6803F43B
:102BFC0000631A437B681B6903F002031A437B686A
:102C0C005B6903F001031A437B689B6903F400734F
:102C1C001A437B68DB6903F038031A437B681B6A31
:102C2C0003F0800342EA03017B689B6A03F40052C1
:102C3C007B681B680A431A607B689B691A0C7B686B
:102C4C001B6802F004025A607B681B68DA697B68B7
:102C5C001B6822F40062DA617B6800225A657B688B
:102C6C00012283F85120002318460837BD4680BD49
:102C7C0080B588B000AFF860B9603B601346FB804C
:102C8C00FEF72CFCF861FB887B83FB6893F85130D2
:102C9C00DBB2012B01D002232AE1BB68002B02D04E
:102CAC00FB88002B01D1012322E1FB6893F8503003
:102CBC00012B01D102231BE1FB68012283F8502078
:102CCC00FB68032283F85120FB6800225A65FB68DD
:102CDC00BA681A63FB68FA889A86FB68FA88DA86FF
:102CEC00FB6800229A63FB6800229A87FB6800222B
:102CFC00DA87FB6800225A64FB6800221A64FB68BE
:102D0C009B68B3F5004F0FD1FB681B681A68FB6812
:102D1C001B6822F040021A60FB681B681A68FB688B
:102D2C001B6842F480421A60FB681B681B6803F046
:102D3C004003402B07D0FB681B681A68FB681B68B4
:102D4C0042F040021A60FB68DB68B3F5006F52D1A9
:102D5C00FB685B68002B02D07B8B012B45D1FB6899
:102D6C001B6B1A88FB681B68DA60FB681B6B9A1C70
:102D7C00FB681A63FB68DB8E9BB2013B9AB2FB6863
:102D8C00DA8632E0FB681B689B6803F00203022BB7
:102D9C0012D1FB681B6B1A88FB681B68DA60FB6836
:102DAC001B6B9A1CFB681A63FB68DB8E9BB2013BA6
:102DBC009AB2FB68DA8618E0FEF790FB0246FB69D4
:102DCC00D31A3A689A4203D83B68B3F1FF3F02D159
:102DDC003B68002B09D1FB68012283F85120FB686A
:102DEC00002283F85020032382E0FB68DB8E9BB229
:102DFC00002BC7D153E0FB685B68002B02D07B8BA8
:102E0C00012B47D1FB681A6BFB681B680C331278DB
:102E1C001A70FB681B6B5A1CFB681A63FB68DB8E11
:102E2C009BB2013B9AB2FB68DA8633E0FB681B6805
:102E3C009B6803F00203022B13D1FB681A6BFB682F
:102E4C001B680C3312781A70FB681B6B5A1CFB68DE
:102E5C001A63FB68DB8E9BB2013B9AB2FB68DA8685
:102E6C0018E0FEF73BFB0246FB69D31A3A689A421C
:102E7C0003D83B68B3F1FF3F02D13B68002B09D16B
:102E8C00FB68012283F85120FB68002283F8502054
:102E9C0003232DE0FB68DB8E9BB2002BC6D1FA69B5
:102EAC003968F86800F0C4FB0346002B02D0FB68BD
:102EBC0020225A65FB689B68002B0AD100237B619A
:102ECC00FB681B68DB687B61FB681B689B687B612C
:102EDC007B69FB68012283F85120FB68002283F890
:102EEC005020FB685B6D002B01D0012300E0002318
:102EFC0018462037BD4680BD80B588B002AFF8605B
:102F0C00B9603B601346FB80FB6893F85130DBB231
:102F1C00012B01D0022304E1FB685B68B3F5827FCF
:102F2C0012D1FB689B68002B0ED1FB68042283F83E
:102F3C005120FA883B6800931346BA68B968F86860
:102F4C0000F0F3F80346ECE0FEF7C8FA7861BB68D2
:102F5C00002B02D0FB88002B01D10123E1E0FB68A0
:102F6C0093F85030012B01D10223DAE0FB680122E7
:102F7C0083F85020FB68042283F85120FB68002260
:102F8C005A65FB68BA689A63FB68FA889A87FB688B
:102F9C00FA88DA87FB6800221A63FB6800229A869B
:102FAC00FB680022DA86FB6800221A64FB680022A8
:102FBC005A64FB689B68B3F5004F0FD1FB681B6824
:102FCC001A68FB681B6822F040021A60FB681B68D9
:102FDC001A68FB681B6822F480421A60FB681B6845
:102FEC001B6803F04003402B07D0FB681B681A6872
:102FFC00FB681B6842F040021A60FB68DB68002B20
:10300C0070D135E0FB681B689B6803F00103012B52
:10301C0015D1FB681B6803F10C02FB689B6B1278E3
:10302C00D2B21A70FB689B6B5A1CFB689A63FB68E4
:10303C00DB8F9BB2013B9AB2FB68DA8718E0FEF794
:10304C004DFA02467B69D31A3A689A4203D83B6818
:10305C00B3F1FF3F02D13B68002B09D1FB68012281
:10306C0083F85120FB68002283F85020032358E09A
:10307C00FB68DB8F9BB2002BC4D138E0FB681B686C
:10308C009B6803F00103012B13D1FB681B68DA6802
:10309C00FB689B6B92B21A80FB689B6B9A1CFB685B
:1030AC009A63FB68DB8F9BB2013B9AB2FB68DA87B1
:1030BC0018E0FEF713FA02467B69D31A3A689A4273
:1030CC0003D83B68B3F1FF3F02D13B68002B09D119
:1030DC00FB68012283F85120FB68002283F8502002
:1030EC0003231EE0FB68DB8F9BB2002BC6D17A69F1
:1030FC003968F86800F04AFA0346002B02D0FB68E6
:10310C0020225A65FB68012283F85120FB680022BB
:10311C0083F85020FB685B6D002B01D0012300E08D
:10312C00002318461837BD4680BD80B58AB000AF65
:10313C00F860B9607A607B8001237B62FEF7CEF980
:10314C003862FB6893F85130FB77FB685B68BB61B6
:10315C007B88FB82FB7F012B0CD0BB69B3F5827F94
:10316C0006D1FB689B68002B02D1FB7F042B01D09E
:10317C0002237FE1BB68002B05D07B68002B02D0BB
:10318C007B88002B01D1012374E1FB6893F850304C
:10319C00012B01D102236DE1FB68012283F8502041
:1031AC00FB6893F85130DBB2042B03D0FB6805228B
:1031BC0083F85120FB6800225A65FB687A689A6391
:1031CC00FB687A88DA87FB687A889A87FB68BA6822
:1031DC001A63FB687A88DA86FB687A889A86FB68B9
:1031EC0000221A64FB6800225A64FB681B681B6887
:1031FC0003F04003402B07D0FB681B681A68FB6880
:10320C001B6842F040021A60FB68DB68B3F5006F84
:10321C007ED1FB685B68002B02D0FB8A012B6CD142
:10322C00FB681B6B1A88FB681B68DA60FB681B6BFE
:10323C009A1CFB681A63FB68DB8E9BB2013B9AB24B
:10324C00FB68DA8659E0FB681B689B6803F0020395
:10325C00022B1BD1FB68DB8E9BB2002B16D07B6A3A
:10326C00012B13D1FB681B6B1A88FB681B68DA6097
:10327C00FB681B6B9A1CFB681A63FB68DB8E9BB2AA
:10328C00013B9AB2FB68DA8600237B62FB681B6801
:10329C009B6803F00103012B19D1FB68DB8F9BB2F8
:1032AC00002B14D0FB681B68DA68FB689B6B92B22E
:1032BC001A80FB689B6B9A1CFB689A63FB68DB8F1C
:1032CC009BB2013B9AB2FB68DA8701237B62FEF763
:1032DC0005F902463B6AD31A3A6B9A420DD83B6BFE
:1032EC00B3F1FF3F09D0FB68012283F85120FB6842
:1032FC00002283F850200323BCE0FB68DB8E9BB2DA
:10330C00002BA0D1FB68DB8F9BB2002B9BD182E002
:10331C00FB685B68002B02D0FB8A012B71D1FB6828
:10332C001A6BFB681B680C3312781A70FB681B6BEA
:10333C005A1CFB681A63FB68DB8E9BB2013B9AB28A
:10334C00FB68DA865DE0FB681B689B6803F0020390
:10335C00022B1CD1FB68DB8E9BB2002B17D07B6A37
:10336C00012B14D1FB681A6BFB681B680C331278A9
:10337C001A70FB681B6B5A1CFB681A63FB68DB8EAC
:10338C009BB2013B9AB2FB68DA8600237B62FB6836
:10339C001B689B6803F00103012B19D1FB68DB8FC1
:1033AC009BB2002B14D0FB681B68DA68FB689B6B24
:1033BC00D2B21A70FB689B6B5A1CFB689A63FB6851
:1033CC00DB8F9BB2013B9AB2FB68DA8701237B62ED
:1033DC00FEF784F802463B6AD31A3A6B9A4203D83A
:1033EC003B6BB3F1FF3F02D13B6B002B09D1FB6868
:1033FC00012283F85120FB68002283F8502003231C
:10340C0038E0FB68DB8E9BB2002B9CD1FB68DB8F1A
:10341C009BB2002B97D13A6A396BF86800F008F927
:10342C000346002B08D0FB6820225A65FB6800225B
:10343C0083F8502001231DE0FB689B68002B0AD108
:10344C0000233B61FB681B68DB683B61FB681B6806
:10345C009B683B613B69FB68012283F85120FB6848
:10346C00002283F85020FB685B6D002B01D00123F8
:10347C0000E0002318462837BD4680BD80B588B0D3
:10348C0000AFF860B9603B601346FB71FEF726F89D
:10349C000246BB6A9B1A3A681344FB61FEF71EF89E
:1034AC00B861394B1B685B011B0DFA6902FB03F316
:1034BC007B6154E03B68B3F1FF3F50D0FEF70EF850
:1034CC000246BB69D31AFA699A4202D9FB69002BEE
:1034DC003DD1FB681B685A68FB681B6822F0E00250
:1034EC005A60FB685B68B3F5827F11D1FB689B68FF
:1034FC00B3F5004F04D0FB689B68B3F5806F07D120
:10350C00FB681B681A68FB681B6822F040021A6093
:10351C00FB689B6AB3F5005F0FD1FB681B681A68E8
:10352C00FB681B6822F400521A60FB681B681A685F
:10353C00FB681B6842F400521A60FB68012283F896
:10354C005120FB68002283F85020032317E07B698D
:10355C00002B01D10023FB617B69013B7B61FB6884
:10356C001B689A68BB681340BA689A420CBF012367
:10357C000023DBB21A46FB799A429BD100231846F2
:10358C002037BD4680BD00BF0000002080B586B04E
:10359C0002AFF860B9607A60FB685B68B3F5827F54
:1035AC0011D1FB689B68B3F5004F04D0FB689B6896
:1035BC00B3F5806F07D1FB681B681A68FB681B6842
:1035CC0022F040021A60FB685B68B3F5827F17D16A
:1035DC00FB689B68B3F5806F12D17B680093BB6866
:1035EC0000220121F868FFF749FF0346002B1AD08F
:1035FC00FB685B6D43F02002FB685A65032313E004
:10360C007B680093BB6800228021F868FFF736FFC7
:10361C000346002B07D0FB685B6D43F02002FB6870
:10362C005A65032300E0002318461037BD4680BDC1
:10363C0080B586B002AFF860B9607A607B680093A1
:10364C00BB6801220221F868FFF718FF0346002B24
:10365C0007D0FB685B6D43F02002FB685A650323BF
:10366C0013E07B680093BB6800228021F868FFF7A9
:10367C0005FF0346002B07D0FB685B6D43F020026F
:10368C00FB685A65032300E0002318461037BD463B
:10369C0080BD00000CB430B5184B0C1E1D689DB0DD
:1036AC0008DA8B234FF0FF302B601DB0BDE83040A3
:1036BC0002B070474FF40273ADF814304FF00003B2
:1036CC001B930CBF234604F1FF33049307934FF66F
:1036DC00FF7302900690ADF81630284621AB209A65
:1036EC0002A9019300F092F9431CBCBF8B232B6001
:1036FC00002CDAD00022029B1A70D6E70C000020B6
:10370C0003460244934200D1704703F8011BF9E7CA
:10371C00014B1868704700BF0C00002070B50026E4
:10372C000C4D0D4C641BA410A64209D100F076FC84
:10373C0000260A4D0A4C641BA410A64205D170BD8C
:10374C0055F8043B98470136EEE755F8043B98478B
:10375C000136F2E70841000808410008084100085A
:10376C000C4100087047704738B50546002940D019
:10377C0051F8043C0C1F002BB8BFE41800F0DEF825
:10378C001C4A136833B9636014602846BDE838409E
:10379C0000F0DAB8A34208D9206821188B4201BF87
:1037AC0019685B6809182160EDE71A465B680BB174
:1037BC00A342FAD911685018A0420BD120680144D9
:1037CC00501883421160E0D118685B68084410609F
:1037DC005360DAE702D90C232B60D6E72068211856
:1037EC008B4201BF19685B680918216063605460E3
:1037FC00CBE738BD8802002070B50F4E0C463168FF
:10380C00054611B900F0A8FB30602146284600F0AF
:10381C00A3FB431C03D14FF0FF34204670BDC41CE6
:10382C0024F00304A042F8D0211A284600F094FB9F
:10383C000130F2D1EFE700BF840200202DE9F843FC
:10384C00CD1C25F0030508350C2D38BF0C25002D9B
:10385C00064601DBA94204D90C2333600020BDE8E5
:10386C00F883DFF8D48000F069F8D8F800301C46F3
:10387C0044BB29463046FFF7BFFF431C044658D1D2
:10388C00D8F800402746002F43D1002C4BD023689A
:10389C003946304604EB030900F05EFB814542D10A
:1038AC00216830466D1A2946FFF7A6FF01303AD041
:1038BC0023682B442360D8F800305A6862BBC8F8E0
:1038CC0000700FE02268521B20D40B2A17D9611903
:1038DC00A342256018BF5960636808BFC8F8001080
:1038EC0062514B60304600F02FF804F10B00231DA1
:1038FC0020F00700C21A1CBF1B1AA350AFE7626866
:10390C00A3420CBFC8F800205A60EBE7234664685A
:10391C00AEE73C467F68B6E71A465B68A342FBD12C
:10392C0000235360DEE70C233046336000F00CF8C4
:10393C0094E70560D6E700BF880200200148FFF736
:10394C0011BF00BF800200200148FFF70CBF00BF71
:10395C00800200202DE9F0471F468E688246BE4249
:10396C000C4690460B682DD8B1F90C2012F4906FD0
:10397C0026D06569096905EB4505A3EB010905EB43
:10398C00D5757B1C4B446D109D4238BF1D465305AD
:10399C0027D52946FFF752FF064660B34A462169F0
:1039AC0000F0F8FAA38923F4906343F08003A38119
:1039BC0026614E4426603E466561A5EB0905A5606F
:1039CC00BE4200D93E4632464146206800F0AAFA73
:1039DC000020A3689B1BA360236833442360BDE8CD
:1039EC00F0872A4600F0E4FA06460028E0D150465B
:1039FC002169FFF7B9FE0C23CAF80030A3894FF0F8
:103A0C00FF3043F04003A381E9E700002DE9F04FBC
:103A1C0098468B8907461B060D4614469DB010D55B
:103A2C000B6973B94021FFF709FF2860286130B991
:103A3C000C233B604FF0FF301DB0BDE8F08F4023EE
:103A4C006B610023099320238DF8293030234FF02C
:103A5C000109CDF80C80DFF898818DF82A302346C7
:103A6C009A4613F8012B0AB1252AF9D1BAEB040BAB
:103A7C000BD05B46224629463846FFF76BFF0130D8
:103A8C0000F0A780099A5A4409929AF80030002B4A
:103A9C0000F09F8000234FF0FF32CDE905230AF19F
:103AAC00010A049307938DF853301A935446052258
:103ABC0014F8011B4E4800F05FFA049AD8B9D006EE
:103ACC0044BF20238DF85330110744BF2B238DF8AE
:103ADC0053309AF800302A2B15D0544600204FF062
:103AEC000A0C079A214611F8013B303B092B4BD9A4
:103AFC00B0B1079214E0A0EB080309FA03F31343E7
:103B0C00A2460493D2E7039B191D1B680391002B5B
:103B1C00BBBF5B4242F0020207930793B8BF04920B
:103B2C0023782E2B0AD163782A2B32D1039B0234B3
:103B3C001A1D1B68039243EAE3730593DFF8B4A0E4
:103B4C0003225046217800F017FA38B14022049B2A
:103B5C00A0EB0A00824013430134049314F8011BB8
:103B6C00062225488DF8281000F006FA002836D0D9
:103B7C00224B1BBB039B073323F007030833039330
:103B8C00099B334409936AE70C4601200CFB023273
:103B9C00A8E700234FF00A0C194601340593204680
:103BAC0010F8012B303A092A03D9002BC6D0059105
:103BBC00C4E7044601230CFB0121F0E703AB00939F
:103BCC002A4638460E4B04A9AFF30080421C064629
:103BDC00D6D1AB895B063FF52DAF09982CE703AB2B
:103BEC0000932A463846064B04A900F07DF8EDE711
:103BFC00D2400008D8400008DC400008000000005B
:103C0C00613900082DE9F047164698468A680B6919
:103C1C0007469342B8BF1346336091F843200C46D5
:103C2C00DDF820900AB1013333602368990642BF56
:103C3C00336802333360256815F0060506D104F1AC
:103C4C00190AE36832689B1AAB422BDC94F84330B8
:103C5C002268003B18BF0123920630D441463846F7
:103C6C0004F14302C847013023D02368226903F0D2
:103C7C000603042B14BF002533684FF0000608BF61
:103C8C00E56804F11A0408BFED1A54F8123C08BF99
:103C9C0025EAE5759342C4BF9B1AED18B5421AD1BB
:103CAC00002008E00123524641463846C8470130FF
:103CBC0003D14FF0FF30BDE8F0870135C1E730206C
:103CCC00E11881F843005A1C94F845102244023341
:103CDC0082F84310C2E70123224641463846C847C2
:103CEC000130E6D00136D9E72DE9FF470F7E91462A
:103CFC00782F80460C469A460C9E01F1430207D859
:103D0C00622F0AD8002F00F0D180582F00F0B88015
:103D1C0004F1420684F842703AE0A7F16303152BD4
:103D2C00F6D801A151F823F08D3D0008A13D000803
:103D3C001D3D00081D3D00081D3D00081D3D0008EF
:103D4C00A13D00081D3D00081D3D00081D3D00085B
:103D5C001D3D00089F3E0008CB3D0008593E000861
:103D6C001D3D00081D3D0008C13E00081D3D00081A
:103D7C00CB3D00081D3D00081D3D0008613E0008BC
:103D8C0033681A1D1B68326004F1420684F8423015
:103D9C0001239CE033682068191D3160060601D5AB
:103DAC001D6803E04506FBD5B3F90050002D03DA7E
:103DBC002D236D4284F843300A23584811E02168C2
:103DCC003368080653F8045B02D4490648BFADB209
:103DDC006F2F336014BF0A2308235048002184F846
:103DEC0043106668002EA66005DB21682E4321F087
:103DFC00040121604BD01646B5FBF3F103FB1157C0
:103E0C00C75D06F8017D2F46BB420D46F4D9082B41
:103E1C000BD12368DF0708D5236961689942DEBF9F
:103E2C00302306F8013C06F1FF36921B22614B460B
:103E3C0021464046CDF800A003AAFFF7E3FE01306F
:103E4C004AD14FF0FF3004B0BDE8F087236843F04F
:103E5C00200323607827324884F845702368316842
:103E6C001F0651F8045B02D45F0648BFADB2316047
:103E7C00D90744BF43F0200323601DB11023ADE7E5
:103E8C002648E9E7236823F020032360F6E716466B
:103E9C00BDE733682568181D616930602E061B6804
:103EAC0001D5196002E06806FBD51980002316467F
:103EBC002361BCE7336800211A1D32601E686268FA
:103ECC00304600F059F808B1801B606063682361CC
:103EDC00002384F84330AAE732464946404623691A
:103EEC00D0470130ADD023689B0713D4E068039B07
:103EFC009842B8BF1846A6E70123324649464046C9
:103F0C00D04701309DD00135E36803995B1AAB4271
:103F1C00F2DCEBE7002504F11906F5E7E3400008B5
:103F2C00F4400008884210B501EB020402D9844227
:103F3C00234607D8431EA14208D011F8012B03F8E1
:103F4C00012FF8E7014602448A4200D110BD13F854
:103F5C00014D02F8014DF7E738B50023054D044635
:103F6C0008462B60FDF700FA431C02D12B6803B105
:103F7C00236038BD7C020020034610B5C9B2024450
:103F8C009342184601D1002003E0047801338C429F
:103F9C00F6D110BD0A44914200F1FF3300D17047B5
:103FAC0010B511F8014B914203F8014FF9D110BD36
:103FBC002DE9F041074614460D4621B91146BDE8DE
:103FCC00F041FFF73BBC2AB9FFF7CEFB254628464C
:103FDC00BDE8F08100F01AF88442064602D8B4EB32
:103FEC00500FF4D821463846FFF728FC804608B914
:103FFC004546ECE7B4422246294628BF3246FFF735
:10400C00C9FF29463846FFF7AFFBF1E751F8043CEE
:10401C00181F002BBCBF0B58C0187047F8B500BF59
:10402C00F8BC08BC9E467047F8B500BFF8BC08BC8D
:04403C009E467047E5
:10404000256400003D3D3D204D4158333138353623
:10405000203D3D3D000000004661756C743A204FE4
:1040600070656E5769726520000000004661756CCE
:10407000743A204861726477617265200000000024
:1040800054656D703A2020202020202043202020DD
:10409000000000004F7574206F662052616E6765E6
:1040A000212020200000000000000000000000008F
:1040B00001020304060708090000000001020304CE
:1040C00002030405060708090A0B0C0D0E0F101059
:1040D0000102232D302B2000686C4C00656667457B
:1040E0004647003031323334353637383941424370
:1040F0004445460030313233343536373839616221
:08410000636465660000000025
:044108003101000879
:04410C000D01000899
:1041100000127A00100000000100000010000020D2
:104120000000000044010020AC0100201402002027
:10413000000000000000000000000000000000007F
:10414000000000000000000000000000000000006F
:10415000000000000000000000000000000000005F
:0C41600000000000000000000000000053
:04000005080013EDEF
:00000001FF
