:020000040800F2
:1000000000500020591E0008711C0008791C0008CF
:10001000811C0008891C0008911C000800000000D9
:10002000000000000000000000000000991C000813
:10003000A51C000800000000B11C0008BD1C000841
:10004000A11E0008A11E0008A11E0008A11E000894
:10005000A11E0008A11E0008A11E0008A11E000884
:10006000A11E0008A11E0008A11E0008A11E000874
:10007000A11E0008A11E0008A11E0008A11E000864
:10008000A11E0008A11E0008A11E0008A11E000854
:10009000A11E0008A11E0008A11E0008A11E000844
:1000A000A11E0008A11E0008A11E0008A11E000834
:1000B000A11E0008A11E0008A11E0008A11E000824
:1000C000A11E0008A11E0008A11E0008A11E000814
:1000D000A11E0008A11E0008A11E0008A11E000804
:1000E000A11E0008A11E0008A11E000800000000BB
:1000F0000000000000000000000000000000000000
:0C01000000000000000000005FF808F1A3
:1001100010B5054C237833B9044B13B10448AFF341
:1001200000800123237010BDD401002000000000D6
:10013000E86D000808B5034B1BB103490348AFF352
:10014000008008BD00000000D8010020E86D000814
:10015000034613F8012B002AFBD1181A0138704707
:1001600081F0004102E000BF83F0004330B54FEA68
:1001700041044FEA430594EA050F08BF90EA020FD5
:100180001FBF54EA000C55EA020C7FEA645C7FEA68
:10019000655C00F0E2804FEA5454D4EB5555B8BF8B
:1001A0006D420CDD2C4480EA020281EA030382EAFC
:1001B000000083EA010180EA020281EA0303362D8E
:1001C00088BF30BD11F0004F4FEA01314FF4801C61
:1001D0004CEA113102D0404261EB410113F0004F73
:1001E0004FEA03334CEA133302D0524263EB43032A
:1001F00094EA050F00F0A780A4F10104D5F1200EC8
:100200000DDB02FA0EFC22FA05F2801841F1000122
:1002100003FA0EF2801843FA05F359410EE0A5F1F6
:1002200020050EF1200E012A03FA0EFC28BF4CF027
:10023000020C43FA05F3C01851EBE37101F00045DD
:1002400007D54FF0000EDCF1000C7EEB00006EEBEA
:100250000101B1F5801F1BD3B1F5001F0CD3490874
:100260005FEA30004FEA3C0C04F101044FEA4452CB
:1002700012F5800F80F09A80BCF1004F08BF5FEA52
:10028000500C50F1000041EB045141EA050130BD32
:100290005FEA4C0C404141EB0101013C28BFB1F544
:1002A000801FE9D291F0000F04BF01460020B1FA8F
:1002B00081F308BF2033A3F10B03B3F120020CDA62
:1002C0000C3208DD02F1140CC2F10C0201FA0CF040
:1002D00021FA02F10CE002F11402D8BFC2F1200CA5
:1002E00001FA02F120FA0CFCDCBF41EA0C0190405B
:1002F000E41AA2BF01EB0451294330BD6FEA0404A4
:100300001F3C1CDA0C340EDC04F11404C4F120028E
:1003100020FA04F001FA02F340EA030021FA04F3A0
:1003200045EA030130BDC4F10C04C4F1200220FAF7
:1003300002F001FA04F340EA0300294630BD21FA35
:1003400004F0294630BD94F0000F83F4801306BFFB
:1003500081F480110134013D4EE77FEA645C18BFEF
:100360007FEA655C29D094EA050F08BF90EA020F86
:1003700005D054EA000C04BF1946104630BD91EA7E
:10038000030F1EBF0021002030BD5FEA545C05D181
:100390004000494128BF41F0004130BD14F58004C0
:1003A0003CBF01F5801130BD01F0004545F0FE4134
:1003B00041F470014FF0000030BD7FEA645C1ABF69
:1003C000194610467FEA655C1CBF0B46024650EAA0
:1003D000013406BF52EA033591EA030F41F40021CC
:1003E00030BD00BF90F0000F04BF0021704730B552
:1003F0004FF4806404F132044FF000054FF0000127
:1004000050E700BF90F0000F04BF0021704730B5E7
:100410004FF4806404F1320410F0004548BF4042BC
:100420004FF000013EE700BF42004FEAE2014FEA11
:1004300031014FEA02701FBF12F07F4393F07F4FEC
:1004400081F06051704732F07F4208BF704793F0EF
:100450007F4F04BF41F40021704730B54FF4607402
:1004600001F0004521F000411CE700BF50EA010205
:1004700008BF704730B54FF000050AE050EA0102AE
:1004800008BF704730B511F0004502D5404261EB1E
:1004900041014FF4806404F132045FEA915C3FF45F
:1004A000D8AE4FF003025FEADC0C18BF03325FEAFC
:1004B000DC0C18BF033202EBDC02C2F1200300FAAD
:1004C00003FC20FA02F001FA03FE40EA0E0021FAD2
:1004D00002F11444BDE600BF70B54FF0FF0C4CF4C0
:1004E000E06C1CEA11541DBF1CEA135594EA0C0F72
:1004F00095EA0C0F00F0DEF82C4481EA030621EAAD
:100500004C5123EA4C5350EA013518BF52EA0335E7
:1005100041F4801143F4801338D0A0FB02CE4FF099
:100520000005E1FB02E506F00042E0FB03E54FF0C9
:100530000006E1FB03569CF0000F18BF4EF0010EC1
:10054000A4F1FF04B6F5007F64F5407404D25FEABD
:100550004E0E6D4146EB060642EAC62141EA555170
:100560004FEAC52040EA5E504FEACE2EB4F1FD0CB2
:1005700088BFBCF5E06F1ED8BEF1004F08BF5FEA30
:10058000500E50F1000041EB045170BD06F00046E2
:1005900046EA010140EA020081EA0301B4EB5C048F
:1005A000C2BFD4EB0C0541EA045170BD41F4801187
:1005B0004FF0000E013C00F3AB8014F1360FDEBFAC
:1005C000002001F0004170BDC4F10004203C35DA88
:1005D0000C341BDC04F11404C4F1200500FA05F30B
:1005E00020FA04F001FA05F240EA020001F00042AC
:1005F00021F0004110EBD37021FA04F642EB060122
:100600005EEA430E08BF20EAD37070BDC4F10C044B
:10061000C4F1200500FA04F320FA05F001FA04F20F
:1006200040EA020001F0004110EBD37041F10001FB
:100630005EEA430E08BF20EAD37070BDC4F1200506
:1006400000FA05F24EEA020E20FA04F301FA05F26E
:1006500043EA020321FA04F001F0004121FA04F216
:1006600020EA020000EBD3705EEA430E08BF20EAE6
:10067000D37070BD94F0000F0FD101F00046400020
:1006800041EB010111F4801F08BF013CF7D041EAA2
:10069000060195F0000F18BF704703F000465200A6
:1006A00043EB030313F4801F08BF013DF7D043EA77
:1006B0000603704794EA0C0F0CEA135518BF95EA2D
:1006C0000C0F0CD050EA410618BF52EA4306D1D1B4
:1006D00081EA030101F000414FF0000070BD50EAD3
:1006E000410606BF1046194652EA430619D094EA5D
:1006F0000C0F02D150EA013613D195EA0C0F05D147
:1007000052EA03361CBF104619460AD181EA03019A
:1007100001F0004141F0FE4141F470014FF0000052
:1007200070BD41F0FE4141F4780170BD70B54FF0ED
:10073000FF0C4CF4E06C1CEA11541DBF1CEA13556D
:1007400094EA0C0F95EA0C0F00F0A7F8A4EB05044F
:1007500081EA030E52EA03354FEA013100F0888046
:100760004FEA03334FF0805545EA131343EA12630F
:100770004FEA022245EA111545EA10654FEA0026C4
:100780000EF000419D4208BF964244F1FD0404F57D
:10079000407402D25B084FEA3202B61A65EB0305D9
:1007A0005B084FEA32024FF480104FF4002CB6EB96
:1007B000020E75EB030E22BFB61A754640EA0C0016
:1007C0005B084FEA3202B6EB020E75EB030E22BF56
:1007D000B61A754640EA5C005B084FEA3202B6EB97
:1007E000020E75EB030E22BFB61A754640EA9C0056
:1007F0005B084FEA3202B6EB020E75EB030E22BF26
:10080000B61A754640EADC0055EA060E18D04FEAE3
:10081000051545EA16754FEA06164FEAC30343EA83
:1008200052734FEAC2025FEA1C1CC0D111F4801F50
:100830000BD141EA00014FF000004FF0004CB6E749
:1008400011F4801F04BF01430020B4F1FD0C88BFE8
:10085000BCF5E06F3FF6AFAEB5EB030C04BFB6EBF3
:10086000020C5FEA500C50F1000041EB045170BDE6
:100870000EF0004E4EEA113114EB5C04C2BFD4EB13
:100880000C0541EA045170BD41F480114FF0000E97
:10089000013C90E645EA060E8DE60CEA135594EA13
:1008A0000C0F08BF95EA0C0F3FF43BAF94EA0C0F16
:1008B0000AD150EA01347FF434AF95EA0C0F7FF48B
:1008C00025AF104619462CE795EA0C0F06D152EADF
:1008D00003353FF4FDAE1046194622E750EA4106C3
:1008E00018BF52EA43067FF4C5AE50EA41047FF4D4
:1008F0000DAF52EA43057FF4EBAE12E74FF0FF3C39
:1009000006E000BF4FF0010C02E000BF4FF0010C09
:100910004DF804CD4FEA410C7FEA6C5C4FEA430C82
:1009200018BF7FEA6C5C1BD001B050EA410C0CBFD1
:1009300052EA430C91EA030F02BF90EA020F002033
:10094000704710F1000F91EA030F58BF994208BF9A
:1009500090422CBFD8176FEAE37040F00100704757
:100960004FEA410C7FEA6C5C02D150EA013C07D1AE
:100970004FEA430C7FEA6C5CD6D152EA033CD3D0F9
:100980005DF8040B704700BF8446104662468C46F3
:100990001946634600E000BF01B5FFF7B7FF002826
:1009A00048BF10F1000F01BD4DF808EDFFF7F4FF4F
:1009B0000CBF012000205DF808FB00BF4DF808EDDA
:1009C000FFF7EAFF34BF012000205DF808FB00BFFD
:1009D0004DF808EDFFF7E0FF94BF012000205DF81F
:1009E00008FB00BF4DF808EDFFF7CEFF94BF0120D4
:1009F00000205DF808FB00BF4DF808EDFFF7C4FFCD
:100A000034BF012000205DF808FB00BF4FEA410C15
:100A10007FEA6C5C02D150EA013C0AD14FEA430CF8
:100A20007FEA6C5C02D152EA033C02D14FF0000035
:100A300070474FF0010070474FEA410212F5001273
:100A400015D211D56FF47873B3EB625212D94FEA15
:100A5000C12343F0004343EA505311F0004F23FAFF
:100A600002F018BF404270474FF00000704750EA54
:100A7000013005D111F0004008BF6FF00040704711
:100A80004FF00000704700BF80F0004002E000BF60
:100A900081F0004142001FBF5FEA410392EA030F69
:100AA0007FEA226C7FEA236C6AD04FEA1262D2EBB3
:100AB0001363C1BFD218414048404140B8BF5B42B8
:100AC000192B88BF704710F0004F40F4000020F051
:100AD0007F4018BF404211F0004F41F4000121F067
:100AE0007F4118BF494292EA030F3FD0A2F10102B1
:100AF00041FA03FC10EB0C00C3F1200301FA03F1EF
:100B000000F0004302D5494260EB4000B0F5000F11
:100B100013D3B0F1807F06D340084FEA310102F1D0
:100B20000102FE2A51D2B1F1004F40EBC25008BF82
:100B300020F0010040EA03007047490040EB00004C
:100B4000013A28BFB0F5000FEDD2B0FA80FCACF14D
:100B5000080CB2EB0C0200FA0CF0AABF00EBC2507A
:100B600052421843BCBFD0401843704792F0000F68
:100B700081F4000106BF80F400000132013BB5E7BB
:100B80004FEA41037FEA226C18BF7FEA236C21D031
:100B900092EA030F04D092F0000F08BF0846704796
:100BA00090EA010F1CBF0020704712F07F4F04D164
:100BB000400028BF40F00040704712F100723CBF77
:100BC00000F50000704700F0004343F0FE4040F4A1
:100BD000000070477FEA226216BF08467FEA23635F
:100BE0000146420206BF5FEA412390EA010F40F44A
:100BF000800070474FF0000304E000BF10F0004396
:100C000048BF40425FEA000C08BF704743F096437C
:100C100001464FF000001CE050EA010208BF704797
:100C20004FF000030AE000BF50EA010208BF70471E
:100C300011F0004302D5404261EB41015FEA010C33
:100C400002BF84460146002043F0B64308BFA3F12B
:100C50008053A3F50003BCFA8CF2083AA3EBC2530D
:100C600010DB01FA02FC634400FA02FCC2F120022C
:100C7000BCF1004F20FA02F243EB020008BF20F063
:100C80000100704702F1200201FA02FCC2F12002C9
:100C900050EA4C0021FA02F243EB020008BF20EABE
:100CA000DC7070474FF0FF0C1CEAD0521EBF1CEAEC
:100CB000D15392EA0C0F93EA0C0F6FD01A4480EADA
:100CC000010C400218BF5FEA41211ED04FF00063C3
:100CD00043EA501043EA5111A0FB01310CF00040EF
:100CE000B1F5000F3EBF490041EAD3715B0040EA15
:100CF000010062F17F02FD2A1DD8B3F1004F40EBE5
:100D0000C25008BF20F00100704790F0000F0CF0B7
:100D1000004C08BF49024CEA502040EA51207F3A7B
:100D2000C2BFD2F1FF0340EAC250704740F4000056
:100D30004FF00003013A5DDC12F1190FDCBF00F047
:100D400000407047C2F10002410021FA02F1C2F1F5
:100D5000200200FA02FC5FEA310040F1000053EA91
:100D60004C0308BF20EADC70704792F0000F00F0DF
:100D7000004C02BF400010F4000F013AF9D040EAE5
:100D80000C0093F0000F01F0004C02BF490011F479
:100D9000000F013BF9D041EA0C018FE70CEAD15377
:100DA00092EA0C0F18BF93EA0C0F0AD030F0004CF7
:100DB00018BF31F0004CD8D180EA010000F00040AB
:100DC000704790F0000F17BF90F0004F084691F069
:100DD000000F91F0004F14D092EA0C0F01D14202A3
:100DE0000FD193EA0C0F03D14B0218BF084608D16C
:100DF00080EA010000F0004040F0FE4040F40000B6
:100E0000704740F0FE4040F4400070474FF0FF0C48
:100E10001CEAD0521EBF1CEAD15392EA0C0F93EA8F
:100E20000C0F69D0A2EB030280EA010C49024FEAE1
:100E3000402037D04FF0805343EA111143EA10139A
:100E40000CF000408B4238BF5B0042F17D024FF452
:100E5000000C8B4224BF5B1A40EA0C00B3EB510F2D
:100E600024BFA3EB510340EA5C00B3EB910F24BF16
:100E7000A3EB910340EA9C00B3EBD10F24BFA3EB9B
:100E8000D10340EADC001B0118BF5FEA1C1CE0D163
:100E9000FD2A3FF650AF8B4240EBC25008BF20F016
:100EA000010070470CF0004C4CEA50207F32C2BF6A
:100EB000D2F1FF0340EAC250704740F400004FF007
:100EC0000003013A37E792F0000F00F0004C02BF38
:100ED000400010F4000F013AF9D040EA0C0093F002
:100EE000000F01F0004C02BF490011F4000F013B5C
:100EF000F9D041EA0C0195E70CEAD15392EA0C0FC4
:100F000008D142027FF47DAF93EA0C0F7FF470AFFB
:100F1000084676E793EA0C0F04D14B023FF44CAF3E
:100F200008466EE730F0004C18BF31F0004CCAD1D3
:100F300030F000427FF45CAF31F000437FF43CAF0F
:100F40005FE700BF4FF0FF3C06E000BF4FF0010C31
:100F500002E000BF4FF0010C4DF804CD4FEA400213
:100F60004FEA41037FEA226C18BF7FEA236C11D05D
:100F700001B052EA530C18BF90EA010F58BFB2EB10
:100F8000030088BFC81738BF6FEAE17018BF40F090
:100F9000010070477FEA226C02D15FEA402C05D144
:100FA0007FEA236CE4D15FEA412CE1D05DF8040BC9
:100FB000704700BF844608466146FFE70FB5FFF75C
:100FC000C9FF002848BF10F1000F0FBD4DF808ED14
:100FD000FFF7F4FF0CBF012000205DF808FB00BF05
:100FE0004DF808EDFFF7EAFF34BF012000205DF85F
:100FF00008FB00BF4DF808EDFFF7E0FF94BF0120AC
:1010000000205DF808FB00BF4DF808EDFFF7D2FFA8
:1010100094BF012000205DF808FB00BF4DF808EDEB
:10102000FFF7C8FF34BF012000205DF808FB00BFB8
:101030004FEA40024FEA41037FEA226C02D15FEAA5
:10104000402C08D17FEA236C02D15FEA412C02D107
:101050004FF0000070474FF00100704780B582B03C
:1010600000AF7860084611461A460346FB700B46EF
:10107000BB7013467B702F4A7B681360FB785B0064
:10108000DAB22C4B1A712B4ABB785371294A7B7800
:101090009371284B0822DA71322000F065FF254B4E
:1010A000DB79184600F004F94FF47A7000F05CFF29
:1010B000302000F0EBF8052000F056FF302000F063
:1010C000E5F8052000F050FF302000F0DFF80120A7
:1010D00000F04AFF202000F0D9F8164B00221A72C7
:1010E000144B9B79012B06D9124B1B7A43F0080352
:1010F000DAB2104B1A720F4B1B7A43F02003DBB2AB
:10110000184600F071F80B4B04225A7200F01EF8DA
:10111000084B02229A72074B9B7A43F00403DBB21E
:10112000184600F061F800F007F800BF0837BD4628
:1011300080BD00BFF001002080B500AF012000F0AD
:1011400053F8022000F010FF00BF80BD80B500AF53
:10115000084B5B7A43F00403DAB2064B5A72054B34
:101160005B7A43F00803DBB2184600F03DF800BF9D
:1011700080BD00BFF001002080B500AF034B082206
:10118000DA71002000F094F800BF80BDF00100206B
:1011900080B584B000AF03460A46FB711346BB71AD
:1011A0000F4BFB600F4B9B79BA799A4203D30D4BDF
:1011B0009B79013BBB71BB7910333B4413F8042C82
:1011C000FB791344DBB25BB263F07F035BB2DBB24B
:1011D000184600F009F800BF1037BD4680BD00BFBB
:1011E00000401454F001002080B582B000AF0346E7
:1011F000FB71FB790021184600F027F800BF083783
:10120000BD4680BD80B582B000AF0346FB71FB795F
:101210000121184600F019F800BF0837BD4680BD0F
:1012200080B582B000AF786006E07B685A1C7A60B7
:101230001B781846FFF7E6FF7B681B78002BF4D17C
:1012400000BF00BF0837BD4680BD80B584B000AF89
:1012500003460A46FB711346BB71FB7923F00F036B
:10126000FB73FB791B01BB73FA7BBB791343DBB2C6
:10127000184600F00BF8BA7BBB791343DBB2184673
:1012800000F004F800BF1037BD4680BD80B582B0C5
:1012900000AF0346FB71FB79184600F009F8FB79B3
:1012A000184600F023F800BF0837BD4680BD000097
:1012B00080B586B002AF0346FB710B4BDA79FB7940
:1012C0001343DBB23B73084B1868074B1B79194675
:1012D00007F10C020A230093012301F02DFA00BF4D
:1012E0001037BD4680BD00BFF001002080B582B040
:1012F00000AF0346FB71FB7943F00403DBB21846F1
:10130000FFF7D6FFFB7923F00403DBB21846FFF7A3
:10131000CFFF00BF0837BD4680BD80B582B000AFAB
:1013200078607868FFF77CFF00BF0837BD4680BD56
:1013300080B584B000AF78600B46FB701346BB707D
:10134000FB7863F07F03FB70FB783B73BB787B73A8
:101350007B6858687B681B890022194601F090F869
:101360007B68186807F10C014FF0FF33022202F08E
:10137000BBF97B6858687B681B890122194601F01C
:101380007FF800BF1037BD4680BD80B584B000AF88
:10139000F8607A601A460B46FB721346BB72FB7A02
:1013A00003F07F03DBB2FB72FB685868FB681B89A4
:1013B0000022194601F064F8FB68186807F10B0178
:1013C0004FF0FF33012202F08FF9FB681868BB7AF7
:1013D0009AB24FF0FF33796802F0CAFAFB68586896
:1013E000FB681B890122194601F04AF800BF10373B
:1013F000BD4680BD80B584B000AF78600B46FB7001
:101400000023FB7307F10F02F97801237868FFF7D7
:10141000BCFFFB7B18461037BD4680BD80B584B04D
:1014200000AF78600B46FB7007F1080300210A4605
:101430001A800A469A7007F10802F978032378683F
:10144000FFF7A3FF3B7AFB60FB681B02FB607B7A24
:101450001A46FB681343FB60FB681B02FB60BB7A08
:101460001A46FB681343FB60FB6818461037BD46FD
:1014700080BD80B584B000AFF860B9607A607B80D1
:10148000FB68002B05D0BB68002B02D07B68002BCB
:1014900001D100232BE0FB68BA681A60FB687A6808
:1014A0005A60FB687A881A81FB680122DA72FB684D
:1014B0005868FB681B890122194600F0E1FF0022F1
:1014C0000221F868FFF734FF10220021F868FFF7C7
:1014D0002FFF00220921F868FFF72AFF0321F8688F
:1014E00000F037F80021F86800F005F801231846ED
:1014F0001037BD4680BD80B584B000AF78600B4624
:10150000FB707B68FA789A7200217868FFF772FFA7
:101510000346FB737B689B7A022B08D1FB7B63F04D
:101520007F03FB73FB7B23F04003FB7307E0FB7B34
:1015300003F07F03FB73FB7B43F04003FB73FB7BF8
:101540001A4600217868FFF7F3FE00BF1037BD464A
:1015500080BD80B584B000AF78600B46FB70012180
:101560007868FFF747FF0346FB73FB7B23F00F030D
:10157000FB7397F9033003F00F035AB297F90F305A
:1015800013435BB2FB73FB7B1A4601217868FFF7BC
:10159000CFFE00BF1037BD4680BD80B582B000AF22
:1015A00078600F217868FFF725FF03461846083753
:1015B000BD4680BD80B584B000AF78600B46FB703F
:1015C00000217868FFF716FF0346FB73FB78002BBA
:1015D00004D1FB7B43F00103FB7303E0FB7B23F0AF
:1015E0000103FB73FB7B1A4600217868FFF7A0FE1E
:1015F00000BF1037BD4680BD80B584B000AF7860B5
:101600007B689B7A022B14D000217868FFF7F2FEEA
:101610000346FB73FB7B03F07F03FB73FB7B43F011
:101620004003FB73FB7B1A4600217868FFF780FEBE
:1016300000E000BF1037BD4680BD80B582B000AF6E
:1016400078607B689B7A022B01D101230BE000219B
:101650007868FFF7CFFE034603F04003002B0CBF72
:1016600001230023DBB218460837BD4680BD0000C9
:1016700080B584B000AF78607B689B7A002B1BD16B
:101680007868FFF7B9FF00F065FCB8600BE000F088
:1016900061FC0246BB68D31AFA2B01D9164B27E02E
:1016A0000A2000F061FC7868FFF7C7FF034683F06B
:1016B0000103DBB2002BEAD10C217868FFF7AEFE04
:1016C0000346FB60FB6803F40003002B03D0FB68B8
:1016D00043F07F43FB60FB685B11FB60F868FFF73A
:1016E0008DFA03464FF070511846FFF7DBFA0346B8
:1016F00018461037BD4680BD0000C07F80B58AB057
:1017000004AF00F0CFFB00F0D7F800F07FF900F055
:1017100019F900F045F90223102227215548FFF757
:101720009DFCFFF729FD00210020FFF731FD524805
:10173000FFF7F3FD4FF40043504A51495148FFF77A
:1017400098FE02214F48FFF7D6FE06214D48FFF7CD
:1017500000FF00214B48FFF72DFF012280214A485E
:1017600000F08EFE00F0F6FB7861484B1B687A694A
:10177000D31A632B19D9454A7B6913600122802152
:10178000414800F07DFE3F48FFF772FF0346404AA4
:1017900013603C48FFF701FF03461A463D4B1A70A1
:1017A00000228021384800F06BFE3B4B1B687A69B1
:1017B000D31AB3F5C87FD0D3374A7B6913600121B0
:1017C0000020FFF7E5FC334B1B78002B14D0314B86
:1017D0001B7803F00103002B06D03B462F4A112152
:1017E000184603F0AFF940E02A4B1B7838462C4AE4
:1017F000112103F0A7F938E0254B1B68194618465C
:10180000FFF716FC0346002B06D03B46254A112164
:10181000184603F097F928E01D4B1B68224918462B
:10182000FFF7F2FB0346002B19D0194B1B681F4929
:101830001846FFF7DFFB0346002B10D0144B1B6844
:101840001846FEF7F1FD02460B463846DF210291AD
:10185000CDE90023164A112103F074F905E03B4657
:10186000144A1121184603F06DF93B461846FFF75C
:1018700054FD72E7FC010020006E000800080140E2
:1018800050020020A8020020000C0140B4020020F9
:10189000BC020020C0020020B8020020146E000824
:1018A000286E00083C6E0008000048C30080A24477
:1018B000506E0008646E000880B590B000AF07F16C
:1018C000180328220021184603F0B5F93B1D002219
:1018D0001A605A609A60DA601A610123BB614FF4A2
:1018E0008033FB6100233B620123BB6202237B63E5
:1018F0004FF48033BB634FF4E013FB6307F118032D
:10190000184601F071FA0346002B01D000F0DEF812
:101910000F237B600223BB600023FB604FF48063D6
:101920003B6100237B613B1D0221184601F0DEFC78
:101930000346002B01D000F0C9F800BF4037BD4678
:1019400080BD000080B500AF124B134A1A60114BE6
:10195000124A5A600F4B00229A600E4B0022DA6046
:101960000C4B4FF480421A610A4B00225A61094B1A
:1019700000229A61074B0022DA61064B00221A62AC
:10198000044800F095FD0346002B01D000F09EF8BE
:1019900000BF80BDFC01002000580040A08601006F
:1019A00080B500AF174B184A1A60164B4FF482727D
:1019B0005A60144B00229A60124B0022DA60114BDD
:1019C00000221A610F4B01225A610E4B4FF4007234
:1019D0009A610C4B2022DA610A4B00221A62094BF1
:1019E00000225A62074B00229A62064B0A22DA62F0
:1019F000044801F0F5FD0346002B01D000F066F825
:101A000000BF80BD500200200030014080B588B08A
:101A100000AF07F1100300221A605A609A60DA6082
:101A2000274B9B69264A43F020039361244B9B6913
:101A300003F02003FB60FB68214B9B69204A43F0C5
:101A4000080393611E4B9B6903F00803BB60BB68EE
:101A50001B4B9B691A4A43F004039361184B9B6923
:101A600003F004037B607B6801224FF400411548BA
:101A700000F006FD00228021134800F001FD4FF424
:101A800000433B6101237B610023BB610223FB61B7
:101A900007F1100319460B4800F06EFB80233B61F1
:101AA00001237B610023BB610223FB6107F110036B
:101AB0001946054800F060FB00BF2037BD4680BDD9
:101AC0000010024000080140000C014080B400AF4B
:101AD00072B600BF00BFFDE780B485B000AF154B04
:101AE0009B69144A43F001039361124B9B6903F015
:101AF0000103BB60BB680F4BDB690E4A43F08053A8
:101B0000D3610C4BDB6903F080537B607B680A4B2D
:101B10005B68FB60FB6823F0E063FB60FB6843F0FD
:101B20000073FB60044AFB68536000BF1437BD4676
:101B300080BC7047001002400000014080B588B0B2
:101B400000AF786007F1100300221A605A609A60B3
:101B5000DA607B681B68164A934224D1154B9B6957
:101B6000144A43F008039361124B9B6903F0080386
:101B7000FB60FB684FF440633B6112237B610323EE
:101B8000FB6107F1100319460B4800F0F5FA094B09
:101B9000DB69084A43F48003D361064BDB6903F435
:101BA0008003BB60BB6800BF2037BD4680BD00BF5F
:101BB0000058004000100240000C014080B58AB07F
:101BC00000AF786007F1140300221A605A609A602F
:101BD000DA607B681B68224A93423DD1214B9B69A6
:101BE000204A43F4805393611E4B9B6903F4805356
:101BF0003B613B691B4B9B691A4A43F008039361A5
:101C0000184B9B6903F00803FB60FB6828237B618A
:101C10000223BB6103233B6207F1140319461248F8
:101C200000F0AAFA10237B610023BB610023FB6153
:101C300007F1140319460C4800F09EFA0B4B5B6841
:101C40007B627B6A43F0E0637B627B6A43F0010363
:101C50007B62064A7B6A536000BF2837BD4680BD61
:101C60000030014000100240000C01400000014023
:101C700080B400AF00BFFDE780B400AF00BFFDE758
:101C800080B400AF00BFFDE780B400AF00BFFDE748
:101C900080B400AF00BFFDE780B400AF00BFBD4619
:101CA00080BC704780B400AF00BFBD4680BC7047A9
:101CB00080B400AF00BFBD4680BC704780B500AFA8
:101CC00000F036F900BF80BD80B400AF0123184694
:101CD000BD4680BC704780B582B000AF7860396087
:101CE00002F0FCFF034616221A604FF0FF3318463D
:101CF0000837BD4680BD80B582B000AF78604FF038
:101D0000FF317868FFF7E7FF00BFFDE780B586B0D9
:101D100000AFF860B9607A6000237B610AE0AFF33E
:101D200000800146BB685A1CBA60CAB21A707B694F
:101D300001337B617A697B689A42F0DB7B681846E5
:101D40001837BD4680BD80B586B000AFF860B96079
:101D50007A6000237B6109E0BB685A1CBA601B787B
:101D60001846AFF300807B6901337B617A697B6839
:101D70009A42F1DB7B6818461837BD4680BD80B4B7
:101D800083B000AF78604FF0FF3318460C37BD4684
:101D900080BC704780B483B000AF786039603B6826
:101DA0004FF400525A60002318460C37BD4680BCE1
:101DB000704780B483B000AF7860012318460C37B9
:101DC000BD4680BC704780B485B000AFF860B96094
:101DD0007A60002318461437BD4680BC7047000067
:101DE00080B586B000AF7860144A154BD31A7B617A
:101DF0007B693B61134B1B68002B02D1114B124ACC
:101E00001A60104B1A687B6813443A699A4207D2E9
:101E100002F064FF03460C221A604FF0FF3309E022
:101E2000084B1B68FB60074B1A687B681344054A24
:101E30001360FB6818461837BD4680BD005000206F
:101E400000040000C40200201804002080B400AF89
:101E500000BFBD4680BC7047FFF7F8FF0B480C4938
:101E60000C4A002302E0D458C4500433C4188C42F6
:101E7000F9D3094A094C002301E013600432A2425D
:101E8000FBD302F031FFFFF739FC70470000002060
:101E9000D401002024720008D4010020180400207E
:101EA000FEE7000080B500AF084B1B68074A43F00F
:101EB00010031360032000F02BF90F2000F008F846
:101EC000FFF70AFE0023184680BD00BF0020024035
:101ED00080B582B000AF7860124B1A68124B1B7845
:101EE00019464FF47A73B3FBF1F3B2FBF3F31846E0
:101EF00000F035F90346002B01D001230EE07B688A
:101F00000F2B0AD8002279684FF0FF3000F00BF950
:101F1000064A7B681360002300E001231846083757
:101F2000BD4680BD00000020080000200400002005
:101F300080B400AF054B1B781A46054B1B68134451
:101F4000034A136000BFBD4680BC704708000020F4
:101F5000C802002080B400AF024B1B681846BD4683
:101F600080BC7047C802002080B584B000AF7860A4
:101F7000FFF7F0FFB8607B68FB60FB68B3F1FF3FE1
:101F800005D00A4B1B781A46FB681344FB6000BF60
:101F9000FFF7E0FF0246BB68D31AFA689A42F7D807
:101FA00000BF00BF1037BD4680BD00BF0800002045
:101FB00080B485B000AF78607B6803F00703FB60F6
:101FC0000C4BDB68BB60BA684FF6FF031340BB6085
:101FD000FB681A02BB68134343F0BF6343F400334A
:101FE000BB60044ABB68D36000BF1437BD4680BCE9
:101FF000704700BF00ED00E080B400AF044BDB6829
:102000001B0A03F007031846BD4680BC704700BF9B
:1020100000ED00E080B483B000AF03463960FB718F
:1020200097F90730002B0ADB3B68DAB20C4997F9C5
:1020300007301201D2B20B4483F800230AE03B6858
:10204000DAB20849FB7903F00F03043B1201D2B264
:102050000B441A7600BF0C37BD4680BC704700BFEA
:1020600000E100E000ED00E080B489B000AFF8606E
:10207000B9607A60FB6803F00703FB61FB69C3F199
:102080000703042B28BF0423BB61FB690433062B21
:1020900002D9FB69033B00E000237B614FF0FF3274
:1020A000BB6902FA03F3DA43BB681A407B699A40C2
:1020B0004FF0FF317B6901FA03F3D9437B680B4092
:1020C000134318462437BD4680BC704780B582B0A4
:1020D00000AF78607B68013BB3F1807F01D30123BF
:1020E0000FE00A4A7B68013B53600F214FF0FF303D
:1020F000FFF790FF054B00229A60044B07221A60FD
:10210000002318460837BD4680BD00BF10E000E040
:1021100080B582B000AF78607868FFF749FF00BFF4
:102120000837BD4680BD80B586B000AF0346B960B4
:102130007A60FB7300237B61FFF75EFF78617A684A
:10214000B9687869FFF790FF024697F90F3011469A
:102150001846FFF75FFF00BF1837BD4680BD80B54A
:1021600082B000AF78607868FFF7B0FF034618468A
:102170000837BD4680BD000080B48BB000AF7860EA
:10218000396000237B6200233B6269E101227B6AA4
:1021900002FA03F3FB613B681B68FA691340BB61F9
:1021A000BA69FB699A4240F058813B685B689A4A79
:1021B00093425ED0984A934275D8984A934258D039
:1021C000964A93426FD8964A934252D0944A934289
:1021D00069D8944A93424CD0924A934263D8924A27
:1021E000934246D0904A93425DD8122B2AD8122BA4
:1021F00059D801A252F823F0732200084D2200089A
:102200005F220008A1220008A7220008A7220008D8
:10221000A7220008A7220008A7220008A72200087A
:10222000A7220008A7220008A7220008A72200086A
:10223000A7220008A7220008A722000855220008AC
:1022400069220008794A934213D02CE03B68DB688E
:102250003B6229E03B68DB6804333B6224E03B6877
:10226000DB6808333B621FE03B68DB680C333B6292
:102270001AE03B689B68002B02D104233B6213E009
:102280003B689B68012B05D108233B627B68FA6998
:102290001A6109E008233B627B68FA695A6103E02E
:1022A00000233B6200E000BFBB69FF2B01D87B68C5
:1022B00001E07B6804337B61BB69FF2B02D87B6A3A
:1022C0009B0002E07B6A083B9B003B617B691A68CC
:1022D0000F213B6901FA03F3DB431A40396A3B697A
:1022E00001FA03F31A437B691A603B685B6803F0E9
:1022F0008053002B00F0B1804D4B9B694C4A43F05A
:10230000010393614A4B9B6903F00103BB60BB6807
:10231000484A7B6A9B08023352F82330FB607B6A91
:1023200003F003039B000F2202FA03F3DB43FA6876
:102330001340FB607B68404A934213D07B683F4A5E
:1023400093420DD07B683E4A934207D07B683D4A5A
:10235000934201D1032306E0042304E0022302E0B8
:10236000012300E000237A6A02F003029200934006
:10237000FA681343FB602F497B6A9B080233FA68B3
:1023800041F823203B685B6803F48013002B06D0E0
:102390002D4B9A682C49BB6913438B6006E02A4B8E
:1023A0009A68BB69DB43284913408B603B685B68D4
:1023B00003F40013002B06D0234BDA682249BB69D3
:1023C0001343CB6006E0204BDA68BB69DB431E4950
:1023D0001340CB603B685B6803F40033002B06D0EE
:1023E000194B5A681849BB6913434B6006E0164BFA
:1023F0005A68BB69DB43144913404B603B685B6818
:1024000003F48033002B21D00F4B1A680E49BB69AF
:1024100013430B6021E000BF0000321000003110B8
:102420000000221000002110000012100000111006
:10243000001002400000014000080140000C014073
:102440000010014000140140000401400B4B1A68C9
:10245000BB69DB43094913400B607B6A01337B6234
:102460003B681A687B6A22FA03F3002B7FF48EAE76
:1024700000BF00BF2C37BD4680BC70470004014040
:1024800080B483B000AF78600B467B8013467B70CE
:102490007B78002B03D07A887B681A6103E07B8805
:1024A0001A047B681A6100BF0C37BD4680BC7047B8
:1024B00080B584B000AF78607B68002B01D1012328
:1024C0002BE17B6893F83D30DBB2002B06D17B68B3
:1024D000002283F83C207868FFF730FB7B682422D9
:1024E00083F83D207B681B681A687B681B6822F0B4
:1024F00001021A607B681B681A687B681B6842F4DB
:1025000000421A607B681B681A687B681B6822F4AB
:1025100000421A6001F032F8F8607B685B68814A1B
:10252000934207D8FB68804A934294BF012300235B
:10253000DBB206E0FB687D4A934294BF012300238F
:10254000DBB2002B01D00123E7E0FB68784AA2FB55
:1025500003239B0CBB607B681B685B6823F03F0117
:102560007B681B68BA680A435A607B681B681B6AF1
:1025700023F03F017B685B686A4A934202D8BB68DC
:10258000013309E0BB684FF4967202FB03F3694A1A
:10259000A2FB03239B0901337A6812680B43136281
:1025A0007B681B68DB6923F44F4222F0FF027B68E3
:1025B0005B685C498B4219D8FB68591E7B685B6875
:1025C0005B00B1FBF3F3591C40F6FC730B40002B8E
:1025D0000AD0FB68591E7B685B685B00B1FBF3F3B4
:1025E0000133C3F30B0351E004234FE07B689B6886
:1025F000002B11D1FB68581E7B6859680B465B00A5
:102600000B44B0FBF3F30133C3F30B03002B0CBFFC
:1026100001230023DBB212E0FB68581E7B68596877
:102620000B469B000B4499000B44B0FBF3F30133C2
:10263000C3F30B03002B0CBF01230023DBB2002BE1
:1026400001D0012322E07B689B68002B0ED1FB6840
:10265000581E7B6859680B465B000B44B0FBF3F3D4
:102660000133C3F30B0343F400430FE0FB68581E30
:102670007B6859680B469B000B4499000B44B0FBE8
:10268000F3F30133C3F30B0343F440437968096860
:102690001343CB617B681B681B6823F0C0017B6818
:1026A000DA697B681B6A1A437B681B680A431A60F5
:1026B0007B681B689B6823F4034323F0FF037A685D
:1026C00011697A68D26811437A6812680B43936083
:1026D0007B681B68DB6823F0FF017B685A697B68B5
:1026E0009B691A437B681B680A43DA607B681B6836
:1026F0001A687B681B6842F001021A607B6800223E
:102700001A647B68202283F83D207B6800221A63CC
:102710007B68002283F83E20002318461037BD4610
:1027200080BD00BFA08601007F841E00FF083D0021
:1027300083DE1B43D34D621080B588B002AFF860D2
:102740007A601A460B467B8113463B81FFF702FCF9
:102750007861FB6893F83D30DBB2202B40F0E080DD
:102760007B690093192301227049F86800F064F92D
:102770000346002B01D00223D3E0FB6893F83C30E2
:10278000012B01D10223CCE0FB68012283F83C201D
:10279000FB681B681B6803F00103012B07D0FB6873
:1027A0001B681A68FB681B6842F001021A60FB682C
:1027B0001B681A68FB681B6822F400621A60FB68D9
:1027C000212283F83D20FB68102283F83E20FB681D
:1027D00000221A64FB687A685A62FB683A895A8553
:1027E000FB685B8D9AB2FB681A85FB68504ADA6217
:1027F00079897B693A6AF86800F09CF80346002BF7
:1028000001D001238DE000233B61FB681B685B69FD
:102810003B61FB681B689B693B613B6966E07A69C9
:10282000396AF86800F022FA0346002B0DD0FB68E5
:102830001B6C042B07D1FB681B681A68FB681B68BC
:1028400042F400721A6001236BE0FB685B6A1A783D
:10285000FB681B681A61FB685B6A5A1CFB685A625A
:10286000FB685B8D9BB2013B9AB2FB685A85FB68A3
:102870001B8D013B9AB2FB681A85FB681B685B697C
:1028800003F00403042B1BD1FB681B8D002B17D016
:10289000FB685B6A1A78FB681B681A61FB685B6AF5
:1028A0005A1CFB685A62FB685B8D9BB2013B9AB273
:1028B000FB685A85FB681B8D013B9AB2FB681A8541
:1028C0007A69396AF86800F019FA0346002B0DD0CE
:1028D000FB681B6C042B07D1FB681B681A68FB683C
:1028E0001B6842F400721A6001231AE0FB681B8D1A
:1028F000002B94D1FB681B681A68FB681B6842F4C4
:1029000000721A60FB68202283F83D20FB680022D9
:1029100083F83E20FB68002283F83C20002300E07F
:10292000022318461837BD4680BD00BF02001000C4
:102930000000FFFF80B588B002AFF8607A603B60AE
:102940000B467B81FB68DB6A7B617B69082B06D0C9
:102950007B69012B03D07B6913F5803F08D1FB68AD
:102960001B681A68FB681B6842F480721A600BE0EF
:10297000FB681B6B122B07D1FB681B681A68FB688E
:102980001B6842F480721A603B6800937B680022E7
:102990004FF00111F86800F04FF80346002B0DD0FE
:1029A000FB681B681B6803F48073B3F5807F03D159
:1029B000FB684FF400721A64032335E0FB681B695F
:1029C000B3F5804F08D17B89DBB21A46FB681B68E0
:1029D00002F0FE021A611BE07B89DB11DBB203F01F
:1029E0000603DBB263F00F03DAB2FB681B681A61FF
:1029F0003B687A680E49F86800F098F80346002BA7
:102A000001D0012310E07B89DAB2FB681B681A61F0
:102A10003B687A680749F86800F088F80346002B9D
:102A200001D0012300E0002318461837BD4680BDC1
:102A3000080001000200010080B584B000AFF8601A
:102A4000B9603B601346FB7148E03B68B3F1FF3F60
:102A500044D0FFF77FFA0246BB69D31A3A689A421C
:102A600002D33B68002B39D1BB681B0CDBB2012BB6
:102A70000DD1FB681B685B69DA43BB6813409BB2EE
:102A8000002B0CBF01230023DBB21A460CE0FB68CD
:102A90001B689B69DA43BB6813409BB2002B0CBFD9
:102AA00001230023DBB21A46FB799A4216D1FB6858
:102AB00000221A63FB68202283F83D20FB68002275
:102AC00083F83E20FB681B6C43F02002FB681A640D
:102AD000FB68002283F83C20012323E0BB681B0C29
:102AE000DBB2012B0DD1FB681B685B69DA43BB6865
:102AF00013409BB2002B0CBF01230023DBB21A460C
:102B00000CE0FB681B689B69DA43BB6813409BB20F
:102B1000002B0CBF01230023DBB21A46FB799A423B
:102B200093D0002318461037BD4680BD80B584B0D1
:102B300000AFF860B9607A603B6071E0FB681B68C9
:102B40005B6903F48063B3F5806F23D1FB681B6876
:102B50001A68FB681B6842F400721A60FB681B6805
:102B60006FF480625A61FB6800221A63FB682022BE
:102B700083F83D20FB68002283F83E20FB681B6C35
:102B800043F00402FB681A64FB68002283F83C20CF
:102B9000012367E07B68B3F1FF3F41D0FFF7DAF92B
:102BA00002463B68D31A7A689A4202D37B68002BAC
:102BB00036D1BB681B0CDBB2012B0CD1FB681B6848
:102BC0005B69DA43BB6813409BB2002B14BF01233F
:102BD0000023DBB20BE0FB681B689B69DA43BB6830
:102BE00013409BB2002B14BF01230023DBB2002B48
:102BF00016D0FB6800221A63FB68202283F83D2070
:102C0000FB68002283F83E20FB681B6C43F0200227
:102C1000FB681A64FB68002283F83C20012321E052
:102C2000BB681B0CDBB2012B0CD1FB681B685B691A
:102C3000DA43BB6813409BB2002B14BF012300236F
:102C4000DBB20BE0FB681B689B69DA43BB6813408F
:102C50009BB2002B14BF01230023DBB2002B7FF4B7
:102C60006DAF002318461037BD4680BD80B584B0D7
:102C700000AFF860B9607A6034E0F86800F086F878
:102C80000346002B01D0012334E0BB68B3F1FF3FC2
:102C900028D0FFF75FF902467B68D31ABA689A42D8
:102CA00002D3BB68002B1DD1FB681B685B6903F076
:102CB0008003802B16D0FB6800221A63FB68202259
:102CC00083F83D20FB68002283F83E20FB681B6CE4
:102CD00043F02002FB681A64FB68002283F83C2062
:102CE000012307E0FB681B685B6903F08003802B0E
:102CF000C3D1002318461037BD4680BD80B584B0CF
:102D000000AFF860B9607A6034E0F86800F03EF82F
:102D10000346002B01D0012334E0BB68B3F1FF3F31
:102D200028D0FFF717F902467B68D31ABA689A428F
:102D300002D3BB68002B1DD1FB681B685B6903F0E5
:102D40000403042B16D0FB6800221A63FB682022C0
:102D500083F83D20FB68002283F83E20FB681B6C53
:102D600043F02002FB681A64FB68002283F83C20D1
:102D7000012307E0FB681B685B6903F00403042B75
:102D8000C3D1002318461037BD4680BD80B483B040
:102D900000AF78607B681B685B6903F48063B3F500
:102DA000806F1BD17B681B686FF480625A617B68FF
:102DB00000221A637B68202283F83D207B68002272
:102DC00083F83E207B681B6C43F004027B681A6426
:102DD0007B68002283F83C20012300E00023184692
:102DE0000C37BD4680BC704780B586B000AF7860B8
:102DF0007B68002B01D1012372E27B681B6803F022
:102E00000103002B00F08780924B5B6803F00C03FA
:102E1000042B0CD08F4B5B6803F00C03082B12D1F2
:102E20008C4B5B6803F48033B3F5803F0BD1894B47
:102E30001B6803F40033002B6CD07B685B68002BAD
:102E400068D101234CE27B685B68B3F5803F06D113
:102E5000804B1B687F4A43F4803313602EE07B680D
:102E60005B68002B0CD17B4B1B687A4A23F48033C0
:102E70001360784B1B68774A23F4802313601DE0AE
:102E80007B685B68B3F5A02F0CD1724B1B68714A4D
:102E900043F4802313606F4B1B686E4A43F4803306
:102EA00013600BE06B4B1B686A4A23F4803313609A
:102EB000684B1B68674A23F4802313607B685B6858
:102EC000002B13D0FFF746F8386108E0FFF742F80F
:102ED00002463B69D31A642B01D9032300E25D4B00
:102EE0001B6803F40033002BF0D014E0FFF732F836
:102EF000386108E0FFF72EF802463B69D31A642BCD
:102F000001D90323ECE1534B1B6803F40033002B7E
:102F1000F0D100E000BF7B681B6803F00203002BC8
:102F200063D04C4B5B6803F00C03002B0BD0494B78
:102F30005B6803F00C03082B1CD1464B5B6803F461
:102F40008033002B16D1434B1B6803F00203002B88
:102F500005D07B681B69012B01D00123C0E13D4BEB
:102F60001B6823F0F8027B685B69DB003949134377
:102F70000B603AE07B681B69002B20D0364B0122A6
:102F80001A60FEF7E7FF386108E0FEF7E3FF02464C
:102F90003B69D31A022B01D90323A1E12D4B1B68F6
:102FA00003F00203002BF0D02A4B1B6823F0F80239
:102FB0007B685B69DB00274913430B6015E0264BF8
:102FC00000221A60FEF7C6FF386108E0FEF7C2FF74
:102FD00002463B69D31A022B01D9032380E11D4B22
:102FE0001B6803F00203002BF0D17B681B6803F021
:102FF0000803002B3AD07B689B69002B19D0174B34
:1030000001221A60FEF7A6FF386108E0FEF7A2FF72
:1030100002463B69D31A022B01D9032360E10D4B11
:103020005B6A03F00203002BF0D0012000F0BAFA33
:103030001CE00A4B00221A60FEF78CFF38610FE09B
:10304000FEF788FF02463B69D31A022B08D90323F7
:1030500046E100BF001002400000424280044242AC
:10306000924B5B6A03F00203002BE9D17B681B687B
:1030700003F00403002B00F0A6800023FB758B4BAC
:10308000DB6903F08053002B0DD1884BDB69874A45
:1030900043F08053D361854BDB6903F08053BB6001
:1030A000BB680123FB75824B1B6803F48073002B04
:1030B00018D17F4B1B687E4A43F480731360FEF780
:1030C00049FF386108E0FEF745FF02463B69D31A25
:1030D000642B01D9032303E1754B1B6803F4807350
:1030E000002BF0D07B68DB68012B06D16F4B1B6A8D
:1030F0006E4A43F0010313622DE07B68DB68002B0E
:103100000CD16A4B1B6A694A23F001031362674BB7
:103110001B6A664A23F0040313621CE07B68DB68C9
:10312000052B0CD1614B1B6A604A43F00403136208
:103130005E4B1B6A5D4A43F0010313620BE05B4B7D
:103140001B6A5A4A23F001031362584B1B6A574A01
:1031500023F0040313627B68DB68002B15D0FEF7B5
:10316000F9FE38610AE0FEF7F5FE02463B69D31A24
:1031700041F28832934201D90323B1E04B4B1B6AE1
:1031800003F00203002BEED014E0FEF7E3FE3861FB
:103190000AE0FEF7DFFE02463B69D31A41F28832AD
:1031A000934201D903239BE0404B1B6A03F00203C7
:1031B000002BEED1FB7D012B05D13C4BDB693B4A5B
:1031C00023F08053D3617B68DB69002B00F087809C
:1031D000364B5B6803F00C03082B61D07B68DB691E
:1031E000022B46D1334B00221A60FEF7B3FE386142
:1031F00008E0FEF7AFFE02463B69D31A022B01D965
:1032000003236DE0294B1B6803F00073002BF0D102
:103210007B681B6AB3F5803F08D1244B5B6823F4BD
:1032200000327B689B68214913434B601F4B5B68EE
:1032300023F474127B68196A7B685B6A0B431B4931
:1032400013434B601B4B01221A60FEF783FE38616B
:1032500008E0FEF77FFE02463B69D31A022B01D934
:1032600003233DE0114B1B6803F00073002BF0D0EB
:1032700035E0104B00221A60FEF76CFE386108E062
:10328000FEF768FE02463B69D31A022B01D90323DD
:1032900026E0064B1B6803F00073002BF0D11EE004
:1032A0007B68DB69012B07D1012319E00010024084
:1032B00000700040600042420B4B5B68FB60FB68A3
:1032C00003F480327B681B6A9A4206D1FB6803F4E0
:1032D00070127B685B6A9A4201D0012300E00023F0
:1032E00018461837BD4680BD0010024080B584B036
:1032F00000AF786039607B68002B01D10123D0E0FA
:103300006A4B1B6803F007033A689A4210D9674B6F
:103310001B6823F0070265493B6813430B60634B4E
:103320001B6803F007033A689A4201D00123B8E012
:103330007B681B6803F00203002B20D07B681B68AE
:1033400003F00403002B05D0594B5B68584A43F443
:10335000E06353607B681B6803F00803002B05D013
:10336000534B5B68524A43F460535360504B5B6865
:1033700023F0F0027B689B684D4913434B607B68E8
:103380001B6803F00103002B40D07B685B68012BB6
:1033900007D1474B1B6803F40033002B15D10123E1
:1033A0007FE07B685B68022B07D1414B1B6803F011
:1033B0000073002B09D1012373E03D4B1B6803F020
:1033C0000203002B01D101236BE0394B5B6823F032
:1033D00003027B685B68364913434B60FEF7BAFD16
:1033E000F8600AE0FEF7B6FD0246FB68D31A41F228
:1033F0008832934201D9032353E02D4B5B6803F0DD
:103400000C027B685B689B009A42EBD1274B1B68E0
:1034100003F007033A689A4210D2244B1B6823F04A
:10342000070222493B6813430B60204B1B6803F0E3
:1034300007033A689A4201D0012332E07B681B6897
:1034400003F00403002B08D0194B5B6823F4E062FF
:103450007B68DB68164913434B607B681B6803F08D
:103460000803002B09D0124B5B6823F460527B6881
:103470001B69DB000E4913434B6000F021F8024644
:103480000B4B5B681B0903F00F030A49CB5C22FA64
:1034900003F3094A1360094B1B681846FEF718FD31
:1034A000002318461037BD4680BD00BF00200240F3
:1034B00000100240786E0008000000200400002088
:1034C00080B487B000AF0023FB600023BB60002303
:1034D0007B6100237B6000233B611E4B5B68FB60CC
:1034E000FB6803F00C03042B02D0082B03D027E069
:1034F000194B3B6127E0FB689B0C03F00F03174A55
:10350000D35C7B60FB6803F48033002B10D0114B3D
:103510005B685B0C03F00103114AD35CBB607B6802
:103520000D4A03FB02F2BB68B2FBF3F37B6104E0DC
:103530007B680C4A02FB03F37B617B693B6102E021
:10354000054B3B6100BF3B6918461C37BD4680BC3C
:10355000704700BF0010024000127A00906E000811
:10356000A06E000800093D0080B400AF024B1B684C
:103570001846BD4680BC70470000002080B500AFF3
:10358000FFF7F2FF0246054B5B681B0A03F00703D7
:103590000349CB5C22FA03F3184680BD00100240B9
:1035A000886E000880B485B000AF78600A4B1B6855
:1035B0000A4AA2FB03235B0A7A6802FB03F3FB605F
:1035C00000BFFB685A1EFA60002BF9D100BF00BF94
:1035D0001437BD4680BC704700000020D34D6210F8
:1035E00080B582B000AF78607B68002B01D10123E9
:1035F00076E07B685B6A002B08D17B685B68B3F57B
:10360000827F09D07B680022DA6105E07B680022B6
:103610001A617B6800225A617B6800229A627B688B
:1036200093F85130DBB2002B06D17B68002283F87F
:1036300050207868FEF7C2FA7B68022283F8512096
:103640007B681B681A687B681B6822F040021A605E
:103650007B685B6803F482727B689B6803F40443B5
:103660001A437B68DB6803F400631A437B681B69B9
:1036700003F002031A437B685B6903F001031A43FA
:103680007B689B6903F400731A437B68DB6903F072
:1036900038031A437B681B6A03F0800342EA030184
:1036A0007B689B6A03F400527B681B680A431A60BC
:1036B0007B689B691A0C7B681B6802F004025A60E5
:1036C0007B681B68DA697B681B6822F40062DA6138
:1036D0007B6800225A657B68012283F85120002311
:1036E00018460837BD4680BD80B588B000AFF86089
:1036F000B9603B601346FB80FEF72CFCF861FB8849
:103700007B83FB6893F85130DBB2012B01D002239D
:103710002AE1BB68002B02D0FB88002B01D10123DA
:1037200022E1FB6893F85030012B01D102231BE109
:10373000FB68012283F85020FB68032283F85120A4
:10374000FB6800225A65FB68BA681A63FB68FA884E
:103750009A86FB68FA88DA86FB6800229A63FB681F
:1037600000229A87FB680022DA87FB6800225A64ED
:10377000FB6800221A64FB689B68B3F5004F0FD109
:10378000FB681B681A68FB681B6822F040021A601D
:10379000FB681B681A68FB681B6842F480421A6069
:1037A000FB681B681B6803F04003402B07D0FB68D5
:1037B0001B681A68FB681B6842F040021A60FB68CD
:1037C000DB68B3F5006F52D1FB685B68002B02D059
:1037D0007B8B012B45D1FB681B6B1A88FB681B6830
:1037E000DA60FB681B6B9A1CFB681A63FB68DB8E54
:1037F0009BB2013B9AB2FB68DA8632E0FB681B6839
:103800009B6803F00203022B12D1FB681B6B1A8822
:10381000FB681B68DA60FB681B6B9A1CFB681A6309
:10382000FB68DB8E9BB2013B9AB2FB68DA8618E03C
:10383000FEF790FB0246FB69D31A3A689A4203D816
:103840003B68B3F1FF3F02D13B68002B09D1FB6815
:10385000012283F85120FB68002283F850200323C3
:1038600082E0FB68DB8E9BB2002BC7D153E0FB6884
:103870005B68002B02D07B8B012B47D1FB681A6B56
:10388000FB681B680C3312781A70FB681B6B5A1CA0
:10389000FB681A63FB68DB8E9BB2013B9AB2FB6844
:1038A000DA8633E0FB681B689B6803F00203022B97
:1038B00013D1FB681A6BFB681B680C3312781A7003
:1038C000FB681B6B5A1CFB681A63FB68DB8E9BB2A0
:1038D000013B9AB2FB68DA8618E0FEF73BFB024632
:1038E000FB69D31A3A689A4203D83B68B3F1FF3FA9
:1038F00002D13B68002B09D1FB68012283F85120DB
:10390000FB68002283F8502003232DE0FB68DB8E48
:103910009BB2002BC6D1FA693968F86800F0C4FB85
:103920000346002B02D0FB6820225A65FB689B6887
:10393000002B0AD100237B61FB681B68DB687B617D
:10394000FB681B689B687B617B69FB68012283F8CD
:103950005120FB68002283F85020FB685B6D002B30
:1039600001D0012300E0002318462037BD4680BD6A
:1039700080B588B002AFF860B9603B601346FB8049
:10398000FB6893F85130DBB2012B01D0022304E134
:10399000FB685B68B3F5827F12D1FB689B68002BE4
:1039A0000ED1FB68042283F85120FA883B6800930B
:1039B0001346BA68B968F86800F0F3F80346ECE01B
:1039C000FEF7C8FA7861BB68002B02D0FB88002B99
:1039D00001D10123E1E0FB6893F85030012B01D1C4
:1039E0000223DAE0FB68012283F85020FB680422FE
:1039F00083F85120FB6800225A65FB68BA689A6315
:103A0000FB68FA889A87FB68FA88DA87FB680022E5
:103A10001A63FB6800229A86FB680022DA86FB683C
:103A200000221A64FB6800225A64FB689B68B3F5A5
:103A3000004F0FD1FB681B681A68FB681B6822F0F7
:103A400040021A60FB681B681A68FB681B6822F456
:103A500080421A60FB681B681B6803F04003402B20
:103A600007D0FB681B681A68FB681B6842F04002BD
:103A70001A60FB68DB68002B70D135E0FB681B68BF
:103A80009B6803F00103012B15D1FB681B6803F150
:103A90000C02FB689B6B1278D2B21A70FB689B6BAE
:103AA0005A1CFB689A63FB68DB8F9BB2013B9AB29E
:103AB000FB68DA8718E0FEF74DFA02467B69D31AF5
:103AC0003A689A4203D83B68B3F1FF3F02D13B68A2
:103AD000002B09D1FB68012283F85120FB680022EA
:103AE00083F85020032358E0FB68DB8F9BB2002B48
:103AF000C4D138E0FB681B689B6803F00103012B0D
:103B000013D1FB681B68DA68FB689B6B92B21A8062
:103B1000FB689B6B9A1CFB689A63FB68DB8F9BB20C
:103B2000013B9AB2FB68DA8718E0FEF713FA024607
:103B30007B69D31A3A689A4203D83B68B3F1FF3FD6
:103B400002D13B68002B09D1FB68012283F8512088
:103B5000FB68002283F8502003231EE0FB68DB8F04
:103B60009BB2002BC6D17A693968F86800F04AFA2E
:103B70000346002B02D0FB6820225A65FB68012215
:103B800083F85120FB68002283F85020FB685B6DAE
:103B9000002B01D0012300E0002318461837BD4652
:103BA00080BD80B58AB000AFF860B9607A607B8074
:103BB00001237B62FEF7CEF93862FB6893F851303F
:103BC000FB77FB685B68BB617B88FB82FB7F012B1B
:103BD0000CD0BB69B3F5827F06D1FB689B68002BD4
:103BE00002D1FB7F042B01D002237FE1BB68002BB5
:103BF00005D07B68002B02D07B88002B01D10123EC
:103C000074E1FB6893F85030012B01D102236DE180
:103C1000FB68012283F85020FB6893F85130DBB237
:103C2000042B03D0FB68052283F85120FB68002297
:103C30005A65FB687A689A63FB687A88DA87FB685A
:103C40007A889A87FB68BA681A63FB687A88DA868A
:103C5000FB687A889A86FB6800221A64FB68002257
:103C60005A64FB681B681B6803F04003402B07D0B5
:103C7000FB681B681A68FB681B6842F040021A6008
:103C8000FB68DB68B3F5006F7ED1FB685B68002BD7
:103C900002D0FB8A012B6CD1FB681B6B1A88FB6876
:103CA0001B68DA60FB681B6B9A1CFB681A63FB6875
:103CB000DB8E9BB2013B9AB2FB68DA8659E0FB6867
:103CC0001B689B6803F00203022B1BD1FB68DB8E91
:103CD0009BB2002B16D07B6A012B13D1FB681B6BA8
:103CE0001A88FB681B68DA60FB681B6B9A1CFB6810
:103CF0001A63FB68DB8E9BB2013B9AB2FB68DA86E3
:103D000000237B62FB681B689B6803F00103012BA7
:103D100019D1FB68DB8F9BB2002B14D0FB681B68AA
:103D2000DA68FB689B6B92B21A80FB689B6B9A1CEB
:103D3000FB689A63FB68DB8F9BB2013B9AB2FB681E
:103D4000DA8701237B62FEF705F902463B6AD31A44
:103D50003A6B9A420DD83B6BB3F1FF3F09D0FB6839
:103D6000012283F85120FB68002283F850200323AE
:103D7000BCE0FB68DB8E9BB2002BA0D1FB68DB8F25
:103D80009BB2002B9BD182E0FB685B68002B02D0CA
:103D9000FB8A012B71D1FB681A6BFB681B680C3323
:103DA00012781A70FB681B6B5A1CFB681A63FB685D
:103DB000DB8E9BB2013B9AB2FB68DA865DE0FB6862
:103DC0001B689B6803F00203022B1CD1FB68DB8E8F
:103DD0009BB2002B17D07B6A012B14D1FB681A6BA6
:103DE000FB681B680C3312781A70FB681B6B5A1C3B
:103DF000FB681A63FB68DB8E9BB2013B9AB2FB68DF
:103E0000DA8600237B62FB681B689B6803F0010372
:103E1000012B19D1FB68DB8F9BB2002B14D0FB6800
:103E20001B68DA68FB689B6BD2B21A70FB689B6BED
:103E30005A1CFB689A63FB68DB8F9BB2013B9AB20A
:103E4000FB68DA8701237B62FEF784F802463B6A4F
:103E5000D31A3A6B9A4203D83B6BB3F1FF3F02D1BE
:103E60003B6B002B09D1FB68012283F85120FB68D2
:103E7000002283F85020032338E0FB68DB8E9BB2DE
:103E8000002B9CD1FB68DB8F9BB2002B97D13A6A49
:103E9000396BF86800F008F90346002B08D0FB687E
:103EA00020225A65FB68002283F8502001231DE080
:103EB000FB689B68002B0AD100233B61FB681B68F1
:103EC000DB683B61FB681B689B683B613B69FB6887
:103ED000012283F85120FB68002283F85020FB6800
:103EE0005B6D002B01D0012300E00023184628372A
:103EF000BD4680BD80B588B000AFF860B9603B605A
:103F00001346FB71FEF726F80246BB6A9B1A3A6815
:103F10001344FB61FEF71EF8B861394B1B685B0167
:103F20001B0DFA6902FB03F37B6154E03B68B3F1BC
:103F3000FF3F50D0FEF70EF80246BB69D31AFA696C
:103F40009A4202D9FB69002B3DD1FB681B685A6875
:103F5000FB681B6822F0E0025A60FB685B68B3F5FF
:103F6000827F11D1FB689B68B3F5004F04D0FB68DA
:103F70009B68B3F5806F07D1FB681B681A68FB6804
:103F80001B6822F040021A60FB689B6AB3F5005F71
:103F90000FD1FB681B681A68FB681B6822F400528B
:103FA0001A60FB681B681A68FB681B6842F40052C1
:103FB0001A60FB68012283F85120FB68002283F815
:103FC0005020032317E07B69002B01D10023FB6104
:103FD0007B69013B7B61FB681B689A68BB68134087
:103FE000BA689A420CBF01230023DBB21A46FB7960
:103FF0009A429BD1002318462037BD4680BD00BFA2
:104000000000002080B586B002AFF860B9607A6029
:10401000FB685B68B3F5827F11D1FB689B68B3F5E1
:10402000004F04D0FB689B68B3F5806F07D1FB6835
:104030001B681A68FB681B6822F040021A60FB6864
:104040005B68B3F5827F17D1FB689B68B3F5806F1F
:1040500012D17B680093BB6800220121F868FFF74A
:1040600049FF0346002B1AD0FB685B6D43F020022A
:10407000FB685A65032313E07B680093BB6800224A
:104080008021F868FFF736FF0346002B07D0FB6856
:104090005B6D43F02002FB685A65032300E00023B8
:1040A00018461037BD4680BD80B586B002AFF860B7
:1040B000B9607A607B680093BB6801220221F868CE
:1040C000FFF718FF0346002B07D0FB685B6D43F03A
:1040D0002002FB685A65032313E07B680093BB68EA
:1040E00000228021F868FFF705FF0346002B07D068
:1040F000FB685B6D43F02002FB685A65032300E018
:10410000002318461037BD4680BD002B2DE9F0472F
:104110001D46BBBF03F100431D4600232D2388B07D
:104120001446B8BF1446129A109E1370149BDDF803
:104130004CA023F02008B8F1460F05D0B8F1450F88
:1041400000D10136022300E0032307AA049206AA45
:10415000CDE902A2CDE9003622462B4600F084FECE
:10416000B8F1470F074619D1119BDB070ED500EBBD
:1041700006090022002320462946FCF715FC08B159
:10418000CDF81C903022079B4B451ED33846079B29
:10419000159ADB1B136008B0BDE8F087B8F1460F35
:1041A00000EB0609E5D10378302B0AD10022002369
:1041B00020462946FCF7F8FB18B9C6F10106CAF8F3
:1041C0000060DAF800309944D3E7591C07911A705F
:1041D000D9E7F7B50029B6BF2D232B23494209297A
:1041E0000270437029DD0DF107031D460A27B1FB5C
:1041F000F7F61A4607FB1614303402F8014C0C4649
:10420000632C314603F1FF33F1DC3031941E03F8A7
:10421000011C2346411CAB420AD30DF109039B1A32
:10422000AC4288BF002302330344181A03B0F0BD28
:1042300013F8016B01F8016FEDE730233031837023
:10424000C170031DF1E700002DE9F04F91B00C465D
:10425000DDF8688016461F46054600F0F5FC036849
:1042600018460893FBF774FF00230E93D8F800302C
:104270000990073323F0070303F1080294F818A00C
:10428000D4F800B0C8F80020D3E9008929F0004331
:104290000B93CDF828804FF0FF32DDE90A01C4E925
:1042A00012899C4BFCF7B2FB70BBDDE90A014FF0B1
:1042B000FF32984BFCF78CFB30BB002200234046BA
:1042C0004946FCF77BFB10B12D2384F84330924A1A
:1042D000924BBAF1470F8CBF9046984603234FF09C
:1042E000000923612BF0040323603346214628464E
:1042F00000970FAA00F0D4F9013040F090804FF001
:10430000FF3011B0BDE8F08F42464B46404649466B
:10431000FCF77CFB48B14B46002BB8BF2D23804AED
:10432000B8BF84F843307F4BD3E763680AF0DF01FE
:104330005A1C3FD10623636000224BF48063236044
:1043400006920EAACDE904A20DAA03920DF1330242
:10435000CDE9013263684246009328464B460A91F4
:10436000FFF7D3FE0A99804647290D9928D1C81C2A
:1043700002DB6368994240DDAAF1020A5FFA8AFA19
:104380005246013904F150000D91FFF722FF0E9AB9
:1043900081461318012A236102DC2268D20701D565
:1043A000013323619DF83330002B9ED02D2384F8F8
:1043B00043309AE74729BFD1002BBDD10123BAE78B
:1043C000BAF1650FDCD9BAF1660F18D1002963681C
:1043D0000BDD216113B92268D00702D501330B44EC
:1043E00023614FF00009A165DCE713B92268D20709
:1043F00001D50233F4E70123F2E74FF0670A0E9B81
:10440000994205DB23682161D807EAD54B1CE7E711
:104410000029CCBF0122C1F102021344E0E7236866
:104420005A0507D42369424631462846B847013029
:104430002BD164E7BAF1650F40F2DC80D4E91201B8
:1044400000220023FCF7B0FA002833D001233146C4
:104450002846354AB84701303FF451AFDDE90D3801
:10446000434502DB2368D8070FD5DDE90823314631
:104470002846B84701303FF442AF4FF0000908F139
:10448000FF3804F11A0AC84509DC23689B0700F1CC
:104490000281E0680F9B9842B8BF184631E70123BC
:1044A000524631462846B84701303FF428AF09F15B
:1044B0000109E8E70D9B002B38DC01233146284633
:1044C000194AB84701303FF41AAFDDE90D3959EA0E
:1044D000030302D12368D907D7D5DDE90823314684
:1044E0002846B84701303FF40AAF4FF0000A04F104
:1044F0001A0B0D9B5B42534501DC4B4693E70123AE
:104500005A4631462846B84701303FF4F8AE0AF122
:10451000010AEEE7FFFFEF7FA66E0008A26E00081B
:10452000AE6E0008AA6E0008B26E0008A36DDDF83A
:1045300038A05345A8BF5346002B994636DC4FF0B0
:10454000000B29EAE97904F11A02A36D0A93A3EB9F
:1045500009035B4531DC0D9B9A453ADC2368DA0799
:1045600037D40D9BAAEB03090A9BAAEB03039945D9
:10457000A8BF9946B9F1000F33DC4FF0000829EAD3
:10458000E97904F11A0B0D9BAAEB0303A3EB0903D2
:1045900043457FF77AAF01235A4631462846B8474C
:1045A00001303FF4ACAE08F10108ECE74246314679
:1045B0002846B8470130C2D1A1E60123314628463A
:1045C0000A92B84701303FF49AAE0A9A0BF1010BF8
:1045D000BBE73146DDE908232846B8470130C0D1A2
:1045E0008DE60A9A4B46314628464244B847013088
:1045F000C3D184E6DDF838A0BAF1010F01DCDB0796
:1046000036D50123424631462846B84701303FF4AB
:1046100076AEDDE9082331462846B84701303FF43D
:104620006EAED4E91201002200230AF1FF3AFCF732
:10463000BBF9C0B9534608F1010231462846B847D4
:1046400001300CD15BE601235A4631462846B84773
:1046500001303FF454AE08F10108D045F3DB4B467E
:1046600004F15002E0E64FF0000804F11A0BF4E701
:1046700001234246E1E701234A4631462846B8472E
:1046800001303FF43CAE08F10108E3680F995B1A72
:104690004345F0DCFDE64FF0000804F11909F4E7AA
:1046A0002DE9F047164698468A680B6907469342FB
:1046B000B8BF1346336091F843200C46DDF82090D4
:1046C0000AB1013333602368990642BF336802336D
:1046D0003360256815F0060506D104F1190AE36870
:1046E00032689B1AAB422BDC94F843302268003BC3
:1046F00018BF0123920630D44146384604F14302E4
:10470000C847013023D02368226903F00603042B35
:1047100014BF002533684FF0000608BFE56804F1B8
:104720001A0408BFED1A54F8123C08BF25EAE575D3
:104730009342C4BF9B1AED18B5421AD1002008E07D
:104740000123524641463846C847013003D14FF055
:10475000FF30BDE8F0870135C1E73020E11881F86E
:1047600043005A1C94F845102244023382F8431047
:10477000C2E70123224641463846C8470130E6D009
:104780000136D9E72DE9FF470F7E9146782F804605
:104790000C469A460C9E01F1430207D8622F0AD8B4
:1047A000002F00F0D180582F00F0B88004F14206AD
:1047B00084F842703AE0A7F16303152BF6D801A103
:1047C00051F823F01D48000831480008AD470008A3
:1047D000AD470008AD470008AD4700083148000864
:1047E000AD470008AD470008AD470008AD470008D9
:1047F0002F4900085B480008E9480008AD47000859
:10480000AD47000851490008AD4700085B48000863
:10481000AD470008AD470008F148000833681A1D8D
:104820001B68326004F1420684F8423001239CE0A8
:1048300033682068191D3160060601D51D6803E044
:104840004506FBD5B3F90050002D03DA2D236D4248
:1048500084F843300A23584811E021683368080679
:1048600053F8045B02D4490648BFADB26F2F3360E2
:1048700014BF0A2308235048002184F843106668B7
:10488000002EA66005DB21682E4321F00401216083
:104890004BD01646B5FBF3F103FB1157C75D06F885
:1048A000017D2F46BB420D46F4D9082B0BD123685E
:1048B000DF0708D5236961689942DEBF302306F817
:1048C000013C06F1FF36921B22614B4621464046D1
:1048D000CDF800A003AAFFF7E3FE01304AD14FF064
:1048E000FF3004B0BDE8F087236843F02003236065
:1048F0007827324884F84570236831681F0651F8DC
:10490000045B02D45F0648BFADB23160D90744BF33
:1049100043F0200323601DB11023ADE72648E9E7EB
:10492000236823F020032360F6E71646BDE73368CB
:104930002568181D616930602E061B6801D5196055
:1049400002E06806FBD51980002316462361BCE708
:10495000336800211A1D32601E686268304600F01C
:10496000EAF908B1801B606063682361002384F862
:104970004330AAE73246494640462369D0470130D2
:10498000ADD023689B0713D4E068039B9842B8BF5F
:104990001846A6E70123324649464046D047013033
:1049A0009DD00135E36803995B1AAB42F2DCEBE77B
:1049B000002504F11906F5E7B46E0008C56E00087D
:1049C000002310B50446C0E90033C0E90433836016
:1049D00081814366C2818361194608225C3000F000
:1049E0002AF90D4B246263620C4BA3620C4BE36209
:1049F0000C4B23630C4B9C4206D003F1680294429B
:104A000002D0D0339C4205D104F15800BDE81040DB
:104A100000F08EB910BD00BFB14B0008D34B0008A9
:104A20000B4C00082F4C0008CC020020024A03491E
:104A3000034800F069B800BF0C000020B166000810
:104A40001C00002041680C4B10B59942044601D06F
:104A500001F02EFEA168094B994202D0204601F0D8
:104A600027FEE168064B994204D02046BDE810407D
:104A700001F01EBE10BD00BFCC0200203403002098
:104A80009C03002010B50B4B0B4C0C4A20461A60BF
:104A900004210022FFF794FF04F16800012209219C
:104AA000FFF78EFF04F1D0000222BDE81040122172
:104AB000FFF786BF04040020CC0200202D4A000826
:104AC000014800F036B900BF0D040020014800F095
:104AD00031B900BF0D04002010B50446FFF7F0FF08
:104AE000236A1BB1BDE81040FFF7F0BF044B2362FF
:104AF000044B1B68002BF5D1FFF7C4FFF2E700BFA2
:104B0000454A0008040400202DE9F843074688467A
:104B100014460026D4E90195B9F1010905D52468A8
:104B2000002CF7D13046BDE8F883AB89012B07D9BB
:104B3000B5F90E30013303D029463846C047064345
:104B40006835E9E70CB430B5184B0C1E1D689DB0F4
:104B500008DA8B234FF0FF302B601DB0BDE83040EA
:104B600002B070474FF40273ADF814304FF00003F9
:104B70001B930CBF234604F1FF33049307934FF6B6
:104B8000FF7302900690ADF81630284621AB209AAC
:104B900002A9019301F010FC431CBCBF8B232B60C6
:104BA000002CDAD00022029B1A70D6E718000020F1
:104BB00010B50C46B1F90E1000F06CF80028ABBF30
:104BC000636DA3891B1823F48053ACBF6365A38175
:104BD00010BD2DE9F0411F468B890546DB050C46CB
:104BE000164605D502230022B1F90E1000F040F858
:104BF000A389324623F48053A38128463B46B4F967
:104C00000E10BDE8F04100F057B810B50C46B1F9F0
:104C10000E1000F02DF8431CA38915BF606523F426
:104C2000805343F48053A38118BFA38110BDB1F911
:104C30000E1000F00DB803460244934200D17047B5
:104C400003F8011BF9E700000048704758010020F5
:104C500038B50023054D044608462B60FDF78FF854
:104C6000431C02D12B6803B1236038BD0804002027
:104C700038B50446084611460022054D2A601A46FA
:104C8000FDF7A1F8431C02D12B6803B1236038BDA6
:104C90000804002038B50446084611460022054D98
:104CA0002A601A46FDF732F8431C02D12B6803B183
:104CB000236038BD0804002038B504460846114674
:104CC0000022054D2A601A46FDF73DF8431C02D12B
:104CD0002B6803B1236038BD08040020014B18681D
:104CE000704700BF1800002070B500260C4D0D4C19
:104CF000641BA410A64209D102F076F800260A4DE2
:104D00000A4C641BA410A64205D170BD55F8043BA3
:104D100098470136EEE755F8043B98470136F2E72D
:104D20001C7200081C7200081C7200082072000827
:104D3000704770477047034610B5C9B202449342AA
:104D4000184601D1002003E0047801338C42F6D1EB
:104D500010BD2DE9F74F03690C690746A3427EDBBE
:104D6000013CA30000F1140501F11408009305EBC8
:104D70008403019358F8243055F8242001339A42D3
:104D8000B2FBF3F608EB84092ED34FF0000AC446B9
:104D9000AE46D3465CF8043B98B206FB00A01B0C61
:104DA000020C06FB0323DEF8002080B292B2121A36
:104DB0005A44DEF800004FEA134A9BB2C3EB224389
:104DC00003EB104392B242EA0342E1454FEA234B20
:104DD0004EF8042BDED2009BEB582BB9019B043B11
:104DE0009D421A462FD33C61384601F081F90028D4
:104DF00025DB2946002058F8042BD1F800C01FFA03
:104E000082FE1FFA8CF3A3EB0E030344120CC2EBD9
:104E1000234202EB1C429BB243EA0243C1454FEAE4
:104E2000224041F8043BE6D255F8242005EB8403E8
:104E300022B9043B9D421A460BD33C6101363046F1
:104E400003B0BDE8F08F1268043B002ACBD1013CCF
:104E5000C6E71268043B002AEFD1013CEAE70020D4
:104E6000EEE70000000000002DE9F04F14461D465B
:104E7000C76997B08146CDE90645239E7FB91020CA
:104E800000F00EFE0246C9F81C0020B9EF21AC4B21
:104E9000AC4801F06DFCC0E901770760C760D9F844
:104EA0001C30196859B15A68012393404A608B60DD
:104EB000484600F0EBFE0022D9F81C301A602B1E89
:104EC000AFBF0023012223F000430793A8BF336044
:104ED000DDF81C809C4BB8BF326033EA080312D166
:104EE00042F20F73229A1360C8F31303234300F0B6
:104EF0005E85249BDFF854A2002B00F060850AF148
:104F0000030300F05ABDDDE90623CDE90C23DDE9FA
:104F10000C0100220023FBF747FD074658B101238F
:104F2000229A1360249B13B1894B249A1360DFF8F3
:104F300024A200F044BD14AB019315AB0093484686
:104F4000DDE90C2301F084F9C8F30A560390002E22
:104F500078D0DDE90C010D9BA6F2FF36C3F31303F5
:104F600043F07F5343F440131297194600227A4BC3
:104F7000FBF7FAF86CA3D3E90023FBF7ADFA6CA3B7
:104F8000D3E90023FBF7F2F8044630460D46FBF761
:104F900039FA69A3D3E90023FBF79EFA02460B46D0
:104FA00020462946FBF7E2F804460D46FBF744FD90
:104FB00000220746002320462946FBF7FFFC40B1AC
:104FC0003846FBF71FFA22462B46FBF7EDFC00B9EB
:104FD000013F162F54D8DDE90C01604B03EBC703EA
:104FE000D3E90023FBF7EAFC00284BD00023013F64
:104FF0000F93149B9B1B5A1E49BFC3F1010300234F
:1050000004930023099254BF04930993002F3BDBC0
:10501000099B0E973B44099300230A93209B092B7D
:1050200065D8052BC4BF043B2093209BC8BF002438
:10503000A3F10203D8BF0124032B64D8DFE803F0F7
:105040005355382CDDE914631E4406F23243202BFD
:10505000C1BFC3F1400308FA03F806F2124324FA71
:1050600003F3D6BFC3F1200348EA030004FA03F0B8
:10507000FBF7B8F90122A1F1F873013E129274E72F
:105080000123B5E70F90B4E7049BDB1B04937B423D
:105090000A9300230E93C1E701230B93219B07EB97
:1050A000030B0BF10103012B0893B8BF012306E0AA
:1050B00001230B93219B002B28DD9B4608930021A5
:1050C0000422D9F81C0002F114059D4226D9416042
:1050D000484600F09BFD8246002843D1024640F23C
:1050E000AF111F4BD4E60023E3E70023D5E70124EB
:1050F00000230B9420934FF0FF3B00221223CDF8A6
:1051000020B02192DBE701230B93F4E74FF0010B72
:105110005B46CDF820B0CDF884B0D0E70131520025
:10512000D1E700BFAFF3008061436F63A787D23F31
:10513000B3C8608B288AC63FFB799F501344D33F86
:10514000E36E0008FA6E00080000F07FDF6E0008D2
:10515000B36E0008B26E00080000F83F4870000807
:10516000526F0008D9F81C301860089B0E2B00F213
:10517000A180002C00F09E80002F33DD9C4B07F0B7
:105180000F0203EBC203F805D3E90034CDE9103474
:105190004FEA271416D5DDE90C01964B0326D3E917
:1051A0000823FBF7C3FACDE9060104F00F04914D83
:1051B00054B9DDE91023DDE90601FBF7B7FACDE9C3
:1051C000060128E00226F2E7E10708D5DDE9100133
:1051D000D5E90023FBF780F9CDE910010136641011
:1051E0000835E5E700F0AF80DDE90C017C42804B3B
:1051F00004F00F0203EBC203D3E90023FBF76CF9C1
:1052000002260023CDE906017A4D2411002C40F03E
:105210008F80002BD3D1DDE906450F9B002B00F0DA
:105220009480002220462946734BFBF7C7FB0028D9
:1052300000F08B80089B002B00F08780BBF1000FF3
:1052400034DD2046002229466C4BFBF745F95C46CD
:10525000CDE9060107F1FF3801363046FBF7D2F8F9
:10526000DDE90623FBF738F90022654BFAF77EFFEC
:105270000546A1F15076002C6AD1DDE90601002235
:10528000604BFAF771FF02460B46CDE906232A462A
:105290003346FBF7B1FB002840F09882DDE90601B8
:1052A0002A4606F10043FBF789FB38BBDDE90C34E5
:1052B000CDE90634159B002BC0F257810E2F00F369
:1052C00054814B4B03EBC703D3E90034CDE90434DD
:1052D000219B002B80F2E580089B002B00F3E180EE
:1052E0000CD1DDE904010022464BFBF7F5F8DDE9BE
:1052F0000623FBF777FB002800F066820024254692
:10530000219B56466FEA030800272146484600F0D5
:10531000BDFC002D00F0BD802FB1AF4203D0394657
:10532000484600F0B3FC2946484600F0AFFCB0E028
:10533000E20705D5D5E90023FBF7CEF801230136B6
:105340006410083562E7022665E7B846089C84E7E2
:10535000274B0B9903EBC40353E902235444002960
:1053600054D000202849FBF7E1F933462A46FAF7E2
:10537000FBFE5646CDE91001DDE90601FBF75CFBBB
:105380000546FBF73FF802460B46DDE90601FAF752
:10539000EBFE02460B463035CDE90623DDE910234E
:1053A00006F8015BFBF70AFB002872D1DDE9062352
:1053B00000201149FAF7D8FEDDE91023FBF7FEFAC9
:1053C000002840F0B480A6423FF470AFDDE9100140
:1053D00000220A4BFBF780F80022CDE91001DDE93D
:1053E0000601064BFBF778F8CDE90601C4E700BFDC
:1053F00048700008207000080000F03F00002440C2
:1054000000001C40000014400000E03F31462846E8
:10541000FBF762F85646CDE910011394DDE9060169
:10542000FBF70AFB0546FAF7EDFF02460B46DDE9FE
:105430000601FAF799FE02460B46303506F8015B85
:10544000A642CDE906234FF0000224D1DDE9100188
:10545000AE4BFAF78BFE02460B46DDE90601FBF781
:10546000CBFA002863D1DDE910230020A749FAF721
:105470007BFE02460B46DDE90601FBF79FFA00289A
:105480003FF414AF139E731E139316F8013C302B98
:10549000F8D047463BE09E4BFBF71EF8CDE90601EE
:1054A000BCE75646DDE90645DDE9042320462946EA
:1054B000FBF73CF9FBF7C0FA8046FAF7A3FFDDE9FA
:1054C0000423FBF709F802460B4620462946FAF763
:1054D0004BFE08F13004089D06F8014BA6EB0A04C8
:1054E000A54202460B4633D1FAF740FEDDE904231C
:1054F00004460D46FBF780FAC0B9DDE904232046D7
:105500002946FBF751FA10B118F0010F0ED14846A9
:10551000039900F0BBFB00233370229B01371F600F
:10552000249B002B00F04B821E6048E2B8463346B5
:105530001E4613F8012D392A06D19A45F8D130229A
:1055400008F101088AF800201A7801321A70A0E7E1
:1055500000226F4BFAF7C0FF0022002304460D46DD
:10556000FBF722FA00289FD0D1E70B9A002A00F01F
:10557000EA80209A012A00F3CD80129A002A00F0D6
:10558000C18003F233430A9C049E049A01211A4409
:105590000492099A48461A44099200F02BFC0546E9
:1055A00066B1099B002B09DDB342A8BF3346049ABC
:1055B000F61AD21A0492099AD31A09930A9B0BB3CA
:1055C0000B9B002B00F0C680002C00F0C080294609
:1055D0002246484600F0C6FC039A01460546484666
:1055E00000F01EFC03998046484600F04FFB0A9BE2
:1055F0001B1B0A9300F0B18041460A9A484600F00E
:10560000B1FC03900121484600F0F4FB0E9B0446D8
:10561000002B00F0D8811A460146484600F0A2FC53
:10562000209B0446012B00F39F80069B002B40F03B
:105630009780079BC3F31303002B40F09380079BD5
:1056400023F000431B0D1B0533B1049B013304936E
:10565000099B0133099301230A930E9B002B00F051
:10566000B881236904EB8303186900F077FBC0F16C
:105670002000099B184410F01F0000F08280C0F148
:105680002003042B73DD049BC0F11C00034404932E
:10569000099B064403440993049B002B05DD1A462D
:1056A0004846039900F0B8FC0390099B002B05DDE8
:1056B00021461A46484600F0AFFC04460F9B002BDB
:1056C00061D02146039800F013FD00285BDA002327
:1056D0000A224846039900F0FBFA0B9B07F1FF38BA
:1056E0000390002B00F07781294600230A224846C8
:1056F00000F0EEFABBF1000F05466FDC209B022B99
:1057000049DC6BE0149BC3F136033CE70000E03F4B
:1057100000002440089B5C1E0A9BA34209DB1C1B63
:10572000089B002BBFF630AF049B089A9E1A0023FB
:105730002BE70A9B0E9AE31A1A440A94049E00244B
:10574000089B0E9221E70A9C049E0B9D28E7DDF83A
:105750000C8051E70A9A039950E7CDF80C8051E785
:10576000002379E7069B77E700230A9379E793D034
:10577000049A1C331A440492099A1E441A4409924A
:105780008AE70346F4E7089BB846002B20DC9B46DB
:10579000209B022B1EDDBBF1000F7FF4B1AD214633
:1057A0005B460522484600F093FA014604460398FA
:1057B00000F09EFC00287FF7A3AD5646312308F188
:1057C000010806F8013B9FE5B846089C2546F4E72A
:1057D000DDF820B00B9B002B00F00181002E05DDD1
:1057E00029463246484600F017FC05460A9B002B26
:1057F0005CD04846696800F009FA064628B90246B6
:1058000040F2EF21804BFFF743BB2A6905F10C0101
:10581000023292000C3000F09DFF012231464846D2
:1058200000F0FAFB2F4605460AF1010304930AEB48
:105830000B030A93069B03F001030993049B214683
:10584000039803F1FF3BFFF784FA034639463033F0
:10585000069003980B9300F04BFC2A4608902146D3
:10586000484600F061FCC26806460B9B02BB01463D
:10587000039800F03DFC02460B9B31464846CDE9BB
:105880000B3200F003FA209B0C9A049E42EA0301BB
:10589000099B19430B9B0DD1392B27D0089A002A5D
:1058A00001DD069B31338BF800302EE52846B9E741
:1058B0000122E2E70899002904DB209801430998B6
:1058C000014320D1002AEEDD0122039948460493CA
:1058D00000F0A2FB2146039000F00AFC0028049B84
:1058E00002DCE0D1DA07DED5392BDAD139238BF8A7
:1058F000003033461E4616F8012C013B392A4ED0A3
:1059000001321A7001E5002A03DD392BEED0013394
:10591000C9E7049A0A9902F8013C8A4228D0002378
:105920000A220399484600F0D3F9AF4203904FF0A2
:1059300000034FF00A023946484607D100F0C8F983
:1059400007460546049B0133049377E700F0C0F94E
:105950002946074600230A22484600F0B9F90546C1
:10596000F0E7BBF1000FCCBF5E460126002756448E
:10597000012203994846049300F04EFB2146039010
:1059800000F0B6FB0028B4DC02D1049BDB07B0D4E6
:1059900033461E4613F8012D302AFAD0B5E49A4555
:1059A000A8D1312308F101088AF80030ADE4249B26
:1059B000DFF858A01BB10AF10803249A136050467F
:1059C00017B0BDE8F08F209B012B7FF72EAE0E9B0A
:1059D0000A9301204DE6BBF1000F7FF7D9AE564682
:1059E00021460398FFF7B5F900F1300306F8013BB3
:1059F000A6EB0A029345B4DD00230A224846039928
:105A000000F066F90390EBE7526F0008D66E0008CD
:105A100038B50546002940D051F8043C0C1F002B36
:105A2000B8BFE41800F0E6F81C4A136833B96360A5
:105A300014602846BDE8384000F0E2B8A34208D917
:105A4000206821188B4201BF19685B680918216022
:105A5000EDE71A465B680BB1A342FAD911685018FA
:105A6000A0420BD120680144501883421160E0D15C
:105A700018685B68084410605360DAE702D90C23A9
:105A80002B60D6E7206821188B4201BF19685B683C
:105A90000918216063605460CBE738BD140400200E
:105AA000024B0146186800F025B800BF180000201E
:105AB00070B50F4E0C463168054611B900F03AFE3C
:105AC00030602146284600F035FE431C03D14FF0DC
:105AD000FF34204670BDC41C24F00304A042F8D05B
