:020000040800F2
:1000000000500020F55C0008C15A0008C95A0008D9
:10001000D15A0008D95A0008E15A0008000000002F
:10002000000000000000000000000000E95A000885
:10003000F55A000800000000015B00080D5B000895
:100040003D5D00083D5D00083D5D00083D5D000828
:100050003D5D00083D5D00083D5D00083D5D000818
:100060003D5D00083D5D00083D5D00083D5D000808
:100070003D5D00083D5D00083D5D00083D5D0008F8
:100080003D5D00083D5D00083D5D00083D5D0008E8
:100090003D5D00083D5D00083D5D0008195B0008FE
:1000A0003D5D00083D5D00083D5D00083D5D0008C8
:1000B000315B00083D5D00083D5D00083D5D0008C6
:1000C0003D5D00083D5D00083D5D00083D5D0008A8
:1000D0003D5D00083D5D00083D5D00083D5D000898
:1000E000455B00083D5D00083D5D00080000000024
:1000F0000000000000000000000000000000000000
:0C01000000000000000000005FF808F1A3
:1001100010B5054C237833B9044B13B10448AFF341
:1001200000800123237010BDF001002000000000BA
:100130004CB9000808B5034B1BB103490348AFF3A2
:10014000008008BD00000000F40100204CB9000848
:1001500010F8012B11F8013B012A28BF9A42F7D071
:10016000D01A7047034613F8012B002AFBD1181A46
:100170000138704781F0004102E000BF83F0004386
:1001800030B54FEA41044FEA430594EA050F08BF32
:1001900090EA020F1FBF54EA000C55EA020C7FEAF6
:1001A000645C7FEA655C00F0E2804FEA5454D4EB73
:1001B0005555B8BF6D420CDD2C4480EA020281EA3D
:1001C000030382EA000083EA010180EA020281EA75
:1001D0000303362D88BF30BD11F0004F4FEA0131C7
:1001E0004FF4801C4CEA113102D0404261EB4101D6
:1001F00013F0004F4FEA03334CEA133302D052425C
:1002000063EB430394EA050F00F0A780A4F1010417
:10021000D5F1200E0DDB02FA0EFC22FA05F2801851
:1002200041F1000103FA0EF2801843FA05F3594137
:100230000EE0A5F120050EF1200E012A03FA0EFCB6
:1002400028BF4CF0020C43FA05F3C01851EBE371E0
:1002500001F0004507D54FF0000EDCF1000C7EEBFD
:1002600000006EEB0101B1F5801F1BD3B1F5001F3B
:100270000CD349085FEA30004FEA3C0C04F101045A
:100280004FEA445212F5800F80F09A80BCF1004F83
:1002900008BF5FEA500C50F1000041EB045141EA05
:1002A000050130BD5FEA4C0C404141EB0101013CCE
:1002B00028BFB1F5801FE9D291F0000F04BF0146BD
:1002C0000020B1FA81F308BF2033A3F10B03B3F18F
:1002D00020020CDA0C3208DD02F1140CC2F10C021F
:1002E00001FA0CF021FA02F10CE002F11402D8BF7D
:1002F000C2F1200C01FA02F120FA0CFCDCBF41EA49
:100300000C019040E41AA2BF01EB0451294330BD17
:100310006FEA04041F3C1CDA0C340EDC04F11404F4
:10032000C4F1200220FA04F001FA02F340EA0300CB
:1003300021FA04F345EA030130BDC4F10C04C4F111
:10034000200220FA02F001FA04F340EA03002946F1
:1003500030BD21FA04F0294630BD94F0000F83F43B
:10036000801306BF81F480110134013D4EE77FEA1E
:10037000645C18BF7FEA655C29D094EA050F08BF6A
:1003800090EA020F05D054EA000C04BF194610464B
:1003900030BD91EA030F1EBF0021002030BD5FEA8F
:1003A000545C05D14000494128BF41F0004130BDB7
:1003B00014F580043CBF01F5801130BD01F000450B
:1003C00045F0FE4141F470014FF0000030BD7FEA7E
:1003D000645C1ABF194610467FEA655C1CBF0B4679
:1003E000024650EA013406BF52EA033591EA030F90
:1003F00041F4002130BD00BF90F0000F04BF002188
:10040000704730B54FF4806404F132044FF00005BA
:100410004FF0000150E700BF90F0000F04BF002133
:10042000704730B54FF4806404F1320410F0004599
:1004300048BF40424FF000013EE700BF42004FEA94
:10044000E2014FEA31014FEA02701FBF12F07F4311
:1004500093F07F4F81F06051704732F07F4208BFC8
:10046000704793F07F4F04BF41F40021704730B5CF
:100470004FF4607401F0004521F000411CE700BF1B
:1004800050EA010208BF704730B54FF000050AE09E
:1004900050EA010208BF704730B511F0004502D59F
:1004A000404261EB41014FF4806404F132045FEAA1
:1004B000915C3FF4D8AE4FF003025FEADC0C18BF4A
:1004C00003325FEADC0C18BF033202EBDC02C2F13C
:1004D000200300FA03FC20FA02F001FA03FE40EACE
:1004E0000E0021FA02F11444BDE600BF70B54FF0D2
:1004F000FF0C4CF4E06C1CEA11541DBF1CEA1355B0
:1005000094EA0C0F95EA0C0F00F0DEF82C4481EA17
:10051000030621EA4C5123EA4C5350EA013518BF37
:1005200052EA033541F4801143F4801338D0A0FB24
:1005300002CE4FF00005E1FB02E506F00042E0FBD1
:1005400003E54FF00006E1FB03569CF0000F18BFD7
:100550004EF0010EA4F1FF04B6F5007F64F540747F
:1005600004D25FEA4E0E6D4146EB060642EAC62112
:1005700041EA55514FEAC52040EA5E504FEACE2E7F
:10058000B4F1FD0C88BFBCF5E06F1ED8BEF1004F82
:1005900008BF5FEA500E50F1000041EB045170BDFE
:1005A00006F0004646EA010140EA020081EA030142
:1005B000B4EB5C04C2BFD4EB0C0541EA045170BD3E
:1005C00041F480114FF0000E013C00F3AB8014F1B8
:1005D000360FDEBF002001F0004170BDC4F1000401
:1005E000203C35DA0C341BDC04F11404C4F1200582
:1005F00000FA05F320FA04F001FA05F240EA0200DD
:1006000001F0004221F0004110EBD37021FA04F612
:1006100042EB06015EEA430E08BF20EAD37070BDCC
:10062000C4F10C04C4F1200500FA04F320FA05F02B
:1006300001FA04F240EA020001F0004110EBD3702D
:1006400041F100015EEA430E08BF20EAD37070BD9D
:10065000C4F1200500FA05F24EEA020E20FA04F376
:1006600001FA05F243EA020321FA04F001F0004125
:1006700021FA04F220EA020000EBD3705EEA430E96
:1006800008BF20EAD37070BD94F0000F0FD101F0C5
:100690000046400041EB010111F4801F08BF013CFE
:1006A000F7D041EA060195F0000F18BF704703F03C
:1006B0000046520043EB030313F4801F08BF013DC3
:1006C000F7D043EA0603704794EA0C0F0CEA13557F
:1006D00018BF95EA0C0F0CD050EA410618BF52EA39
:1006E0004306D1D181EA030101F000414FF000003F
:1006F00070BD50EA410606BF1046194652EA43064D
:1007000019D094EA0C0F02D150EA013613D195EAC0
:100710000C0F05D152EA03361CBF104619460AD108
:1007200081EA030101F0004141F0FE4141F4700112
:100730004FF0000070BD41F0FE4141F4780170BD02
:1007400070B54FF0FF0C4CF4E06C1CEA11541DBF67
:100750001CEA135594EA0C0F95EA0C0F00F0A7F869
:10076000A4EB050481EA030E52EA03354FEA013196
:1007700000F088804FEA03334FF0805545EA1313A9
:1007800043EA12634FEA022245EA111545EA106571
:100790004FEA00260EF000419D4208BF964244F108
:1007A000FD0404F5407402D25B084FEA3202B61A27
:1007B00065EB03055B084FEA32024FF480104FF4FB
:1007C000002CB6EB020E75EB030E22BFB61A75466F
:1007D00040EA0C005B084FEA3202B6EB020E75EB02
:1007E000030E22BFB61A754640EA5C005B084FEA6A
:1007F0003202B6EB020E75EB030E22BFB61A754637
:1008000040EA9C005B084FEA3202B6EB020E75EB41
:10081000030E22BFB61A754640EADC0055EA060E02
:1008200018D04FEA051545EA16754FEA06164FEA45
:10083000C30343EA52734FEAC2025FEA1C1CC0D1F1
:1008400011F4801F0BD141EA00014FF000004FF07E
:10085000004CB6E711F4801F04BF01430020B4F13F
:10086000FD0C88BFBCF5E06F3FF6AFAEB5EB030CF7
:1008700004BFB6EB020C5FEA500C50F1000041EBF4
:10088000045170BD0EF0004E4EEA113114EB5C04C1
:10089000C2BFD4EB0C0541EA045170BD41F4801194
:1008A0004FF0000E013C90E645EA060E8DE60CEA9C
:1008B000135594EA0C0F08BF95EA0C0F3FF43BAFB9
:1008C00094EA0C0F0AD150EA01347FF434AF95EA70
:1008D0000C0F7FF425AF104619462CE795EA0C0F54
:1008E00006D152EA03353FF4FDAE1046194622E721
:1008F00050EA410618BF52EA43067FF4C5AE50EAFB
:1009000041047FF40DAF52EA43057FF4EBAE12E7EA
:100910004FF0FF3C06E000BF4FF0010C02E000BFCB
:100920004FF0010C4DF804CD4FEA410C7FEA6C5CAE
:100930004FEA430C18BF7FEA6C5C1BD001B050EA51
:10094000410C0CBF52EA430C91EA030F02BF90EA3C
:10095000020F0020704710F1000F91EA030F58BFFB
:10096000994208BF90422CBFD8176FEAE37040F05D
:10097000010070474FEA410C7FEA6C5C02D150EAFB
:10098000013C07D14FEA430C7FEA6C5CD6D152EAB6
:10099000033CD3D05DF8040B704700BF844610467B
:1009A00062468C461946634600E000BF01B5FFF77A
:1009B000B7FF002848BF10F1000F01BD4DF808ED4A
:1009C000FFF7F4FF0CBF012000205DF808FB00BF1B
:1009D0004DF808EDFFF7EAFF34BF012000205DF875
:1009E00008FB00BF4DF808EDFFF7E0FF94BF0120C2
:1009F00000205DF808FB00BF4DF808EDFFF7CEFFC3
:100A000094BF012000205DF808FB00BF4DF808ED01
:100A1000FFF7C4FF34BF012000205DF808FB00BFD2
:100A20004FEA410C7FEA6C5C02D150EA013C0AD1EA
:100A30004FEA430C7FEA6C5C02D152EA033C02D1DC
:100A40004FF0000070474FF0010070474FEA41023D
:100A500012F5001215D211D56FF47873B3EB625210
:100A600012D94FEAC12343F0004343EA505311F037
:100A7000004F23FA02F018BF404270474FF00000C9
:100A8000704750EA013005D111F0004008BF6FF007
:100A9000004070474FF00000704700BF80F00040FA
:100AA00002E000BF81F0004142001FBF5FEA410346
:100AB00092EA030F7FEA226C7FEA236C6AD04FEA46
:100AC0001262D2EB1363C1BFD2184140484041408B
:100AD000B8BF5B42192B88BF704710F0004F40F43D
:100AE000000020F07F4018BF404211F0004F41F459
:100AF000000121F07F4118BF494292EA030F3FD025
:100B0000A2F1010241FA03FC10EB0C00C3F1200337
:100B100001FA03F100F0004302D5494260EB4000C6
:100B2000B0F5000F13D3B0F1807F06D340084FEA31
:100B3000310102F10102FE2A51D2B1F1004F40EB26
:100B4000C25008BF20F0010040EA0300704749008E
:100B500040EB0000013A28BFB0F5000FEDD2B0FA2B
:100B600080FCACF1080CB2EB0C0200FA0CF0AABF4E
:100B700000EBC25052421843BCBFD04018437047EC
:100B800092F0000F81F4000106BF80F400000132F2
:100B9000013BB5E74FEA41037FEA226C18BF7FEAC9
:100BA000236C21D092EA030F04D092F0000F08BF0B
:100BB0000846704790EA010F1CBF0020704712F0F2
:100BC0007F4F04D1400028BF40F00040704712F131
:100BD00000723CBF00F50000704700F0004343F096
:100BE000FE4040F4000070477FEA226216BF0846CC
:100BF0007FEA23630146420206BF5FEA412390EA8F
:100C0000010F40F4800070474FF0000304E000BF84
:100C100010F0004348BF40425FEA000C08BF704735
:100C200043F0964301464FF000001CE050EA0102F9
:100C300008BF70474FF000030AE000BF50EA01020E
:100C400008BF704711F0004302D5404261EB4101FB
:100C50005FEA010C02BF84460146002043F0B64320
:100C600008BFA3F18053A3F50003BCFA8CF2083A45
:100C7000A3EBC25310DB01FA02FC634400FA02FC4E
:100C8000C2F12002BCF1004F20FA02F243EB020055
:100C900008BF20F00100704702F1200201FA02FCB7
:100CA000C2F1200250EA4C0021FA02F243EB0200AA
:100CB00008BF20EADC7070474FF0FF0C1CEAD052EE
:100CC0001EBF1CEAD15392EA0C0F93EA0C0F6FD0AF
:100CD0001A4480EA010C400218BF5FEA41211ED08D
:100CE0004FF0006343EA501043EA5111A0FB013179
:100CF0000CF00040B1F5000F3EBF490041EAD3714E
:100D00005B0040EA010062F17F02FD2A1DD8B3F1C9
:100D1000004F40EBC25008BF20F00100704790F038
:100D2000000F0CF0004C08BF49024CEA502040EA8A
:100D300051207F3AC2BFD2F1FF0340EAC250704750
:100D400040F400004FF00003013A5DDC12F1190F8E
:100D5000DCBF00F000407047C2F10002410021FA00
:100D600002F1C2F1200200FA02FC5FEA310040F118
:100D7000000053EA4C0308BF20EADC70704792F091
:100D8000000F00F0004C02BF400010F4000F013AC9
:100D9000F9D040EA0C0093F0000F01F0004C02BFC4
:100DA000490011F4000F013BF9D041EA0C018FE733
:100DB0000CEAD15392EA0C0F18BF93EA0C0F0AD039
:100DC00030F0004C18BF31F0004CD8D180EA01005F
:100DD00000F00040704790F0000F17BF90F0004FF8
:100DE000084691F0000F91F0004F14D092EA0C0FDA
:100DF00001D142020FD193EA0C0F03D14B0218BF6D
:100E0000084608D180EA010000F0004040F0FE40B2
:100E100040F40000704740F0FE4040F4400070474E
:100E20004FF0FF0C1CEAD0521EBF1CEAD15392EACD
:100E30000C0F93EA0C0F69D0A2EB030280EA010CBD
:100E400049024FEA402037D04FF0805343EA111156
:100E500043EA10130CF000408B4238BF5B0042F1B4
:100E60007D024FF4000C8B4224BF5B1A40EA0C0059
:100E7000B3EB510F24BFA3EB510340EA5C00B3EB8B
:100E8000910F24BFA3EB910340EA9C00B3EBD10F79
:100E900024BFA3EBD10340EADC001B0118BF5FEACB
:100EA0001C1CE0D1FD2A3FF650AF8B4240EBC250F4
:100EB00008BF20F0010070470CF0004C4CEA5020B5
:100EC0007F32C2BFD2F1FF0340EAC250704740F404
:100ED00000004FF00003013A37E792F0000F00F0F6
:100EE000004C02BF400010F4000F013AF9D040EA74
:100EF0000C0093F0000F01F0004C02BF490011F408
:100F0000000F013BF9D041EA0C0195E70CEAD153FF
:100F100092EA0C0F08D142027FF47DAF93EA0C0FE6
:100F20007FF470AF084676E793EA0C0F04D14B02CA
:100F30003FF44CAF08466EE730F0004C18BF31F07C
:100F4000004CCAD130F000427FF45CAF31F0004376
:100F50007FF43CAF5FE700BF4FF0FF3C06E000BF0F
:100F60004FF0010C02E000BF4FF0010C4DF804CD32
:100F70004FEA40024FEA41037FEA226C18BF7FEA42
:100F8000236C11D001B052EA530C18BF90EA010F44
:100F900058BFB2EB030088BFC81738BF6FEAE170D3
:100FA00018BF40F0010070477FEA226C02D15FEA6F
:100FB000402C05D17FEA236CE4D15FEA412CE1D0DB
:100FC0005DF8040B704700BF844608466146FFE7A2
:100FD0000FB5FFF7C9FF002848BF10F1000F0FBD84
:100FE0004DF808EDFFF7F4FF0CBF012000205DF87D
:100FF00008FB00BF4DF808EDFFF7EAFF34BF012002
:1010000000205DF808FB00BF4DF808EDFFF7E0FF9A
:1010100094BF012000205DF808FB00BF4DF808EDEB
:10102000FFF7D2FF94BF012000205DF808FB00BF4E
:101030004DF808EDFFF7C8FF34BF012000205DF830
:1010400008FB00BF4FEA40024FEA41037FEA226CEF
:1010500002D15FEA402C08D17FEA236C02D15FEA1B
:10106000412C02D14FF0000070474FF00100704753
:101070004FEA4002B2F1FE4F0FD34FF09E03B3EBA5
:1010800012620DD94FEA002343F0004310F0004FE5
:1010900023FA02F018BF404270474FF0000070473B
:1010A00012F1610F01D1420205D110F0004008BFDA
:1010B0006FF0004070474FF00000704742000ED2C2
:1010C000B2F1FE4F0BD34FF09E03B3EB126209D483
:1010D0004FEA002343F0004323FA02F070474FF039
:1010E0000000704712F1610F01D1420202D14FF0AE
:1010F000FF3070474FF00000704700BF80B582B0EE
:1011000000AF7860084611461A460346FB700B464E
:10111000BB7013467B702F4A7B681360FB785B00C3
:10112000DAB22C4B1A712B4ABB785371294A7B785F
:101130009371284B0822DA71322004F063FE254BAC
:10114000DB79184600F030F94FF47A7004F05AFE5B
:10115000302000F017F9052004F054FE302000F094
:1011600011F9052004F04EFE302000F00BF90120AB
:1011700004F048FE202000F005F9164B00221A72F8
:10118000144B9B79012B06D9124B1B7A43F00803B1
:10119000DAB2104B1A720F4B1B7A43F02003DBB20A
:1011A000184600F09DF80B4B04225A7200F01EF80E
:1011B000084B02229A72074B9B7A43F00403DBB27E
:1011C000184600F08DF800F007F800BF0837BD465C
:1011D00080BD00BF0C02002080B500AF012000F0F0
:1011E0007FF8022004F00EFE00BF80BD80B500AF86
:1011F000084B5B7A43F00403DAB2064B5A72054B94
:101200005B7A43F00803DBB2184600F069F800BFD0
:1012100080BD00BF0C02002080B500AF084B5B7A98
:1012200023F00103DAB2064B5A72054B5B7A43F0A6
:101230000803DBB2184600F053F800BF80BD00BFC2
:101240000C02002080B500AF084B5B7A43F001032D
:10125000DAB2064B5A72054B5B7A43F00803DBB2F5
:10126000184600F03DF800BF80BD00BF0C02002012
:1012700080B500AF034B0822DA71002000F094F82B
:1012800000BF80BD0C02002080B584B000AF0346D3
:101290000A46FB711346BB710F4BFB600F4B9B79EA
:1012A000BA799A4203D30D4B9B79013BBB71BB7951
:1012B00010333B4413F8042CFB791344DBB25BB2CC
:1012C00063F07F035BB2DBB2184600F009F800BFA1
:1012D0001037BD4680BD00BF004014540C020020F2
:1012E00080B582B000AF0346FB71FB790021184640
:1012F00000F027F800BF0837BD4680BD80B582B03A
:1013000000AF0346FB71FB790121184600F019F884
:1013100000BF0837BD4680BD80B582B000AF7860A1
:1013200006E07B685A1C7A601B781846FFF7E6FFD8
:101330007B681B78002BF4D100BF00BF0837BD4687
:1013400080BD80B584B000AF03460A46FB711346EA
:10135000BB71FB7923F00F03FB73FB791B01BB739C
:10136000FA7BBB791343DBB2184600F00BF8BA7B6B
:10137000BB791343DBB2184600F004F800BF103706
:10138000BD4680BD80B582B000AF0346FB71FB79DE
:10139000184600F009F8FB79184600F023F800BF62
:1013A0000837BD4680BD000080B586B002AF034659
:1013B000FB710B4BDA79FB791343DBB23B73084BC0
:1013C0001868074B1B79194607F10C020A23009392
:1013D000012305F041FB00BF1037BD4680BD00BFB3
:1013E0000C02002080B582B000AF0346FB71FB7990
:1013F00043F00403DBB21846FFF7D6FFFB7923F076
:101400000403DBB21846FFF7CFFF00BF0837BD4625
:1014100080BD80B500AFFFF715FF00BF80BD80B570
:1014200000AFFFF7F9FE00BF80BD80B483B000AF0E
:1014300078600B46FB707B68002B10D07B68012224
:101440001A737B68FA785A737B681B69B3F1FF3FA4
:1014500006D07B681B695A1C7B681A6100E000BFDC
:101460000C37BD4680BC704780B586B000AF786051
:101470000B46FB701346BB707B68002B07D07B6864
:101480001B68002B03D07B685B68002B01D1002315
:1014900040E0FB7863F07F03DBB23B73BB787B7388
:1014A0000123FB7500233B612BE07B6858687B6858
:1014B0001B890022194605F05BF97B68186807F163
:1014C0000C010A23022206F09FFA0346FB757B6893
:1014D00058687B681B890122194605F049F9FB7D94
:1014E000002B04D17B6800225A73012312E03B6970
:1014F0000133012B02D8012004F084FC3B69013345
:101500003B613B69012BD0D9FB7D19467868FFF719
:101510008CFF002318461837BD4680BD80B586B0C5
:1015200000AFF8607A601A460B46FB721346BB7236
:10153000FB68002B0DD0FB681B68002B09D0FB68F3
:101540005B68002B05D07B68002B02D0BB7A002B98
:1015500001D100234BE0FB7A03F07F03DBB2FB7287
:101560000123FB7500233B6138E0FB685868FB688A
:101570001B890022194605F0FBF8FB68186807F183
:101580000B010A23012206F03FFA0346FB75FB7D9F
:10159000002B09D1FB681868BB7A9AB20A237968D4
:1015A00006F076FB0346FB75FB685868FB681B89F1
:1015B0000122194605F0DCF8FB7D002B04D1FB6805
:1015C00000225A73012312E03B690133012B02D838
:1015D000012004F017FC3B6901333B613B69012B9F
:1015E000C3D9FB7D1946F868FFF71FFF0023184693
:1015F0001837BD4680BD80B584B000AFF8600B469B
:101600007A60FB727B68002B01D1002309E07B68C4
:1016100000221A70F97A01237A68F868FFF77EFFD2
:10162000034618461037BD4680BD80B586B000AF72
:10163000F8600B467A60FB727B68002B01D10023B7
:1016400022E007F1140300210A461A800A469A7024
:101650007B6800221A6007F11402F97A0323F86804
:10166000FFF75CFF034683F00103DBB2002B01D0E0
:10167000002309E03B7D1A047B7D1B021343BA7DE6
:101680001A437B681A60012318461837BD4680BD8F
:1016900080B483B000AF78607B68002B06D07B6895
:1016A00000221A737B6800225A7300E000BF0C37D7
:1016B000BD4680BC704780B483B000AF78607B6863
:1016C000002B03D07B681B7B002B01D0012300E0A3
:1016D000002318460C37BD4680BC704780B584B0E7
:1016E00000AFF860B9607A607B80FB68002B05D0A2
:1016F000BB68002B02D07B68002B01D100235EE089
:10170000FB68BA681A60FB687A685A60FB687A8876
:101710001A81FB6800229A72FB680022DA72FB6869
:1017200000221A73FB6800225A73FB6800221A61B8
:10173000FB685868FB681B890122194605F018F8F8
:1017400000220221F868FFF78FFE034683F00103B1
:10175000DBB2002B01D0002331E010220021F86819
:10176000FFF782FE034683F00103DBB2002B01D0BA
:10177000002324E000220921F868FFF775FE0346E4
:1017800083F00103DBB2002B01D0002317E003211B
:10179000F86800F05BF8FB681B7B002B01D000238E
:1017A0000DE00021F86800F00EF8FB681B7B002BB1
:1017B00001D0002303E0FB680122DA7201231846FE
:1017C0001037BD4680BD80B584B000AF78600B4651
:1017D000FB707B68002B33D00023FB7307F10F03F2
:1017E0001A4600217868FFF706FF034683F00103DD
:1017F000DBB2002B26D1FB78022B0AD1FB7B63F0F6
:101800007F03DBB2FB73FB7B23F04003DBB2FB7394
:1018100009E0FB7B03F07F03DBB2FB73FB7B43F050
:101820004003DBB2FB73FB7B1A4600217868FFF7AD
:101830001BFE0346002B06D07B68FA789A7202E002
:1018400000BF00E000BF1037BD4680BD80B584B04A
:1018500000AF78600B46FB707B68002B22D0002322
:10186000FB7307F10F031A4601217868FFF7C3FEE7
:10187000034683F00103DBB2002B15D1FB7B23F081
:101880000F03DBB2FB73FB7803F00F03DAB2FB7BD1
:101890001343DBB2FB73FB7B1A4601217868FFF729
:1018A000E3FD02E000BF00E000BF1037BD4680BD91
:1018B00080B584B000AF78600023FB7307F10F039D
:1018C0001A460F217868FFF796FE034683F001035E
:1018D000DBB2002B01D0FF2300E0FB7B1846103762
:1018E000BD4680BD80B584B000AF78600B46FB700C
:1018F0007B68002B23D00023FB7307F10F031A46EC
:1019000000217868FFF777FE034683F00103DBB21E
:10191000002B16D1FB78002B05D1FB7B43F0010394
:10192000DBB2FB7304E0FB7B23F00103DBB2FB7350
:10193000FB7B1A4600217868FFF796FD02E000BFA6
:1019400000E000BF1037BD4680BD80B584B000AF59
:1019500078607B68002B23D07B689B7A022B1FD09A
:101960000023FB7307F10F031A4600217868FFF785
:1019700042FE034683F00103DBB2002B12D1FB7B56
:1019800003F07F03DBB2FB73FB7B43F04003DBB26E
:10199000FB73FB7B1A4600217868FFF765FD02E0C8
:1019A00000BF00E000BF1037BD4680BD80B584B0E9
:1019B00000AF78607B68002B01D100231EE07B68BC
:1019C0009B7A022B01D1012318E00023FB7307F15E
:1019D0000F031A4600217868FFF70DFE034683F0D7
:1019E0000103DBB2002B01D0002307E0FB7B03F0F7
:1019F0004003002B0CBF01230023DBB21846103735
:101A0000BD4680BD80B586B000AF78607B68002B96
:101A100001D12D4B54E07B689B7A002B27D178684D
:101A2000FFF793FF7B681B7B002B01D0264B47E021
:101A300004F0DEF9386111E07B681B7B002B01D0DC
:101A4000214B3DE004F0D4F902463B69D31AFA2B4E
:101A500001D91D4B34E00A2004F0D4F97868FFF76F
:101A6000A5FF034683F00103DBB2002BE4D1002382
:101A7000FB6007F10C031A460C217868FFF7D5FDCF
:101A8000034683F00103DBB2002B01D00E4B17E0BD
:101A9000FB687B61FB6803F40003002B03D07B69C8
:101AA00043F07F437B617B695B117B617869FFF762
:101AB000AFF803464FF070511846FFF7FDF80346A4
:101AC00018461837BD4680BD0000C07F80B582B083
:101AD00000AF78607B68002B31D07B681B6A002BDD
:101AE0002DD07B68DB69002B29D07B681B6A1A68C4
:101AF0007B68DA627B68DB691A687B681A637B68DB
:101B0000DA6A7B68DB6B19461046FFF791FA0346E9
:101B1000002B04D07B68DA6B7B68DA6210E07B68AC
:101B2000DA6A7B689B6B19461046FFF763FA034637
:101B3000002B05D07B689A6B7B68DA6200E000BFFF
:101B40000837BD4680BD000080B586B002AFF860A2
:101B5000B9607A603B60FB68002B2CD0FB687A6828
:101B60001A62FB68BA68DA61FB683A685A62FB6815
:101B70000022DA76124A4FF00001F86800F0B5F959
:101B8000FB6864225A6397F828301946F86800F019
:101B900035FA97F8243000933B6AFA69B969F86816
:101BA00000F0E8F804F024F90246FB685B6BD21AF7
:101BB000FB689A6200E000BF1037BD4680BD00BFE1
:101BC00000007F4390B58BB000AF78607B68002B3E
:101BD00006D07B68DB7E83F00103DBB2002B01D0F3
:101BE0000023C3E07B68DB69002B07D07B681B6A9E
:101BF000002B03D07B685B6A002B01D10023B5E08A
:101C000004F0F6F838627B689B6A3A6AD31AFB6183
:101C10007B685B6BFA699A42C0F0A7807B68DB69DE
:101C20001B68BB617B685B6A1B687B61B96978690B
:101C3000FEF738FF03463B617B681B6B1946B869AA
:101C4000FEF730FF0346FB607B68DC6A7B681B693C
:101C500039691846FFF730F8034619462046FEF763
:101C600023FF03461A467B68DA627B689B7E83F01B
:101C70000103DBB2002B10D07B68DC6A7B68DB6879
:101C8000F9681846FFF718F8034619462046FEF78C
:101C900009FF03461A467B68DA627B68DA6A7B686A
:101CA000DB6B19461046FFF7C3F90346002B04D03F
:101CB0007B68DA6B7B68DA620EE07B68DA6A7B68E5
:101CC0009B6B19461046FFF795F90346002B03D08E
:101CD0007B689A6B7B68DA627B689B7E002B08D0FE
:101CE0007B68DB6819463869FEF7E6FF03467B62CE
:101CF00002E04FF000037B627B68DC6A7B685B6913
:101D0000F9681846FEF7D8FF034619462046FEF745
:101D1000C9FE03461946786AFEF7C6FE03467B6293
:101D20007B68DB6B1946786AFFF782F90346002B64
:101D300003D07B68DB6B7B620BE07B689B6B194697
:101D4000786AFFF757F90346002B02D07B689B6B3C
:101D50007B627B681B6A7A6A1A607B68BA691A635D
:101D60007B683A6A9A62012300E0002318462C3708
:101D7000BD4690BD80B586B000AFF860B9607A60AE
:101D80003B60FB68002B72D04FF00001B868FFF792
:101D900031F90346002B6AD14FF000017868FFF754
:101DA00029F90346002B62D14FF000013868FFF794
:101DB00021F90346002B5AD1FB6897F820205A7668
:101DC00097F82030012B0CBF01230023DAB2FB6807
:101DD0009A76FB68BA681A60FB687A685A60FB6892
:101DE0003A689A60FB685B6B1846FEF70DFF034686
:101DF00021491846FFF714F803467B61FB68BA686F
:101E0000DA6079697868FEF757FF03461A46FB687F
:101E10001A6179693868FFF703F803461A46FB68C8
:101E20005A61FB681B7E012B22D1FB68DB681946D7
:101E30004FF00000FEF736FE03461A46FB68DA60F4
:101E4000FB681B6919464FF00000FEF72BFE0346A6
:101E50001A46FB681A61FB685B6919464FF000007F
:101E6000FEF720FE03461A46FB685A6100E000BFF9
:101E70001837BD4680BD00BF00007A4490B585B0DC
:101E800000AF786039607B68002B2AD03B68002B5C
:101E900028D03868FEF7B8FE04467B685B6B1846AE
:101EA000FEF7B2FE034619462046FEF7B9FF034689
:101EB000FB607B681B69F9681846FEF7FDFE034668
:101EC0001A467B681A617B685B69F9681846FEF7F9
:101ED000A7FF03461A467B685A617B683A685A63D3
:101EE00000E000BF1437BD4690BD80B584B000AFA0
:101EF000F860B9607A60FB68002B57D07968B868E1
:101F0000FFF78CF80346002B50D1FB68BA689A6340
:101F1000FB687A68DA63FB68DB7E002B47D0FB68DE
:101F20001B6A002B22D0FB681B6A1A68FB68DB6BFC
:101F300019461046FFF77CF80346002B05D0FB68D6
:101F40001B6AFA68D26B1A6010E0FB681B6A1A6899
:101F5000FB689B6B19461046FFF74CF80346002BB5
:101F600004D0FB681B6AFA68926B1A60FB68DA6A35
:101F7000FB68DB6B19461046FFF75AF80346002B47
:101F800004D0FB68DA6BFB68DA6210E0FB68DA6A9F
:101F9000FB689B6B19461046FFF72CF80346002B95
:101FA00005D0FB689A6BFB68DA6200E000BF10376F
:101FB000BD4680BD80B584B000AF78600B46FB7035
:101FC0007B68002B16D0FB78012B0CBF012300236C
:101FD000FB73FB7B002B09D07B68DB7E83F0010366
:101FE000DBB2002B02D07868FFF770FD7B68FA7BCC
:101FF000DA7600E000BF1037BD4680BD80B582B004
:1020000000AF78600B46FB707B68002B2DD07B689F
:10201000DB7E002B25D07B681B7EFA789A4220D08D
:102020007B68DB6819464FF00000FEF73BFD034676
:102030001A467B68DA607B681B6919464FF000001E
:10204000FEF730FD03461A467B681A617B685B69C0
:1020500019464FF00000FEF725FD03461A467B683F
:102060005A617B68FA781A7600E000BF0837BD46EF
:1020700080BD80B483B000AF78607B681B68184671
:102080000C37BD4680BC704780B483B000AF786029
:102090007B685B6818460C37BD4680BC704780B4CF
:1020A00083B000AF78607B689B6818460C37BD46EC
:1020B00080BC704780B483B000AF78607B68DB7E03
:1020C00018460C37BD4680BC7047000080B584B010
:1020D00000AF0346FB8003F08BFEF860FB88B3F58E
:1020E000807F0CD12A4B1B68FA68D31AC82B06D9FB
:1020F000284B01221A70264AFB68136043E0FB88D4
:10210000B3F5007F0CD1244B1B68FA68D31AC82B97
:1021100006D9224B01221A701F4AFB68136032E075
:10212000FB88B3F5004F0CD11D4B1B68FA68D31A1E
:10213000C82B06D91B4B01221A70194AFB68136081
:1021400021E0FB88B3F5006F0CD1174B1B68FA68D0
:10215000D31AC82B06D9154B01221A70124AFB68F4
:10216000136010E0FB88B3F5806F0CD1104B1B6837
:10217000FA68D31AC82B06D90E4B01221A700C4AE2
:10218000FB681360FFE700BF1037BD4680BD00BF8E
:102190008403002098030020880300209903002076
:1021A000940300209A030020900300209B0300204A
:1021B0008C0300209C03002080B483B000AF7860C3
:1021C0007B681B68B3F1804F16D10E4B1B78DBB2D6
:1021D000012B11D10C4B1B78DBB2002B0CD10B4B1C
:1021E0001B680133094A1360094B1B78DBB2002BD3
:1021F00002D1084B01221A7000BF0C37BD4680BCCB
:10220000704700BFE803002081030020EC0300209A
:10221000E90300201400002080B584B000AF78608E
:1022200039603868FDF79EFFF860FB68102B01D914
:102230001023FB60FA683968786807F012FB00BF6A
:102240001037BD4680BD000080B483B000AF0346A8
:10225000FB71FB79082B01D900231AE0FB790F4AA7
:10226000DB0013441B791A464FF4616303FB02F24F
:10227000FB790A49DB000B445B7919460B461B01CD
:102280005B1A9B001A44FB790449DB000B449B79E1
:10229000134418460C37BD4680BC7047A00300208D
:1022A00080B483B000AF2A4B1B78002B03D0284B9F
:1022B0001B78092B02D9264B01221A700023FB71CF
:1022C0003CE0FB79234A12F83330002B0AD0FB792B
:1022D000204A12F83330012B04D0FB791D4A00212B
:1022E00002F83310FB791B4ADB0013445B88B3F51B
:1022F000A06F06D9FB79174ADB0013444FF4A062A4
:102300005A80FB79134ADB0013445B793B2B05D9D8
:10231000FB79104ADB0013443B225A71FB790D4ACA
:10232000DB0013449B793B2B05D9FB79094ADB0081
:1023300013443B229A71FB790133FB71FB79082B23
:10234000BFD900BF00BF0C37BD4680BC704700BF7F
:1023500011000020A003002080B400AF2C4B1B789C
:10236000002B50D02A4B1A782A4B1B789A424AD815
:10237000294B1B78DBB2032B13D1284B1B88B3F5F9
:10238000A06F03D9254B4FF4A0621A80204B1B7815
:10239000013B224A1188224ADB0013440A465A8034
:1023A00032E01D4B1B78DBB2042B2DD11D4B1B786B
:1023B0003B2B02D91B4B3B221A701B4B1B783B2B30
:1023C00002D9194B3B221A70114B1B78013B174A5B
:1023D0001178134ADB0013440A461A710C4B1B7820
:1023E000013B104A11780E4ADB0013440A465A7129
:1023F000074B1B78013B0C4A1178094ADB00134458
:102400000A469A7100E000BFBD4680BC704700BF1D
:102410001300002011000020E90300200404002024
:10242000A003002007040020080400200604002068
:1024300080B500AF00228021234804F099F9234899
:10244000FFF738FE0346002B03D000211F48FFF79B
:10245000B1FD1F4B4FF000021A601E4B4FF00002FF
:102460001A601A4B4FF00002DA621B4B00221A70FE
:102470001A4B1B681A4A13601A4B4FF000021A607D
:10248000194B4FF000021A60184B00221A70184BBB
:10249000FF221A70114B1B68164A13600F4B1B6802
:1024A000154A1360154B4FF000021A60144B4FF0A1
:1024B00000021A60134B4FF000021A60074B1B68B2
:1024C000114A136000BF80BD000C014020030020B2
:1024D00064030020700300204504002060030020F6
:1024E000480400204C040020500400205404002024
:1024F000160000206004002064040020680400200E
:102500006C040020700400207404002080B582B0A8
:1025100000AF1E4B1B78DBB2012B33D11C4BDB6AA7
:102520001C4A13601C4B1B681C4A1360EFF310839A
:102530003B603B687B6072B600BF144B02221A708E
:102540007B68002B01D162B600BF002280211448B5
:1025500004F00EF90E48FFF7ADFD0346002B03D043
:1025600000210B48FFF726FD0E4B4FF000021A60CA
:10257000094B4FF000021A6003F03AFC03460A4A86
:10258000136000E000BF0837BD4680BDE8030020AF
:102590002003002058040020700300205C04002069
:1025A000000C0140640300206C03002080B584B05F
:1025B00000AF354B1B78DBB2022B0BD1334B1B78B2
:1025C000DBB2002B06D1324B1B7883F00103DBB268
:1025D000002B01D0002352E003F00AFCF8602D4BE1
:1025E0001B682D4A136001212C48FFF7E3FC2C4B9C
:1025F0001B682A4AD362294BDB6A4FF00001184658
:10260000FEF7F8FC0346002B03D0244B4FF00002EA
:10261000DA62224BDB6A23491846FEF709FD0346BE
:10262000002B02D01D4B1F4ADA621F4B1B681B4A4E
:1026300013631A4B5B6BFA68D31A184A9362164BF2
:102640004FF000021A60194B4FF000021A60184A4E
:10265000FB68136000228021164804F089F8EFF32C
:1026600010837B607B68BB6072B600BF064B0122A3
:102670001A70BB68002B01D162B600BF0123184657
:102680001037BD4680BD00BFE80300208103002055
:102690007F0300205C04002064030020200300204E
:1026A0005804002000007A446003002070030020DA
:1026B0006C030020000C014080B582B000AF0346DF
:1026C000FB71FB79002B0BD0074AFB791370074B8A
:1026D00000221A70FFF7ACFE054B01221A7000E0D1
:1026E00000BF0837BD4680BD81030020E8030020FD
:1026F0001400002080B582B000AFFFF7D1FD534B2E
:102700001B78DBB2002B06D1514B1B7883F0010301
:10271000DBB2002B15D04E4B1B7883F00103DBB2EC
:10272000002B07D0494B1B78DBB2002B02D1474B63
:1027300002221A70474B00221A70FFF779FE00231D
:102740007FE0EFF310833B603B687B6072B600BFB5
:10275000414B00221A60414B01221A70404B00226B
:102760001A60404B1B68404A13600020FFF76CFD65
:1027700003463E4A1360374B01221A707B68002BD8
:1027800001D162B600BF374B1B68394A1360384B22
:102790001B68384A1360384B4FF000021A60374B01
:1027A0004FF000021A60364B4FF00002DA622D4BF8
:1027B0001B68334A136303F01BFB0246304B5B6B11
:1027C000D31A2F4A93622F4A4FF000012E4800F08F
:1027D00083FF2E4B00221A7003F00AFB03462C4A9B
:1027E00013602C4B2C4A1A601E4B1B682B4A13603B
:1027F0001C4B1B682A4A13602A4B4FF000021A60D8
:10280000294B4FF000021A60284B4FF000021A606B
:10281000144B1B68264A13601D4B1B68184600F0BA
:10282000D5FA1B4B1B68184600F026FE002000F06E
:1028300041F8084B1B78DBB2012B0CBF01230023AE
:10284000DBB218460837BD4680BD00BF81030020BB
:102850007F030020E8030020EC030020120000208A
:10286000F803002060030020FC030020F003002098
:102870006803002078030020640300207003002018
:1028800020030020000034430000C8411000002055
:102890006C030020180000200000E04060040020CD
:1028A00064040020680400206C04002070040020F0
:1028B0007404002080B584B000AF78600023FB73FF
:1028C00042E02A4B1B78013BBB73294B1B68BB6062
:1028D000FB7B0133FB73254B1A78264B1B789A42FE
:1028E0002AD2224B1B780133DAB2204B1A70224ACB
:1028F000BB681360214B1B78002B02D0204B1B6858
:1029000008E0BB7B1F4ADB0013445B881846FEF7D8
:102910007BF903461C4A1360144B1B78013BDBB266
:102920001846FFF791FC0246BB681344104A136037
:10293000164B01221A7007E0154B03221A70FFF79D
:1029400077FD124B01221A70114B1B78DBB2012B61
:1029500007D1074B1B687A689A4202D3FB7B082B8E
:10296000AFD900BF1037BD4680BD00BF12000020A8
:10297000F003002011000020F80300207F03002056
:1029800060030020A0030020FC03002014000020AE
:10299000E803002090B589B000AF7860334B1B7816
:1029A000013BFB75FB7D324ADB0013445B88184614
:1029B000FEF72AF903463B61FB7D2D4A12F83330BE
:1029C000002B01D13B694CE0FB7D1846FFF73CFC36
:1029D000F860FB68002B01D13B6942E0254B1B6886
:1029E0007A68D31AFB61FA69FB689A4201D9FB68DD
:1029F000FB61F869FEF708F90446F868FEF704F988
:102A0000034619462046FEF70BFA0346BB601A4BF5
:102A10001B6819463869FEF745F80346B968184639
:102A2000FEF74AF903461A46134B1B68194610462F
:102A3000FEF73AF80346BB614FF00001B869FEF7B4
:102A4000D9FA0346002B02D04FF00003BB610B49BB
:102A5000B869FEF7EDFA0346002B01D0074BBB61C6
:102A6000BB6918462437BD4690BD00BF1200002048
:102A7000A0030020F8030020FC0300200000A04475
:102A800090B58BB000AF78603960664B1B78013B26
:102A9000FB77FB7F644ADB0013445B881846FEF734
:102AA000B3F80346BB61FB7F1846FFF7CDFB7861A7
:102AB0005E4A3B6813605E4B4FF000021A605D4B4C
:102AC0004FF000021A607B69002B08D05A4B1B683C
:102AD0001946B869FEF798FA0346002B04D0574A06
:102AE000BB691360BB6999E0554B1B687A689A42D1
:102AF00004D2534B1A687B68D31A00E000233B6171
:102B00004D4B1B681946B869FDF7CCFF03464D498C
:102B10001846FEF7D1F803461C467869FEF774F8AC
:102B2000034619462046FEF77BF903461A46404BFA
:102B30001A603869FEF768F8034642491846FEF7FE
:102B40006FF903467B624FF08041786AFEF770FAB6
:102B50000346002B02D04FF080437B624FF07A5146
:102B6000786AFEF747FA0346002B02D04FF07A53FB
:102B70007B62354B1B6819463868FDF793FF0346A7
:102B8000FB60796AF868FEF74BF903461A46284B52
:102B90001B6819461046FDF787FF03461A46254B6A
:102BA0001A60244B1B6829491846FEF741FA034670
:102BB000002B02D01F4B254A1A601E4B1B684FF09A
:102BC00000011846FEF716FA0346002B03D0194BF6
:102BD0004FF000021A603B683B62B969386AFEF741
:102BE00027FA0346002B01D0BB693B624FF000017E
:102BF000386AFEF7FFF90346002B02D04FF00003BE
:102C00003B621349386AFEF713FA0346002B01D0E2
:102C10000F4B3B62094A3B6A13603B6A18462C37EC
:102C2000BD4690BD12000020A003002060040020DB
:102C3000680400206C040020FC03002064040020D1
:102C4000F0030020000070426003002000002042DA
:102C50000000A04490B585B000AF4C4B1B78DBB2B0
:102C6000012B40F08A804A4B1B78012B40F0858075
:102C7000484B1B6848491846FEF7BCF90346002B31
:102C80007BD1464B1B6846491846FEF7B3F903460D
:102C9000002B72D1434B1B78013BFB72424B1A68ED
:102CA000424B1B68D31A7B60FB7A414ADB0013441A
:102CB0005B881846FDF7A8FF02463E4B1B68194685
:102CC0001046FDF7EFFE03463B607B682C2B56D980
:102CD00039493868FEF798F90346002B4FD12D4B40
:102CE0001B6819463548FEF79BF803461A462B4BDE
:102CF0001B6819461046FDF7DFFF0346FB60FB68C3
:102D000023F000442E492046FEF79CF90346002B91
:102D100037D12B492046FEF78BF90346002B30D1E3
:102D20004FF07C51F868FEF765F90346002B03D09D
:102D30004FF07C53FB6008E02249F868FEF778F911
:102D40000346002B01D01F4BFB601F4B1B6819462D
:102D5000F868FDF7A7FE034611491846FDF7ACFFDA
:102D600003461A46184B1B6819461046FDF79CFE91
:102D700003461A46144B1A6004E000BF02E000BF8D
:102D800000E000BF1437BD4690BD00BFE80300203F
:102D90001600002070030020008022443804002028
:102DA000CDCCCC3D12000020EC030020F803002025
:102DB000A0030020600300200000404000007A448F
:102DC000FFFF7F7F0000204218000020B0B582B0D6
:102DD00000AF78601B4B4FF000021A601A4B1B6863
:102DE0001A4A13601A4A7B6813601A4B1B78002B2F
:102DF0001DD0154B1B6823F0004401231D461649C6
:102E00002046FEF71FF90346002B08D11249204641
:102E1000FEF70EF90346002B01D100231D46EBB24D
:102E200083F00103DBB2002B01D0012300E000237B
:102E300003F00103DAB2094B1A7000BF0837BD4630
:102E4000B0BD00BF78040020600300207C04002097
:102E5000800400207F030020FFFF7F7F8404002088
:102E600090B587B000AF78604F4B1B7883F00103BB
:102E7000DBB2002B40F08F804C4B1B6823F00044EA
:102E80004B492046FEF7DEF80346002B40F08380D6
:102E900047492046FEF7CCF80346002B7BD1454B33
:102EA0001B7883F00103DBB2002B03D07868FFF7B7
:102EB0008DFF75E0404B1B687A68D31A3B613B6914
:102EC00040F2DB52934268D93869FDF79DFE034614
:102ED0003A491846FDF7A4FF0346FB604FF0000196
:102EE000F868FEF791F80346002B58D12F4B1B686A
:102EF000334A126811461846FDF7D4FD0346F968B7
:102F00001846FDF78DFF03467B617B6923F0004483
:102F100027492046FEF796F80346002B06D12449A0
:102F20002046FEF785F80346002B02D04FF0000341
:102F30007B6124497869FEF77BF80346002B02D0B9
:102F4000204B7B6108E020497869FEF753F803467F
:102F5000002B01D01C4B7B611C4B1B681946786908
:102F6000FDF7A0FD03461A491846FDF7A5FE0346E6
:102F70001A46164B1B6819461046FDF795FD034689
:102F80001A46124B1A60094B1B680D4A13600A4A15
:102F90007B68136004E000BF02E000BF00E000BFF8
:102FA0001C37BD4690BD00BF7F030020600300209A
:102FB000FFFF7F7F840400208004002000606A47B8
:102FC0007C0400200000A0420000A0C27804002081
:102FD0009A99193FB0B596B000AF786039607E4BD2
:102FE0001B78013B87F8373097F837307B4ADB0096
:102FF00013445B881846FDF707FE03463B6397F8CA
:1030000037301846FFF720F9F862754B1B683A68AD
:103010009A4204D2724B1A683B68D31A00E000232C
:10302000BB62704B1B687B656F4B1B6823F00044D1
:1030300001231D466D492046FEF704F80346002B88
:1030400008D16A492046FDF7F3FF0346002B01D162
:1030500000231D46EBB283F00103DBB2002B0BD043
:10306000614B1B681946786DFDF7C4FF0346002BC2
:1030700002D05D4B1B687B65796D386BFDF712FDE7
:1030800003467B625A4B1B68564A12681146184623
:10309000FDF708FD03463B62564B1B683B653B6DE5
:1030A00023F0004451492046FDF7CCFF0346002B96
:1030B00006D14E492046FDF7BBFF0346002B02D048
:1030C0004FF000033B654FF00001386DFDF7B0FF96
:1030D0000346002B01D03B6D01E04FF00003FB6184
:1030E000454B1B684FF000011846FDF7A1FF034652
:1030F000002B02D0404B1B6801E04FF00003BB6186
:10310000FB6A002B08D03D4B1B681946386BFDF756
:103110007BFF0346002B17D0396B786DFDF77EFFE0
:103120000346002B0ED0364B4FF000021A60354B91
:103130004FF00002DA62344B4FF000021A604FF099
:1031400000037CE17B687AE14FF00001786AFDF7CB
:103150005BFF0346002B0BD12C49386BFDF7A4FC19
:1031600003461946786DFDF759FF0346002B11D031
:10317000234B4FF000021A60224B4FF00002DA623C
:10318000214B4FF000021A60214A7B6D13604FF013
:10319000000354E11F4B1B68FB64FB6C23F00044ED
:1031A00012492046FDF74EFF0346002B06D10F497A
:1031B0002046FDF73DFF0346002B01D0164BFB6474
:1031C0004FF07C51F86CFDF715FF0346002B25D01E
:1031D0004FF07C53FB642AE012000020A003002083
:1031E000F00300206003002074030020FFFF7F7FB6
:1031F000600400203804002078040020FC03002034
:10320000640300202003002070040020CDCCCC3DBE
:1032100074040020180000200000E0408A49F86C87
:10322000FDF706FF0346002B01D0874BFB64874B5D
:103230001B68F96C1846FDF7F3FD034684491846F0
:10324000FDF73AFD0346BB644FF00001B86CFDF793
:10325000D1FE0346002B02D04FF00003BB647C4933
:10326000B86CFDF7E5FE0346002B01D0784BBB643C
:10327000764B1B68396D1846FDF714FC03467B61DD
:1032800074497869FDF718FD03461946B86CFDF7D7
:103290000BFC03467B644FF00001786CFDF7AAFE3F
:1032A0000346002B02D04FF000037B646849786C22
:1032B000FDF7BEFE0346002B01D0654B7B64B86A68
:1032C000FDF7A2FC034664491846FDF7A9FD034635
:1032D0003B646249386CFDF7ABFE0346002B01D01E
:1032E0005E4B3B644FF00001386CFDF783FE0346F4
:1032F000002B02D04FF000033B64F969B869FDF779
:1033000097FE0346002B01D0BB6900E0FB693B61DF
:10331000396C3869FDF7D0FC0346796D1846FDF726
:10332000C3FB03461A464E4B1A604E4B1B68396C62
:103330001846FDF7C1FC03461A464B4B1B6819465D
:103340001046FDF7B1FB0346FB63396BF86BFDF7E5
:103350006FFE0346002B01D03B6BFB63404B1B68A9
:10336000F96B1846FDF79EFB0346FB604FF000012A
:10337000F868FDF75DFE0346002B1DD04FF07D5130
:10338000F868FDF74DFD034619464FF07E50FDF7F6
:1033900089FB0346BB634FF00001B86BFDF72AFEC3
:1033A0000346002B02D04FF00003BB63B96B786C6F
:1033B000FDF782FC03467B642C4ABB6C13604FF024
:1033C0000001786CFDF734FE0346002B1CD01E492B
:1033D000786CFDF70FFE0346002B15D04FF07A51A5
:1033E000386AFDF725FE0346002B0AD04FF07A51CC
:1033F000786AFDF71DFE0346002B02D0124B7B645A
:1034000002E04FF000037B644FF00001786CFDF7A1
:10341000F1FD0346002B02D04FF000037B640C4902
:10342000786CFDF705FE0346002B01D0084B7B644A
:103430000F4A7B6C13600F4A7B6CD3627B6C18461F
:103440005837BD46B0BD00BF000020426C040020CC
:1034500000007A440000344200007042CDCC4C3E63
:103460007404002068040020600400207004002020
:103470006403002020030020B0B582B000AF786064
:10348000254B00221A70254B1B68254A1360254BDB
:103490004FF000021A60244B4FF000021A60234BD9
:1034A0004FF000021A601D4B1B68214A1360214A2D
:1034B0007B681360204B1B78002B1DD0174B1B68BB
:1034C00023F0004401231D461C492046FDF7BAFDA8
:1034D0000346002B08D119492046FDF7A9FD0346F4
:1034E000002B01D100231D46EBB283F00103DBB2B8
:1034F000002B01D0012300E0002303F00103DAB226
:103500000F4B1A700F4B00221A700F4BFF221A70CC
:1035100000BF0837BD46B0BD450400206003002051
:10352000480400204C0400205004002038040020EF
:103530003C040020400400207F030020FFFF7F7F29
:1035400044040020540400201600002090B587B0E9
:1035500000AF7860564B1B7883F00103DBB2002B81
:1035600040F09E80534B1B6823F000445249204694
:10357000FDF768FD0346002B40F092804E4920463F
:10358000FDF756FD0346002B40F08A804B4B1B781D
:1035900083F00103DBB2002B0ED0494B4FF0000249
:1035A0001A60444B1B68474A1360474A7B681360A4
:1035B000424B01221A7078E0434B1B687A68D31A99
:1035C0003B613B6941F2873293426BD93869FDF721
:1035D0001BFB03463D491846FDF722FC0346FB60F2
:1035E0004FF00001F868FDF70FFD0346002B5BD19B
:1035F000304B1B68334A126811461846FDF752FAE1
:103600000346F9681846FDF70BFC03467B617B69AE
:1036100023F0004428492046FDF714FD0346002B03
:1036200006D125492046FDF703FD0346002B02D0B5
:103630004FF000037B6126497869FDF7F9FC0346EA
:10364000002B02D0224B7B6108E022497869FDF70C
:10365000D1FC0346002B01D01E4B7B61184B1B682D
:1036600019467869FDF71EFA03464FF07A5118465D
:10367000FDF722FB03461A46114B1B6819461046FC
:10368000FDF712FA03461A460D4B1A60094B1B68E8
:103690000C4A13600C4A7B681360FFF7DBFA04E006
:1036A00000BF02E000BF00E000BF1C37BD4690BD78
:1036B0007F03002060030020FFFF7F7F4404002081
:1036C000380400203C0400204004002000606A47C9
:1036D0000000A0420000A0C290B589B002AFF8601F
:1036E000B9607A602D48FEF7C4FC0346F9681846B5
:1036F000FDF7D8F9034623F0004329491846FDF7A2
:1037000097FC0346002B23D12448FEF7BDFC03465B
:10371000B9681846FDF7C6F9034623F0004320496F
:103720001846FDF785FC0346002B11D11B48FEF718
:10373000B6FC034679681846FDF7B4F9034623F052
:10374000004317491846FDF773FC0346002B01D0D0
:10375000012300E00023FB75FB7D03F00103FB75F3
:10376000FB7D002B07D0012300937B68BA68F968C2
:103770000A48FEF7FFFA01231C464FF00001B86823
:10378000FDF756FC0346002B01D100231C46E2B294
:10379000044B1A7000BF1C37BD4690BD20030020AB
:1037A00017B7D1381000002080B584B000AF786022
:1037B0001B497868FDF780FA03461A491846FDF759
:1037C00073F90346FB601849F868FDF713FC0346DC
:1037D000002B01D0144BFB601449F868FDF728FC5E
:1037E0000346002B01D0114BFB60114B1B6819469F
:1037F000F868FDF7FFFB0346002B02D00C4B1B685B
:10380000FB600C49F868FDF713FC0346002B01D060
:10381000084BFB60FB6818461037BD4680BD00BFF3
:103820006666E63E0000344300007A43008054445C
:103830005004002000007A4480B586B000AF786064
:103840007868FFF7B1FF3861194B1B684FF07D5165
:103850001846FDF731FA0346FB6016493869FDF753
:103860002BFA0346BB60B968F868FDF7E1FB034635
:10387000002B01D0FB6800E0BB687B613969786987
:10388000FDF7D6FB0346002B01D03B697B614FF06F
:1038900000017869FDF7AEFB0346002B02D04FF024
:1038A00000037B617B6918461837BD4680BD00BFA9
:1038B000500400203333B33E80B584B000AF0346DC
:1038C0003960FB712A4B1B78FA799A424BD0FB790D
:1038D000012B1BD1274B1B68274A1268114618463B
:1038E000FDF7A6FB0346002B03D0224B1B68224AA0
:1038F0001360224B4FF000021A601E4B4FF0000283
:103900001A601F4B4FF00002DA6228E0FB79002BAF
:103910000CD11A4B4FF000021A60164B4FF0000208
:103920001A60174B4FF00002DA6218E03868FFF7B0
:1039300083FFF860124AFB68D362104AFB68136089
:103940000C4AFB6813600F4B1B680D4A136302F0AF
:103950004FFA02460A4B5B6BD31A094A9362044A38
:10396000FB79137000E000BF1037BD4680BD00BF7B
:103970004504002070030020500400206403002050
:10398000200300206003002080B584B000AF786081
:10399000396039687868FDF785F80346FB60914B1C
:1039A0001B684FF000011846FDF742FB0346002B51
:1039B00002D08C4B1B6801E04FF00003BB608A49CA
:1039C000B868FDF779F9034639681846FDF76CF8D1
:1039D00003461A46854B1A60854B1B78002B02D094
:1039E000012B59D0B5E083497868FDF75DF80346AF
:1039F00019463868FDF712FB0346002B0ED17D49AE
:103A00007868FDF751F803461A467B4B1B68194648
:103A10001046FDF7F9FA0346002B04D0796801201F
:103A2000FFF74AFF37E07549F868FDF7EDFA0346FE
:103A3000002B1AD07249B868FDF7F0FA0346002B44
:103A400013D070497868FDF72FF803461A46674B84
:103A50001B6819461046FDF7D7FA0346002B04D021
:103A600079680120FFF728FF15E04FF07E51F868D4
:103A7000FDF7CAFA0346002B00D1AFE06249F868AF
:103A8000FDF7CCFA0346002B00D1A7E079680220AD
:103A9000FFF712FFA2E0A1E05C49F868FDF7C8FA61
:103AA0000346002B0DD04F4B1B6852491846FDF7BB
:103AB000ABFA0346002B04D079680020FFF7FCFE28
:103AC0008CE04FF07E51F868FDF7A8FA0346002B12
:103AD00008D0464B1B6819467868FDF79FFA0346E5
:103AE000002B31D1414B1B6819467868FDF796FAD7
:103AF0000346002B00D171E04549F868FDF78EFAC6
:103B00000346002B08D0374B1B683A491846FDF78F
:103B10007BFA0346002B17D1FB6823F000434FF0DC
:103B20007E511846FDF770FA0346002B00D155E090
:103B30002C4B1B6823F0004336491846FDF764FA06
:103B40000346002B00D149E079680220FFF7B4FE5C
:103B500044E028497868FCF7A7FF0346194638680F
:103B6000FDF75CFA0346002B26D122497868FCF762
:103B70009BFF03461A46204B1B6819461046FDF76B
:103B800043FA0346002B17D1164B1B6821491846F0
:103B9000FDF74EFA0346002B13D01A497868FCF75C
:103BA00083FF03461A46114B1B6819461046FDF762
:103BB0002BFA0346002B04D079680120FFF77CFE26
:103BC0000BE01249F868FDF733FA0346002B00D1E9
:103BD00003E079680020FFF76FFE00BF00BF1037D9
:103BE000BD4680BD380400203D0AD73E4804002071
:103BF000450400209A99993E74030020000020405B
:103C00009A99193ECDCC4C3E9A9999BE00004040FD
:103C10009A99193FCDCC4C3F80B588B000AFF86081
:103C2000B9607A60FB68FB617968B868FCF73AFFB5
:103C300003467B616C4B1B78012B1AD06B49B8682B
:103C4000FCF732FF034619467868FDF7E7F90346AB
:103C5000002B0ED16549B868FCF726FF03461A46CB
:103C6000634B1B6819461046FDF7CEF90346002B3F
:103C70000ED0604B4FF000021A605F4B4FF0000215
:103C8000DA625E4B4FF000021A604FF0000350E121
:103C9000554B1B78002B40F082804FF00001786973
:103CA000FDF7B2F90346002B0ED0524B4FF0000245
:103CB0001A60514B4FF00002DA62504B4FF0000295
:103CC0001A604FF0000334E14D497869FDF7B0F90F
:103CD0000346002B03D0494B4A4A1A6046E04A4942
:103CE0007869FDF7A5F90346002B03D0434B474AFB
:103CF0001A603BE046497869FDF79AF90346002BC4
:103D000003D03E4B434A1A6030E043497869FDF7DF
:103D10008FF90346002B03D0384B404A1A6025E048
:103D20003F497869FDF784F90346002B03D0334BF4
:103D30003C4A1A601AE04FF080417869FDF778F943
:103D40000346002B03D02D4B374A1A600EE04FF08C
:103D50007E517869FDF76CF90346002B03D0274BA1
:103D6000324A1A6002E0254B314A1A60234B1B6825
:103D70001946F869FDF75CF90346002B02D01F4B8A
:103D80001B68FB614FF00001F869FDF751F903462C
:103D9000002B00F09680274AFB69136091E0B86819
:103DA000FFF702FD3861154A3B6913604FF00001CF
:103DB0007869FDF729F90346002B03D04FF0000383
:103DC000FB617EE04FF00003BB611B497869FDF7A2
:103DD00025F90346002B33D018493869FCF76CFFEE
:103DE0000346BB6142E000BF450400209A99993E1A
:103DF0007403002064030020200300204C040020F2
:103E00000000204200007A440000A041000061440C
:103E10000000204100803B440000A0400080094495
:103E2000000040400000E1430000AF4300008C432D
:103E300000005C43500400206666663FCDCC0C3F1A
:103E40003E497869FDF7EAF80346002B0ED03C4B5B
:103E50001B683C491846FDF7D7F80346002B05D0F0
:103E600039493869FCF728FF0346BB61B969F8692D
:103E7000FDF7C0F80346002B01D0BB69FB61334955
:103E80007869FDF7D5F80346002B1AD02C4B1B6838
:103E90004FF000011846FDF7ADF80346002B10D097
:103EA0004FF00001F869FDF7C3F80346002B08D076
:103EB0002749F869FDF79EF80346002B01D0244BF3
:103EC000FB61244B1B681946F869FDF7B1F80346FE
:103ED000002B02D01F4B1B68FB614FF00001F869FB
:103EE000FDF788F80346002B02D04FF00003FB617A
:103EF000194BDB6A174A126811461846FDF798F805
:103F00000346002B03D0134B1B68134AD362124B9A
:103F1000DB6A4FF000011846FDF76CF80346002BF2
:103F200003D00D4B4FF00002DA620C4AFB691360BC
:103F3000FB6918462037BD4680BD00BF9A99193FDE
:103F4000380400209A99993E3333B33ECDCC4C3E91
:103F5000000020424C0400202003002064030020C5
:103F6000B0B584B000AF7860934B1B687A68D31A01
:103F7000F92B40F27081904A7B6813608F4B1B785D
:103F800083F00103DBB2002B03D00220FEF794FB89
:103F900064E18B48FDF77CFB8948FDF789FC03460B
:103FA0001A46884B1A708648FDF785FB0346002B9E
:103FB00009D0854B00221A70844B00221A70012010
:103FC000FEF77AFB4AE17F4B1B78002B09D07E4B32
:103FD00000221A707D4B00221A700120FEF76CFB44
:103FE0003CE17748FDF70EFDF8607548FDF763FB8F
:103FF0000346002B09D0744B00221A70734B002229
:104000001A700120FEF758FB28E1FB6823F00044FA
:1040100001231D466E492046FDF714F80346002B88
:1040200008D16B492046FDF703F80346002B01D168
:1040300000231D46EBB283F00103DBB2002B0FD04F
:104040006449F868FCF7EAFF0346002B08D0624990
:10405000F868FCF7D9FF0346002B01D0012300E0EC
:104060000023FB72FB7A03F00103FB72FB7A83F0FF
:104070000103DBB2002B15D0544B00221A70524BB7
:104080001B78FF2B05D0504B1B780133DAB24E4B17
:104090001A704D4B1B78022B40F2DF800220FEF796
:1040A0000BFBDAE0484B00221A704C4AFB681360A5
:1040B0004B4B1B7883F00103DBB2002B11D1494B32
:1040C0001B6823F0004442492046FCF7BBFF03462F
:1040D000002B06D13E492046FCF7AAFF0346002BE1
:1040E00003D0404AFB68136016E03E4B1B6819463C
:1040F000F868FCF7D7FC03463B491846FCF7DCFDA3
:1041000003461A46374B1B6819461046FCF7CCFC91
:1041100003461A46334B1A60324B1B68334A13600E
:10412000304B1B68324A13602D4B01221A7078689D
:10413000FEF796FE7868FFF709FA2E49F868FCF753
:104140006DFF0346002B08D1264B1B6829491846F2
:10415000FCF764FF0346002B06D01C4B00221A70AC
:104160000320FEF7A9FA6DE0234B1B78DBB2032B8B
:1041700046D11C4B1B6821491846FCF745FF0346F6
:10418000002B14D0114B1B78FF2B05D00F4B1B7845
:104190000133DAB20D4B1A700C4B1B78032B51D93B
:1041A000154B00221A70094B00221A704AE0074B87
:1041B00000221A7046E000BF340400208003002073
:1041C0000C0300207C0300207D0300207E030020E0
:1041D000FFFF7F7F000048C20000E144740300201D
:1041E0007F0300200C000020CDCC4C3EF4030020C7
:1041F000600300200080A2448103002000409C4412
:10420000184B1B78DBB2012B04D0164B1B78DBB2AA
:10421000022B14D1144B1B78FF2B05D0124B1B78AB
:104220000133DAB2104B1A700F4B1B78032B09D9EC
:104230000C4B00221A700C4B00221A7002E00A4B41
:1042400000221A70094B1B78DBB2002B06D1084BF9
:1042500001221A7002E000BF00E000BF1037BD4627
:10426000B0BD00BF810300207E030020E9030020D1
:104270001400002080B58AB000AF786039609C4B94
:104280001B78DBB2022B0DD100228021994802F06D
:104290006FFA994B4FF000021A60984B4FF00002F2
:1042A0001A6019E2924B1B78DBB2012B0BD1944BB5
:1042B0001B78DBB2002B06D1924B1B7883F00103F5
:1042C000DBB2002B02D0FEF7B3F805E28E4B1B7871
:1042D000013B87F8273097F827308C4A12F83330A3
:1042E00087F8263097F82630002B0CBF01230023D7
:1042F00087F82530864B1A78834B1B789A4206D173
:10430000844B1B7897F826209A4200F09B807B4BC9
:104310001B683B62804B00221A70804B1B68804AEE
:104320001360804B4FF000021A607F4B4FF0000289
:104330001A607E4B4FF00002DA626F4B4FF00002C2
:104340001A606E4B4FF000021A606F4B1A78704B78
:104350001A70704A97F826301370704B1B68744AB5
:1043600013606E4B1B68734A1360734B4FF000026F
:104370001A60724B4FF000021A60714B4FF000024E
:104380001A60664B1B686F4A13607868FEF71EFD63
:1043900097F82530002B4FD097F827305B4ADB0089
:1043A00013445B881846FCF72FFC0346FB615B4B0C
:1043B0001B681946F869FCF775FB0346BB614FF0B3
:1043C0000001B869FCF72AFE0346002B16D04FF017
:1043D0000001386AFCF72CFE0346002B0ED0524A2F
:1043E0003B6A1360504B1B6857491846FCF720FE88
:1043F0000346002B02D04C4B534A1A605349B8690C
:10440000FCF702FE0346002B0BD05149B869FCF7BC
:1044100005FE0346002B04D0F9690220FFF74CFA91
:1044200010E04B49B869FCF7E5FD0346002B09D0C5
:10443000394B01221A7005E0464A4FF00001464808
:10444000FFF74AF93868FEF7A5FA786197F8253042
:10445000002B05D179693868FEF712FB034600E0AE
:104460007B693E4A13603148FDF724FE0346012B69
:1044700003D001212D48FDF79DFD384B1B68274ACD
:10448000126811461846FCF70DFB03463B613B6979
:1044900023F00043FB60324B1B684FF07A51184603
:1044A000FCF700FB03461A462C4B1B6819461046C6
:1044B000FCF7BEFD0346002B03D01C4B4FF000025F
:1044C000DA6297F82530002B5BD0244B1B68134A27
:1044D000126811461846FFF757FA0F4B1B78022B4C
:1044E00044D1204A4FF080411F48FFF7F5F874E0AF
:1044F000E8030020000C014064030020700300204A
:10450000810300207F03002012000020A003002070
:104510005404002016000020450400206003002001
:10452000480400204C0400205004002020030020F8
:104530006004002064040020680400206C04002053
:10454000700400207404002000007A440000404001
:104550009A9999BE00007A4300000C42680300203B
:1045600078030020000034430000F0425C4A4FF022
:1045700000015C48FFF7B0F85B4B4FF00002DA62D5
:104580002BE05A4B00221A70594B1B68594A136092
:10459000594B5A4A1A605A49F868FCF735FD0346E8
:1045A000002B05D0574A58495848FFF795F809E0BD
:1045B000544A4FF000015548FFF78EF84A4B4FF030
:1045C0000002DA6252493869FCF714FD0346002BF9
:1045D00003D0454B4FF00002DA624348FDF7F2FA90
:1045E0000346002B03D04B4B1B684B4A136097F8D4
:1045F0002530002B0CD0484B1B68484A1168484AAC
:1046000012681846FFF708FB0346434A136008E0A8
:10461000414B1B6839681846FEF7DCFC03463E4AEE
:1046200013603D4B1B684FF000011846FCF7E2FC9D
:104630000346002B03D0384B4FF000021A60364B74
:104640001B682E491846FCF7F3FC0346002B02D0EA
:10465000314B2A4A1A60314B1B68324A1360324B85
:104660001B687A68D31A314AA2FB031292094FF4ED
:104670007A7101FB02F29B1ABB60274B1B682C4925
:104680001846FCF7C1FC0346002B05D00022802110
:10469000284802F06DF81FE01F4B1B68264918469A
:1046A000FCF7BCFC0346002B05D0012280212148E9
:1046B00002F05EF810E0184B1B681846FCF7FEFC91
:1046C0000246BB68934234BF01230023DBB21A4683
:1046D0008021184802F04CF82837BD4680BD00BF45
:1046E000000034430000C84120030020450400209E
:1046F00074040020480400204C04002000007A4488
:104700000000F04100007A43CDCCCC3D00000C42CB
:10471000CDCCCCBD640300207003002068030020D2
:1047200060030020780300206C030020D34D62104A
:104730000000A041000C01400000754480B586B027
:1047400000AFEFF31083BB60BB687B6172B600BF44
:10475000A04B1B78FB749F4B00221A709E4B1B785A
:10476000BB749D4B00221A709C4B1B787B749B4B37
:1047700000221A709A4B1B783B74994B00221A70D6
:10478000984B1B78FB73974B00221A707B69002BA8
:1047900001D162B600BFFB7C002B1CD0924B1B7872
:1047A000DBB2002B08D1904B01221A708F4B0022F4
:1047B0001A70FDF73DFE0AE0FDF7CEFDFDF770FD36
:1047C00000F006FD884B00221A70FDF793FF884B1E
:1047D00001221A7058E2BB7C002B39D0824B1B7827
:1047E000DBB2022B0FD1834B1B780133DAB2814B42
:1047F0001A70804B1A78804B1B789A4225D97D4BD2
:1048000001221A7021E0784B1B78DBB2032B09D10F
:104810007A4B1B780133DBB203F00303DAB2774B38
:104820001A7012E0704B1B78DBB2042B0DD1744B65
:104830001B78591C734BA3FB01235A0813465B00DA
:104840001344CA1AD2B26E4B1A70694B01221A7005
:104850007B7C002B00F08780634B1B78DBB2002B46
:1048600012D1624B1B78DBB2012B02D1FDF74EFE59
:1048700006E05E4B1B78DBB2022B01D1FDF796FE02
:104880005B4B01221A70FFE1574B1B78DBB2042B04
:1048900065DC032B5DDA012B02D0022B0CD05EE02D
:1048A000FDF7FEFC504B02221A70524B01221A7087
:1048B000554B00221A7053E0534B1B78002B12D13A
:1048C0004C4B1B78013B514A12F83330002B0CBF84
:1048D00001230023DAB2474B1B78013B11464B4AB8
:1048E00002F833103CE0484B1B78012B0FD1414BB1
:1048F0001B78013B454ADB0013445A88444B1A801D
:104900003E4B00221A70384B03221A7028E0394BB4
:104910001B78013B3D4ADB0013441A793D4B1A706A
:10492000344B1B78013B394ADB0013445A793A4B2C
:104930001A70304B1B78013B344ADB0013449A79E0
:10494000364B1A702E4B00221A70274B04221A7015
:1049500006E0FDF701FD244B02221A7000E000BFC3
:10496000234B01221A703B7C002B14BF0123002330
:10497000DAB2FB7B002B14BF01230023DBB25340D0
:10498000DBB2002B00F080813B7C002B14BF0123A5
:104990000023BB73144B1B78DBB2013B032B00F2EB
:1049A0006B8101A252F823F0B9490008474A000878
:1049B000814A0008BB4B0008BB7B002B30D00E4B5C
:1049C0001B78082B2CD80C4B1B780133DAB20A4B1E
:1049D0001A7053E198030020990300209A030020E5
:1049E0009B0300209C030020E9030020E803002033
:1049F00014000020130000201100002001040020FA
:104A000002040020ABAAAAAA00040020A0030020F0
:104A100004040020060400200704002008040020ED
:104A2000BB7B83F00103DBB2002B00F02781984BA6
:104A30001B78012B40F22281954B1B78013BDAB2A7
:104A4000934B1A701AE1BB7B002B0CD0914B1B7857
:104A5000002B04D08F4B1B78013BDBB200E002231C
:104A60008C4A13700DE18B4B1B78012B04D8894BBA
:104A70001B780133DBB200E00023864A137000E1AB
:104A8000854B1B88854AA2FB03239B099BB2DBB2A3
:104A90003B71814B1B88824AA2FB03235B099AB2BC
:104AA000804BA3FB0213D9080B469B000B445B0011
:104AB000D31A9BB2DBB27B71774B1B88794AA2FB7E
:104AC0000323DB089AB2774BA3FB0213D9080B46EA
:104AD0009B000B445B00D31A9BB2DBB2BB716E4BE5
:104AE0001A88704BA3FB0213D9080B469B000B449A
:104AF0005B00D31A9BB2DBB2FB71BB7B002B18D0DF
:104B0000694B1B7818333B4413F8143C092B08D02D
:104B1000654B1B7818333B4413F8143C0133DAB26D
:104B200000E00022604B1B7818333B4403F8142C40
:104B300017E05D4B1B7818333B4413F8143C002BF3
:104B400008D0594B1B7818333B4413F8143C013BF5
:104B5000DAB200E00922544B1B7818333B4403F8C7
:104B6000142C3B791A465201D21A92001344DB00EE
:104B70009AB27B79194689000B4419468800194678
:104B800003460B449B009BB213449AB2BB7919466F
:104B900089000B445B009BB213449BB2FA79134427
:104BA0009AB23D4B1A803C4B1B88B3F5A06F67D976
:104BB000394B4FF4A0621A8062E03C4B1B78002B0B
:104BC0001CD1BB7B002B0CD0394B1B78632B04D042
:104BD000374B1B780133DBB200E00023344A1370FB
:104BE0004FE0334B1B78002B04D0314B1B78013B3B
:104BF000DBB200E063232E4A137042E02B4B1B789C
:104C0000012B1CD1BB7B002B0CD02A4B1B783B2BE0
:104C100004D0284B1B780133DBB200E00023254A87
:104C200013702EE0234B1B78002B04D0214B1B78F4
:104C3000013BDBB200E03B231E4A137021E0BB7B4B
:104C4000002B0CD01C4B1B783B2B04D01A4B1B7831
:104C50000133DBB200E00023174A137011E0164B5A
:104C60001B78002B04D0144B1B78013BDBB200E017
:104C70003B23114A137004E000BF02E000BF00E0D4
:104C800000BF0E4B01221A701837BD4680BD00BF11
:104C9000110000200004002004040020D34D621005
:104CA0001F85EB51CDCCCCCC0104002002040020A8
:104CB000060400200704002008040020140000203F
:104CC00080B59AB002AFA84B1B78DBB283F001032A
:104CD000DBB2002B40F01382A34B00221A7007F1C5
:104CE000380310222021184604F025FD002387F800
:104CF000483007F1240310222021184604F01BFD40
:104D0000002387F83430994B1B78DBB2042B00F278
:104D1000958101A252F823F02D4D00088D4E000818
:104D2000B74E00082F4F0008F14F0008904B1B783A
:104D3000DBB2002B1FD08E4B1B78DBB2032B06D1CE
:104D40003B1D8C4A2021184604F07CFC05E03B1DED
:104D5000894A2021184604F075FC3A1D07F13803F2
:104D600011461846FDF758FA07F1240383491846FF
:104D7000FDF752FA63E1824B1B78002B06D0814B82
:104D80001B68184606F0B6FD034600E00023FB65ED
:104D90007D4B1B78DBB2002B09D17C4B1B78381D77
:104DA0000093FB6D7A4A202104F04CFC24E0764B02
:104DB0001B78DBB2022B06D1381DFB6D754A202112
:104DC00004F040FC18E0704B1B78DBB2032B06D1DB
:104DD000381DFB6D704A202104F034FC0CE06F4B51
:104DE0001B781A46694B1B78381D01930092FB6DA6
:104DF0006B4A202104F026FC3A1D07F138031146C6
:104E00001846FDF709FA674B1B68BB65BB6D664A20
:104E1000A2FB0323DB0A7B65BB6D644AA2FB032371
:104E20005A09624BA3FB021359090B461B015B1A7B
:104E30009B00D31A3B65BA6D5C4BA3FB0213590967
:104E40000B461B015B1A9B00D31AFB647B6D632B23
:104E50000AD8381DFB6C01933B6D00937B6D544A5F
:104E6000202104F0EFFB09E0381DFB6C01933B6D42
:104E700000937B6D4F4A202104F0E4FB3A1D07F1BB
:104E8000240311461846FDF7C7F9D8E007F13803A7
:104E900049491846FDF7C0F93C4B1B78381D474A75
:104EA000202104F0CFFB3A1D07F1240311461846D8
:104EB000FDF7B2F9C3E0424B1B78381D414A20216F
:104EC00004F0C0FB3A1D07F1380311461846FDF700
:104ED000A3F93D4B1B78002B10D1394B1B78013BBC
:104EE0003A4A12F83330002B01D1394B00E0394BEC
:104EF000381D394A202104F0A5FB10E0324B1B7805
:104F0000012B06D13B1D354A2021184604F09AFB9F
:104F100005E03B1D324A2021184604F093FB3A1D60
:104F200007F1240311461846FDF776F987E0244B74
:104F30001B78381D2B4A202104F084FB3A1D07F111
:104F4000380311461846FDF767F9274B1B88381DB3
:104F5000264A202104F076FB3A1D07F1240311466E
:104F60001846FDF759F96AE014000020E903002013
:104F70008103002068B9000878B900088CB90008DE
:104F80007F030020F4030020E8030020110000202C
:104F900098B90008ACB90008BCB90008120000209C
:104FA000CCB90008EC030020C5B3A2918988888899
:104FB000E0B90008F8B9000810BA000820BA0008E3
:104FC0001300002030BA000800040020A0030020D5
:104FD00044BA000848BA000850BA00085CBA000891
:104FE00068BA000874BA00080404002084BA0008F3
:104FF000454B1B78381D454A202104F023FB3A1D00
:1050000007F1380311461846FDF706F9404B1B78A7
:105010001946404B1B781A463F4B1B78381D0193AD
:1050200000920B463D4A202104F00CFB3A1D07F18B
:10503000240311461846FDF7EFF800E000BF07F122
:10504000380337491846FBF783F80346002B0ED088
:1050500000210020FCF718F907F138031846FCF787
:105060005BF907F1380319462D4804F0E4FB07F11A
:1050700024032C491846FBF76BF80346002B0ED08F
:1050800001210020FCF700F907F124031846FCF782
:1050900043F907F124031946224804F0CCFB224BC4
:1050A0001B78DBB2032B0AD1204B1B780733DBB212
:1050B00001211846FCF7E8F8FCF7ABF920E01A4BA1
:1050C0001B78DBB2042B17D1194B1B78002B07D0B0
:1050D000174B1B78012B01D1092302E00C2300E0C0
:1050E000062387F84B3097F84B3001211846FCF720
:1050F000CBF8FCF78EF903E0FCF791F900E000BF74
:105100006037BD4680BD00BF1300002094BA000880
:10511000060400200704002008040020A4BA0008A8
:105120000C04002020040020E903002001040020DA
:105130000204002080B582B000AF482200210C4854
:1051400004F0F9FA0023FB7107E0FB79084A00211B
:1051500002F83310FB790133FB71FB79082BF4D98A
:10516000044B01221A7000BF0837BD4680BD00BF46
:10517000A00300201100002080B487B000AF786049
:105180007B68FB605423BB600F4B7B6100233B615A
:105190000FE0FA683B6913441B781A467B69534059
:1051A0007B617B69094A02FB03F37B613B69013345
:1051B0003B613A69BB689A42EBD37B6918461C375E
:1051C000BD4680BC704700BFC59D1C819301000196
:1051D000B0B5A2B000AFFDF763F807F1180358228D
:1051E0000021184604F0A7FA534BBB610223FB6170
:1051F000524B1B783B62524A07F124031146482266
:10520000184604F02EFB07F118031846FFF7B4FF09
:105210000346FB6607F11803C7F880301623A7F88A
:105220007E3007F1080300221A605A609A60DA6043
:1052300000237B60434B00221A70EFF310833B671F
:105240003B6FBB6772B600BF00F07EFF034687F876
:10525000873097F88730002B45D10023BB600123AE
:10526000FB60394B3B6101237B613A1D07F1080369
:105270001146184601F050F8034687F8873097F832
:105280008730002B2DD10023A7F8843021E0B7F818
:10529000843003F1007303F57C539900B7F8843030
:1052A0009B00D7F8802013441B6800221C4615463B
:1052B00022462B46022000F0D7FE034687F88730AF
:1052C00097F88730002B0BD1B7F884300133A7F85B
:1052D0008430B7F88420B7F87E309A42D7D300E004
:1052E00000BF00F057FFBB6F002B01D162B600BFBB
:1052F00097F88730002B1AD1134B7B677B6F1B68A5
:105300000D4A93420DD17B6F5B68022B09D17B6FF5
:105310005C6D786FFFF730FF03469C4201D101239B
:1053200000E0002303F00103DAB2064B1A7000BF5D
:105330008837BD46B0BD00BFDECCBBAA110000203F
:10534000A00300201500002000FC000890B583B0E9
:1053500000AF1E4B7B607B681B681D4A93420DD1DA
:105360007B685B68022B09D17B689B68002B05D0AA
:105370007B689B68092B01D8012300E00023FB70A8
:10538000FB7803F00103FB70FB78002B16D07B68E1
:105390005C6D7868FFF7F0FE03469C420ED17B6897
:1053A0009B68DAB20B4B1A707B680C3348221946A3
:1053B000094804F056FAFCF773FF02E0FFF7BAFE63
:1053C00000BF00BF0C37BD4690BD00BF00FC000809
:1053D000DECCBBAA11000020A003002080B588B05D
:1053E00006AF00F0ADFC00F0BDF800F0E1F900F010
:1053F00091F900F02BF900F057F9FFF7A7FF02230E
:10540000102227214348FBF779FEFBF731FFFBF71A
:10541000E3FE414803F058F84023404A40494148E0
:10542000FCF75CF903461A463F4B1A703E4B1B785B
:10543000002B24D03B48FCF72BF906213948FCF718
:1054400005FA00213748FCF74DFA02213548FCF7F0
:10545000BAF93448FCF72FF90346002B06D0324B3B
:1054600000221A70314B01221A700BE000F0C0FCD0
:1054700003462F4A13602F4B00221A7002E02B4B79
:1054800001221A702C4B4FF000021A602B4B1B6844
:105490002B4A12682B4909680020049001200390D0
:1054A000029101920093244B274A28492848FCF78F
:1054B0004BFB00212648FCF77DFD264A4FF00001FA
:1054C0002348FCF712FD4FF47A712148FCF7D6FC13
:1054D00000F08EFC0346204A136000F089F800F0CB
:1054E00087FC78607868FEF73BFDFFF727F91B4BD8
:1054F0001B683B603868FDF7DDF939687868FEF7AE
:10550000B9FEFFF7DDFB164B4AF6AA221A6000BF70
:10551000E5E700BF18020020C4020020000C014093
:105520006C0200200C030020800300208103002077
:10553000340400207F0300206803002000000020C6
:105540000400002008000020640300206003002005
:105550002003002000007A446C030020EC030020AC
:105560000030004080B590B000AF07F1180328224A
:105570000021184604F0DFF83B1D00221A605A6033
:105580009A60DA601A610123BB614FF48033FB61DA
:1055900000233B620123BB6202237B634FF4803311
:1055A000BB634FF4E013FB6307F11803184601F0E7
:1055B000ABFD0346002B01D000F076F90F237B6092
:1055C0000223BB600023FB604FF480633B61002338
:1055D0007B613B1D0221184602F018F80346002BA0
:1055E00001D000F061F900BF4037BD4680BD00002A
:1055F00080B582B000AF144B4CF6CC421A60124B0F
:1056000045F255521A60104B04225A600E4B40F678
:10561000C3129A6000F0ECFB786008E000F0E8FB51
:1056200002467B68D31A642B01D900F03DF9064B82
:10563000DB68002BF2D1044B4AF6AA221A6000BFA5
:105640000837BD4680BD00BF0030004080B500AFC8
:10565000124B134A1A60114B124A5A600F4B002228
:105660009A600E4B0022DA600C4B4FF480421A61B4
:105670000A4B00225A61094B00229A61074B002213
:10568000DA61064B00221A62044801F0A1F80346D1
:10569000002B01D000F008F900BF80BD18020020E7
:1056A00000580040A086010080B500AF174B184A93
:1056B0001A60164B4FF482725A60144B00229A60A3
:1056C000124B0022DA60114B00221A610F4B0122AB
:1056D0005A610E4B4FF400729A610C4B1822DA613A
:1056E0000A4B00221A62094B00225A62074B002221
:1056F0009A62064B0A22DA62044802F001F9034674
:10570000002B01D000F0D0F800BF80BD6C0200205B
:105710000030014080B586B000AF07F108030022D9
:105720001A605A609A60DA603B4600221A605A603A
:105730001E4B4FF080421A601C4B41F61F425A60CC
:105740001A4B00229A60194B42F20F72DA60174B23
:1057500000221A61154B80229A61144802F065FEFE
:105760000346002B01D000F09FF84FF48053BB603C
:1057700007F1080319460D4802F0E8FF0346002B25
:1057800001D000F091F800233B6000237B603B4692
:105790001946064803F0CAF90346002B01D000F071
:1057A00083F800BF1837BD4680BD00BFC40200208B
:1057B00080B588B000AF07F1100300221A605A606C
:1057C0009A60DA60344B9B69334A43F0200393615B
:1057D000314B9B6903F02003FB60FB682E4B9B69F8
:1057E0002D4A43F0080393612B4B9B6903F0080398
:1057F000BB60BB68284B9B69274A43F00403936155
:10580000254B9B6903F004037B607B6801224021E8
:10581000224800F0ADFF00228021204800F0A8FFC0
:105820004FF400433B611E4B7B610023BB6107F1DA
:1058300010031946194800F017FE4FF470633B61DE
:10584000174B7B610023BB6107F110031946154814
:1058500000F00AFEC0233B6101237B610023BB6192
:105860000223FB6107F1100319460C4800F0FCFD10
:1058700000220021172000F0C0FB172000F0D9FB08
:1058800000220021282000F0B8FB282000F0D1FBE6
:1058900000BF2037BD4680BD00100240000C014013
:1058A000000011100008014080B582B000AF0A4B23
:1058B0009B69094A43F008039361074B9B6903F016
:1058C00008037B607B6800228021044800F050FFC1
:1058D00072B600BF00BFFDE700100240000C01409F
:1058E00080B485B000AF154B9B69144A43F00103A7
:1058F0009361124B9B6903F00103BB60BB680F4BC4
:10590000DB690E4A43F08053D3610C4BDB6903F033
:1059100080537B607B680A4B5B68FB60FB6823F00D
:10592000E063FB60FB6843F00073FB60044AFB68C4
:10593000536000BF1437BD4680BC70470010024062
:105940000000014080B588B000AF786007F1100317
:1059500000221A605A609A60DA607B681B68164AF7
:10596000934224D1154B9B69144A43F00803936179
:10597000124B9B6903F00803FB60FB684FF4406324
:105980003B6112237B610323FB6107F1100319467E
:105990000B4800F069FD094BDB69084A43F48003BA
:1059A000D361064BDB6903F48003BB60BB6800BFB7
:1059B0002037BD4680BD00BF0058004000100240A7
:1059C000000C014080B58AB000AF786007F1140385
:1059D00000221A605A609A60DA607B681B68224A6B
:1059E00093423DD1214B9B69204A43F480539361FC
:1059F0001E4B9B6903F480533B613B691B4B9B69C6
:105A00001A4A43F008039361184B9B6903F008039B
:105A1000FB60FB6828237B610223BB6103233B629D
:105A200007F114031946124800F01EFD10237B6194
:105A30000023BB610023FB6107F1140319460C48E6
:105A400000F012FD0B4B5B687B627B6A43F0E06306
:105A50007B627B6A43F001037B62064A7B6A536088
:105A600000BF2837BD4680BD003001400010024015
:105A7000000C01400000014080B584B000AF7860A8
:105A80007B681B68B3F1804F13D10C4BDB690B4A69
:105A900043F00103D361094BDB6903F00103FB60B1
:105AA000FB68002200211C2000F0A7FA1C2000F057
:105AB000C0FA00BF1037BD4680BD00BF00100240D5
:105AC00080B400AF00BFFDE780B400AF00BFFDE7CA
:105AD00080B400AF00BFFDE780B400AF00BFFDE7BA
