:020000040800F2
:1000000000500020C53E0008913C0008993C0008C3
:10001000A13C0008A93C0008B13C00080000000019
:10002000000000000000000000000000B93C0008D3
:10003000C53C000800000000D13C0008DD3C000881
:100040000D3F00080D3F00080D3F00080D3F000860
:100050000D3F00080D3F00080D3F00080D3F000850
:100060000D3F00080D3F00080D3F00080D3F000840
:100070000D3F00080D3F00080D3F00080D3F000830
:100080000D3F00080D3F00080D3F00080D3F000820
:100090000D3F00080D3F00080D3F0008E93C000837
:1000A0000D3F00080D3F00080D3F00080D3F000800
:1000B000013D00080D3F00080D3F00080D3F0008FE
:1000C0000D3F00080D3F00080D3F00080D3F0008E0
:1000D0000D3F00080D3F00080D3F00080D3F0008D0
:1000E000153D00080D3F00080D3F0008000000000E
:1000F0000000000000000000000000000000000000
:0C01000000000000000000005FF808F1A3
:1001100010B5054C237833B9044B13B10448AFF341
:1001200000800123237010BDF001002000000000BA
:100130001C9B000808B5034B1BB103490348AFF3F0
:10014000008008BD00000000F40100201C9B000896
:1001500010F8012B11F8013B012A28BF9A42F7D071
:10016000D01A7047034613F8012B002AFBD1181A46
:100170000138704781F0004102E000BF83F0004386
:1001800030B54FEA41044FEA430594EA050F08BF32
:1001900090EA020F1FBF54EA000C55EA020C7FEAF6
:1001A000645C7FEA655C00F0E2804FEA5454D4EB73
:1001B0005555B8BF6D420CDD2C4480EA020281EA3D
:1001C000030382EA000083EA010180EA020281EA75
:1001D0000303362D88BF30BD11F0004F4FEA0131C7
:1001E0004FF4801C4CEA113102D0404261EB4101D6
:1001F00013F0004F4FEA03334CEA133302D052425C
:1002000063EB430394EA050F00F0A780A4F1010417
:10021000D5F1200E0DDB02FA0EFC22FA05F2801851
:1002200041F1000103FA0EF2801843FA05F3594137
:100230000EE0A5F120050EF1200E012A03FA0EFCB6
:1002400028BF4CF0020C43FA05F3C01851EBE371E0
:1002500001F0004507D54FF0000EDCF1000C7EEBFD
:1002600000006EEB0101B1F5801F1BD3B1F5001F3B
:100270000CD349085FEA30004FEA3C0C04F101045A
:100280004FEA445212F5800F80F09A80BCF1004F83
:1002900008BF5FEA500C50F1000041EB045141EA05
:1002A000050130BD5FEA4C0C404141EB0101013CCE
:1002B00028BFB1F5801FE9D291F0000F04BF0146BD
:1002C0000020B1FA81F308BF2033A3F10B03B3F18F
:1002D00020020CDA0C3208DD02F1140CC2F10C021F
:1002E00001FA0CF021FA02F10CE002F11402D8BF7D
:1002F000C2F1200C01FA02F120FA0CFCDCBF41EA49
:100300000C019040E41AA2BF01EB0451294330BD17
:100310006FEA04041F3C1CDA0C340EDC04F11404F4
:10032000C4F1200220FA04F001FA02F340EA0300CB
:1003300021FA04F345EA030130BDC4F10C04C4F111
:10034000200220FA02F001FA04F340EA03002946F1
:1003500030BD21FA04F0294630BD94F0000F83F43B
:10036000801306BF81F480110134013D4EE77FEA1E
:10037000645C18BF7FEA655C29D094EA050F08BF6A
:1003800090EA020F05D054EA000C04BF194610464B
:1003900030BD91EA030F1EBF0021002030BD5FEA8F
:1003A000545C05D14000494128BF41F0004130BDB7
:1003B00014F580043CBF01F5801130BD01F000450B
:1003C00045F0FE4141F470014FF0000030BD7FEA7E
:1003D000645C1ABF194610467FEA655C1CBF0B4679
:1003E000024650EA013406BF52EA033591EA030F90
:1003F00041F4002130BD00BF90F0000F04BF002188
:10040000704730B54FF4806404F132044FF00005BA
:100410004FF0000150E700BF90F0000F04BF002133
:10042000704730B54FF4806404F1320410F0004599
:1004300048BF40424FF000013EE700BF42004FEA94
:10044000E2014FEA31014FEA02701FBF12F07F4311
:1004500093F07F4F81F06051704732F07F4208BFC8
:10046000704793F07F4F04BF41F40021704730B5CF
:100470004FF4607401F0004521F000411CE700BF1B
:1004800050EA010208BF704730B54FF000050AE09E
:1004900050EA010208BF704730B511F0004502D59F
:1004A000404261EB41014FF4806404F132045FEAA1
:1004B000915C3FF4D8AE4FF003025FEADC0C18BF4A
:1004C00003325FEADC0C18BF033202EBDC02C2F13C
:1004D000200300FA03FC20FA02F001FA03FE40EACE
:1004E0000E0021FA02F11444BDE600BF70B54FF0D2
:1004F000FF0C4CF4E06C1CEA11541DBF1CEA1355B0
:1005000094EA0C0F95EA0C0F00F0DEF82C4481EA17
:10051000030621EA4C5123EA4C5350EA013518BF37
:1005200052EA033541F4801143F4801338D0A0FB24
:1005300002CE4FF00005E1FB02E506F00042E0FBD1
:1005400003E54FF00006E1FB03569CF0000F18BFD7
:100550004EF0010EA4F1FF04B6F5007F64F540747F
:1005600004D25FEA4E0E6D4146EB060642EAC62112
:1005700041EA55514FEAC52040EA5E504FEACE2E7F
:10058000B4F1FD0C88BFBCF5E06F1ED8BEF1004F82
:1005900008BF5FEA500E50F1000041EB045170BDFE
:1005A00006F0004646EA010140EA020081EA030142
:1005B000B4EB5C04C2BFD4EB0C0541EA045170BD3E
:1005C00041F480114FF0000E013C00F3AB8014F1B8
:1005D000360FDEBF002001F0004170BDC4F1000401
:1005E000203C35DA0C341BDC04F11404C4F1200582
:1005F00000FA05F320FA04F001FA05F240EA0200DD
:1006000001F0004221F0004110EBD37021FA04F612
:1006100042EB06015EEA430E08BF20EAD37070BDCC
:10062000C4F10C04C4F1200500FA04F320FA05F02B
:1006300001FA04F240EA020001F0004110EBD3702D
:1006400041F100015EEA430E08BF20EAD37070BD9D
:10065000C4F1200500FA05F24EEA020E20FA04F376
:1006600001FA05F243EA020321FA04F001F0004125
:1006700021FA04F220EA020000EBD3705EEA430E96
:1006800008BF20EAD37070BD94F0000F0FD101F0C5
:100690000046400041EB010111F4801F08BF013CFE
:1006A000F7D041EA060195F0000F18BF704703F03C
:1006B0000046520043EB030313F4801F08BF013DC3
:1006C000F7D043EA0603704794EA0C0F0CEA13557F
:1006D00018BF95EA0C0F0CD050EA410618BF52EA39
:1006E0004306D1D181EA030101F000414FF000003F
:1006F00070BD50EA410606BF1046194652EA43064D
:1007000019D094EA0C0F02D150EA013613D195EAC0
:100710000C0F05D152EA03361CBF104619460AD108
:1007200081EA030101F0004141F0FE4141F4700112
:100730004FF0000070BD41F0FE4141F4780170BD02
:1007400070B54FF0FF0C4CF4E06C1CEA11541DBF67
:100750001CEA135594EA0C0F95EA0C0F00F0A7F869
:10076000A4EB050481EA030E52EA03354FEA013196
:1007700000F088804FEA03334FF0805545EA1313A9
:1007800043EA12634FEA022245EA111545EA106571
:100790004FEA00260EF000419D4208BF964244F108
:1007A000FD0404F5407402D25B084FEA3202B61A27
:1007B00065EB03055B084FEA32024FF480104FF4FB
:1007C000002CB6EB020E75EB030E22BFB61A75466F
:1007D00040EA0C005B084FEA3202B6EB020E75EB02
:1007E000030E22BFB61A754640EA5C005B084FEA6A
:1007F0003202B6EB020E75EB030E22BFB61A754637
:1008000040EA9C005B084FEA3202B6EB020E75EB41
:10081000030E22BFB61A754640EADC0055EA060E02
:1008200018D04FEA051545EA16754FEA06164FEA45
:10083000C30343EA52734FEAC2025FEA1C1CC0D1F1
:1008400011F4801F0BD141EA00014FF000004FF07E
:10085000004CB6E711F4801F04BF01430020B4F13F
:10086000FD0C88BFBCF5E06F3FF6AFAEB5EB030CF7
:1008700004BFB6EB020C5FEA500C50F1000041EBF4
:10088000045170BD0EF0004E4EEA113114EB5C04C1
:10089000C2BFD4EB0C0541EA045170BD41F4801194
:1008A0004FF0000E013C90E645EA060E8DE60CEA9C
:1008B000135594EA0C0F08BF95EA0C0F3FF43BAFB9
:1008C00094EA0C0F0AD150EA01347FF434AF95EA70
:1008D0000C0F7FF425AF104619462CE795EA0C0F54
:1008E00006D152EA03353FF4FDAE1046194622E721
:1008F00050EA410618BF52EA43067FF4C5AE50EAFB
:1009000041047FF40DAF52EA43057FF4EBAE12E7EA
:100910004FF0FF3C06E000BF4FF0010C02E000BFCB
:100920004FF0010C4DF804CD4FEA410C7FEA6C5CAE
:100930004FEA430C18BF7FEA6C5C1BD001B050EA51
:10094000410C0CBF52EA430C91EA030F02BF90EA3C
:10095000020F0020704710F1000F91EA030F58BFFB
:10096000994208BF90422CBFD8176FEAE37040F05D
:10097000010070474FEA410C7FEA6C5C02D150EAFB
:10098000013C07D14FEA430C7FEA6C5CD6D152EAB6
:10099000033CD3D05DF8040B704700BF844610467B
:1009A00062468C461946634600E000BF01B5FFF77A
:1009B000B7FF002848BF10F1000F01BD4DF808ED4A
:1009C000FFF7F4FF0CBF012000205DF808FB00BF1B
:1009D0004DF808EDFFF7EAFF34BF012000205DF875
:1009E00008FB00BF4DF808EDFFF7E0FF94BF0120C2
:1009F00000205DF808FB00BF4DF808EDFFF7CEFFC3
:100A000094BF012000205DF808FB00BF4DF808ED01
:100A1000FFF7C4FF34BF012000205DF808FB00BFD2
:100A20004FEA410C7FEA6C5C02D150EA013C0AD1EA
:100A30004FEA430C7FEA6C5C02D152EA033C02D1DC
:100A40004FF0000070474FF0010070474FEA41023D
:100A500012F5001215D211D56FF47873B3EB625210
:100A600012D94FEAC12343F0004343EA505311F037
:100A7000004F23FA02F018BF404270474FF00000C9
:100A8000704750EA013005D111F0004008BF6FF007
:100A9000004070474FF00000704700BF80F00040FA
:100AA00002E000BF81F0004142001FBF5FEA410346
:100AB00092EA030F7FEA226C7FEA236C6AD04FEA46
:100AC0001262D2EB1363C1BFD2184140484041408B
:100AD000B8BF5B42192B88BF704710F0004F40F43D
:100AE000000020F07F4018BF404211F0004F41F459
:100AF000000121F07F4118BF494292EA030F3FD025
:100B0000A2F1010241FA03FC10EB0C00C3F1200337
:100B100001FA03F100F0004302D5494260EB4000C6
:100B2000B0F5000F13D3B0F1807F06D340084FEA31
:100B3000310102F10102FE2A51D2B1F1004F40EB26
:100B4000C25008BF20F0010040EA0300704749008E
:100B500040EB0000013A28BFB0F5000FEDD2B0FA2B
:100B600080FCACF1080CB2EB0C0200FA0CF0AABF4E
:100B700000EBC25052421843BCBFD04018437047EC
:100B800092F0000F81F4000106BF80F400000132F2
:100B9000013BB5E74FEA41037FEA226C18BF7FEAC9
:100BA000236C21D092EA030F04D092F0000F08BF0B
:100BB0000846704790EA010F1CBF0020704712F0F2
:100BC0007F4F04D1400028BF40F00040704712F131
:100BD00000723CBF00F50000704700F0004343F096
:100BE000FE4040F4000070477FEA226216BF0846CC
:100BF0007FEA23630146420206BF5FEA412390EA8F
:100C0000010F40F4800070474FF0000304E000BF84
:100C100010F0004348BF40425FEA000C08BF704735
:100C200043F0964301464FF000001CE050EA0102F9
:100C300008BF70474FF000030AE000BF50EA01020E
:100C400008BF704711F0004302D5404261EB4101FB
:100C50005FEA010C02BF84460146002043F0B64320
:100C600008BFA3F18053A3F50003BCFA8CF2083A45
:100C7000A3EBC25310DB01FA02FC634400FA02FC4E
:100C8000C2F12002BCF1004F20FA02F243EB020055
:100C900008BF20F00100704702F1200201FA02FCB7
:100CA000C2F1200250EA4C0021FA02F243EB0200AA
:100CB00008BF20EADC7070474FF0FF0C1CEAD052EE
:100CC0001EBF1CEAD15392EA0C0F93EA0C0F6FD0AF
:100CD0001A4480EA010C400218BF5FEA41211ED08D
:100CE0004FF0006343EA501043EA5111A0FB013179
:100CF0000CF00040B1F5000F3EBF490041EAD3714E
:100D00005B0040EA010062F17F02FD2A1DD8B3F1C9
:100D1000004F40EBC25008BF20F00100704790F038
:100D2000000F0CF0004C08BF49024CEA502040EA8A
:100D300051207F3AC2BFD2F1FF0340EAC250704750
:100D400040F400004FF00003013A5DDC12F1190F8E
:100D5000DCBF00F000407047C2F10002410021FA00
:100D600002F1C2F1200200FA02FC5FEA310040F118
:100D7000000053EA4C0308BF20EADC70704792F091
:100D8000000F00F0004C02BF400010F4000F013AC9
:100D9000F9D040EA0C0093F0000F01F0004C02BFC4
:100DA000490011F4000F013BF9D041EA0C018FE733
:100DB0000CEAD15392EA0C0F18BF93EA0C0F0AD039
:100DC00030F0004C18BF31F0004CD8D180EA01005F
:100DD00000F00040704790F0000F17BF90F0004FF8
:100DE000084691F0000F91F0004F14D092EA0C0FDA
:100DF00001D142020FD193EA0C0F03D14B0218BF6D
:100E0000084608D180EA010000F0004040F0FE40B2
:100E100040F40000704740F0FE4040F4400070474E
:100E20004FF0FF0C1CEAD0521EBF1CEAD15392EACD
:100E30000C0F93EA0C0F69D0A2EB030280EA010CBD
:100E400049024FEA402037D04FF0805343EA111156
:100E500043EA10130CF000408B4238BF5B0042F1B4
:100E60007D024FF4000C8B4224BF5B1A40EA0C0059
:100E7000B3EB510F24BFA3EB510340EA5C00B3EB8B
:100E8000910F24BFA3EB910340EA9C00B3EBD10F79
:100E900024BFA3EBD10340EADC001B0118BF5FEACB
:100EA0001C1CE0D1FD2A3FF650AF8B4240EBC250F4
:100EB00008BF20F0010070470CF0004C4CEA5020B5
:100EC0007F32C2BFD2F1FF0340EAC250704740F404
:100ED00000004FF00003013A37E792F0000F00F0F6
:100EE000004C02BF400010F4000F013AF9D040EA74
:100EF0000C0093F0000F01F0004C02BF490011F408
:100F0000000F013BF9D041EA0C0195E70CEAD153FF
:100F100092EA0C0F08D142027FF47DAF93EA0C0FE6
:100F20007FF470AF084676E793EA0C0F04D14B02CA
:100F30003FF44CAF08466EE730F0004C18BF31F07C
:100F4000004CCAD130F000427FF45CAF31F0004376
:100F50007FF43CAF5FE700BF4FF0FF3C06E000BF0F
:100F60004FF0010C02E000BF4FF0010C4DF804CD32
:100F70004FEA40024FEA41037FEA226C18BF7FEA42
:100F8000236C11D001B052EA530C18BF90EA010F44
:100F900058BFB2EB030088BFC81738BF6FEAE170D3
:100FA00018BF40F0010070477FEA226C02D15FEA6F
:100FB000402C05D17FEA236CE4D15FEA412CE1D0DB
:100FC0005DF8040B704700BF844608466146FFE7A2
:100FD0000FB5FFF7C9FF002848BF10F1000F0FBD84
:100FE0004DF808EDFFF7F4FF0CBF012000205DF87D
:100FF00008FB00BF4DF808EDFFF7EAFF34BF012002
:1010000000205DF808FB00BF4DF808EDFFF7E0FF9A
:1010100094BF012000205DF808FB00BF4DF808EDEB
:10102000FFF7D2FF94BF012000205DF808FB00BF4E
:101030004DF808EDFFF7C8FF34BF012000205DF830
:1010400008FB00BF4FEA40024FEA41037FEA226CEF
:1010500002D15FEA402C08D17FEA236C02D15FEA1B
:10106000412C02D14FF0000070474FF00100704753
:101070004FEA4002B2F1FE4F0FD34FF09E03B3EBA5
:1010800012620DD94FEA002343F0004310F0004FE5
:1010900023FA02F018BF404270474FF0000070473B
:1010A00012F1610F01D1420205D110F0004008BFDA
:1010B0006FF0004070474FF00000704742000ED2C2
:1010C000B2F1FE4F0BD34FF09E03B3EB126209D483
:1010D0004FEA002343F0004323FA02F070474FF039
:1010E0000000704712F1610F01D1420202D14FF0AE
:1010F000FF3070474FF00000704700BF80B582B0EE
:1011000000AF7860084611461A460346FB700B464E
:10111000BB7013467B702F4A7B681360FB785B00C3
:10112000DAB22C4B1A712B4ABB785371294A7B785F
:101130009371284B0822DA71322002F04BFF254BC5
:10114000DB79184600F030F94FF47A7002F042FF74
:10115000302000F017F9052002F03CFF302000F0AD
:1011600011F9052002F036FF302000F00BF90120C4
:1011700002F030FF202000F005F9164B00221A7211
:10118000144B9B79012B06D9124B1B7A43F00803B1
:10119000DAB2104B1A720F4B1B7A43F02003DBB20A
:1011A000184600F09DF80B4B04225A7200F01EF80E
:1011B000084B02229A72074B9B7A43F00403DBB27E
:1011C000184600F08DF800F007F800BF0837BD465C
:1011D00080BD00BF0C02002080B500AF012000F0F0
:1011E0007FF8022002F0F6FE00BF80BD80B500AFA0
:1011F000084B5B7A43F00403DAB2064B5A72054B94
:101200005B7A43F00803DBB2184600F069F800BFD0
:1012100080BD00BF0C02002080B500AF084B5B7A98
:1012200023F00103DAB2064B5A72054B5B7A43F0A6
:101230000803DBB2184600F053F800BF80BD00BFC2
:101240000C02002080B500AF084B5B7A43F001032D
:10125000DAB2064B5A72054B5B7A43F00803DBB2F5
:10126000184600F03DF800BF80BD00BF0C02002012
:1012700080B500AF034B0822DA71002000F094F82B
:1012800000BF80BD0C02002080B584B000AF0346D3
:101290000A46FB711346BB710F4BFB600F4B9B79EA
:1012A000BA799A4203D30D4B9B79013BBB71BB7951
:1012B00010333B4413F8042CFB791344DBB25BB2CC
:1012C00063F07F035BB2DBB2184600F009F800BFA1
:1012D0001037BD4680BD00BF004014540C020020F2
:1012E00080B582B000AF0346FB71FB790021184640
:1012F00000F027F800BF0837BD4680BD80B582B03A
:1013000000AF0346FB71FB790121184600F019F884
:1013100000BF0837BD4680BD80B582B000AF7860A1
:1013200006E07B685A1C7A601B781846FFF7E6FFD8
:101330007B681B78002BF4D100BF00BF0837BD4687
:1013400080BD80B584B000AF03460A46FB711346EA
:10135000BB71FB7923F00F03FB73FB791B01BB739C
:10136000FA7BBB791343DBB2184600F00BF8BA7B6B
:10137000BB791343DBB2184600F004F800BF103706
:10138000BD4680BD80B582B000AF0346FB71FB79DE
:10139000184600F009F8FB79184600F023F800BF62
:1013A0000837BD4680BD000080B586B002AF034659
:1013B000FB710B4BDA79FB791343DBB23B73084BC0
:1013C0001868074B1B79194607F10C020A23009392
:1013D000012303F029FC00BF1037BD4680BD00BFCC
:1013E0000C02002080B582B000AF0346FB71FB7990
:1013F00043F00403DBB21846FFF7D6FFFB7923F076
:101400000403DBB21846FFF7CFFF00BF0837BD4625
:1014100080BD80B500AFFFF715FF00BF80BD80B570
:1014200000AFFFF7F9FE00BF80BD80B584B000AF0C
:1014300078600B46FB701346BB70FB7863F07F034C
:10144000FB70FB783B73BB787B737B6858687B6869
:101450001B890022194603F073FA7B68186807F1AC
:101460000C014FF0FF33022204F0B6FB7B68586892
:101470007B681B890122194603F062FA00BF10370E
:10148000BD4680BD80B584B000AFF8607A601A4672
:101490000B46FB721346BB72FB7A03F07F03DBB291
:1014A000FB72FB685868FB681B890022194603F031
:1014B00047FAFB68186807F10B014FF0FF33012270
:1014C00004F08AFBFB681868BB7A9AB24FF0FF33CE
:1014D000796804F0C5FCFB685868FB681B89012229
:1014E000194603F02DFA00BF1037BD4680BD80B508
:1014F00084B000AF78600B46FB700023FB7307F1EC
:101500000F02F97801237868FFF7BCFFFB7B1846D0
:101510001037BD4680BD80B584B000AF78600B4603
:10152000FB7007F1080300210A461A800A469A70E8
:1015300007F10802F97803237868FFF7A3FF3B7AE5
:10154000FB60FB681B02FB607B7A1A46FB68134357
:10155000FB60FB681B02FB60BB7A1A46FB68134307
:10156000FB60FB6818461037BD4680BD80B584B06F
:1015700000AFF860B9607A607B80FB68002B05D013
:10158000BB68002B02D07B68002B01D100232BE02D
:10159000FB68BA681A60FB687A685A60FB687A88E8
:1015A0001A81FB680122DA72FB685868FB681B89A4
:1015B0000122194603F0C4F900220221F868FFF75E
:1015C00034FF10220021F868FFF72FFF00220921C5
:1015D000F868FFF72AFF0321F86800F037F80021C8
:1015E000F86800F005F8012318461037BD4680BDA5
:1015F00080B584B000AF78600B46FB707B68FA78EA
:101600009A7200217868FFF772FF0346FB737B68CC
:101610009B7A022B08D1FB7B63F07F03FB73FB7B80
:1016200023F04003FB7307E0FB7B03F07F03FB73B6
:10163000FB7B43F04003FB73FB7B1A460021786879
:10164000FFF7F3FE00BF1037BD4680BD80B584B004
:1016500000AF78600B46FB7001217868FFF747FF09
:101660000346FB73FB7B23F00F03FB7397F90330F7
:1016700003F00F035AB297F90F3013435BB2FB73B9
:10168000FB7B1A4601217868FFF7CFFE00BF1037B9
:10169000BD4680BD80B582B000AF78600F2178680C
:1016A000FFF725FF034618460837BD4680BD80B5C5
:1016B00084B000AF78600B46FB7000217868FFF7BC
:1016C00016FF0346FB73FB78002B04D1FB7B43F032
:1016D0000103FB7303E0FB7B23F00103FB73FB7B44
:1016E0001A4600217868FFF7A0FE00BF1037BD46FC
:1016F00080BD80B584B000AF78607B689B7A022B98
:1017000014D000217868FFF7F2FE0346FB73FB7BE1
:1017100003F07F03FB73FB7B43F04003FB73FB7B16
:101720001A4600217868FFF780FE00E000BF1037FE
:10173000BD4680BD80B582B000AF78607B689B7A83
:10174000022B01D101230BE000217868FFF7CFFEC7
:10175000034603F04003002B0CBF01230023DBB240
:1017600018460837BD4680BD80B584B000AF7860AC
:101770007B689B7A002B1BD17868FFF7BAFF02F0D9
:101780001FFCB8600BE002F01BFC0246BB68D31ADA
:10179000FA2B01D9164B27E00A2002F01BFC7868CF
:1017A000FFF7C8FF034683F00103DBB2002BEAD149
:1017B0000C217868FFF7AFFE0346FB60FB6803F47B
:1017C0000003002B03D0FB6843F07F43FB60FB6802
:1017D0005B11FB60F868FFF71BFA03464FF070518E
:1017E0001846FFF769FA034618461037BD4680BD14
:1017F0000000C07F80B582B000AF78607B68002BAE
:1018000031D07B681B6A002B2DD07B68DB69002BF5
:1018100029D07B681B6A1A687B68DA627B68DB699F
:101820001A687B681A637B68DA6A7B68DB6B194627
:101830001046FFF7FDFB0346002B04D07B68DA6BF4
:101840007B68DA6210E07B68DA6A7B689B6B19461A
:101850001046FFF7CFFB0346002B05D07B689A6B41
:101860007B68DA6200E000BF0837BD4680BD00003B
:1018700080B586B002AFF860B9607A603B60FB6803
:10188000002B2CD0FB687A681A62FB68BA68DA61B0
:10189000FB683A685A62FB680022DA76124A4FF017
:1018A0000001F86800F0B5F9FB6864225A6397F804
:1018B00028301946F86800F035FA97F8243000937C
:1018C0003B6AFA69B969F86800F0E8F802F078FB59
:1018D0000246FB685B6BD21AFB689A6200E000BFAD
:1018E0001037BD4680BD00BF00007F4390B58BB070
:1018F00000AF78607B68002B06D07B68DB7E83F0CE
:101900000103DBB2002B01D00023C3E07B68DB695D
:10191000002B07D07B681B6A002B03D07B685B6AB7
:10192000002B01D10023B5E002F04AFB38627B684E
:101930009B6A3A6AD31AFB617B685B6BFA699A42CD
:10194000C0F0A7807B68DB691B68BB617B685B6A52
:101950001B687B61B9697869FFF7A4F803463B61AE
:101960007B681B6B1946B869FFF79CF80346FB6060
:101970007B68DC6A7B681B6939691846FFF79CF94C
:10198000034619462046FFF78FF803461A467B6840
:10199000DA627B689B7E83F00103DBB2002B10D000
:1019A0007B68DC6A7B68DB68F9681846FFF784F9B6
:1019B000034619462046FFF775F803461A467B682A
:1019C000DA627B68DA6A7B68DB6B19461046FFF7E0
:1019D0002FFB0346002B04D07B68DA6B7B68DA624E
:1019E0000EE07B68DA6A7B689B6B19461046FFF74E
:1019F00001FB0346002B03D07B689A6B7B68DA629D
:101A00007B689B7E002B08D07B68DB6819463869B1
:101A1000FFF752F903467B6202E04FF000037B625E
:101A20007B68DC6A7B685B69F9681846FFF744F9F4
:101A3000034619462046FFF735F803461946786AEB
:101A4000FFF732F803467B627B68DB6B1946786AE6
:101A5000FFF7EEFA0346002B03D07B68DB6B7B625B
:101A60000BE07B689B6B1946786AFFF7C3FA034665
:101A7000002B02D07B689B6B7B627B681B6A7A6A57
:101A80001A607B68BA691A637B683A6A9A620123B2
:101A900000E0002318462C37BD4690BD80B586B0C7
:101AA00000AFF860B9607A603B60FB68002B72D0D1
:101AB0004FF00001B868FFF79DFA0346002B6AD18A
:101AC0004FF000017868FFF795FA0346002B62D1CA
:101AD0004FF000013868FFF78DFA0346002B5AD10A
:101AE000FB6897F820205A7697F82030012B0CBF1E
:101AF00001230023DAB2FB689A76FB68BA681A60A1
:101B0000FB687A685A60FB683A689A60FB685B6BAE
:101B10001846FFF779F8034621491846FFF780F980
:101B200003467B61FB68BA68DA6079697868FFF719
:101B3000C3F803461A46FB681A6179693868FFF7EB
:101B40006FF903461A46FB685A61FB681B7E012B3E
:101B500022D1FB68DB6819464FF00000FEF7A2FFB8
:101B600003461A46FB68DA60FB681B6919464FF0AA
:101B70000000FEF797FF03461A46FB681A61FB68F0
:101B80005B6919464FF00000FEF78CFF03461A46CA
:101B9000FB685A6100E000BF1837BD4680BD00BF3A
:101BA00000007A4490B585B000AF786039607B68FA
:101BB000002B2AD03B68002B28D03868FFF724F888
:101BC00004467B685B6B1846FFF71EF80346194610
:101BD0002046FFF725F90346FB607B681B69F9681F
:101BE0001846FFF769F803461A467B681A617B6856
:101BF0005B69F9681846FFF713F903461A467B68D4
:101C00005A617B683A685A6300E000BF1437BD46EA
:101C100090BD80B584B000AFF860B9607A60FB68B1
:101C2000002B57D07968B868FFF7F8F90346002B06
:101C300050D1FB68BA689A63FB687A68DA63FB681C
:101C4000DB7E002B47D0FB681B6A002B22D0FB6891
:101C50001B6A1A68FB68DB6B19461046FFF7E8F948
:101C60000346002B05D0FB681B6AFA68D26B1A602A
:101C700010E0FB681B6A1A68FB689B6B19461046EC
:101C8000FFF7B8F90346002B04D0FB681B6AFA681B
:101C9000926B1A60FB68DA6AFB68DB6B19461046C8
:101CA000FFF7C6F90346002B04D0FB68DA6BFB682C
:101CB000DA6210E0FB68DA6AFB689B6B1946104633
:101CC000FFF798F90346002B05D0FB689A6BFB6879
:101CD000DA6200E000BF1037BD4680BD80B584B039
:101CE00000AF78600B46FB707B68002B16D0FB784A
:101CF000012B0CBF01230023FB73FB7B002B09D0BE
:101D00007B68DB7E83F00103DBB2002B02D07868B6
:101D1000FFF770FD7B68FA7BDA7600E000BF1037D2
:101D2000BD4680BD80B582B000AF78600B46FB70C9
:101D30007B68002B2DD07B68DB7E002B25D07B6859
:101D40001B7EFA789A4220D07B68DB6819464FF0F8
:101D50000000FEF7A7FE03461A467B68DA607B6840
:101D60001B6919464FF00000FEF79CFE03461A4619
:101D70007B681A617B685B6919464FF00000FEF7CB
:101D800091FE03461A467B685A617B68FA781A7698
:101D900000E000BF0837BD4680BD80B483B000AF0F
:101DA00078607B68DB7E18460C37BD4680BC704788
:101DB00080B584B000AF0346FB8002F001F9F86003
:101DC000FB88B3F5807F0CD12A4B1B68FA68D31AC5
:101DD000C82B06D9284B01221A70264AFB681360CB
:101DE00043E0FB88B3F5007F0CD1244B1B68FA68F5
:101DF000D31AC82B06D9224B01221A701F4AFB683E
:101E0000136032E0FB88B3F5004F0CD11D4B1B680B
:101E1000FA68D31AC82B06D91B4B01221A70194A2B
:101E2000FB68136021E0FB88B3F5006F0CD1174B02
:101E30001B68FA68D31AC82B06D9154B01221A70F1
:101E4000124AFB68136010E0FB88B3F5806F0CD179
:101E5000104B1B68FA68D31AC82B06D90E4B012207
:101E60001A700C4AFB681360FFE700BF1037BD46CD
:101E700080BD00BF7C030020900300208003002071
:101E8000910300208C03002092030020880300208F
:101E900093030020840300209403002080B483B0C7
:101EA00000AF78607B681B68B3F1804F16D10E4B92
:101EB0001B78DBB2012B11D10C4B1B78DBB2002B52
:101EC0000CD10B4B1B680133094A1360094B1B787B
:101ED000DBB2002B02D1084B01221A7000BF0C3775
:101EE000BD4680BC704700BFE0030020790300209E
:101EF000E4030020E10300201400002080B584B03A
:101F000000AF786039603868FEF72CF9F860FB683C
:101F1000102B01D91023FB60FA683968786805F046
:101F200088FD00BF1037BD4680BD000080B483B07F
:101F300000AF0346FB71FB79082B01D900231AE09F
:101F4000FB790F4ADB0013441B791A464FF4616397
:101F500003FB02F2FB790A49DB000B445B7919466B
:101F60000B461B015B1A9B001A44FB790449DB00FA
:101F70000B449B79134418460C37BD4680BC704710
:101F80009803002080B483B000AF2A4B1B78002B4D
:101F900003D0284B1B78092B02D9264B01221A703B
:101FA0000023FB713CE0FB79234A12F83330002B0D
:101FB0000AD0FB79204A12F83330012B04D0FB7988
:101FC0001D4A002102F83310FB791B4ADB00134441
:101FD0005B88B3F5A06F06D9FB79174ADB00134481
:101FE0004FF4A0625A80FB79134ADB0013445B79FB
:101FF0003B2B05D9FB79104ADB0013443B225A7175
:10200000FB790D4ADB0013449B793B2B05D9FB7907
:10201000094ADB0013443B229A71FB790133FB71BF
:10202000FB79082BBFD900BF00BF0C37BD4680BC71
:10203000704700BF110000209803002080B400AF5B
:102040002C4B1B78002B50D02A4B1A782A4B1B782C
:102050009A424AD8294B1B78DBB2032B13D1284B69
:102060001B88B3F5A06F03D9254B4FF4A0621A80EB
:10207000204B1B78013B224A1188224ADB00134483
:102080000A465A8032E01D4B1B78DBB2042B2DD15F
:102090001D4B1B783B2B02D91B4B3B221A701B4B51
:1020A0001B783B2B02D9194B3B221A70114B1B7822
:1020B000013B174A1178134ADB0013440A461A7190
:1020C0000C4B1B78013B104A11780E4ADB0013447D
:1020D0000A465A71074B1B78013B0C4A1178094A92
:1020E000DB0013440A469A7100E000BFBD4680BC85
:1020F000704700BF1300002011000020E103002002
:10210000FC03002098030020FF03002000040020AF
:10211000FE03002080B500AF002280210D4802F0B0
:102120000FFC0D48FFF739FE0346002B03D00021BA
:102130000948FFF7D3FD094B4FF000021A60084B26
:102140004FF000021A60044B4FF00002DA6200BF49
:1021500080BD00BF000C0140180300205C0300207C
:102160006803002080B582B000AF0346FB71FB79A5
:10217000002B0BD0074AFB791370074B00221A7013
:10218000FFF7C8FF054B01221A7000E000BF0837B7
:10219000BD4680BD79030020E0030020140000202C
:1021A00080B584B002AFFFF7EDFE434B1B78DBB286
:1021B000002B06D1414B1B7883F00103DBB2002BCF
:1021C00015D03E4B1B7883F00103DBB2002B07D008
:1021D000394B1B78DBB2002B02D1374B02221A702D
:1021E000374B00221A70FFF795FF00235FE0EFF3F3
:1021F00010833B603B687B6072B600BF314B0022AE
:102200001A60314B01221A70304B00221A60304B99
:102210001B68304A13600020FFF788FE03462E4AF1
:102220001360274B01221A707B68002B01D162B624
:1022300000BF274B1B68294A1360284B1B68284A9C
:102240001360284B4FF000021A60274B4FF000023A
:102250001A60264B4FF00002DA621D4B1B68234ABE
:10226000136301F0ADFE0246204B5B6BD31A1F4A8D
:1022700093621F4B19681F4B1B68012200924FF09D
:1022800000021A48FFF70AFC1B4B00221A7001F0EB
:1022900097FE0346194A1360002000F031F8084BFE
:1022A0001B78DBB2012B0CBF01230023DBB21846E5
:1022B0000837BD4680BD00BF7903002077030020AA
:1022C000E0030020E403002012000020F0030020BF
:1022D00058030020F4030020E803002060030020DE
:1022E000700300205C030020680300201803002016
:1022F00000000020080000201000002064030020DF
:1023000080B586B000AF78600023FB753CE0FB7DB4
:102310000133FB75254B1A78254B1B789A422BD23B
:10232000224B1B78013B234ADB0013445B88184691
:10233000FEF76AFC03463B611F4B1B68FB601B4BAF
:102340001B780133DAB2194B1A701C4AFB68136010
:102350001B4A3B691360154B1B78013BDBB21846E7
:10236000FFF7E4FD0246144B1B681344124A136046
:10237000144B01221A7007E0134B02221A70FFF768
:10238000C9FE104B01221A700F4B1B78DBB2012BD8
:1023900007D1094B1B687A689A4202D3FB7D082B50
:1023A000B5D900BF1837BD4680BD00BF1200002060
:1023B0001100002098030020E8030020F003002013
:1023C000F403002014000020E003002090B589B041
:1023D00000AF7860334B1B78013BFB75FB7D324AC5
:1023E000DB0013445B881846FEF70EFC03463B6196
:1023F000FB7D2D4A12F83330002B01D13B694CE0B4
:10240000FB7D1846FFF792FDF860FB68002B01D1B9
:102410003B6942E0254B1B687A68D31AFB61FA6975
:10242000FB689A4201D9FB68FB61F869FEF7ECFB97
:102430000446F868FEF7E8FB034619462046FEF717
:10244000EFFC0346BB601A4B1B6819463869FEF760
:1024500029FB0346B9681846FEF72EFC03461A46C8
:10246000134B1B6819461046FEF71EFB0346BB6163
:102470004FF00001B869FEF7BDFD0346002B02D006
:102480004FF00003BB610B49B869FEF7D1FD03466D
:10249000002B01D0074BBB61BB6918462437BD46F2
:1024A00090BD00BF1200002098030020F003002020
:1024B000F40300200000A044B0B584B000AF786001
:1024C000974B1B687A68D31AF92B40F22281944A01
:1024D0007B681360934B1B7883F00103DBB2002B06
:1024E00003D00220FFF73EFE16E18F48FFF7D2F837
:1024F00003461A468D4B1A708C4B1B78002B09D063
:102500008B4B00221A708B4B00221A700120FFF7B0
:1025100029FE01E18448FFF727F9F860FB6823F002
:10252000004401231D4684492046FEF78BFD0346E7
:10253000002B08D180492046FEF77AFD0346002B88
:1025400001D100231D46EBB283F00103DBB2002B67
:102550000FD07A49F868FEF761FD0346002B08D0DA
:102560007749F868FEF750FD0346002B01D00123A0
:1025700000E00023FB72FB7A03F00103FB72FB7A9D
:1025800083F00103DBB2002B15D06A4B00221A70D6
:10259000674B1B78FF2B05D0654B1B780133DAB2F4
:1025A000634B1A70624B1B78022B40F2B4800220FE
:1025B000FFF7D8FDAFE05E4B00221A70614AFB685E
:1025C0001360614B1B7883F00103DBB2002B11D148
:1025D0005E4B1B6823F0004457492046FEF732FD4E
:1025E0000346002B06D154492046FEF721FD034641
:1025F000002B03D0554AFB68136016E0534B1B6851
:102600001946F868FEF74EFA034651491846FEF798
:1026100053FB03461A464D4B1B6819461046FEF7FE
:1026200043FA03461A46494B1A60484B1B68494A0D
:102630001360464B1B68484A1360434B01221A70D3
:102640004649F868FEF7EAFC0346002B08D13F4BE9
:102650001B6842491846FEF7E1FC0346002B06D0F2
:10266000344B00221A700320FFF77CFD48E03C4BFE
:102670001B78DBB2032B21D1344B1B683949184638
:10268000FEF7C2FC0346002B14D02A4B1B78FF2B0D
:1026900005D0284B1B780133DAB2264B1A70254B34
:1026A0001B78032B2CD92E4B00221A70214B0022B1
:1026B0001A7025E01F4B00221A7021E0284B1B786E
:1026C000DBB2012B04D0264B1B78DBB2022B14D1DA
:1026D000184B1B78FF2B05D0164B1B780133DAB251
:1026E000144B1A70134B1B78032B09D91C4B002277
:1026F0001A70104B00221A7002E00E4B00221A7062
:10270000194B1B78DBB2002B06D1184B01221A7033
:1027100002E000BF00E000BF1037BD46B0BD00BF03
:102720002C040020780300200C03002074030020F8
:102730007503002076030020FFFF7F7F000048C262
:102740000000E1446C030020770300200C0000200F
:10275000CDCC4C3EEC030020580300200080A24466
:102760007903002000409C44E10300201400002075
:1027700080B588B002AF786039608F4B1B78DBB2D0
:10278000012B0BD18D4B1B78DBB2002B06D18C4B70
:102790001B7883F00103DBB2002B02D0FFF7BAFCF9
:1027A00006E13868FFF712FE0346864A1360864842
:1027B000FFF7F3FA0346012B03D001218248FFF70C
:1027C0008DFA804B1B68814A126811461846FEF745
:1027D00069F903467B617B6923F000433B617C4BD5
:1027E0001B684FF07A511846FEF75CF903461A460B
:1027F000744B1B6819461046FEF71AFC0346002B63
:1028000006D174497869FEF7F5FB0346002B03D027
:102810006D4B4FF00002DA626F493869FEF708FC31
:102820000346002B12D06D4B1B78002B0ED06C4B47
:1028300019686C4B1B68012200924FF0000262483D
:10284000FFF72CF9654B00221A701CE04FF0814114
:102850003869FEF7CFFB0346002B14D05F4B1B7883
:1028600083F00103DBB2002B0DD05D4B19685E4B8A
:102870001A685C4B1B68012000905348FFF70EF963
:10288000564B01221A705048FFF730F80346002BD0
:1028900003D0564B1B68564A13604A4B1B684FF0D7
:1028A0007F511846FEF700F903461A46474B1B684E
:1028B00019461046FEF79EFB0346002B11D1414BF3
:1028C0001B684FF07F511846FEF7EEF803461A4694
:1028D000484B1B6819461046FEF78CFB0346002B3D
:1028E0000BD0434B4FF000021A60404B4FF00002F8
:1028F0001A60354B4FF00002DA623D4B1B684FF017
:1029000000011846FEF776FB0346002B03D0384B38
:102910004FF000021A60364B1B6837491846FEF725
:1029200087FB0346002B02D0314B334A1A60254BFC
:102930001B68274A1360314B1B687A68D31A304AE8
:10294000A2FB031292094FF47A7101FB02F29B1A67
:10295000FB60274B1B682B491846FEF755FB0346C7
:10296000002B05D000228021274801F0E9FF1FE05D
:102970001F4B1B6825491846FEF750FB0346002BEA
:1029800005D001228021204801F0DAFF10E0184B29
:102990001B681846FEF792FB0246FB68934234BF61
:1029A00001230023DBB21A468021174801F0C8FF3B
:1029B0001837BD4680BD00BFE0030020790300202A
:1029C0007703002060030020180300205803002034
:1029D000700300200000C0BF000020411000002054
:1029E0000000002008000020040000205C030020FC
:1029F000680300206C03002000007A446403002078
:102A0000D34D62100000A041000C0140000075444D
:102A100080B586B000AFEFF31083BB60BB687B610D
:102A200072B600BF9E4B1B78FB749D4B00221A7040
:102A30009C4B1B78BB749B4B00221A709A4B1B78E3
:102A40007B74994B00221A70984B1B783B74974B00
:102A500000221A70964B1B78FB73954B00221A705C
:102A60007B69002B01D162B600BFFB7C002B1CD020
:102A7000904B1B78DBB2002B08D18E4B01221A70D1
:102A80008D4B00221A70FFF745FB0AE0FFF7D6FADC
:102A9000FFF778FA00F0DCFC864B00221A70FFF793
:102AA0007FFB864B01221A7041E2BB7C002B39D0A0
:102AB000804B1B78DBB2022B0FD1814B1B7801338B
:102AC000DAB27F4B1A707E4B1A787E4B1B789A4293
:102AD00025D97B4B01221A7021E0764B1B78DBB2A3
:102AE000032B09D1784B1B780133DBB203F00303CE
:102AF000DAB2754B1A7012E06E4B1B78DBB2042B06
:102B00000DD1724B1B78591C714BA3FB01235A0842
:102B100013465B001344CA1AD2B26C4B1A70674B4F
:102B200001221A707B7C002B6ED0624B1B78DBB2CB
:102B3000042B65DC032B5DDA012B02D0022B0CD0B9
:102B40005EE0FFF71FFA5B4B02221A705C4B01221A
:102B50001A70604B00221A7053E05E4B1B78002BFA
:102B600012D1574B1B78013B5B4A12F83330002BD4
:102B70000CBF01230023DAB2514B1B78013B1146F5
:102B8000554A02F833103CE0524B1B78012B0FD111
:102B90004B4B1B78013B504ADB0013445A884F4B88
:102BA0001A80494B00221A70424B03221A7028E007
:102BB000434B1B78013B484ADB0013441A79484BCE
:102BC0001A703F4B1B78013B434ADB0013445A7990
:102BD000444B1A703A4B1B78013B3F4ADB001344CD
:102BE0009A79414B1A70394B00221A70314B0422EA
:102BF0001A7006E0FFF722FA2E4B02221A7000E04C
:102C000000BF2E4B01221A703B7C002B14BF012306
:102C10000023DAB2FB7B002B14BF01230023DBB2BD
:102C20005340DBB2002B00F082813B7C002B14BFB1
:102C300001230023BB731F4B1B78DBB2013B032B2B
:102C400000F26D8101A252F823F000BF5D2C000854
:102C5000ED2C0008272D0008612E0008BB7B002BFF
:102C60000AD0184B1B78082B06D8164B1B7801335B
:102C7000DAB2144B1A7054E1BB7B83F00103DBB270
:102C8000002B00F04E810F4B1B78012B40F2498145
:102C90000C4B1B78013BDAB20A4B1A7041E100BFC2
:102CA0009003002091030020920300209303002052
:102CB00094030020E1030020E00300201400002022
:102CC0001300002011000020F9030020FA03002067
:102CD000ABAAAAAAF803002098030020FC03002056
:102CE000FE030020FF03002000040020BB7B002B1C
:102CF0000CD0904B1B78002B04D08E4B1B78013BE3
:102D0000DBB200E002238B4A13700DE1894B1B7884
:102D1000012B04D8874B1B780133DBB200E0002382
:102D2000844A137000E1844B1B88844AA2FB03236E
:102D30009B099BB2DBB23B717F4B1B88804AA2FB95
:102D400003235B099AB27F4BA3FB0213D9080B46FE
:102D50009B000B445B00D31A9BB2DBB27B71764BBA
:102D60001B88784AA2FB0323DB089AB2754BA3FBAE
:102D70000213D9080B469B000B445B00D31A9BB28D
:102D8000DBB2BB716C4B1A886E4BA3FB0213D908E4
:102D90000B469B000B445B00D31A9BB2DBB2FB716A
:102DA000BB7B002B18D0684B1B7818333B4413F8BF
:102DB000143C092B08D0644B1B7818333B4413F8A0
:102DC000143C0133DAB200E000225F4B1B78183369
:102DD0003B4403F8142C17E05B4B1B7818333B443F
:102DE00013F8143C002B08D0574B1B7818333B4486
:102DF00013F8143C013BDAB200E00922524B1B7875
:102E000018333B4403F8142C3B791A465201D21A6A
:102E100092001344DB009AB27B79194689000B4477
:102E200019468800194603460B449B009BB2134485
:102E30009AB2BB79194689000B445B009BB21344DC
:102E40009BB2FA7913449AB23B4B1A803A4B1B88D7
:102E5000B3F5A06F67D9384B4FF4A0621A8062E0D7
:102E60003A4B1B78002B1CD1BB7B002B0CD0384B72
:102E70001B78632B04D0364B1B780133DBB200E0A8
:102E80000023334A13704FE0314B1B78002B04D0E2
:102E90002F4B1B78013BDBB200E063232C4A1370FD
:102EA00042E02A4B1B78012B1CD1BB7B002B0CD0A2
:102EB000284B1B783B2B04D0264B1B780133DBB20D
:102EC00000E00023234A13702EE0224B1B78002BD6
:102ED00004D0204B1B78013BDBB200E03B231D4AB2
:102EE000137021E0BB7B002B0CD01B4B1B783B2BC2
:102EF00004D0194B1B780133DBB200E00023164AE3
:102F0000137011E0144B1B78002B04D0124B1B786C
:102F1000013BDBB200E03B230F4A137004E000BF2B
:102F200002E000BF00E000BF0C4B01221A7018370E
:102F3000BD4680BDF8030020FC030020D34D621085
:102F40001F85EB51CDCCCCCCF9030020FA03002037
:102F5000FE030020FF0300200004002014000020D6
:102F600080B59AB002AFB54B1B78DBB283F001039A
:102F7000DBB2002B40F00F82B04B00221A7007F139
:102F8000380310222021184604F0BDFC002387F8E6
:102F9000483007F1240310222021184604F0B3FC26
:102FA000002387F83430A64B1B78DBB2042B00F2E9
:102FB000918101A252F823F0CD2F000815310008AD
:102FC0003F310008B7310008F13100089D4B1B78F4
:102FD000DBB2002B1FD09B4B1B78DBB2032B06D13F
:102FE0003B1D994A2021184604F014FC05E03B1DC6
:102FF000964A2021184604F00DFC3A1D07F13803CB
:1030000011461846FEF77AFF07F124039049184647
:10301000FEF774FF5FE18F4B1B78002B06D08E4BC1
:103020001B68184606F04EFD034600E00023FB65D2
:103030008A4B1B78DBB2002B09D1894B1B78381DDA
:103040000093FB6D874A202104F0E4FB18E0834BDA
:103050001B78DBB2022B06D1381DFB6D824A202182
:1030600004F0D8FB0CE0814B1B781A467C4B1B7894
:10307000381D01930092FB6D7D4A202104F0CAFBAC
:103080003A1D07F1380311461846FEF737FF794B12
:103090001B68BB65BB6D784AA2FB0323DB0A7B651B
:1030A000BB6D764AA2FB03235A09744BA3FB0213A0
:1030B00059090B461B015B1A9B00D31A3B65BA6D7D
:1030C0006E4BA3FB021359090B461B015B1A9B00B5
:1030D000D31AFB647B6D632B0AD8381DFB6C0193FC
:1030E0003B6D00937B6D664A202104F093FB09E061
:1030F000381DFB6C01933B6D00937B6D614A202171
:1031000004F088FB3A1D07F1240311461846FEF728
:10311000F5FEE0E007F138035B491846FEF7EEFEE6
:103120004F4B1B78381D594A202104F073FB3A1D80
:1031300007F1240311461846FEF7E0FECBE0544B9E
:103140001B78381D534A202104F064FB3A1D07F117
:10315000380311461846FEF7D1FE4F4B1B78002B63
:1031600010D14B4B1B78013B4C4A12F83330002BEB
:1031700001D14B4B00E04B4B381D4B4A202104F052
:1031800049FB10E0444B1B78012B06D13B1D474AFD
:103190002021184604F03EFB05E03B1D444A202157
:1031A000184604F037FB3A1D07F124031146184670
:1031B000FEF7A4FE8FE0364B1B78381D3D4A2021D8
:1031C00004F028FB3A1D07F1380311461846FEF7B4
:1031D00095FE394B1B88381D384A202104F01AFB14
:1031E0003A1D07F1240311461846FEF787FE72E0E8
:1031F000274B1B78381D324A202104F00BFB3A1D67
:1032000007F1380311461846FEF778FE2D4B1B7860
:1032100019462D4B1B781A462C4B1B78381D0193F1
:1032200000920B462A4A202104F0F4FA3A1D07F1D5
:10323000240311461846FEF761FE4CE014000020FE
:10324000E103002079030020389B0008489B000818
:103250005C9B000877030020EC030020E0030020C3
:1032600011000020689B00087C9B000812000020D1
:103270008C9B0008E4030020C5B3A291898888884C
:10328000A09B0008B89B0008D09B0008E09B0008AA
:1032900013000020F09B0008F80300209803002092
:1032A000049C0008089C0008109C00081C9C000856
:1032B000289C0008349C0008FC030020449C000863
:1032C000549C0008FE030020FF030020000400209F
:1032D000649C000800BF07F1380331491846FCF729
:1032E00037FF0346002B0ED000210020FDF7CCFF56
:1032F00007F138031846FEF70FF807F138031946AF
:10330000274804F080FB07F1240326491846FCF700
:103310001FFF0346002B0ED001210020FDF7B4FF54
:1033200007F124031846FDF7F7FF07F124031946B8
:103330001C4804F068FB1C4B1B78DBB2032B0AD142
:103340001A4B1B780733DBB201211846FDF79CFFAF
:10335000FEF75FF820E0144B1B78DBB2042B17D18B
:10336000134B1B78002B07D0114B1B78012B01D17D
:10337000092302E00C2300E0062387F84B3097F87E
:103380004B3001211846FDF77FFFFEF742F803E0BE
:10339000FEF745F800E000BF6037BD4680BD00BFC6
:1033A0000404002018040020E1030020F903002099
:1033B000FA03002080B582B000AF482200210C48FB
:1033C00004F0A1FA0023FB7107E0FB79084A002111
:1033D00002F83310FB790133FB71FB79082BF4D928
:1033E000044B01221A7000BF0837BD4680BD00BFE4
:1033F000980300201100002080B487B000AF7860EF
:103400007B68FB605423BB600F4B7B6100233B61F7
:103410000FE0FA683B6913441B781A467B695340F6
:103420007B617B69094A02FB03F37B613B690133E2
:103430003B613A69BB689A42EBD37B6918461C37FB
:10344000BD4680BC704700BFC59D1C819301000133
:10345000B0B5A2B000AFFEF795FD07F118035822F2
:103460000021184604F04FFA534BBB610223FB6165
:10347000524B1B783B62524A07F124031146482203
:10348000184604F0D6FA07F118031846FFF7B4FF00
:103490000346FB6607F11803C7F880301623A7F828
:1034A0007E3007F1080300221A605A609A60DA60E1
:1034B00000237B60434B00221A70EFF310833B67BD
:1034C0003B6FBB6772B600BF00F026FF034687F86C
:1034D000873097F88730002B45D10023BB6001234C
:1034E000FB60394B3B6101237B613A1D07F1080307
:1034F0001146184600F0F8FF034687F8873097F822
:103500008730002B2DD10023A7F8843021E0B7F8B5
:10351000843003F1007303F57C539900B7F88430CD
:103520009B00D7F8802013441B6800221C461546D8
:1035300022462B46022000F07FFE034687F88730A4
:1035400097F88730002B0BD1B7F884300133A7F8F8
:103550008430B7F88420B7F87E309A42D7D300E0A1
:1035600000BF00F0FFFEBB6F002B01D162B600BFB1
:1035700097F88730002B1AD1134B7B677B6F1B6842
:103580000D4A93420DD17B6F5B68022B09D17B6F93
:103590005C6D786FFFF730FF03469C4201D1012339
:1035A00000E0002303F00103DAB2064B1A7000BFFB
:1035B0008837BD46B0BD00BFDECCBBAA11000020DD
:1035C000980300201500002000FC000890B583B08F
:1035D00000AF1E4B7B607B681B681D4A93420DD178
:1035E0007B685B68022B09D17B689B68002B05D048
:1035F0007B689B68092B01D8012300E00023FB7046
:10360000FB7803F00103FB70FB78002B16D07B687E
:103610005C6D7868FFF7F0FE03469C420ED17B6834
:103620009B68DAB20B4B1A707B680C334822194640
:10363000094804F0FEF9FEF7A5FC02E0FFF7BAFE28
:1036400000BF00BF0C37BD4690BD00BF00FC0008A6
:10365000DECCBBAA110000209803002080B588B002
:1036600006AF00F055FC00F099F800F08FF900F07B
:103670003FF900F0D9F800F005F9FFF7A7FF0223A2
:10368000102227213448FDF739FDFDF7F1FDFDF744
:10369000A3FD324803F000F84FF40043304A3149AB
:1036A0003148FDF763FF03461A46304B1A702F4B23
:1036B0001B78002B0CD006212B48FDF7C7FF0021FB
:1036C0002948FDF7F4FF02212748FDF791FF02E0AA
:1036D000274B02221A70274B4FF000021A60264B2C
:1036E0001B68264A126826490968002004900120B8
:1036F00003900291019200931E4B224A22492348D3
:10370000FEF7B6F800212148FEF7E8FA204A4FF00C
:1037100000011E48FEF77DFA4FF47A711B48FEF750
:1037200041FA00F04DFC03461A4A136000F048FCD1
:1037300078607868FEF7C0FEFFF76AF9164B1B68E1
:103740003B603868FEF7DCFD39687868FFF710F8F1
:10375000FFF706FC00BFE9E718020020C4020020C2
:10376000000801406C0200200C03002078030020B8
:1037700079030020600300200000002004000020E6
:10378000080000205C0300205803002018030020DC
:1037900000007A4464030020E403002080B590B068
:1037A00000AF07F1180328220021184604F0ABF8F7
:1037B0003B1D00221A605A609A60DA601A61012388
:1037C000BB614FF48033FB6100233B620123BB628A
:1037D00002237B634FF48033BB634FF4E013FB633E
:1037E00007F11803184601F077FD0346002B01D0BE
:1037F00000F058F90F237B600223BB600023FB60BD
:103800004FF480633B6100237B613B1D022118461E
:1038100001F0E4FF0346002B01D000F043F900BFA4
:103820004037BD4680BD000080B500AF124B134A43
:103830001A60114B124A5A600F4B00229A600E4BCD
:103840000022DA600C4B4FF480421A610A4B0022CE
:103850005A61094B00229A61074B0022DA61064B3C
:1038600000221A62044801F09BF80346002B01D0A5
:1038700000F018F900BF80BD180200200058004079
:10388000A086010080B500AF174B184A1A60164B8E
:103890004FF482725A60144B00229A60124B00223D
:1038A000DA60114B00221A610F4B01225A610E4B54
:1038B0004FF400729A610C4B1822DA610A4B002215
:1038C0001A62094B00225A62074B00229A62064B89
:1038D0000A22DA62044802F0FBF80346002B01D00A
:1038E00000F0E0F800BF80BD6C0200200030014015
:1038F00080B586B000AF07F1080300221A605A6055
:103900009A60DA603B4600221A605A601E4B4FF004
:1039100080421A601C4B41F61F425A601A4B00222B
:103920009A60194B42F20F72DA60174B00221A614B
:10393000154B80229A61144802F05FFE0346002B6B
:1039400001D000F0AFF84FF48053BB6007F10803DB
:1039500019460D4802F0E2FF0346002B01D000F0AB
:10396000A1F800233B6000237B603B4619460648D4
:1039700003F0C4F90346002B01D000F093F800BF18
:103980001837BD4680BD00BFC402002080B588B096
:1039900000AF07F1100300221A605A609A60DA60E3
:1039A0003C4B9B693B4A43F020039361394B9B6935
:1039B00003F02003FB60FB68364B9B69354A43F0FC
:1039C00008039361334B9B6903F00803BB60BB683A
:1039D000304B9B692F4A43F0040393612D4B9B6945
:1039E00003F004037B607B6801224FF400412A4806
:1039F00000F0A6FF00228021284800F0A1FF4FF42C
:103A000000433B61264B7B610023BB6107F1100340
:103A10001946224800F010FE4FF470633B61204BC2
:103A20007B610023BB6107F1100319461A4800F0BF
:103A300003FE4FF400433B6101237B610023BB6124
:103A40000223FB6107F110031946134800F0F4FD4F
:103A500080233B6101237B610023BB610223FB6167
:103A600007F1100319460D4800F0E6FD0022002181
:103A7000172000F0AAFB172000F0C3FB0022002152
:103A8000282000F0A2FB282000F0BBFB00BF20375D
:103A9000BD4680BD0010024000080140000C0140FE
:103AA0000000111080B400AF72B600BF00BFFDE788
:103AB00080B485B000AF154B9B69144A43F00103F5
:103AC0009361124B9B6903F00103BB60BB680F4B12
:103AD000DB690E4A43F08053D3610C4BDB6903F082
:103AE00080537B607B680A4B5B68FB60FB6823F05C
:103AF000E063FB60FB6843F00073FB60044AFB6813
:103B0000536000BF1437BD4680BC704700100240B0
:103B10000000014080B588B000AF786007F1100365
:103B200000221A605A609A60DA607B681B68164A45
:103B3000934224D1154B9B69144A43F008039361C7
:103B4000124B9B6903F00803FB60FB684FF4406372
:103B50003B6112237B610323FB6107F110031946CC
:103B60000B4800F069FD094BDB69084A43F4800308
:103B7000D361064BDB6903F48003BB60BB6800BF05
:103B80002037BD4680BD00BF0058004000100240F5
:103B9000000C014080B58AB000AF786007F11403D3
:103BA00000221A605A609A60DA607B681B68224AB9
:103BB00093423DD1214B9B69204A43F4805393614A
:103BC0001E4B9B6903F480533B613B691B4B9B6914
:103BD0001A4A43F008039361184B9B6903F00803EA
:103BE000FB60FB6828237B610223BB6103233B62EC
:103BF00007F114031946124800F01EFD10237B61E3
:103C00000023BB610023FB6107F1140319460C4834
:103C100000F012FD0B4B5B687B627B6A43F0E06354
:103C20007B627B6A43F001037B62064A7B6A5360D6
:103C300000BF2837BD4680BD003001400010024063
:103C4000000C01400000014080B584B000AF7860F6
:103C50007B681B68B3F1804F13D10C4BDB690B4AB7
:103C600043F00103D361094BDB6903F00103FB60FF
:103C7000FB68002200211C2000F0A7FA1C2000F0A5
:103C8000C0FA00BF1037BD4680BD00BF0010024023
:103C900080B400AF00BFFDE780B400AF00BFFDE718
:103CA00080B400AF00BFFDE780B400AF00BFFDE708
:103CB00080B400AF00BFFDE780B400AF00BFBD46D9
:103CC00080BC704780B400AF00BFBD4680BC704769
:103CD00080B400AF00BFBD4680BC704780B500AF68
:103CE00000F05CF900BF80BD80B500AF4FF480707C
:103CF00000F03EFE4FF4007000F03AFE00BF80BDC1
:103D000080B500AF024802F019FD00BF80BD00BFC2
:103D1000C402002080B500AF4FF4806000F028FEA0
:103D20004FF4006000F024FE4FF4004000F020FE4D
:103D300000BF80BD80B400AF01231846BD4680BCE3
:103D4000704780B582B000AF7860396003F02EFE16
:103D5000034616221A604FF0FF3318460837BD4657
:103D600080BD80B582B000AF78604FF0FF317868D9
:103D7000FFF7E7FF00BFFDE780B586B000AFF86052
:103D8000B9607A6000237B610AE0AFF300800146EE
:103D9000BB685A1CBA60CAB21A707B6901337B6176
:103DA0007A697B689A42F0DB7B6818461837BD4613
:103DB00080BD80B586B000AFF860B9607A6000233E
:103DC0007B6109E0BB685A1CBA601B781846AFF3E8
:103DD00000807B6901337B617A697B689A42F1DB01
:103DE0007B6818461837BD4680BD80B483B000AFED
:103DF00078604FF0FF3318460C37BD4680BC7047E3
:103E000080B483B000AF786039603B684FF40052F3
:103E10005A60002318460C37BD4680BC704780B4FA
:103E200083B000AF7860012318460C37BD4680BCD4
:103E3000704780B485B000AFF860B9607A60002345
:103E400018461437BD4680BC7047000080B586B068
:103E500000AF7860144A154BD31A7B617B693B61D4
:103E6000134B1B68002B02D1114B124A1A60104BE6
:103E70001A687B6813443A699A4207D203F096FDA8
:103E800003460C221A604FF0FF3309E0084B1B6811
:103E9000FB60074B1A687B681344054A1360FB6894
:103EA00018461837BD4680BD0050002000040000B1
:103EB00030040020A805002080B400AF00BFBD463C
:103EC00080BC7047FFF7F8FF0B480C490C4A0023F1
:103ED00002E0D458C4500433C4188C42F9D3094AC0
:103EE000094C002301E013600432A242FBD303F02B
:103EF00063FDFFF7B3FB704700000020EC010020DA
:103F00002CA00008F0010020A4050020FEE700001E
:103F100080B500AF084B1B68074A43F010031360DD
:103F2000032000F047F90F2000F008F8FFF7C0FD6C
:103F30000023184680BD00BF0020024080B582B03B
:103F400000AF7860124B1A68124B1B7819464FF479
:103F50007A73B3FBF1F3B2FBF3F3184600F05FF9A9
:103F60000346002B01D001230EE07B680F2B0AD8FB
:103F7000002279684FF0FF3000F027F9064A7B688D
:103F80001360002300E0012318460837BD4680BDBA
:103F900018000020200000201C00002080B400AF8A
:103FA000054B1B781A46054B1B681344034A1360E4
:103FB00000BFBD4680BC70472000002034040020B4
:103FC00080B400AF024B1B681846BD4680BC7047EA
:103FD0003404002080B584B000AF7860FFF7F0FFB4
:103FE000B8607B68FB60FB68B3F1FF3F05D00A4B0C
:103FF0001B781A46FB681344FB6000BFFFF7E0FF25
:104000000246BB68D31AFA689A42F7D800BF00BFCD
:104010001037BD4680BD00BF2000002080B485B0B1
:1040200000AF78607B6803F00703FB600C4BDB6834
:10403000BB60BA684FF6FF031340BB60FB681A020F
:10404000BB68134343F0BF6343F40033BB60044ACF
:10405000BB68D36000BF1437BD4680BC704700BF4B
:1040600000ED00E080B400AF044BDB681B0A03F0F6
:1040700007031846BD4680BC704700BF00ED00E056
:1040800080B483B000AF0346FB7197F90730002B73
:104090000BDBFB7903F01F02064997F907305B0938
:1040A000012000FA02F241F8232000BF0C37BD4680
:1040B00080BC704700E100E080B483B000AF0346ED
:1040C0003960FB7197F90730002B0ADB3B68DAB2E5
:1040D0000C4997F907301201D2B20B4483F8002340
:1040E0000AE03B68DAB20849FB7903F00F03043BAE
:1040F0001201D2B20B441A7600BF0C37BD4680BC09
:10410000704700BF00E100E000ED00E080B489B03E
:1041100000AFF860B9607A60FB6803F00703FB61E9
:10412000FB69C3F10703042B28BF0423BB61FB69B0
:104130000433062B02D9FB69033B00E000237B61BB
:104140004FF0FF32BB6902FA03F3DA43BB681A404F
:104150007B699A404FF0FF317B6901FA03F3D94341
:104160007B680B40134318462437BD4680BC70471C
:1041700080B582B000AF78607B68013BB3F1807F8F
:1041800001D301230FE00A4A7B68013B53600F21F2
:104190004FF0FF30FFF790FF054B00229A60044B71
:1041A00007221A60002318460837BD4680BD00BFAD
:1041B00010E000E080B582B000AF78607868FFF76B
:1041C0002DFF00BF0837BD4680BD80B586B000AF6B
:1041D0000346B9607A60FB7300237B61FFF742FFFF
:1041E00078617A68B9687869FFF790FF024697F9B5
:1041F0000F3011461846FFF75FFF00BF1837BD4666
:1042000080BD80B582B000AF0346FB7197F90730DF
:104210001846FFF735FF00BF0837BD4680BD80B5A3
:1042200082B000AF78607868FFF7A2FF03461846B7
:104230000837BD4680BD0000F0B587B000AFF8601C
:10424000B960C7E900230123FB750023BB75002378
:104250007B752F4B1B7E012B01D1022354E02C4B8D
:1042600001221A764CF2503000F0A8F80346FB7594
:10427000FB7D002B44D1FB68012B02D101237B7510
:1042800007E0FB68022B02D102237B7501E00423C7
:104290007B750023BB752DE0BB7D5A00BB6802EB2C
:1042A000030CBB7D1901D7E90023C1F12006A1F160
:1042B000200022FA01F403FA06F6344323FA00F050
:1042C000044323FA01F5A3B21946604600F05AF8F8
:1042D0004CF2503000F072F80346FB750D4B1B6931
:1042E0000C4A23F001031361FB7D002B07D1BB7D3A
:1042F0000133BB75BA7D7B7D9A42CDD300E000BF10
:10430000034B00221A76FB7D18461C37BD46F0BDD4
:10431000380400200020024080B483B000AF0023A6
:10432000FB710D4B1B6903F08003002B0DD00A4B72
:104330000A4A5A60084B0A4A5A60074B1B6903F045
:104340008003002B01D00123FB71FB7918460C3749
:10435000BD4680BC704700BF002002402301674576
:10436000AB89EFCD80B400AF054B1B69044A43F025
:104370008003136100231846BD4680BC704700BF10
:104380000020024080B483B000AF78600B467B8091
:10439000084B0022DA61084B1B69074A43F001030E
:1043A00013617B687A881A8000BF0C37BD4680BCD9
:1043B000704700BF380400200020024080B584B060
:1043C00000AF7860FFF7FCFDF86010E07B68B3F1A8
:1043D000FF3F0CD07B68002B07D0FFF7F1FD0246B2
:1043E000FB68D31A7A689A4201D2032325E0154B61
:1043F000DB6803F00103002BE8D1124BDB6803F00C
:104400002003002B02D00F4B2022DA600D4BDB681B
:1044100003F01003002B0BD10A4BDB6903F00103FF
:10442000002B05D1074BDB6803F00403002B03D0FE
:1044300000F00AF8012300E0002318461037BD46BB
:1044400080BD00BF0020024080B483B000AF0023D5
:104450007B60234BDB6803F01003002B09D0214B5A
:10446000DB6943F002031F4AD3617B6843F010030A
:104470007B601B4BDB6803F00403002B09D0194B56
:10448000DB6943F00103174AD3617B6843F00403FF
:104490007B60134BDB6903F00103002B0BD0114B46
:1044A000DB6943F004030F4AD3610D4BDB690C4A0F
:1044B00023F00103D3617B6840F20112934206D1DD
:1044C000074BDB69064A23F00103D36102E0044A8B
:1044D0007B68D36000BF0C37BD4680BC704700BF0F
:1044E000002002403804002080B584B000AF78601E
:1044F00039600123FB730023BB602F4B1B7E012B14
:1045000001D1022353E02C4B01221A767B681B68F1
:10451000022B16D14CF25030FFF750FF0346002B10
:1045200041D1012000F04CF84CF25030FFF746FF2B
:104530000346FB73214B1B69204A23F004031361DC
:1045400031E04CF25030FFF739FF0346002B2AD1FF
:104550003B684FF0FF321A607B689B68BB6019E0D4
:10456000B86800F049F84CF25030FFF727FF0346D7
:10457000FB73124B1B69114A23F002031361FB7B8F
:10458000002B03D03B68BA681A600CE0BB6803F5E7
:104590008063BB607B68DB689A027B689B6813441E
:1045A000BA689A42DCD3044B00221A76FB7B184689
:1045B0001037BD4680BD00BF3804002000200240F7
:1045C00080B483B000AF7860094B0022DA61094BF8
:1045D0001B69084A43F004031361064B1B69054A33
:1045E00043F04003136100BF0C37BD4680BC7047E9
:1045F000380400200020024080B483B000AF78600F
:104600000B4B0022DA610B4B1B690A4A43F0020391
:104610001361084A7B685361064B1B69054A43F0E6
:104620004003136100BF0C37BD4680BC704700BF1C
:10463000380400200020024080B48BB000AF7860C6
:10464000396000237B6200233B6269E101227B6ABF
:1046500002FA03F3FB613B681B68FA691340BB6114
:10466000BA69FB699A4240F058813B685B689A4A94
:1046700093425ED0984A934275D8984A934258D054
:10468000964A93426FD8964A934252D0944A9342A4
:1046900069D8944A93424CD0924A934263D8924A42
:1046A000934246D0904A93425DD8122B2AD8122BBF
:1046B00059D801A252F823F0334700080D470008EB
:1046C0001F47000861470008674700086747000860
:1046D0006747000867470008674700086747000802
:1046E00067470008674700086747000867470008F2
:1046F0006747000867470008674700081547000834
:1047000029470008794A934213D02CE03B68DB68C4
:104710003B6229E03B68DB6804333B6224E03B6892
:10472000DB6808333B621FE03B68DB680C333B62AD
:104730001AE03B689B68002B02D104233B6213E024
:104740003B689B68012B05D108233B627B68FA69B3
:104750001A6109E008233B627B68FA695A6103E049
:1047600000233B6200E000BFBB69FF2B01D87B68E0
:1047700001E07B6804337B61BB69FF2B02D87B6A55
:104780009B0002E07B6A083B9B003B617B691A68E7
:104790000F213B6901FA03F3DB431A40396A3B6995
:1047A00001FA03F31A437B691A603B685B6803F004
:1047B0008053002B00F0B1804D4B9B694C4A43F075
:1047C000010393614A4B9B6903F00103BB60BB6823
:1047D000484A7B6A9B08023352F82330FB607B6AAD
:1047E00003F003039B000F2202FA03F3DB43FA6892
:1047F0001340FB607B68404A934213D07B683F4A7A
:1048000093420DD07B683E4A934207D07B683D4A75
:10481000934201D1032306E0042304E0022302E0D3
:10482000012300E000237A6A02F003029200934021
:10483000FA681343FB602F497B6A9B080233FA68CE
:1048400041F823203B685B6803F48013002B06D0FB
:104850002D4B9A682C49BB6913438B6006E02A4BA9
:104860009A68BB69DB43284913408B603B685B68EF
:1048700003F40013002B06D0234BDA682249BB69EE
:104880001343CB6006E0204BDA68BB69DB431E496B
:104890001340CB603B685B6803F40033002B06D009
:1048A000194B5A681849BB6913434B6006E0164B15
:1048B0005A68BB69DB43144913404B603B685B6833
:1048C00003F48033002B21D00F4B1A680E49BB69CB
:1048D00013430B6021E000BF0000321000003110D4
:1048E0000000221000002110000012100000111022
:1048F000001002400000014000080140000C01408F
:104900000010014000140140000401400B4B1A68E4
:10491000BB69DB43094913400B607B6A01337B624F
:104920003B681A687B6A22FA03F3002B7FF48EAE91
:1049300000BF00BF2C37BD4680BC7047000401405B
:1049400080B483B000AF78600B467B8013467B70E9
:104950007B78002B03D07A887B681A6103E07B8820
:104960001A047B681A6100BF0C37BD4680BC7047D3
:1049700080B582B000AF0346FB80084B5A69FB88C4
:104980001340002B06D0054AFB885361FB8818466C
:10499000FDF70EFA00BF0837BD4680BD0004014098
:1049A00080B584B000AF78607B68002B01D1012313
:1049B0002BE17B6893F83D30DBB2002B06D17B689E
:1049C000002283F83C207868FFF7A4F87B68242253
:1049D00083F83D207B681B681A687B681B6822F09F
:1049E00001021A607B681B681A687B681B6842F4C6
:1049F00000421A607B681B681A687B681B6822F497
:104A000000421A6001F032F8F8607B685B68814A06
:104A1000934207D8FB68804A934294BF0123002346
:104A2000DBB206E0FB687D4A934294BF012300237A
:104A3000DBB2002B01D00123E7E0FB68784AA2FB40
:104A400003239B0CBB607B681B685B6823F03F0102
:104A50007B681B68BA680A435A607B681B681B6ADC
:104A600023F03F017B685B686A4A934202D8BB68C7
:104A7000013309E0BB684FF4967202FB03F3694A05
:104A8000A2FB03239B0901337A6812680B4313626C
:104A90007B681B68DB6923F44F4222F0FF027B68CE
:104AA0005B685C498B4219D8FB68591E7B685B6860
:104AB0005B00B1FBF3F3591C40F6FC730B40002B79
:104AC0000AD0FB68591E7B685B685B00B1FBF3F39F
:104AD0000133C3F30B0351E004234FE07B689B6871
:104AE000002B11D1FB68581E7B6859680B465B0090
:104AF0000B44B0FBF3F30133C3F30B03002B0CBFE8
:104B000001230023DBB212E0FB68581E7B68596862
:104B10000B469B000B4499000B44B0FBF3F30133AD
:104B2000C3F30B03002B0CBF01230023DBB2002BCC
:104B300001D0012322E07B689B68002B0ED1FB682B
:104B4000581E7B6859680B465B000B44B0FBF3F3BF
:104B50000133C3F30B0343F400430FE0FB68581E1B
:104B60007B6859680B469B000B4499000B44B0FBD3
:104B7000F3F30133C3F30B0343F44043796809684B
:104B80001343CB617B681B681B6823F0C0017B6803
:104B9000DA697B681B6A1A437B681B680A431A60E0
:104BA0007B681B689B6823F4034323F0FF037A6848
:104BB00011697A68D26811437A6812680B4393606E
:104BC0007B681B68DB6823F0FF017B685A697B68A0
:104BD0009B691A437B681B680A43DA607B681B6821
:104BE0001A687B681B6842F001021A607B68002229
:104BF0001A647B68202283F83D207B6800221A63B8
:104C00007B68002283F83E20002318461037BD46FB
:104C100080BD00BFA08601007F841E00FF083D000C
:104C200083DE1B43D34D621080B588B002AFF860BD
:104C30007A601A460B467B8113463B81FFF7C0F929
:104C40007861FB6893F83D30DBB2202B40F0E080C8
:104C50007B690093192301227049F86800F064F918
:104C60000346002B01D00223D3E0FB6893F83C30CD
:104C7000012B01D10223CCE0FB68012283F83C2008
:104C8000FB681B681B6803F00103012B07D0FB685E
:104C90001B681A68FB681B6842F001021A60FB6817
:104CA0001B681A68FB681B6822F400621A60FB68C4
:104CB000212283F83D20FB68102283F83E20FB6808
:104CC00000221A64FB687A685A62FB683A895A853E
:104CD000FB685B8D9AB2FB681A85FB68504ADA6202
:104CE00079897B693A6AF86800F09CF80346002BE2
:104CF00001D001238DE000233B61FB681B685B69E9
:104D00003B61FB681B689B693B613B6966E07A69B4
:104D1000396AF86800F022FA0346002B0DD0FB68D0
:104D20001B6C042B07D1FB681B681A68FB681B68A7
:104D300042F400721A6001236BE0FB685B6A1A7828
:104D4000FB681B681A61FB685B6A5A1CFB685A6245
:104D5000FB685B8D9BB2013B9AB2FB685A85FB688E
:104D60001B8D013B9AB2FB681A85FB681B685B6967
:104D700003F00403042B1BD1FB681B8D002B17D001
:104D8000FB685B6A1A78FB681B681A61FB685B6AE0
:104D90005A1CFB685A62FB685B8D9BB2013B9AB25E
:104DA000FB685A85FB681B8D013B9AB2FB681A852C
:104DB0007A69396AF86800F019FA0346002B0DD0B9
:104DC000FB681B6C042B07D1FB681B681A68FB6827
:104DD0001B6842F400721A6001231AE0FB681B8D05
:104DE000002B94D1FB681B681A68FB681B6842F4AF
:104DF00000721A60FB68202283F83D20FB680022C5
:104E000083F83E20FB68002283F83C20002300E06A
:104E1000022318461837BD4680BD00BF02001000AF
:104E20000000FFFF80B588B002AFF8607A603B6099
:104E30000B467B81FB68DB6A7B617B69082B06D0B4
:104E40007B69012B03D07B6913F5803F08D1FB6898
:104E50001B681A68FB681B6842F480721A600BE0DA
:104E6000FB681B6B122B07D1FB681B681A68FB6879
:104E70001B6842F480721A603B6800937B680022D2
:104E80004FF00111F86800F04FF80346002B0DD0E9
:104E9000FB681B681B6803F48073B3F5807F03D144
:104EA000FB684FF400721A64032335E0FB681B694A
:104EB000B3F5804F08D17B89DBB21A46FB681B68CB
:104EC00002F0FE021A611BE07B89DB11DBB203F00A
:104ED0000603DBB263F00F03DAB2FB681B681A61EA
:104EE0003B687A680E49F86800F098F80346002B92
:104EF00001D0012310E07B89DAB2FB681B681A61DC
:104F00003B687A680749F86800F088F80346002B88
:104F100001D0012300E0002318461837BD4680BDAC
:104F2000080001000200010080B584B000AFF86005
:104F3000B9603B601346FB7148E03B68B3F1FF3F4B
:104F400044D0FFF73DF80246BB69D31A3A689A424B
:104F500002D33B68002B39D1BB681B0CDBB2012BA1
:104F60000DD1FB681B685B69DA43BB6813409BB2D9
:104F7000002B0CBF01230023DBB21A460CE0FB68B8
:104F80001B689B69DA43BB6813409BB2002B0CBFC4
:104F900001230023DBB21A46FB799A4216D1FB6843
:104FA00000221A63FB68202283F83D20FB68002260
:104FB00083F83E20FB681B6C43F02002FB681A64F8
:104FC000FB68002283F83C20012323E0BB681B0C14
:104FD000DBB2012B0DD1FB681B685B69DA43BB6850
:104FE00013409BB2002B0CBF01230023DBB21A46F7
:104FF0000CE0FB681B689B69DA43BB6813409BB2FB
:10500000002B0CBF01230023DBB21A46FB799A4226
:1050100093D0002318461037BD4680BD80B584B0BC
:1050200000AFF860B9607A603B6071E0FB681B68B4
:105030005B6903F48063B3F5806F23D1FB681B6861
:105040001A68FB681B6842F400721A60FB681B68F0
:105050006FF480625A61FB6800221A63FB682022A9
:1050600083F83D20FB68002283F83E20FB681B6C20
:1050700043F00402FB681A64FB68002283F83C20BA
:10508000012367E07B68B3F1FF3F41D0FEF798FF53
:1050900002463B68D31A7A689A4202D37B68002B97
:1050A00036D1BB681B0CDBB2012B0CD1FB681B6833
:1050B0005B69DA43BB6813409BB2002B14BF01232A
:1050C0000023DBB20BE0FB681B689B69DA43BB681B
:1050D00013409BB2002B14BF01230023DBB2002B33
:1050E00016D0FB6800221A63FB68202283F83D205B
:1050F000FB68002283F83E20FB681B6C43F0200213
:10510000FB681A64FB68002283F83C20012321E03D
:10511000BB681B0CDBB2012B0CD1FB681B685B6905
:10512000DA43BB6813409BB2002B14BF012300235A
:10513000DBB20BE0FB681B689B69DA43BB6813407A
:105140009BB2002B14BF01230023DBB2002B7FF4A2
:105150006DAF002318461037BD4680BD80B584B0C2
:1051600000AFF860B9607A6034E0F86800F086F863
:105170000346002B01D0012334E0BB68B3F1FF3FAD
:1051800028D0FEF71DFF02467B68D31ABA689A4200
:1051900002D3BB68002B1DD1FB681B685B6903F061
:1051A0008003802B16D0FB6800221A63FB68202244
:1051B00083F83D20FB68002283F83E20FB681B6CCF
:1051C00043F02002FB681A64FB68002283F83C204D
:1051D000012307E0FB681B685B6903F08003802BF9
:1051E000C3D1002318461037BD4680BD80B584B0BA
:1051F00000AFF860B9607A6034E0F86800F03EF81B
:105200000346002B01D0012334E0BB68B3F1FF3F1C
:1052100028D0FEF7D5FE02467B68D31ABA689A42B8
:1052200002D3BB68002B1DD1FB681B685B6903F0D0
:105230000403042B16D0FB6800221A63FB682022AB
:1052400083F83D20FB68002283F83E20FB681B6C3E
:1052500043F02002FB681A64FB68002283F83C20BC
:10526000012307E0FB681B685B6903F00403042B60
:10527000C3D1002318461037BD4680BD80B483B02B
:1052800000AF78607B681B685B6903F48063B3F5EB
:10529000806F1BD17B681B686FF480625A617B68EA
:1052A00000221A637B68202283F83D207B6800225D
:1052B00083F83E207B681B6C43F004027B681A6411
:1052C0007B68002283F83C20012300E0002318467D
:1052D0000C37BD4680BC704780B586B000AF7860A3
:1052E0007B68002B01D1012372E27B681B6803F00D
:1052F0000103002B00F08780924B5B6803F00C03E6
:10530000042B0CD08F4B5B6803F00C03082B12D1DD
:105310008C4B5B6803F48033B3F5803F0BD1894B32
:105320001B6803F40033002B6CD07B685B68002B98
:1053300068D101234CE27B685B68B3F5803F06D1FE
:10534000804B1B687F4A43F4803313602EE07B68F8
:105350005B68002B0CD17B4B1B687A4A23F48033AB
:105360001360784B1B68774A23F4802313601DE099
:105370007B685B68B3F5A02F0CD1724B1B68714A38
:1053800043F4802313606F4B1B686E4A43F48033F1
:1053900013600BE06B4B1B686A4A23F48033136085
:1053A000684B1B68674A23F4802313607B685B6843
:1053B000002B13D0FEF704FE386108E0FEF700FE74
:1053C00002463B69D31A642B01D9032300E25D4BEB
:1053D0001B6803F40033002BF0D014E0FEF7F0FD5F
:1053E000386108E0FEF7ECFD02463B69D31A642BF6
:1053F00001D90323ECE1534B1B6803F40033002B6A
:10540000F0D100E000BF7B681B6803F00203002BB3
:1054100063D04C4B5B6803F00C03002B0BD0494B63
:105420005B6803F00C03082B1CD1464B5B6803F44C
:105430008033002B16D1434B1B6803F00203002B73
:1054400005D07B681B69012B01D00123C0E13D4BD6
:105450001B6823F0F8027B685B69DB003949134362
:105460000B603AE07B681B69002B20D0364B012291
:105470001A60FEF7A5FD386108E0FEF7A1FD0246BF
:105480003B69D31A022B01D90323A1E12D4B1B68E1
:1054900003F00203002BF0D02A4B1B6823F0F80224
:1054A0007B685B69DB00274913430B6015E0264BE3
:1054B00000221A60FEF784FD386108E0FEF780FDE7
:1054C00002463B69D31A022B01D9032380E11D4B0D
:1054D0001B6803F00203002BF0D17B681B6803F00C
:1054E0000803002B3AD07B689B69002B19D0174B1F
:1054F00001221A60FEF764FD386108E0FEF760FDE6
:1055000002463B69D31A022B01D9032360E10D4BFC
:105510005B6A03F00203002BF0D0012000F0BAFA1E
:105520001CE00A4B00221A60FEF74AFD38610FE0CA
:10553000FEF746FD02463B69D31A022B08D9032326
:1055400046E100BF00100240000042428004424297
:10555000924B5B6A03F00203002BE9D17B681B6866
:1055600003F00403002B00F0A6800023FB758B4B97
:10557000DB6903F08053002B0DD1884BDB69874A30
:1055800043F08053D361854BDB6903F08053BB60EC
:10559000BB680123FB75824B1B6803F48073002BEF
:1055A00018D17F4B1B687E4A43F480731360FEF76B
:1055B00007FD386108E0FEF703FD02463B69D31A98
:1055C000642B01D9032303E1754B1B6803F480733B
:1055D000002BF0D07B68DB68012B06D16F4B1B6A78
:1055E0006E4A43F0010313622DE07B68DB68002BF9
:1055F0000CD16A4B1B6A694A23F001031362674BA3
:105600001B6A664A23F0040313621CE07B68DB68B4
:10561000052B0CD1614B1B6A604A43F004031362F3
:105620005E4B1B6A5D4A43F0010313620BE05B4B68
:105630001B6A5A4A23F001031362584B1B6A574AEC
:1056400023F0040313627B68DB68002B15D0FEF7A0
:10565000B7FC38610AE0FEF7B3FC02463B69D31A97
:1056600041F28832934201D90323B1E04B4B1B6ACC
:1056700003F00203002BEED014E0FEF7A1FC38612A
:105680000AE0FEF79DFC02463B69D31A41F28832DC
:10569000934201D903239BE0404B1B6A03F00203B2
:1056A000002BEED1FB7D012B05D13C4BDB693B4A46
:1056B00023F08053D3617B68DB69002B00F0878087
:1056C000364B5B6803F00C03082B61D07B68DB6909
:1056D000022B46D1334B00221A60FEF771FC386171
:1056E00008E0FEF76DFC02463B69D31A022B01D994
:1056F00003236DE0294B1B6803F00073002BF0D1EE
:105700007B681B6AB3F5803F08D1244B5B6823F4A8
:1057100000327B689B68214913434B601F4B5B68D9
:1057200023F474127B68196A7B685B6A0B431B491C
:1057300013434B601B4B01221A60FEF741FC38619A
:1057400008E0FEF73DFC02463B69D31A022B01D963
:1057500003233DE0114B1B6803F00073002BF0D0D6
:1057600035E0104B00221A60FEF72AFC386108E091
:10577000FEF726FC02463B69D31A022B01D903230C
:1057800026E0064B1B6803F00073002BF0D11EE0EF
:105790007B68DB69012B07D1012319E0001002406F
:1057A00000700040600042420B4B5B68FB60FB688E
:1057B00003F480327B681B6A9A4206D1FB6803F4CB
:1057C00070127B685B6A9A4201D0012300E00023DB
:1057D00018461837BD4680BD0010024080B584B021
:1057E00000AF786039607B68002B01D10123D0E0E5
:1057F0006A4B1B6803F007033A689A4210D9674B5B
:105800001B6823F0070265493B6813430B60634B39
:105810001B6803F007033A689A4201D00123B8E0FD
:105820007B681B6803F00203002B20D07B681B6899
:1058300003F00403002B05D0594B5B68584A43F42E
:10584000E06353607B681B6803F00803002B05D0FE
:10585000534B5B68524A43F460535360504B5B6850
:1058600023F0F0027B689B684D4913434B607B68D3
:105870001B6803F00103002B40D07B685B68012BA1
:1058800007D1474B1B6803F40033002B15D10123CC
:105890007FE07B685B68022B07D1414B1B6803F0FC
:1058A0000073002B09D1012373E03D4B1B6803F00B
:1058B0000203002B01D101236BE0394B5B6823F01D
:1058C00003027B685B68364913434B60FEF778FB45
:1058D000F8600AE0FEF774FB0246FB68D31A41F257
:1058E0008832934201D9032353E02D4B5B6803F0C8
:1058F0000C027B685B689B009A42EBD1274B1B68CC
:1059000003F007033A689A4210D2244B1B6823F035
:10591000070222493B6813430B60204B1B6803F0CE
:1059200007033A689A4201D0012332E07B681B6882
:1059300003F00403002B08D0194B5B6823F4E062EA
:105940007B68DB68164913434B607B681B6803F078
:105950000803002B09D0124B5B6823F460527B686C
:105960001B69DB000E4913434B6000F021F802462F
:105970000B4B5B681B0903F00F030A49CB5C22FA4F
:1059800003F3094A1360094B1B681846FEF7D6FA61
:10599000002318461037BD4680BD00BF00200240DE
:1059A000001002407C9C0008180000201C00002011
:1059B00080B487B000AF0023FB600023BB600023EE
:1059C0007B6100237B6000233B611E4B5B68FB60B7
:1059D000FB6803F00C03042B02D0082B03D027E054
:1059E000194B3B6127E0FB689B0C03F00F03174A40
:1059F000D35C7B60FB6803F48033002B10D0114B29
:105A00005B685B0C03F00103114AD35CBB607B68ED
:105A10000D4A03FB02F2BB68B2FBF3F37B6104E0C7
:105A20007B680C4A02FB03F37B617B693B6102E00C
:105A3000054B3B6100BF3B6918461C37BD4680BC27
:105A4000704700BF0010024000127A00949C0008CA
:105A5000A49C000800093D0080B400AF024B1B6805
:105A60001846BD4680BC70471800002080B500AFC6
:105A7000FFF7F2FF0246054B5B681B0A03F00703C2
:105A80000349CB5C22FA03F3184680BD00100240A4
:105A90008C9C000880B485B000AF78600A4B1B680E
:105AA0000A4AA2FB03235B0A7A6802FB03F3FB604A
:105AB00000BFFB685A1EFA60002BF9D100BF00BF7F
:105AC0001437BD4680BC704718000020D34D6210CB
:105AD00080B582B000AF78607B68002B01D10123D4
