:020000040800F2
:1000000000500020196D0008E56A0008ED6A00083C
:10001000F56A0008FD6A0008056B00080000000092
:100020000000000000000000000000000D6B000850
:10003000196B000800000000256B0008316B0008F8
:10004000616D0008616D0008616D0008616D000858
:10005000616D0008616D0008616D0008616D000848
:10006000616D0008616D0008616D0008616D000838
:10007000616D0008616D0008616D0008616D000828
:10008000616D0008616D0008616D0008616D000818
:10009000616D0008616D0008616D00083D6B00082E
:1000A000616D0008616D0008616D0008616D0008F8
:1000B000556B0008616D0008616D0008616D0008F6
:1000C000616D0008616D0008616D0008616D0008D8
:1000D000616D0008616D0008616D0008616D0008C8
:1000E000696B0008616D0008616D00080000000088
:1000F0000000000000000000000000000000000000
:0C01000000000000000000005FF808F1A3
:1001100010B5054C237833B9044B13B10448AFF341
:1001200000800123237010BDF801002000000000B2
:10013000A4C9000808B5034B1BB103490348AFF33A
:10014000008008BD00000000FC010020A4C90008D8
:1001500010F8012B11F8013B012A28BF9A42F7D071
:10016000D01A7047034613F8012B002AFBD1181A46
:100170000138704781F0004102E000BF83F0004386
:1001800030B54FEA41044FEA430594EA050F08BF32
:1001900090EA020F1FBF54EA000C55EA020C7FEAF6
:1001A000645C7FEA655C00F0E2804FEA5454D4EB73
:1001B0005555B8BF6D420CDD2C4480EA020281EA3D
:1001C000030382EA000083EA010180EA020281EA75
:1001D0000303362D88BF30BD11F0004F4FEA0131C7
:1001E0004FF4801C4CEA113102D0404261EB4101D6
:1001F00013F0004F4FEA03334CEA133302D052425C
:1002000063EB430394EA050F00F0A780A4F1010417
:10021000D5F1200E0DDB02FA0EFC22FA05F2801851
:1002200041F1000103FA0EF2801843FA05F3594137
:100230000EE0A5F120050EF1200E012A03FA0EFCB6
:1002400028BF4CF0020C43FA05F3C01851EBE371E0
:1002500001F0004507D54FF0000EDCF1000C7EEBFD
:1002600000006EEB0101B1F5801F1BD3B1F5001F3B
:100270000CD349085FEA30004FEA3C0C04F101045A
:100280004FEA445212F5800F80F09A80BCF1004F83
:1002900008BF5FEA500C50F1000041EB045141EA05
:1002A000050130BD5FEA4C0C404141EB0101013CCE
:1002B00028BFB1F5801FE9D291F0000F04BF0146BD
:1002C0000020B1FA81F308BF2033A3F10B03B3F18F
:1002D00020020CDA0C3208DD02F1140CC2F10C021F
:1002E00001FA0CF021FA02F10CE002F11402D8BF7D
:1002F000C2F1200C01FA02F120FA0CFCDCBF41EA49
:100300000C019040E41AA2BF01EB0451294330BD17
:100310006FEA04041F3C1CDA0C340EDC04F11404F4
:10032000C4F1200220FA04F001FA02F340EA0300CB
:1003300021FA04F345EA030130BDC4F10C04C4F111
:10034000200220FA02F001FA04F340EA03002946F1
:1003500030BD21FA04F0294630BD94F0000F83F43B
:10036000801306BF81F480110134013D4EE77FEA1E
:10037000645C18BF7FEA655C29D094EA050F08BF6A
:1003800090EA020F05D054EA000C04BF194610464B
:1003900030BD91EA030F1EBF0021002030BD5FEA8F
:1003A000545C05D14000494128BF41F0004130BDB7
:1003B00014F580043CBF01F5801130BD01F000450B
:1003C00045F0FE4141F470014FF0000030BD7FEA7E
:1003D000645C1ABF194610467FEA655C1CBF0B4679
:1003E000024650EA013406BF52EA033591EA030F90
:1003F00041F4002130BD00BF90F0000F04BF002188
:10040000704730B54FF4806404F132044FF00005BA
:100410004FF0000150E700BF90F0000F04BF002133
:10042000704730B54FF4806404F1320410F0004599
:1004300048BF40424FF000013EE700BF42004FEA94
:10044000E2014FEA31014FEA02701FBF12F07F4311
:1004500093F07F4F81F06051704732F07F4208BFC8
:10046000704793F07F4F04BF41F40021704730B5CF
:100470004FF4607401F0004521F000411CE700BF1B
:1004800050EA010208BF704730B54FF000050AE09E
:1004900050EA010208BF704730B511F0004502D59F
:1004A000404261EB41014FF4806404F132045FEAA1
:1004B000915C3FF4D8AE4FF003025FEADC0C18BF4A
:1004C00003325FEADC0C18BF033202EBDC02C2F13C
:1004D000200300FA03FC20FA02F001FA03FE40EACE
:1004E0000E0021FA02F11444BDE600BF70B54FF0D2
:1004F000FF0C4CF4E06C1CEA11541DBF1CEA1355B0
:1005000094EA0C0F95EA0C0F00F0DEF82C4481EA17
:10051000030621EA4C5123EA4C5350EA013518BF37
:1005200052EA033541F4801143F4801338D0A0FB24
:1005300002CE4FF00005E1FB02E506F00042E0FBD1
:1005400003E54FF00006E1FB03569CF0000F18BFD7
:100550004EF0010EA4F1FF04B6F5007F64F540747F
:1005600004D25FEA4E0E6D4146EB060642EAC62112
:1005700041EA55514FEAC52040EA5E504FEACE2E7F
:10058000B4F1FD0C88BFBCF5E06F1ED8BEF1004F82
:1005900008BF5FEA500E50F1000041EB045170BDFE
:1005A00006F0004646EA010140EA020081EA030142
:1005B000B4EB5C04C2BFD4EB0C0541EA045170BD3E
:1005C00041F480114FF0000E013C00F3AB8014F1B8
:1005D000360FDEBF002001F0004170BDC4F1000401
:1005E000203C35DA0C341BDC04F11404C4F1200582
:1005F00000FA05F320FA04F001FA05F240EA0200DD
:1006000001F0004221F0004110EBD37021FA04F612
:1006100042EB06015EEA430E08BF20EAD37070BDCC
:10062000C4F10C04C4F1200500FA04F320FA05F02B
:1006300001FA04F240EA020001F0004110EBD3702D
:1006400041F100015EEA430E08BF20EAD37070BD9D
:10065000C4F1200500FA05F24EEA020E20FA04F376
:1006600001FA05F243EA020321FA04F001F0004125
:1006700021FA04F220EA020000EBD3705EEA430E96
:1006800008BF20EAD37070BD94F0000F0FD101F0C5
:100690000046400041EB010111F4801F08BF013CFE
:1006A000F7D041EA060195F0000F18BF704703F03C
:1006B0000046520043EB030313F4801F08BF013DC3
:1006C000F7D043EA0603704794EA0C0F0CEA13557F
:1006D00018BF95EA0C0F0CD050EA410618BF52EA39
:1006E0004306D1D181EA030101F000414FF000003F
:1006F00070BD50EA410606BF1046194652EA43064D
:1007000019D094EA0C0F02D150EA013613D195EAC0
:100710000C0F05D152EA03361CBF104619460AD108
:1007200081EA030101F0004141F0FE4141F4700112
:100730004FF0000070BD41F0FE4141F4780170BD02
:1007400070B54FF0FF0C4CF4E06C1CEA11541DBF67
:100750001CEA135594EA0C0F95EA0C0F00F0A7F869
:10076000A4EB050481EA030E52EA03354FEA013196
:1007700000F088804FEA03334FF0805545EA1313A9
:1007800043EA12634FEA022245EA111545EA106571
:100790004FEA00260EF000419D4208BF964244F108
:1007A000FD0404F5407402D25B084FEA3202B61A27
:1007B00065EB03055B084FEA32024FF480104FF4FB
:1007C000002CB6EB020E75EB030E22BFB61A75466F
:1007D00040EA0C005B084FEA3202B6EB020E75EB02
:1007E000030E22BFB61A754640EA5C005B084FEA6A
:1007F0003202B6EB020E75EB030E22BFB61A754637
:1008000040EA9C005B084FEA3202B6EB020E75EB41
:10081000030E22BFB61A754640EADC0055EA060E02
:1008200018D04FEA051545EA16754FEA06164FEA45
:10083000C30343EA52734FEAC2025FEA1C1CC0D1F1
:1008400011F4801F0BD141EA00014FF000004FF07E
:10085000004CB6E711F4801F04BF01430020B4F13F
:10086000FD0C88BFBCF5E06F3FF6AFAEB5EB030CF7
:1008700004BFB6EB020C5FEA500C50F1000041EBF4
:10088000045170BD0EF0004E4EEA113114EB5C04C1
:10089000C2BFD4EB0C0541EA045170BD41F4801194
:1008A0004FF0000E013C90E645EA060E8DE60CEA9C
:1008B000135594EA0C0F08BF95EA0C0F3FF43BAFB9
:1008C00094EA0C0F0AD150EA01347FF434AF95EA70
:1008D0000C0F7FF425AF104619462CE795EA0C0F54
:1008E00006D152EA03353FF4FDAE1046194622E721
:1008F00050EA410618BF52EA43067FF4C5AE50EAFB
:1009000041047FF40DAF52EA43057FF4EBAE12E7EA
:100910004FF0FF3C06E000BF4FF0010C02E000BFCB
:100920004FF0010C4DF804CD4FEA410C7FEA6C5CAE
:100930004FEA430C18BF7FEA6C5C1BD001B050EA51
:10094000410C0CBF52EA430C91EA030F02BF90EA3C
:10095000020F0020704710F1000F91EA030F58BFFB
:10096000994208BF90422CBFD8176FEAE37040F05D
:10097000010070474FEA410C7FEA6C5C02D150EAFB
:10098000013C07D14FEA430C7FEA6C5CD6D152EAB6
:10099000033CD3D05DF8040B704700BF844610467B
:1009A00062468C461946634600E000BF01B5FFF77A
:1009B000B7FF002848BF10F1000F01BD4DF808ED4A
:1009C000FFF7F4FF0CBF012000205DF808FB00BF1B
:1009D0004DF808EDFFF7EAFF34BF012000205DF875
:1009E00008FB00BF4DF808EDFFF7E0FF94BF0120C2
:1009F00000205DF808FB00BF4DF808EDFFF7CEFFC3
:100A000094BF012000205DF808FB00BF4DF808ED01
:100A1000FFF7C4FF34BF012000205DF808FB00BFD2
:100A20004FEA410C7FEA6C5C02D150EA013C0AD1EA
:100A30004FEA430C7FEA6C5C02D152EA033C02D1DC
:100A40004FF0000070474FF0010070474FEA41023D
:100A500012F5001215D211D56FF47873B3EB625210
:100A600012D94FEAC12343F0004343EA505311F037
:100A7000004F23FA02F018BF404270474FF00000C9
:100A8000704750EA013005D111F0004008BF6FF007
:100A9000004070474FF00000704700BF80F00040FA
:100AA00002E000BF81F0004142001FBF5FEA410346
:100AB00092EA030F7FEA226C7FEA236C6AD04FEA46
:100AC0001262D2EB1363C1BFD2184140484041408B
:100AD000B8BF5B42192B88BF704710F0004F40F43D
:100AE000000020F07F4018BF404211F0004F41F459
:100AF000000121F07F4118BF494292EA030F3FD025
:100B0000A2F1010241FA03FC10EB0C00C3F1200337
:100B100001FA03F100F0004302D5494260EB4000C6
:100B2000B0F5000F13D3B0F1807F06D340084FEA31
:100B3000310102F10102FE2A51D2B1F1004F40EB26
:100B4000C25008BF20F0010040EA0300704749008E
:100B500040EB0000013A28BFB0F5000FEDD2B0FA2B
:100B600080FCACF1080CB2EB0C0200FA0CF0AABF4E
:100B700000EBC25052421843BCBFD04018437047EC
:100B800092F0000F81F4000106BF80F400000132F2
:100B9000013BB5E74FEA41037FEA226C18BF7FEAC9
:100BA000236C21D092EA030F04D092F0000F08BF0B
:100BB0000846704790EA010F1CBF0020704712F0F2
:100BC0007F4F04D1400028BF40F00040704712F131
:100BD00000723CBF00F50000704700F0004343F096
:100BE000FE4040F4000070477FEA226216BF0846CC
:100BF0007FEA23630146420206BF5FEA412390EA8F
:100C0000010F40F4800070474FF0000304E000BF84
:100C100010F0004348BF40425FEA000C08BF704735
:100C200043F0964301464FF000001CE050EA0102F9
:100C300008BF70474FF000030AE000BF50EA01020E
:100C400008BF704711F0004302D5404261EB4101FB
:100C50005FEA010C02BF84460146002043F0B64320
:100C600008BFA3F18053A3F50003BCFA8CF2083A45
:100C7000A3EBC25310DB01FA02FC634400FA02FC4E
:100C8000C2F12002BCF1004F20FA02F243EB020055
:100C900008BF20F00100704702F1200201FA02FCB7
:100CA000C2F1200250EA4C0021FA02F243EB0200AA
:100CB00008BF20EADC7070474FF0FF0C1CEAD052EE
:100CC0001EBF1CEAD15392EA0C0F93EA0C0F6FD0AF
:100CD0001A4480EA010C400218BF5FEA41211ED08D
:100CE0004FF0006343EA501043EA5111A0FB013179
:100CF0000CF00040B1F5000F3EBF490041EAD3714E
:100D00005B0040EA010062F17F02FD2A1DD8B3F1C9
:100D1000004F40EBC25008BF20F00100704790F038
:100D2000000F0CF0004C08BF49024CEA502040EA8A
:100D300051207F3AC2BFD2F1FF0340EAC250704750
:100D400040F400004FF00003013A5DDC12F1190F8E
:100D5000DCBF00F000407047C2F10002410021FA00
:100D600002F1C2F1200200FA02FC5FEA310040F118
:100D7000000053EA4C0308BF20EADC70704792F091
:100D8000000F00F0004C02BF400010F4000F013AC9
:100D9000F9D040EA0C0093F0000F01F0004C02BFC4
:100DA000490011F4000F013BF9D041EA0C018FE733
:100DB0000CEAD15392EA0C0F18BF93EA0C0F0AD039
:100DC00030F0004C18BF31F0004CD8D180EA01005F
:100DD00000F00040704790F0000F17BF90F0004FF8
:100DE000084691F0000F91F0004F14D092EA0C0FDA
:100DF00001D142020FD193EA0C0F03D14B0218BF6D
:100E0000084608D180EA010000F0004040F0FE40B2
:100E100040F40000704740F0FE4040F4400070474E
:100E20004FF0FF0C1CEAD0521EBF1CEAD15392EACD
:100E30000C0F93EA0C0F69D0A2EB030280EA010CBD
:100E400049024FEA402037D04FF0805343EA111156
:100E500043EA10130CF000408B4238BF5B0042F1B4
:100E60007D024FF4000C8B4224BF5B1A40EA0C0059
:100E7000B3EB510F24BFA3EB510340EA5C00B3EB8B
:100E8000910F24BFA3EB910340EA9C00B3EBD10F79
:100E900024BFA3EBD10340EADC001B0118BF5FEACB
:100EA0001C1CE0D1FD2A3FF650AF8B4240EBC250F4
:100EB00008BF20F0010070470CF0004C4CEA5020B5
:100EC0007F32C2BFD2F1FF0340EAC250704740F404
:100ED00000004FF00003013A37E792F0000F00F0F6
:100EE000004C02BF400010F4000F013AF9D040EA74
:100EF0000C0093F0000F01F0004C02BF490011F408
:100F0000000F013BF9D041EA0C0195E70CEAD153FF
:100F100092EA0C0F08D142027FF47DAF93EA0C0FE6
:100F20007FF470AF084676E793EA0C0F04D14B02CA
:100F30003FF44CAF08466EE730F0004C18BF31F07C
:100F4000004CCAD130F000427FF45CAF31F0004376
:100F50007FF43CAF5FE700BF4FF0FF3C06E000BF0F
:100F60004FF0010C02E000BF4FF0010C4DF804CD32
:100F70004FEA40024FEA41037FEA226C18BF7FEA42
:100F8000236C11D001B052EA530C18BF90EA010F44
:100F900058BFB2EB030088BFC81738BF6FEAE170D3
:100FA00018BF40F0010070477FEA226C02D15FEA6F
:100FB000402C05D17FEA236CE4D15FEA412CE1D0DB
:100FC0005DF8040B704700BF844608466146FFE7A2
:100FD0000FB5FFF7C9FF002848BF10F1000F0FBD84
:100FE0004DF808EDFFF7F4FF0CBF012000205DF87D
:100FF00008FB00BF4DF808EDFFF7EAFF34BF012002
:1010000000205DF808FB00BF4DF808EDFFF7E0FF9A
:1010100094BF012000205DF808FB00BF4DF808EDEB
:10102000FFF7D2FF94BF012000205DF808FB00BF4E
:101030004DF808EDFFF7C8FF34BF012000205DF830
:1010400008FB00BF4FEA40024FEA41037FEA226CEF
:1010500002D15FEA402C08D17FEA236C02D15FEA1B
:10106000412C02D14FF0000070474FF00100704753
:101070004FEA4002B2F1FE4F0FD34FF09E03B3EBA5
:1010800012620DD94FEA002343F0004310F0004FE5
:1010900023FA02F018BF404270474FF0000070473B
:1010A00012F1610F01D1420205D110F0004008BFDA
:1010B0006FF0004070474FF00000704742000ED2C2
:1010C000B2F1FE4F0BD34FF09E03B3EB126209D483
:1010D0004FEA002343F0004323FA02F070474FF039
:1010E0000000704712F1610F01D1420202D14FF0AE
:1010F000FF3070474FF00000704700BF80B582B0EE
:1011000000AF7860084611461A460346FB700B464E
:10111000BB7013467B702F4A7B681360FB785B00C3
:10112000DAB22C4B1A712B4ABB785371294A7B785F
:101130009371284B0822DA71322005F075FE254B99
:10114000DB79184600F030F94FF47A7005F06CFE48
:10115000302000F017F9052005F066FE302000F081
:1011600011F9052005F060FE302000F00BF9012098
:1011700005F05AFE202000F005F9164B00221A72E5
:10118000144B9B79012B06D9124B1B7A43F00803B1
:10119000DAB2104B1A720F4B1B7A43F02003DBB20A
:1011A000184600F09DF80B4B04225A7200F01EF80E
:1011B000084B02229A72074B9B7A43F00403DBB27E
:1011C000184600F08DF800F007F800BF0837BD465C
:1011D00080BD00BF1402002080B500AF012000F0E8
:1011E0007FF8022005F020FE00BF80BD80B500AF73
:1011F000084B5B7A43F00403DAB2064B5A72054B94
:101200005B7A43F00803DBB2184600F069F800BFD0
:1012100080BD00BF1402002080B500AF084B5B7A90
:1012200023F00103DAB2064B5A72054B5B7A43F0A6
:101230000803DBB2184600F053F800BF80BD00BFC2
:101240001402002080B500AF084B5B7A43F0010325
:10125000DAB2064B5A72054B5B7A43F00803DBB2F5
:10126000184600F03DF800BF80BD00BF140200200A
:1012700080B500AF034B0822DA71002000F094F82B
:1012800000BF80BD1402002080B584B000AF0346CB
:101290000A46FB711346BB710F4BFB600F4B9B79EA
:1012A000BA799A4203D30D4B9B79013BBB71BB7951
:1012B00010333B4413F8042CFB791344DBB25BB2CC
:1012C00063F07F035BB2DBB2184600F009F800BFA1
:1012D0001037BD4680BD00BF0040145414020020EA
:1012E00080B582B000AF0346FB71FB790021184640
:1012F00000F027F800BF0837BD4680BD80B582B03A
:1013000000AF0346FB71FB790121184600F019F884
:1013100000BF0837BD4680BD80B582B000AF7860A1
:1013200006E07B685A1C7A601B781846FFF7E6FFD8
:101330007B681B78002BF4D100BF00BF0837BD4687
:1013400080BD80B584B000AF03460A46FB711346EA
:10135000BB71FB7923F00F03FB73FB791B01BB739C
:10136000FA7BBB791343DBB2184600F00BF8BA7B6B
:10137000BB791343DBB2184600F004F800BF103706
:10138000BD4680BD80B582B000AF0346FB71FB79DE
:10139000184600F009F8FB79184600F023F800BF62
:1013A0000837BD4680BD000080B586B002AF034659
:1013B000FB710B4BDA79FB791343DBB23B73084BC0
:1013C0001868074B1B79194607F10C020A23009392
:1013D000012306F06BFB00BF1037BD4680BD00BF88
:1013E0001402002080B582B000AF0346FB71FB7988
:1013F00043F00403DBB21846FFF7D6FFFB7923F076
:101400000403DBB21846FFF7CFFF00BF0837BD4625
:1014100080BD80B500AFFFF715FF00BF80BD80B570
:1014200000AFFFF7F9FE00BF80BD80B483B000AF0E
:1014300078600B46FB707B68002B10D07B68012224
:101440001A737B68FA785A737B681B69B3F1FF3FA4
:1014500006D07B681B695A1C7B681A6100E000BFDC
:101460000C37BD4680BC704780B586B000AF786051
:101470000B46FB701346BB707B68002B07D07B6864
:101480001B68002B03D07B685B68002B01D1002315
:1014900040E0FB7863F07F03DBB23B73BB787B7388
:1014A0000123FB7500233B612BE07B6858687B6858
:1014B0001B890022194606F084F97B68186807F139
:1014C0000C010A23022207F0C9FA0346FB757B6868
:1014D00058687B681B890122194606F072F9FB7D6A
:1014E000002B04D17B6800225A73012312E03B6970
:1014F0000133012B02D8012005F096FC3B69013332
:101500003B613B69012BD0D9FB7D19467868FFF719
:101510008CFF002318461837BD4680BD80B586B0C5
:1015200000AFF8607A601A460B46FB721346BB7236
:10153000FB68002B0DD0FB681B68002B09D0FB68F3
:101540005B68002B05D07B68002B02D0BB7A002B98
:1015500001D100234BE0FB7A03F07F03DBB2FB7287
:101560000123FB7500233B6138E0FB685868FB688A
:101570001B890022194606F024F9FB68186807F158
:101580000B010A23012207F069FA0346FB75FB7D74
:10159000002B09D1FB681868BB7A9AB20A237968D4
:1015A00007F0A0FB0346FB75FB685868FB681B89C6
:1015B0000122194606F005F9FB7D002B04D1FB68DA
:1015C00000225A73012312E03B690133012B02D838
:1015D000012005F029FC3B6901333B613B69012B8C
:1015E000C3D9FB7D1946F868FFF71FFF0023184693
:1015F0001837BD4680BD80B584B000AFF8600B469B
:101600007A60FB727B68002B01D1002309E07B68C4
:1016100000221A70F97A01237A68F868FFF77EFFD2
:10162000034618461037BD4680BD80B586B000AF72
:10163000F8600B467A60FB727B68002B01D10023B7
:1016400022E007F1140300210A461A800A469A7024
:101650007B6800221A6007F11402F97A0323F86804
:10166000FFF75CFF034683F00103DBB2002B01D0E0
:10167000002309E03B7D1A047B7D1B021343BA7DE6
:101680001A437B681A60012318461837BD4680BD8F
:1016900080B483B000AF78607B68002B06D07B6895
:1016A00000221A737B6800225A7300E000BF0C37D7
:1016B000BD4680BC704780B483B000AF78607B6863
:1016C000002B03D07B681B7B002B01D0012300E0A3
:1016D000002318460C37BD4680BC704780B584B0E7
:1016E00000AFF860B9607A607B80FB68002B05D0A2
:1016F000BB68002B02D07B68002B01D100235EE089
:10170000FB68BA681A60FB687A685A60FB687A8876
:101710001A81FB6800229A72FB680022DA72FB6869
:1017200000221A73FB6800225A73FB6800221A61B8
:10173000FB685868FB681B890122194606F041F8CE
:1017400000220221F868FFF78FFE034683F00103B1
:10175000DBB2002B01D0002331E010220021F86819
:10176000FFF782FE034683F00103DBB2002B01D0BA
:10177000002324E000220921F868FFF775FE0346E4
:1017800083F00103DBB2002B01D0002317E003211B
:10179000F86800F05BF8FB681B7B002B01D000238E
:1017A0000DE00021F86800F00EF8FB681B7B002BB1
:1017B00001D0002303E0FB680122DA7201231846FE
:1017C0001037BD4680BD80B584B000AF78600B4651
:1017D000FB707B68002B33D00023FB7307F10F03F2
:1017E0001A4600217868FFF706FF034683F00103DD
:1017F000DBB2002B26D1FB78022B0AD1FB7B63F0F6
:101800007F03DBB2FB73FB7B23F04003DBB2FB7394
:1018100009E0FB7B03F07F03DBB2FB73FB7B43F050
:101820004003DBB2FB73FB7B1A4600217868FFF7AD
:101830001BFE0346002B06D07B68FA789A7202E002
:1018400000BF00E000BF1037BD4680BD80B584B04A
:1018500000AF78600B46FB707B68002B22D0002322
:10186000FB7307F10F031A4601217868FFF7C3FEE7
:10187000034683F00103DBB2002B15D1FB7B23F081
:101880000F03DBB2FB73FB7803F00F03DAB2FB7BD1
:101890001343DBB2FB73FB7B1A4601217868FFF729
:1018A000E3FD02E000BF00E000BF1037BD4680BD91
:1018B00080B584B000AF78600023FB7307F10F039D
:1018C0001A460F217868FFF796FE034683F001035E
:1018D000DBB2002B01D0FF2300E0FB7B1846103762
:1018E000BD4680BD80B584B000AF78600B46FB700C
:1018F0007B68002B23D00023FB7307F10F031A46EC
:1019000000217868FFF777FE034683F00103DBB21E
:10191000002B16D1FB78002B05D1FB7B43F0010394
:10192000DBB2FB7304E0FB7B23F00103DBB2FB7350
:10193000FB7B1A4600217868FFF796FD02E000BFA6
:1019400000E000BF1037BD4680BD80B584B000AF59
:1019500078607B68002B23D07B689B7A022B1FD09A
:101960000023FB7307F10F031A4600217868FFF785
:1019700042FE034683F00103DBB2002B12D1FB7B56
:1019800003F07F03DBB2FB73FB7B43F04003DBB26E
:10199000FB73FB7B1A4600217868FFF765FD02E0C8
:1019A00000BF00E000BF1037BD4680BD80B584B0E9
:1019B00000AF78607B68002B01D100231EE07B68BC
:1019C0009B7A022B01D1012318E00023FB7307F15E
:1019D0000F031A4600217868FFF70DFE034683F0D7
:1019E0000103DBB2002B01D0002307E0FB7B03F0F7
:1019F0004003002B0CBF01230023DBB21846103735
:101A0000BD4680BD80B586B000AF78607B68002B96
:101A100001D12D4B54E07B689B7A002B27D178684D
:101A2000FFF793FF7B681B7B002B01D0264B47E021
:101A300005F0F0F9386111E07B681B7B002B01D0C9
:101A4000214B3DE005F0E6F902463B69D31AFA2B3B
:101A500001D91D4B34E00A2005F0E6F97868FFF75C
:101A6000A5FF034683F00103DBB2002BE4D1002382
:101A7000FB6007F10C031A460C217868FFF7D5FDCF
:101A8000034683F00103DBB2002B01D00E4B17E0BD
:101A9000FB687B61FB6803F40003002B03D07B69C8
:101AA00043F07F437B617B695B117B617869FFF762
:101AB000AFF803464FF070511846FFF7FDF80346A4
:101AC00018461837BD4680BD0000C07F80B582B083
:101AD00000AF78607B68002B31D07B681B6A002BDD
:101AE0002DD07B68DB69002B29D07B681B6A1A68C4
:101AF0007B68DA627B68DB691A687B681A637B68DB
:101B0000DA6A7B68DB6B19461046FFF791FA0346E9
:101B1000002B04D07B68DA6B7B68DA6210E07B68AC
:101B2000DA6A7B689B6B19461046FFF763FA034637
:101B3000002B05D07B689A6B7B68DA6200E000BFFF
:101B40000837BD4680BD000080B586B002AFF860A2
:101B5000B9607A603B60FB68002B2CD0FB687A6828
:101B60001A62FB68BA68DA61FB683A685A62FB6815
:101B70000022DA76124A4FF00001F86800F0B5F959
:101B8000FB6864225A6397F828301946F86800F019
:101B900035FA97F8243000933B6AFA69B969F86816
:101BA00000F0E8F805F036F90246FB685B6BD21AE4
:101BB000FB689A6200E000BF1037BD4680BD00BFE1
:101BC00000007F4390B58BB000AF78607B68002B3E
:101BD00006D07B68DB7E83F00103DBB2002B01D0F3
:101BE0000023C3E07B68DB69002B07D07B681B6A9E
:101BF000002B03D07B685B6A002B01D10023B5E08A
:101C000005F008F938627B689B6A3A6AD31AFB616F
:101C10007B685B6BFA699A42C0F0A7807B68DB69DE
:101C20001B68BB617B685B6A1B687B61B96978690B
:101C3000FEF738FF03463B617B681B6B1946B869AA
:101C4000FEF730FF0346FB607B68DC6A7B681B693C
:101C500039691846FFF730F8034619462046FEF763
:101C600023FF03461A467B68DA627B689B7E83F01B
:101C70000103DBB2002B10D07B68DC6A7B68DB6879
:101C8000F9681846FFF718F8034619462046FEF78C
:101C900009FF03461A467B68DA627B68DA6A7B686A
:101CA000DB6B19461046FFF7C3F90346002B04D03F
:101CB0007B68DA6B7B68DA620EE07B68DA6A7B68E5
:101CC0009B6B19461046FFF795F90346002B03D08E
:101CD0007B689A6B7B68DA627B689B7E002B08D0FE
:101CE0007B68DB6819463869FEF7E6FF03467B62CE
:101CF00002E04FF000037B627B68DC6A7B685B6913
:101D0000F9681846FEF7D8FF034619462046FEF745
:101D1000C9FE03461946786AFEF7C6FE03467B6293
:101D20007B68DB6B1946786AFFF782F90346002B64
:101D300003D07B68DB6B7B620BE07B689B6B194697
:101D4000786AFFF757F90346002B02D07B689B6B3C
:101D50007B627B681B6A7A6A1A607B68BA691A635D
:101D60007B683A6A9A62012300E0002318462C3708
:101D7000BD4690BD80B586B000AFF860B9607A60AE
:101D80003B60FB68002B72D04FF00001B868FFF792
:101D900031F90346002B6AD14FF000017868FFF754
:101DA00029F90346002B62D14FF000013868FFF794
:101DB00021F90346002B5AD1FB6897F820205A7668
:101DC00097F82030012B0CBF01230023DAB2FB6807
:101DD0009A76FB68BA681A60FB687A685A60FB6892
:101DE0003A689A60FB685B6B1846FEF70DFF034686
:101DF00021491846FFF714F803467B61FB68BA686F
:101E0000DA6079697868FEF757FF03461A46FB687F
:101E10001A6179693868FFF703F803461A46FB68C8
:101E20005A61FB681B7E012B22D1FB68DB681946D7
:101E30004FF00000FEF736FE03461A46FB68DA60F4
:101E4000FB681B6919464FF00000FEF72BFE0346A6
:101E50001A46FB681A61FB685B6919464FF000007F
:101E6000FEF720FE03461A46FB685A6100E000BFF9
:101E70001837BD4680BD00BF00007A4490B585B0DC
:101E800000AF786039607B68002B2AD03B68002B5C
:101E900028D03868FEF7B8FE04467B685B6B1846AE
:101EA000FEF7B2FE034619462046FEF7B9FF034689
:101EB000FB607B681B69F9681846FEF7FDFE034668
:101EC0001A467B681A617B685B69F9681846FEF7F9
:101ED000A7FF03461A467B685A617B683A685A63D3
:101EE00000E000BF1437BD4690BD80B584B000AFA0
:101EF000F860B9607A60FB68002B57D07968B868E1
:101F0000FFF78CF80346002B50D1FB68BA689A6340
:101F1000FB687A68DA63FB68DB7E002B47D0FB68DE
:101F20001B6A002B22D0FB681B6A1A68FB68DB6BFC
:101F300019461046FFF77CF80346002B05D0FB68D6
:101F40001B6AFA68D26B1A6010E0FB681B6A1A6899
:101F5000FB689B6B19461046FFF74CF80346002BB5
:101F600004D0FB681B6AFA68926B1A60FB68DA6A35
:101F7000FB68DB6B19461046FFF75AF80346002B47
:101F800004D0FB68DA6BFB68DA6210E0FB68DA6A9F
:101F9000FB689B6B19461046FFF72CF80346002B95
:101FA00005D0FB689A6BFB68DA6200E000BF10376F
:101FB000BD4680BD80B584B000AF78600B46FB7035
:101FC0007B68002B16D0FB78012B0CBF012300236C
:101FD000FB73FB7B002B09D07B68DB7E83F0010366
:101FE000DBB2002B02D07868FFF770FD7B68FA7BCC
:101FF000DA7600E000BF1037BD4680BD80B582B004
:1020000000AF78600B46FB707B68002B2DD07B689F
:10201000DB7E002B25D07B681B7EFA789A4220D08D
:102020007B68DB6819464FF00000FEF73BFD034676
:102030001A467B68DA607B681B6919464FF000001E
:10204000FEF730FD03461A467B681A617B685B69C0
:1020500019464FF00000FEF725FD03461A467B683F
:102060005A617B68FA781A7600E000BF0837BD46EF
:1020700080BD80B483B000AF78607B681B68184671
:102080000C37BD4680BC704780B483B000AF786029
:102090007B685B6818460C37BD4680BC704780B4CF
:1020A00083B000AF78607B689B6818460C37BD46EC
:1020B00080BC704780B483B000AF78607B68DB7E03
:1020C00018460C37BD4680BC7047000080B584B010
:1020D00000AF0346FB8004F09DFEF860FB88B3F57B
:1020E000807F0CD12A4B1B68FA68D31AC82B06D9FB
:1020F000284B01221A70264AFB68136043E0FB88D4
:10210000B3F5007F0CD1244B1B68FA68D31AC82B97
:1021100006D9224B01221A701F4AFB68136032E075
:10212000FB88B3F5004F0CD11D4B1B68FA68D31A1E
:10213000C82B06D91B4B01221A70194AFB68136081
:1021400021E0FB88B3F5006F0CD1174B1B68FA68D0
:10215000D31AC82B06D9154B01221A70124AFB68F4
:10216000136010E0FB88B3F5806F0CD1104B1B6837
:10217000FA68D31AC82B06D90E4B01221A700C4AE2
:10218000FB681360FFE700BF1037BD4680BD00BF8E
:10219000D8090020EE090020DC090020F109002008
:1021A000E8090020F4090020E4090020F5090020D6
:1021B000E0090020F609002080B58AB000AF786001
:1021C000EFF31083BB60BB687B6272B600BF844BC9
:1021D0001B7887F82330824B00221A70814B1B78C2
:1021E00087F822307F4B00221A707F4B1B7887F8CC
:1021F00021307D4B00221A707B6A002B01D162B620
:1022000000BF97F82330002B09D0784B01221A70B9
:10221000774B00221A70774B1B68774A136097F848
:102220002230002B09D0754B01221A70744B00220A
:102230001A70744B1B68744A136097F82130002B96
:1022400009D0724B01221A70714B00221A70714B27
:102250001B68714A1360654B1B78002B3DD04FF40F
:1022600080716E4805F096FA0346012B0CBF0123DE
:10227000002387F82030604B1B687A68D31AFB6113
:1022800097F82030002B11D0594B1B7883F00103B5
:10229000DBB2002B0AD0FB69B3F5966F06D3604B17
:1022A00001221A70524B01221A7016E097F8203062
:1022B00083F00103DBB2002B0FD04D4B1B7883F072
:1022C0000103DBB2002B02D0564B01221A70474BA0
:1022D00000221A70464B00221A70484B1B78002BC4
:1022E0003AD04FF400714D4805F054FA0346012BE3
:1022F0000CBF01230023FB76434B1B687A68D31A7B
:102300007B61FB7E002B11D03D4B1B7883F00103DA
:10231000DBB2002B0AD07B69B3F5966F06D3424B34
:1023200001221A70364B01221A7015E0FB7E83F0F1
:102330000103DBB2002B0FD0314B1B7883F001037C
:10234000DBB2002B02D0394B01221A702B4B00223A
:102350001A702B4B00221A702C4B1B78002B3AD092
:102360004FF40041324805F015FA0346012B0CBF2B
:1023700001230023FB74284B1B687A68D31AFB6087
:10238000FB7C002B11D0224B1B7883F00103DBB2C6
:10239000002B0AD0FB68B3F5966F06D3254B0122BC
:1023A0001A701B4B01221A7015E0FB7C83F00103AD
:1023B000DBB2002B0FD0164B1B7883F00103DBB28E
:1023C000002B02D01C4B01221A70104B00221A70F5
:1023D0000F4B00221A7000BF2837BD4680BD00BFDA
:1023E000EE090020F1090020F4090020F70900207F
:1023F000F8090020D8090020FC090020000A00206C
:10240000010A0020DC090020040A0020080A00203C
:10241000090A0020E80900200C0A002000080140F9
:10242000ED090020EC090020F0090020EF09002050
:10243000000C0140F3090020F209002080B483B0B1
:1024400000AF0346FB71FB79012B08D0FB79022B0F
:1024500005D0FB79032B02D0FB79042B01D101239A
:1024600000E0002303F00103DBB218460C37BD4641
:1024700080BC704780B483B000AF78600B4B1B7892
:10248000DBB2062B0CD10A4B1B687A68D31A002BDF
:1024900006DB084B1A78054B1A70074B01221A709D
:1024A00000BF0C37BD4680BC704700BF590A0020F2
:1024B000780A0020760A00201700002080B483B03C
:1024C00000AF78607B681B68B3F1804F16D10E4B6C
:1024D0001B78DBB2012B11D10C4B1B78DBB2002B2C
:1024E0000CD10B4B1B680133094A1360094B1B7855
:1024F000DBB2002B02D1084B01221A7000BF0C374F
:10250000BD4680BC704700BF580A0020D509002096
:102510005C0A0020590A00201700002080B584B012
:1025200000AF786039603868FDF71CFEF860FB6822
:10253000102B01D91023FB60FA683968786808F01D
:10254000BAF900BF1037BD4680BD000080B483B02B
:1025500000AF0346FB71FB79082B01D900231AE079
:10256000FB790F4ADB0013441B791A464FF4616371
:1025700003FB02F2FB790A49DB000B445B79194645
:102580000B461B015B1A9B001A44FB790449DB00D4
:102590000B449B79134418460C37BD4680BC7047EA
:1025A000100A002080B483B000AF2A4B1B78002BA8
:1025B00003D0284B1B78092B02D9264B01221A7015
:1025C0000023FB713CE0FB79234A12F83330002BE7
:1025D0000AD0FB79204A12F83330012B04D0FB7962
:1025E0001D4A002102F83310FB791B4ADB0013441B
:1025F0005B88B3F5A06F06D9FB79174ADB0013445B
:102600004FF4A0625A80FB79134ADB0013445B79D4
:102610003B2B05D9FB79104ADB0013443B225A714E
:10262000FB790D4ADB0013449B793B2B05D9FB79E1
:10263000094ADB0013443B229A71FB790133FB7199
:10264000FB79082BBFD900BF00BF0C37BD4680BC4B
:10265000704700BF11000020100A002080B485B030
:1026600000AF78607B68002B57D07B685B68002BDD
:1026700003D07B685B68092B02D97B6801225A6012
:102680000023FB7345E0FA7B7B68013213F832309C
:10269000002B0CD0FA7B7B68013213F83230012B0F
:1026A00005D0FA7B7B680132002103F83210FB7BF6
:1026B0007A680133DB0013445B88B3F5A06F07D958
:1026C000FB7B7A680133DB0013444FF4A0625A802D
:1026D000FB7B7A680133DB0013445B793B2B06D923
:1026E000FB7B7A680133DB0013443B225A71FB7B8E
:1026F0007A680133DB0013449B793B2B06D9FB7BC3
:102700007A680133DB0013443B229A71FB7B01336F
:10271000FB73FB7B082BB6D900E000BF1437BD4626
:1027200080BC704780B400AF2C4B1B78002B50D07E
:102730002A4B1A782A4B1B789A424AD8294B1B7885
:10274000DBB2032B13D1284B1B88B3F5A06F03D941
:10275000254B4FF4A0621A80204B1B78013B224A84
:102760001188224ADB0013440A465A8032E01D4B8E
:102770001B78DBB2042B2DD11D4B1B783B2B02D9D0
:102780001B4B3B221A701B4B1B783B2B02D9194B5E
:102790003B221A70114B1B78013B174A1178134AE0
:1027A000DB0013440A461A710C4B1B78013B104A9C
:1027B00011780E4ADB0013440A465A71074B1B7806
:1027C000013B0C4A1178094ADB0013440A469A710E
:1027D00000E000BFBD4680BC704700BF1300002072
:1027E00011000020590A00207E0A0020100A002053
:1027F000810A0020820A0020800A002080B483B071
:1028000000AF0023FB710023BB7110E0BA790C49C3
:1028100013469B0013441B010B441B68094A934257
:1028200002D1FB790133FB71BB790133BB71BB79F9
:10283000082BEBD9FB7918460C37BD4680BC704796
:10284000940600204752504380B485B000AF034641
:10285000FB710023FB730023BB7318E0BA7B1049A4
:1028600013469B0013441B010B441B680D4A934203
:1028700009D1FA7BFB799A4201D1BB7B0BE0FB7B50
:102880000133FB7300E000BFBB7B0133BB73BB7B39
:10289000082BE3D9FF2318461437BD4680BC704788
:1028A000940600204752504380B582B000AFFFF736
:1028B000A5FF0346FB71FB79002B06D11C4B0022C0
:1028C0001A701C4B00221A702FE0194B1B78FA79F2
:1028D0009A4202D8164B00221A70154B1A78154BE3
:1028E0001B789A4204D2124B1A78124B1A700DE0E0
:1028F000104B1B780233DAB20D4B1B789A4205D885
:102900000B4B1B78013BDAB20A4B1A70FB79022B96
:1029100038BF0223DBB2023BBB71064B1B78BA798E
:102920009A4202D2034ABB7913700837BD4680BD74
:10293000730A0020740A002080B500AF00F000FA8E
:10294000094B00221A70094BFF221A70084B002213
:102950001A70084B00221A70074B05221A70074B99
:1029600001221A7000BF80BD750A002015000020EA
:10297000730A0020740A0020590A00201700002062
:1029800080B582B000AF0346FB71FB79082B0AD8F3
:10299000FA79194913469B0013441B010B441B6829
:1029A000164A934201D0002321E0FA7912491346D6
:1029B0009B0013441B010B4404331B68DAB2104B19
:1029C0001A70FA7913469B0013441B0108330A4A14
:1029D0001344482219460B4807F06DFFFFF7E2FD4C
:1029E000094AFB791370094AFB79137001231846D1
:1029F0000837BD4680BD00BF9406002047525043B3
:102A000011000020100A00201400002015000020F2
:102A100080B584B000AF0346FB71FB79082B01D968
:102A200000235CE0FFF7BEFDFA792F482F491346DB
:102A30009B0013441B010B44194650231A4607F010
:102A40003AFF2B4B1B78FB732A4B1B78BB73FA792D
:102A5000264913469B0013441B010B44264A1A6067
:102A6000264B1B78FA791846204913469B001344DD
:102A70001B010B4404331860FA7913469B0013447E
:102A80001B010833194A134448221D49184607F010
:102A900012FF174AFB791370164AFB79137003F083
:102AA000E9FA184B1B7883F00103DBB2002B15D039
:102AB000FA790E4913469B0013441B010B440A4A42
:102AC0001846114650231A4607F0F5FE084AFB7BCC
:102AD0001370084ABB7B1370002300E001231846E3
:102AE0001037BD4680BD00BF640900209406002059
:102AF0001400002015000020475250431100002010
:102B0000100A00201800002080B584B000AF0346F2
:102B1000FB71FB79082B0AD8FA792F4913469B00E1
:102B200013441B010B441B682C4A934201D0002321
:102B30004EE0FA792A48284913469B0013441B01AA
:102B40000B44194650231A4607F0B5FE254B1B7857
:102B5000FB73254B1B78BB73FA7913469B00134418
:102B60001B011D4A134450220021184607F00DFE98
:102B70001C4B1B78FA799A4202D11A4BFF221A7029
:102B8000194B1B78FA799A4202D1174BFF221A701F
:102B900003F070FA154B1B7883F00103DBB2002BB6
:102BA00015D0FA790C4913469B0013441B010B44C2
:102BB0000B4A1846114650231A4607F07CFE094A74
:102BC000FB7B1370084ABB7B1370002300E00123DA
:102BD00018461037BD4680BD94060020475250432A
:102BE00064090020140000201500002018000020B7
:102BF00090B583B000AF0446084611461A462346F6
:102C0000FB710346BB710B467B7113463B710E4A49
:102C1000FB7913700D4ABB7913700D4A7B791370E1
:102C20000C4A3B79137004F0F5F8034603F59663FC
:102C3000094A1360094B06221A70094B01221A70C7
:102C400000BF0C37BD4690BD7D0A00207C0A0020E5
:102C500016000020760A0020780A0020590A002079
:102C60001700002080B500AF00228021234804F027
:102C7000A8FD2348FFF71EFA0346002B03D00021CE
:102C80001F48FFF797F91F4B4FF000021A601E4BC9
:102C90004FF000021A601A4B4FF00002DA621B4B31
:102CA00000221A701A4B1B681A4A13601A4B4FF015
:102CB00000021A60194B4FF000021A60184B0022F4
:102CC0001A70184BFF221A70114B1B68164A1360BA
:102CD0000F4B1B68154A1360154B4FF000021A602A
:102CE000144B4FF000021A60134B4FF000021A60B1
:102CF000074B1B68114A136000BF80BD000C0140E8
:102D000028030020B8090020C4090020BD0A0020C3
:102D1000B4090020C00A0020C40A0020C80A00200C
:102D2000CC0A002019000020D80A0020DC0A00206C
:102D3000E00A0020E40A0020E80A0020EC0A002053
:102D400080B582B000AF00228021184804F039FD20
:102D5000EFF310833B603B687B6072B600BF144B9F
:102D600000221A70134B00221A60134B01221A70B2
:102D7000124B00221A60124B00221A607B68002B53
:102D800001D162B600BF0F4B1B680F4A13600F4B97
:102D90004FF000021A600E4B4FF000021A60FFF76E
:102DA00061FF00BF0837BD4680BD00BF000C014079
:102DB000580A00205C0A002012000020680A002047
:102DC000600A0020B40900206C0A0020D00A00200C
:102DD000D40A002080B500AFFFF7B2FF064B0022F7
:102DE0001A70064BFF221A70054B00221A70054B11
:102DF00001221A7000BF80BD750A00201500002056
:102E0000590A00201700002080B582B000AF1E4B89
:102E10001B78DBB2012B33D11C4BDB6A1C4A1360DD
:102E20001C4B1B681C4A1360EFF310833B603B682C
:102E30007B6072B600BF144B02221A707B68002BB5
:102E400001D162B600BF00228021144804F0B9FC11
:102E50000E48FFF72FF90346002B03D000210B4843
:102E6000FFF7A8F80E4B4FF000021A60094B4FF025
:102E700000021A6003F0CEFF03460A4A136000E026
:102E800000BF0837BD4680BD580A00202803002037
:102E9000D00A0020C4090020D40A0020000C014000
:102EA000B8090020C009002080B584B000AF354BC0
:102EB0001B78DBB2022B0BD1334B1B78DBB2002B20
:102EC00006D1324B1B7883F00103DBB2002B01D01B
:102ED000002352E003F09EFFF8602D4B1B682D4A43
:102EE000136001212C48FFF765F82C4B1B682A4A18
:102EF000D362294BDB6A4FF000011846FEF77AF8DF
:102F00000346002B03D0244B4FF00002DA62224B21
:102F1000DB6A23491846FEF78BF80346002B02D0E4
:102F20001D4B1F4ADA621F4B1B681B4A13631A4B67
:102F30005B6BFA68D31A184A9362164B4FF0000283
:102F40001A60194B4FF000021A60184AFB681360B0
:102F500000228021164804F034FCEFF310837B60DC
:102F60007B68BB6072B600BF064B01221A70BB685B
:102F7000002B01D162B600BF012318461037BD46B1
:102F800080BD00BF580A0020D5090020D3090020C9
:102F9000D40A0020B809002028030020D00A00200D
:102FA00000007A44B4090020C4090020C0090020B0
:102FB000000C014080B582B000AF0346FB71FB7985
:102FC000002B0BD0074AFB791370074B00221A70B5
:102FD000FFF748FE054B01221A7000E000BF0837DA
:102FE000BD4680BDD5090020580A002017000020EA
:102FF00080B582B000AFFFF7D5FA534B1B78DBB238
:10300000002B06D1514B1B7883F00103DBB2002B60
:1030100015D04E4B1B7883F00103DBB2002B07D099
:10302000494B1B78DBB2002B02D1474B02221A70AE
:10303000474B00221A70FFF715FE00237FE0EFF3E5
:1030400010833B603B687B6072B600BF414B00223F
:103050001A60414B01221A70404B00221A60404B0B
:103060001B68404A13600020FFF770FA03463E4A8F
:103070001360374B01221A707B68002B01D162B6B6
:1030800000BF374B1B68394A1360384B1B68384AFE
:103090001360384B4FF000021A60374B4FF00002BC
:1030A0001A60364B4FF00002DA622D4B1B68334A30
:1030B000136303F0AFFE0246304B5B6BD31A2F4A0B
:1030C00093622F4A4FF000012E4800F083FF2E4BF1
:1030D00000221A7003F09EFE03462C4A13602C4B0C
:1030E0002C4A1A601E4B1B682B4A13601C4B1B6832
:1030F0002A4A13602A4B4FF000021A60294B4FF006
:1031000000021A60284B4FF000021A60144B1B6833
:10311000264A13601D4B1B68184600F0D5FA1B4B5E
:103120001B68184600F026FE002000F041F8084B0E
:103130001B78DBB2012B0CBF01230023DBB2184646
:103140000837BD4680BD00BFD5090020D309002047
:10315000580A00205C0A002012000020680A0020A3
:10316000B40900206C0A0020600A0020BC0900207D
:10317000CC090020B8090020C40900202803002041
:10318000000034430000C84110000020C0090020A6
:103190001C0000200000E040D80A0020DC0A0020CB
:1031A000E00A0020E40A0020E80A0020EC0A0020DF
:1031B00080B584B000AF78600023FB7342E02A4BF7
:1031C0001B78013BBB73294B1B68BB60FB7B013346
:1031D000FB73254B1A78264B1B789A422AD2224B36
:1031E0001B780133DAB2204B1A70224ABB68136095
:1031F000214B1B78002B02D0204B1B6808E0BB7BC7
:103200001F4ADB0013445B881846FDF7FDFC0346AC
:103210001C4A1360144B1B78013BDBB21846FFF7C6
:1032200095F90246BB681344104A1360164B0122FD
:103230001A7007E0154B03221A70FFF713FD124BAB
:1032400001221A70114B1B78DBB2012B07D1074BFF
:103250001B687A689A4202D3FB7B082BAFD900BF68
:103260001037BD4680BD00BF12000020600A00205C
:1032700011000020680A0020D3090020B4090020B2
:10328000100A00206C0A002017000020580A0020B5
:1032900090B589B000AF7860334B1B78013BFB756C
:1032A000FB7D324ADB0013445B881846FDF7ACFC1B
:1032B00003463B61FB7D2D4A12F83330002B01D1D0
:1032C0003B694CE0FB7D1846FFF740F9F860FB686E
:1032D000002B01D13B6942E0254B1B687A68D31A69
:1032E000FB61FA69FB689A4201D9FB68FB61F869E6
:1032F000FDF78AFC0446F868FDF786FC034619468C
:103300002046FDF78DFD0346BB601A4B1B6819462E
:103310003869FDF7C7FB0346B9681846FDF7CCFCD2
:1033200003461A46134B1B6819461046FDF7BCFBB3
:103330000346BB614FF00001B869FDF75BFE034631
:10334000002B02D04FF00003BB610B49B869FDF7B9
:103350006FFE0346002B01D0074BBB61BB691846CB
:103360002437BD4690BD00BF12000020100A002087
:10337000680A00206C0A00200000A04490B58BB0C1
:1033800000AF78603960664B1B78013BFB77FB7FB1
:10339000644ADB0013445B881846FDF735FC03469E
:1033A000BB61FB7F1846FFF7D1F878615E4A3B6846
:1033B00013605E4B4FF000021A605D4B4FF000024D
:1033C0001A607B69002B08D05A4B1B681946B869F4
:1033D000FDF71AFE0346002B04D0574ABB69136061
:1033E000BB6999E0554B1B687A689A4204D2534BEB
:1033F0001A687B68D31A00E000233B614D4B1B68C1
:103400001946B869FDF74EFB03464D491846FDF7CE
:1034100053FC03461C467869FDF7F6FB0346194644
:103420002046FDF7FDFC03461A46404B1A603869FA
:10343000FDF7EAFB034642491846FDF7F1FC034657
:103440007B624FF08041786AFDF7F2FD0346002B66
:1034500002D04FF080437B624FF07A51786AFDF7DB
:10346000C9FD0346002B02D04FF07A537B62354BE7
:103470001B6819463868FDF715FB0346FB60796A3F
:10348000F868FDF7CDFC03461A46284B1B68194621
:103490001046FDF709FB03461A46254B1A60244BDC
:1034A0001B6829491846FDF7C3FD0346002B02D0CF
:1034B0001F4B254A1A601E4B1B684FF0000118462F
:1034C000FDF798FD0346002B03D0194B4FF0000287
:1034D0001A603B683B62B969386AFDF7A9FD03468B
:1034E000002B01D0BB693B624FF00001386AFDF749
:1034F00081FD0346002B02D04FF000033B621349CD
:10350000386AFDF795FD0346002B01D00F4B3B6257
:10351000094A3B6A13603B6A18462C37BD4690BD8A
:1035200012000020100A0020D80A0020E00A002023
:10353000E40A00206C0A0020DC0A0020600A002057
:1035400000007042B4090020000020420000A044A6
:1035500090B585B000AF4C4B1B78DBB2012B40F02F
:103560008A804A4B1B78012B40F08580484B1B68B2
:1035700048491846FDF73EFD0346002B7BD1464BDC
:103580001B6846491846FDF735FD0346002B72D1EE
:10359000434B1B78013BFB72424B1A68424B1B6842
:1035A000D31A7B60FB7A414ADB0013445B881846E0
:1035B000FDF72AFB02463E4B1B6819461046FDF7F5
:1035C00071FA03463B607B682C2B56D93949386821
:1035D000FDF71AFD0346002B4FD12D4B1B681946F2
:1035E0003548FDF71DFC03461A462B4B1B68194650
:1035F0001046FDF761FB0346FB60FB6823F00044C7
:103600002E492046FDF71EFD0346002B37D12B49DE
:103610002046FDF70DFD0346002B30D14FF07C51C5
:10362000F868FDF7E7FC0346002B03D04FF07C530E
:10363000FB6008E02249F868FDF7FAFC0346002B1E
:1036400001D01F4BFB601F4B1B681946F868FDF744
:1036500029FA034611491846FDF72EFB03461A4680
:10366000184B1B6819461046FDF71EFA03461A460A
:10367000144B1A6004E000BF02E000BF00E000BF8E
:103680001437BD4690BD00BF580A00201900002025
:10369000C409002000802244B00A0020CDCCCC3DDB
:1036A000120000205C0A0020680A0020100A002096
:1036B000B40900200000404000007A44FFFF7F7FF3
:1036C000000020421C000020B0B582B000AF78603E
:1036D0001B4B4FF000021A601A4B1B681A4A13600A
:1036E0001A4A7B6813601A4B1B78002B1DD0154BB0
:1036F0001B6823F0004401231D4616492046FDF7B0
:10370000A1FC0346002B08D112492046FDF790FC8E
:103710000346002B01D100231D46EBB283F00103C9
:10372000DBB2002B01D0012300E0002303F00103F2
:10373000DAB2094B1A7000BF0837BD46B0BD00BFF2
:10374000F00A0020B4090020F40A0020F80A002042
:10375000D3090020FFFF7F7FFC0A002090B587B0CF
:1037600000AF78604F4B1B7883F00103DBB2002B76
:1037700040F08F804C4B1B6823F000444B4920469F
:10378000FDF760FC0346002B40F08380474920464C
:10379000FDF74EFC0346002B7BD1454B1B7883F095
:1037A0000103DBB2002B03D07868FFF78DFF75E0D3
:1037B000404B1B687A68D31A3B613B6940F2DB528D
:1037C000934268D93869FDF71FFA03463A4918460B
:1037D000FDF726FB0346FB604FF00001F868FDF79C
:1037E00013FC0346002B58D12F4B1B68334A126839
:1037F00011461846FDF756F90346F9681846FDF7D5
:103800000FFB03467B617B6923F000442749204678
:10381000FDF718FC0346002B06D124492046FDF78E
:1038200007FC0346002B02D04FF000037B612449C4
:103830007869FDF7FDFB0346002B02D0204B7B612E
:1038400008E020497869FDF7D5FB0346002B01D03D
:103850001C4B7B611C4B1B6819467869FDF722F9EC
:1038600003461A491846FDF727FA03461A46164B2F
:103870001B6819461046FDF717F903461A46124B06
:103880001A60094B1B680D4A13600A4A7B68136073
:1038900004E000BF02E000BF00E000BF1C37BD46EF
:1038A00090BD00BFD3090020B4090020FFFF7F7F37
:1038B000FC0A0020F80A002000606A47F40A002091
:1038C0000000A0420000A0C2F00A00209A99193F0F
:1038D000B0B596B000AF786039607E4B1B78013B85
:1038E00087F8373097F837307B4ADB0013445B8822
:1038F0001846FDF789F903463B6397F837301846B9
:10390000FEF724FEF862754B1B683A689A4204D2AF
:10391000724B1A683B68D31A00E00023BB62704BFD
:103920001B687B656F4B1B6823F0004401231D4619
:103930006D492046FDF786FB0346002B08D16A49F6
:103940002046FDF775FB0346002B01D100231D46E1
:10395000EBB283F00103DBB2002B0BD0614B1B6891
:103960001946786DFDF746FB0346002B02D05D4BF0
:103970001B687B65796D386BFDF794F803467B62B5
:103980005A4B1B68564A126811461846FDF78AF8CA
:1039900003463B62564B1B683B653B6D23F000447E
:1039A00051492046FDF74EFB0346002B06D14E49F8
:1039B0002046FDF73DFB0346002B02D04FF00003ED
:1039C0003B654FF00001386DFDF732FB0346002BDD
:1039D00001D03B6D01E04FF00003FB61454B1B68DC
:1039E0004FF000011846FDF723FB0346002B02D0E1
:1039F000404B1B6801E04FF00003BB61FB6A002BEA
:103A000008D03D4B1B681946386BFDF7FDFA03469D
:103A1000002B17D0396B786DFDF700FB0346002BA8
:103A20000ED0364B4FF000021A60354B4FF00002BB
:103A3000DA62344B4FF000021A604FF000037CE171
:103A40007B687AE14FF00001786AFDF7DDFA034602
:103A5000002B0BD12C49386BFDF726F8034619468D
:103A6000786DFDF7DBFA0346002B11D0234B4FF0A6
:103A700000021A60224B4FF00002DA62214B4FF035
:103A800000021A60214A7B6D13604FF0000354E17D
:103A90001F4B1B68FB64FB6C23F00044124920465B
:103AA000FDF7D0FA0346002B06D10F492046FDF75B
:103AB000BFFA0346002B01D0164BFB644FF07C513C
:103AC000F86CFDF797FA0346002B25D04FF07C5396
:103AD000FB642AE012000020100A0020600A002087
:103AE000B4090020C8090020FFFF7F7FD80A00200A
:103AF000B00A0020F00A00206C0A0020B80900205B
:103B000028030020E80A0020CDCCCC3DEC0A0020A0
:103B10001C0000200000E0408A49F86CFDF788FA9C
:103B20000346002B01D0874BFB64874B1B68F96C65
:103B30001846FDF775F9034684491846FDF7BCF8A9
:103B40000346BB644FF00001B86CFDF753FA03461F
:103B5000002B02D04FF00003BB647C49B86CFDF72A
:103B600067FA0346002B01D0784BBB64764B1B6889
:103B7000396D1846FCF796FF03467B6174497869F6
:103B8000FDF79AF803461946B86CFCF78DFF03461B
:103B90007B644FF00001786CFDF72CFA0346002B94
:103BA00002D04FF000037B646849786CFDF740FA5F
:103BB0000346002B01D0654B7B64B86AFDF724F8FF
:103BC000034664491846FDF72BF903463B646249F6
:103BD000386CFDF72DFA0346002B01D05E4B3B6499
:103BE0004FF00001386CFDF705FA0346002B02D0B8
:103BF0004FF000033B64F969B869FDF719FA034611
:103C0000002B01D0BB6900E0FB693B61396C38696E
:103C1000FDF752F80346796D1846FCF745FF034659
:103C20001A464E4B1A604E4B1B68396C1846FDF70E
:103C300043F803461A464B4B1B6819461046FCF7DF
:103C400033FF0346FB63396BF86BFDF7F1F903466D
:103C5000002B01D03B6BFB63404B1B68F96B184694
:103C6000FCF720FF0346FB604FF00001F868FDF70A
:103C7000DFF90346002B1DD04FF07D51F868FDF7AA
:103C8000CFF8034619464FF07E50FCF70BFF034672
:103C9000BB634FF00001B86BFDF7ACF90346002B96
:103CA00002D04FF00003BB63B96B786CFDF704F8EA
:103CB00003467B642C4ABB6C13604FF00001786CA8
:103CC000FDF7B6F90346002B1CD01E49786CFDF7B2
:103CD00091F90346002B15D04FF07A51386AFDF761
:103CE000A7F90346002B0AD04FF07A51786AFDF706
:103CF0009FF90346002B02D0124B7B6402E04FF089
:103D000000037B644FF00001786CFDF773F9034604
:103D1000002B02D04FF000037B640C49786CFDF758
:103D200087F90346002B01D0084B7B640F4A7B6C5C
:103D300013600F4A7B6CD3627B6C18465837BD46C4
:103D4000B0BD00BF00002042E40A002000007A4419
:103D50000000344200007042CDCC4C3EEC0A002002
:103D6000E00A0020D80A0020E80A0020B809002054
:103D700028030020B0B582B000AF7860254B002248
:103D80001A70254B1B68254A1360254B4FF0000223
:103D90001A60244B4FF000021A60234B4FF00002D0
:103DA0001A601D4B1B68214A1360214A7B6813600F
:103DB000204B1B78002B1DD0174B1B6823F00044B1
:103DC00001231D461C492046FDF73CF90346002B04
:103DD00008D119492046FDF72BF90346002B01D1E4
:103DE00000231D46EBB283F00103DBB2002B01D0B0
:103DF000012300E0002303F00103DAB20F4B1A7035
:103E00000F4B00221A700F4BFF221A7000BF0837A9
:103E1000BD46B0BDBD0A0020B4090020C00A002084
:103E2000C40A0020C80A0020B00A0020B40A0020FA
:103E3000B80A0020D3090020FFFF7F7FBC0A0020C2
:103E4000CC0A00201900002090B587B000AF786040
:103E5000564B1B7883F00103DBB2002B40F09E80B1
:103E6000534B1B6823F0004452492046FDF7EAF803
:103E70000346002B40F092804E492046FDF7D8F8CB
:103E80000346002B40F08A804B4B1B7883F00103E4
:103E9000DBB2002B0ED0494B4FF000021A60444BAE
:103EA0001B68474A1360474A7B681360424B0122F4
:103EB0001A7078E0434B1B687A68D31A3B613B6900
:103EC00041F2873293426BD93869FCF79DFE034675
:103ED0003D491846FCF7A4FF0346FB604FF0000184
:103EE000F868FDF791F80346002B5BD1304B1B6857
:103EF000334A126811461846FCF7D4FD0346F968A8
:103F00001846FCF78DFF03467B617B6923F0004474
:103F100028492046FDF796F80346002B06D125498F
:103F20002046FDF785F80346002B02D04FF0000332
:103F30007B6126497869FDF77BF80346002B02D0A8
:103F4000224B7B6108E022497869FDF753F803466C
:103F5000002B01D01E4B7B61184B1B6819467869FA
:103F6000FCF7A0FD03464FF07A511846FCF7A4FE7B
:103F700003461A46114B1B6819461046FCF794FD80
:103F800003461A460D4B1A60094B1B680C4A136016
:103F90000C4A7B681360FFF7DBFA04E000BF02E025
:103FA00000BF00E000BF1C37BD4690BDD309002014
:103FB000B4090020FFFF7F7FBC0A0020B00A002068
:103FC000B40A0020B80A002000606A470000A0423E
:103FD0000000A0C290B589B002AFF860B9607A6005
:103FE0002D48FEF746F80346F9681846FCF75AFDD7
:103FF000034623F0004329491846FDF719F8034604
:10400000002B23D12448FEF73FF80346B968184631
:10401000FCF748FD034623F0004320491846FDF70E
:1040200007F80346002B11D11B48FEF738F803466A
:1040300079681846FCF736FD034623F0004317491C
:104040001846FCF7F5FF0346002B01D0012300E0E2
:104050000023FB75FB7D03F00103FB75FB7D002B4B
:1040600007D0012300937B68BA68F9680A48FDF716
:1040700081FE01231C464FF00001B868FCF7D8FF11
:104080000346002B01D100231C46E2B2044B1A70F8
:1040900000BF1C37BD4690BD2803002017B7D1389C
:1040A0001000002080B584B000AF78601B497868AC
:1040B000FCF702FE03461A491846FCF7F5FC0346D6
:1040C000FB601849F868FCF795FF0346002B01D008
:1040D000144BFB601449F868FCF7AAFF0346002B59
:1040E00001D0114BFB60114B1B681946F868FCF7B7
:1040F00081FF0346002B02D00C4B1B68FB600C4970
:10410000F868FCF795FF0346002B01D0084BFB60D5
:10411000FB6818461037BD4680BD00BF6666E63EA8
:104120000000344300007A4300805444C80A002051
:1041300000007A4480B586B000AF78607868FFF7F9
:10414000B1FF3861194B1B684FF07D511846FCF7E1
:10415000B3FD0346FB6016493869FCF7ADFD034625
:10416000BB60B968F868FCF763FF0346002B01D019
:10417000FB6800E0BB687B6139697869FCF758FF30
:104180000346002B01D03B697B614FF00001786949
:10419000FCF730FF0346002B02D04FF000037B6199
:1041A0007B6918461837BD4680BD00BFC80A00208D
:1041B0003333B33E80B584B000AF03463960FB7142
:1041C0002A4B1B78FA799A424BD0FB79012B1BD1F1
:1041D000274B1B68274A126811461846FCF728FF30
:1041E0000346002B03D0224B1B68224A1360224B4C
:1041F0004FF000021A601E4B4FF000021A601F4B76
:104200004FF00002DA6228E0FB79002B0CD11A4B48
:104210004FF000021A60164B4FF000021A60174B65
:104220004FF00002DA6218E03868FFF783FFF860A9
:10423000124AFB68D362104AFB6813600C4AFB68A1
:1042400013600F4B1B680D4A136302F0E3FD024637
:104250000A4B5B6BD31A094A9362044AFB791370C9
:1042600000E000BF1037BD4680BD00BFBD0A002082
:10427000C4090020C80A0020B80900202803002033
:10428000B409002080B584B000AF78603960396827
:104290007868FCF707FC0346FB60914B1B684FF006
:1042A00000011846FCF7C4FE0346002B02D08C4BDD
:1042B0001B6801E04FF00003BB608A49B868FCF757
:1042C000FBFC034639681846FCF7EEFB03461A462A
:1042D000854B1A60854B1B78002B02D0012B59D0DF
:1042E000B5E083497868FCF7DFFB03461946386878
:1042F000FCF794FE0346002B0ED17D497868FCF74D
:10430000D3FB03461A467B4B1B6819461046FCF745
:104310007BFE0346002B04D079680120FFF74AFF9B
:1043200037E07549F868FCF76FFE0346002B1AD09A
:104330007249B868FCF772FE0346002B13D070492F
:104340007868FCF7B1FB03461A46674B1B681946B1
:104350001046FCF759FE0346002B04D07968012073
:10436000FFF728FF15E04FF07E51F868FCF74CFE90
:104370000346002B00D1AFE06249F868FCF74EFE1F
:104380000346002B00D1A7E079680220FFF712FF57
:10439000A2E0A1E05C49F868FCF74AFE0346002B66
:1043A0000DD04F4B1B6852491846FCF72DFE0346B3
:1043B000002B04D079680020FFF7FCFE8CE04FF062
:1043C0007E51F868FCF72AFE0346002B08D0464BC6
:1043D0001B6819467868FCF721FE0346002B31D193
:1043E000414B1B6819467868FCF718FE0346002B02
:1043F00000D171E04549F868FCF710FE0346002B38
:1044000008D0374B1B683A491846FCF7FDFD0346B8
:10441000002B17D1FB6823F000434FF07E51184664
:10442000FCF7F2FD0346002B00D155E02C4B1B6836
:1044300023F0004336491846FCF7E6FD0346002BFF
:1044400000D149E079680220FFF7B4FE44E0284932
:104450007868FCF729FB034619463868FCF7DEFD4F
:104460000346002B26D122497868FCF71DFB034642
:104470001A46204B1B6819461046FCF7C5FD03463B
:10448000002B17D1164B1B6821491846FCF7D0FDAD
:104490000346002B13D01A497868FCF705FB034646
:1044A0001A46114B1B6819461046FCF7ADFD034632
:1044B000002B04D079680120FFF77CFE0BE0124945
:1044C000F868FCF7B5FD0346002B00D103E07968DE
:1044D0000020FFF76FFE00BF00BF1037BD4680BD54
:1044E000B00A00203D0AD73EC00A0020BD0A0020C5
:1044F0009A99993EC8090020000020409A99193ED7
:10450000CDCC4C3E9A9999BE000040409A99193FF3
:10451000CDCC4C3F80B588B000AFF860B9607A6010
:10452000FB68FB617968B868FCF7BCFA03467B61FD
:104530006C4B1B78012B1AD06B49B868FCF7B4FAA6
:10454000034619467868FCF769FD0346002B0ED137
:104550006549B868FCF7A8FA03461A46634B1B681E
:1045600019461046FCF750FD0346002B0ED0604B59
:104570004FF000021A605F4B4FF00002DA625E4BB0
:104580004FF000021A604FF0000350E1554B1B78CA
:10459000002B40F082804FF000017869FCF734FD79
:1045A0000346002B0ED0524B4FF000021A60514BC5
:1045B0004FF00002DA62504B4FF000021A604FF0E9
:1045C000000334E14D497869FCF732FD0346002BC6
:1045D00003D0494B4A4A1A6046E04A497869FCF7D9
:1045E00027FD0346002B03D0434B474A1A603BE0AC
:1045F00046497869FCF71CFD0346002B03D03E4B6F
:10460000434A1A6030E043497869FCF711FD0346DC
:10461000002B03D0384B404A1A6025E03F497869A7
:10462000FCF706FD0346002B03D0334B3C4A1A60CF
:104630001AE04FF080417869FCF7FAFC0346002B42
:1046400003D02D4B374A1A600EE04FF07E51786947
:10465000FCF7EEFC0346002B03D0274B324A1A60CE
:1046600002E0254B314A1A60234B1B681946F86952
:10467000FCF7DEFC0346002B02D01F4B1B68FB61DE
:104680004FF00001F869FCF7D3FC0346002B00F063
:104690009680274AFB69136091E0B868FFF702FD36
:1046A0003861154A3B6913604FF000017869FCF7E7
:1046B000ABFC0346002B03D04FF00003FB617EE010
:1046C0004FF00003BB611B497869FCF7A7FC034668
:1046D000002B33D018493869FCF7EEFA0346BB616A
:1046E00042E000BFBD0A00209A99993EC809002007
:1046F000B809002028030020C40A0020000020423E
:1047000000007A440000A041000061440000204104
:1047100000803B440000A04000800944000040406D
:104720000000E1430000AF4300008C4300005C4305
:10473000C80A00206666663FCDCC0C3F3E497869CA
:10474000FCF76CFC0346002B0ED03C4B1B683C492D
:104750001846FCF759FC0346002B05D03949386947
:10476000FCF7AAFA0346BB61B969F869FCF742FC99
:104770000346002B01D0BB69FB6133497869FCF724
:1047800057FC0346002B1AD02C4B1B684FF000013E
:104790001846FCF72FFC0346002B10D04FF0000109
:1047A000F869FCF745FC0346002B08D02749F86957
:1047B000FCF720FC0346002B01D0244BFB61244B6B
:1047C0001B681946F869FCF733FC0346002B02D03E
:1047D0001F4B1B68FB614FF00001F869FCF70AFCF6
:1047E0000346002B02D04FF00003FB61194BDB6A3C
:1047F000174A126811461846FCF71AFC0346002BAC
:1048000003D0134B1B68134AD362124BDB6A4FF081
:1048100000011846FCF7EEFB0346002B03D00D4BBE
:104820004FF00002DA620C4AFB691360FB6918461C
:104830002037BD4680BD00BF9A99193FB00A0020BD
:104840009A99993E3333B33ECDCC4C3E0000204282
:10485000C40A002028030020B8090020B0B584B0A5
:1048600000AF7860934B1B687A68D31AF92B40F23B
:104870007081904A7B6813608F4B1B7883F0010333
:10488000DBB2002B03D00220FEF794FB64E18B48DF
:10489000FCF7FEFE8948FDF70BF803461A46884BE5
:1048A0001A708648FCF707FF0346002B09D0854B9A
:1048B00000221A70844B00221A700120FEF77AFB46
:1048C0004AE17F4B1B78002B09D07E4B00221A70E7
:1048D0007D4B00221A700120FEF76CFB3CE177480B
:1048E000FDF790F8F8607548FCF7E5FE0346002BED
:1048F00009D0744B00221A70734B00221A700120E9
:10490000FEF758FB28E1FB6823F0004401231D4615
:104910006E492046FCF796FB0346002B08D16B49F5
:104920002046FCF785FB0346002B01D100231D46E2
:10493000EBB283F00103DBB2002B0FD06449F868BF
:10494000FCF76CFB0346002B08D06249F868FCF7C3
:104950005BFB0346002B01D0012300E00023FB7228
:10496000FB7A03F00103FB72FB7A83F00103DBB2F5
:10497000002B15D0544B00221A70524B1B78FF2B82
:1049800005D0504B1B780133DAB24E4B1A704D4BA9
:104990001B78022B40F2DF800220FEF70BFBDAE0EF
:1049A000484B00221A704C4AFB6813604B4B1B7833
:1049B00083F00103DBB2002B11D1494B1B6823F0BC
:1049C000004442492046FCF73DFB0346002B06D13C
:1049D0003E492046FCF72CFB0346002B03D0404AFF
:1049E000FB68136016E03E4B1B681946F868FCF73D
:1049F00059F803463B491846FCF75EF903461A4648
:104A0000374B1B6819461046FCF74EF803461A460A
:104A1000334B1A60324B1B68334A1360304B1B68B0
:104A2000324A13602D4B01221A707868FEF796FE09
:104A30007868FFF709FA2E49F868FCF7EFFA0346A1
:104A4000002B08D1264B1B6829491846FCF7E6FACB
:104A50000346002B06D01C4B00221A700320FEF7E1
:104A6000A9FA6DE0234B1B78DBB2032B46D11C4B1C
:104A70001B6821491846FCF7C7FA0346002B14D0DF
:104A8000114B1B78FF2B05D00F4B1B780133DAB28B
:104A90000D4B1A700C4B1B78032B51D9154B002270
:104AA0001A70094B00221A704AE0074B00221A7054
:104AB00046E000BFAC0A0020D40900201403002007
:104AC000D0090020D1090020D2090020FFFF7F7FFC
:104AD000000048C20000E144C8090020D3090020BA
:104AE0000C000020CDCC4C3E640A0020B40900200C
:104AF0000080A244D509002000409C44184B1B783C
:104B0000DBB2012B04D0164B1B78DBB2022B14D185
:104B1000144B1B78FF2B05D0124B1B780133DAB2F4
:104B2000104B1A700F4B1B78032B09D90C4B00222A
:104B30001A700C4B00221A7002E00A4B00221A7005
:104B4000094B1B78DBB2002B06D1084B01221A70EF
:104B500002E000BF00E000BF1037BD46B0BD00BF9F
:104B6000D5090020D2090020590A00201700002092
:104B700080B58AB000AF786039609C4B1B78DBB29F
:104B8000022B0DD100228021994802F01AFE994B88
:104B90004FF000021A60984B4FF000021A6019E2C1
:104BA000924B1B78DBB2012B0BD1944B1B78DBB201
:104BB000002B06D1924B1B7883F00103DBB2002B54
:104BC00002D0FEF74FF805E28E4B1B78013B87F8C9
:104BD000273097F827308C4A12F8333087F8263080
:104BE00097F82630002B0CBF0123002387F82530CF
:104BF000864B1A78834B1B789A4206D1844B1B78DC
:104C000097F826209A4200F09B807B4B1B683B6202
:104C1000804B00221A70804B1B68804A1360804BC7
:104C20004FF000021A607F4B4FF000021A607E4B7B
:104C30004FF00002DA626F4B4FF000021A606E4BC9
:104C40004FF000021A606F4B1A78704B1A70704A5E
:104C500097F826301370704B1B68744A13606E4BC4
:104C60001B68734A1360734B4FF000021A60724B5B
:104C70004FF000021A60714B4FF000021A60664B51
:104C80001B686F4A13607868FEF71EFD97F82530A1
:104C9000002B4FD097F827305B4ADB0013445B882A
:104CA0001846FBF7B1FF0346FB615B4B1B681946D7
:104CB000F869FBF7F7FE0346BB614FF00001B869E6
:104CC000FCF7ACF90346002B16D04FF00001386A10
:104CD000FCF7AEF90346002B0ED0524A3B6A136034
:104CE000504B1B6857491846FCF7A2F90346002BA6
:104CF00002D04C4B534A1A605349B869FCF784F907
:104D00000346002B0BD05149B869FCF787F90346DD
:104D1000002B04D0F9690220FFF74CFA10E04B4950
:104D2000B869FCF767F90346002B09D0394B01221B
:104D30001A7005E0464A4FF000014648FFF74AF96D
:104D40003868FEF7A5FA786197F82530002B05D171
:104D500079693868FEF712FB034600E07B693E4A3A
:104D600013603148FDF7A6F90346012B03D001215A
:104D70002D48FDF71FF9384B1B68274A126811466A
:104D80001846FBF78FFE03463B613B6923F0004367
:104D9000FB60324B1B684FF07A511846FBF782FEDE
:104DA00003461A462C4B1B6819461046FCF740F97F
:104DB0000346002B03D01C4B4FF00002DA6297F839
:104DC0002530002B5BD0244B1B68134A1268114618
:104DD0001846FFF757FA0F4B1B78022B44D1204A95
:104DE0004FF080411F48FFF7F5F874E0580A0020A3
:104DF000000C0140B8090020C4090020D50900209A
:104E0000D309002012000020100A0020CC0A002044
:104E100019000020BD0A0020B4090020C00A0020AB
:104E2000C40A0020C80A002028030020D80A002055
:104E3000DC0A0020E00A0020E40A0020E80A002042
:104E4000EC0A002000007A44000040409A9999BE84
:104E500000007A4300000C42BC090020CC0900206D
:104E6000000034430000F0425C4A4FF000015C480F
:104E7000FFF7B0F85B4B4FF00002DA622BE05A4BC1
:104E800000221A70594B1B68594A1360594B5A4AF1
:104E90001A605A49F868FCF7B7F80346002B05D0AA
:104EA000574A58495848FFF795F809E0544A4FF0D7
:104EB00000015548FFF78EF84A4B4FF00002DA62C6
:104EC00052493869FCF796F80346002B03D0454B4E
:104ED0004FF00002DA624348FCF774FE0346002BF1
:104EE00003D04B4B1B684B4A136097F82530002BBF
:104EF0000CD0484B1B68484A1168484A126818464B
:104F0000FFF708FB0346434A136008E0414B1B6868
:104F100039681846FEF7DCFC03463E4A13603D4BF9
:104F20001B684FF000011846FCF764F80346002B9D
:104F300003D0384B4FF000021A60364B1B682E49E5
:104F40001846FCF775F80346002B02D0314B2A4A6D
:104F50001A60314B1B68324A1360324B1B687A6807
:104F6000D31A314AA2FB031292094FF47A7101FB62
:104F700002F29B1ABB60274B1B682C491846FCF7B2
:104F800043F80346002B05D000228021284802F078
:104F900018FC1FE01F4B1B6826491846FCF73EF81B
:104FA0000346002B05D001228021214802F009FC94
:104FB00010E0184B1B681846FCF780F80246BB68E7
:104FC000934234BF01230023DBB21A4680211848E4
:104FD00002F0F7FB2837BD4680BD00BF0000344318
:104FE0000000C84128030020BD0A0020EC0A002070
:104FF000C00A0020C40A002000007A440000F041EA
:1050000000007A43CDCCCC3D00000C42CDCCCCBDD1
:10501000B8090020C4090020BC090020B409002000
:10502000CC090020C0090020D34D62100000A0412F
:10503000000C01400000754480B58AB000AF01F05B
:10504000E9FE3862386AFDF7B7F8386AFDF712FAF8
:10505000EFF310837B607B68FB6172B600BFB64BD9
:105060001B78FB76B44B00221A70B44B1B78BB76CE
:10507000B24B00221A70B24B1B787B76B04B0022E9
:105080001A70B04B1B783B76AE4B00221A70AE4BB9
:105090001B78FB75AC4B00221A70AC4B1B78BB75B0
:1050A000AA4B00221A70AA4B1B787B75A84B0022D2
:1050B0001A70A84B1B783B75A64B00221A70FB692F
:1050C000002B01D162B600BFA34B1B78DBB2062BCD
:1050D00000F03884BB7E002B1AD09F4B1B78DBB2CC
:1050E000002B03D1FDF728FC00F02EBC9A4B1B7857
:1050F000DBB21846FDF7A2F90346002B00F024842A
:10510000FDF710FBFDF74EFAFDF716FC00F01CBC96
:105110003B7E002B21D0904B1B78DBB21846FDF76D
:105120008DF90346002B15D18B4B1B78DBB2052B79
:1051300010D0894B1B78DBB2002B40F00784874BE3
:105140001B78DBB2012B05D0844B1B78DBB2022B22
:1051500040F0FC83FDF73EFEF8E3BB7D002B00F042
:10516000B7807D4B1B78DBB2052B34D17C4B1B7891
:105170001846FDF769FB0346FB72FB7A082B00F229
:10518000E783FB7A1846FDF7BFFC0346BB72BB7A88
:10519000002B19D0FDF732FB03467B727B7A002B84
:1051A00006D16F4B00221A706E4B00221A700BE072
:1051B0006B4B1B787A7A9A4204D87B7A013BDAB23D
:1051C000674B1A70FDF770FBFA7AB97A0523012054
:1051D000FDF70EFDBCE3604B1B78DBB21846FDF714
:1051E0002DF90346FB73FB7B002B00F0B3835A4B76
:1051F0001B78BB73FDF796FAFDF7D4F95A4B1B7871
:1052000087F8273097F82730082B1DD9002387F817
:10521000263015E097F82620544913469B00134486
:105220001B010B441B68524A934204D097F8263066
:1052300087F8273008E097F82630013387F82630C2
:1052400097F82630082BE5D997F827301846FDF750
:10525000DFFB03467B73BB7B87F825307B7B002B12
:105260002DD0444B1B78002B29D0FDF7C7FA0346FD
:105270003B73002387F8243014E097F82430184655
:10528000FDF7E2FA03461A4697F82730934204D115
:10529000334A97F82430137009E097F8243001332B
:1052A00087F8243097F824203B7B9A42E5D3FDF71A
:1052B000FBFA304B00221A70052387F8253097F847
:1052C000253097F82720797B0020FDF791FC41E3FA
:1052D000FB7E002B5FD0204B1B78DBB2002B0ED166
:1052E0001D4B01221A701D4B00221A70FDF7BAFCEB
:1052F000204B00221A701C4BFF221A7047E0164BFD
:105300001B78DBB2052B37D1154B1B781846FDF700
:105310009BFA03463B743B7C1846FDF731FB034682
:10532000002B34D0134B00221A700B4B00221A7042
:10533000FDF75EFE2BE000BFEC090020ED09002028
:10534000EF090020F0090020F2090020F3090020F5
:10535000F5090020F6090020590A0020580A00200B
:10536000730A0020740A0020150000209406002013
:1053700047525043750A0020FDF7D4F9FDF712F9A2
:1053800000F078FE9C4B00221A70FDF731FE9B4B1B
:1053900001221A70DFE27B7E002B53D0964B1B78E4
:1053A000DBB2052B02D1FDF715FDD4E2924B1B7841
:1053B000DBB2002B0CD1924B1B78DBB2012B04D05B
:1053C0008F4B1B78DBB2022B02D1FDF703FDC2E24B
:1053D000894B1B78DBB2022B0FD18A4B1B78013330
:1053E000DAB2884B1A70874B1A78874B1B789A422F
:1053F00025D9844B01221A7021E07F4B1B78DBB248
:10540000032B09D1814B1B780133DBB203F003037B
:10541000DAB27E4B1A7012E0774B1B78DBB2042BAA
:105420000DD17B4B1B78591C7A4BA3FB01235A08E7
:1054300013465B001344CA1AD2B2754B1A706F4BF5
:1054400001221A70FB7D002B00F0AA806A4B1B78AA
:10545000DBB2002B12D16A4B1B78DBB2012B02D1DD
:10546000FDF7D2FC06E0664B1B78DBB2022B01D1C4
:10547000FDF71AFD614B01221A706CE25E4B1B783E
:10548000DBB2052B1DD1644B1B781846FDF7DCF908
:105490000346FB74FB7C1846FDF772FA0346002BAB
:1054A0000BD05E4B01221A70534B01221A70554BE0
:1054B00001221A705A4B00221A70504B01221A70A6
:1054C00049E24D4B1B78DBB2042B65DC032B5DDA24
:1054D000012B02D0022B0CD05EE0FDF763F8464BA7
:1054E00002221A70474B01221A704D4B00221A708B
:1054F00053E04B4B1B78002B12D1424B1B78013BE6
:10550000484A12F83330002B0CBF01230023DAB2D3
:105510003C4B1B78013B1146424A02F833103CE0F9
:105520003F4B1B78012B0FD1364B1B78013B3D4A7B
:10553000DB0013445A883C4B1A80344B00221A700B
:105540002D4B03221A7028E02E4B1B78013B354A65
:10555000DB0013441A79354B1A702A4B1B78013B38
:10556000304ADB0013445A79314B1A70254B1B78B3
:10557000013B2C4ADB0013449A792E4B1A70244BC2
:1055800000221A701C4B04221A7006E0FDF7CAF8BC
:10559000194B02221A7000E000BF184B01221A704A
:1055A0007B7D002B14BF01230023DAB23B7D002B4F
:1055B00014BF01230023DBB25340DBB2002B00F009
:1055C000CA817B7D002B14BF01230023BB740A4BCF
:1055D0001B78DBB2013B042B00F2A98101A252F837
:1055E00023F000BF8F560008D15600080B57000863
:1055F0004558000839560008590A002017000020B5
:10560000580A00201300002011000020710A002019
:10561000720A0020ABAAAAAA730A0020750A002009
:10562000700A0020100A00207E0A0020800A002054
:10563000810A0020820A0020FDF7E0F803467B740F
:105640007B7C002B00F07581BB7C002B0ED09E4B29
:105650001B78002B03D17B7C013BDBB203E09A4B30
:105660001B78013BDBB2984A13700DE0964B1B7818
:105670000133DAB2944B1A70934B1B787A7C9A42BE
:1056800002D8914B00221A70FDF70EF951E1BB7C54
:10569000002B0AD08D4B1B78082B06D88B4B1B7820
:1056A0000133DAB2894B1A7045E1BB7C83F0010308
:1056B000DBB2002B00F03F81844B1B78012B40F2C2
:1056C0003A81824B1B78013BDAB2804B1A7032E18F
:1056D000BB7C002B0CD07E4B1B78002B04D07C4B6A
:1056E0001B78013BDBB200E00223794A137025E10D
:1056F000774B1B78012B04D8754B1B780133DBB239
:1057000000E00023724A137018E1724B1B88724A42
:10571000A2FB03239B099BB2DBB23B706D4B1B8842
:105720006E4AA2FB03235B099AB26D4BA3FB0213E3
:10573000D9080B469B000B445B00D31A9BB2DBB22B
:105740007B70644B1B88664AA2FB0323DB089AB27A
:10575000634BA3FB0213D9080B469B000B445B0071
:10576000D31A9BB2DBB2BB705A4B1A885C4BA3FBBB
:105770000213D9080B469B000B445B00D31A9BB263
:10578000DBB2FB70BB7C002B18D0564B1B78283348
:105790003B4413F8283C092B08D0524B1B78283384
:1057A0003B4413F8283C0133DAB200E000224D4BB1
:1057B0001B7828333B4403F8282C17E0494B1B780F
:1057C00028333B4413F8283C002B08D0454B1B786A
:1057D00028333B4413F8283C013BDAB200E00922AD
:1057E000404B1B7828333B4403F8282C3B781A465F
:1057F0005201D21A92001344DB009AB27B78194608
:1058000089000B4419468800194603460B449B0047
:105810009BB213449AB2BB78194689000B445B00D3
:105820009BB213449BB2FA7813449AB2294B1A8064
:10583000284B1B88B3F5A06F7FD9264B4FF4A0628D
:105840001A807AE0284B1B78002B1CD1BB7C002BE4
:105850000CD0264B1B78632B04D0244B1B780133D0
:10586000DBB200E00023214A137067E01F4B1B7876
:10587000002B04D01D4B1B78013BDBB200E06323FF
:105880001A4A13705AE0184B1B78012B32D1BB7C9B
:10589000002B0CD0164B1B783B2B04D0144B1B78E1
:1058A0000133DBB200E00023114A137046E0104BD5
:1058B0001B78002B04D00E4B1B78013BDBB200E0C1
:1058C0003B230B4A137039E0730A002011000020BB
:1058D000700A00207E0A0020D34D62101F85EB5114
:1058E000CDCCCCCC710A0020720A0020800A0020A6
:1058F000810A0020BB7C002B0CD0184B1B783B2B63
:1059000004D0164B1B780133DBB200E00023134AAE
:10591000137013E0114B1B78002B04D00F4B1B7836
:10592000013BDBB200E03B230C4A137006E000BFF2
:1059300004E000BF02E000BF00E000BF084B01220E
:105940001A7008E000BF06E000BF04E000BF02E0FC
:1059500000BF00E000BF2837BD4680BD820A00209E
:105960001700002090B59DB002AFAA4B1B78DBB2A8
:1059700083F00103DBB2002B40F0EA82A54B00224A
:105980001A7007F1380310222021184604F0FDFE9A
:10599000002387F8483007F12403102220211846FD
:1059A00004F0F3FE002387F834309B4B1B78DBB206
:1059B000062B00F2688201A252F823F0D9590008A0
:1059C000395B0008635B0008DB5B00089D5C000836
:1059D000E95C0008FD5D0008904B1B78DBB2002BF2
:1059E0001FD08E4B1B78DBB2032B06D13B1D8C4A9C
:1059F0002021184604F050FE05E03B1D894A202175
:105A0000184604F049FE3A1D07F1380311461846BE
:105A1000FCF784FD07F1240383491846FCF77EFD5B
:105A200036E2824B1B78002B06D0814B1B68184650
:105A300006F08CFF034600E00023FB657D4B1B78DE
:105A4000DBB2002B09D17C4B1B78381D0093FB6D1A
:105A50007A4A202104F020FE24E0764B1B78DBB24A
:105A6000022B06D1381DFB6D754A202104F014FE6F
:105A700018E0704B1B78DBB2032B06D1381DFB6D91
:105A8000704A202104F008FE0CE06F4B1B781A4688
:105A9000694B1B78381D01930092FB6D6B4A2021E6
:105AA00004F0FAFD3A1D07F1380311461846FCF7D9
:105AB00035FD674B1B68BB65BB6D664AA2FB0323C4
:105AC000DB0A7B65BB6D644AA2FB03235A09624B68
:105AD000A3FB021359090B461B015B1A9B00D31A47
