:020000040800F2
:10000000005000206D540008395200084152000889
:1000100049520008515200085952000800000000DF
:100020000000000000000000000000006152000815
:100030006D52000800000000795200088552000847
:10004000B5540008B5540008B5540008B55400086C
:10005000B5540008B5540008B5540008B55400085C
:10006000B5540008B5540008B5540008B55400084C
:10007000B5540008B5540008B5540008B55400083C
:10008000B5540008B5540008B5540008B55400082C
:10009000B5540008B5540008B55400089152000842
:1000A000B5540008B5540008B5540008B55400080C
:1000B000A9520008B5540008B5540008B55400080A
:1000C000B5540008B5540008B5540008B5540008EC
:1000D000B5540008B5540008B5540008B5540008DC
:1000E000BD520008B5540008B554000800000000D7
:1000F0000000000000000000000000000000000000
:0C01000000000000000000005FF808F1A3
:1001100010B5054C237833B9044B13B10448AFF341
:1001200000800123237010BDF001002000000000BA
:10013000C4B0000808B5034B1BB103490348AFF333
:10014000008008BD00000000F4010020C4B00008D9
:1001500010F8012B11F8013B012A28BF9A42F7D071
:10016000D01A7047034613F8012B002AFBD1181A46
:100170000138704781F0004102E000BF83F0004386
:1001800030B54FEA41044FEA430594EA050F08BF32
:1001900090EA020F1FBF54EA000C55EA020C7FEAF6
:1001A000645C7FEA655C00F0E2804FEA5454D4EB73
:1001B0005555B8BF6D420CDD2C4480EA020281EA3D
:1001C000030382EA000083EA010180EA020281EA75
:1001D0000303362D88BF30BD11F0004F4FEA0131C7
:1001E0004FF4801C4CEA113102D0404261EB4101D6
:1001F00013F0004F4FEA03334CEA133302D052425C
:1002000063EB430394EA050F00F0A780A4F1010417
:10021000D5F1200E0DDB02FA0EFC22FA05F2801851
:1002200041F1000103FA0EF2801843FA05F3594137
:100230000EE0A5F120050EF1200E012A03FA0EFCB6
:1002400028BF4CF0020C43FA05F3C01851EBE371E0
:1002500001F0004507D54FF0000EDCF1000C7EEBFD
:1002600000006EEB0101B1F5801F1BD3B1F5001F3B
:100270000CD349085FEA30004FEA3C0C04F101045A
:100280004FEA445212F5800F80F09A80BCF1004F83
:1002900008BF5FEA500C50F1000041EB045141EA05
:1002A000050130BD5FEA4C0C404141EB0101013CCE
:1002B00028BFB1F5801FE9D291F0000F04BF0146BD
:1002C0000020B1FA81F308BF2033A3F10B03B3F18F
:1002D00020020CDA0C3208DD02F1140CC2F10C021F
:1002E00001FA0CF021FA02F10CE002F11402D8BF7D
:1002F000C2F1200C01FA02F120FA0CFCDCBF41EA49
:100300000C019040E41AA2BF01EB0451294330BD17
:100310006FEA04041F3C1CDA0C340EDC04F11404F4
:10032000C4F1200220FA04F001FA02F340EA0300CB
:1003300021FA04F345EA030130BDC4F10C04C4F111
:10034000200220FA02F001FA04F340EA03002946F1
:1003500030BD21FA04F0294630BD94F0000F83F43B
:10036000801306BF81F480110134013D4EE77FEA1E
:10037000645C18BF7FEA655C29D094EA050F08BF6A
:1003800090EA020F05D054EA000C04BF194610464B
:1003900030BD91EA030F1EBF0021002030BD5FEA8F
:1003A000545C05D14000494128BF41F0004130BDB7
:1003B00014F580043CBF01F5801130BD01F000450B
:1003C00045F0FE4141F470014FF0000030BD7FEA7E
:1003D000645C1ABF194610467FEA655C1CBF0B4679
:1003E000024650EA013406BF52EA033591EA030F90
:1003F00041F4002130BD00BF90F0000F04BF002188
:10040000704730B54FF4806404F132044FF00005BA
:100410004FF0000150E700BF90F0000F04BF002133
:10042000704730B54FF4806404F1320410F0004599
:1004300048BF40424FF000013EE700BF42004FEA94
:10044000E2014FEA31014FEA02701FBF12F07F4311
:1004500093F07F4F81F06051704732F07F4208BFC8
:10046000704793F07F4F04BF41F40021704730B5CF
:100470004FF4607401F0004521F000411CE700BF1B
:1004800050EA010208BF704730B54FF000050AE09E
:1004900050EA010208BF704730B511F0004502D59F
:1004A000404261EB41014FF4806404F132045FEAA1
:1004B000915C3FF4D8AE4FF003025FEADC0C18BF4A
:1004C00003325FEADC0C18BF033202EBDC02C2F13C
:1004D000200300FA03FC20FA02F001FA03FE40EACE
:1004E0000E0021FA02F11444BDE600BF70B54FF0D2
:1004F000FF0C4CF4E06C1CEA11541DBF1CEA1355B0
:1005000094EA0C0F95EA0C0F00F0DEF82C4481EA17
:10051000030621EA4C5123EA4C5350EA013518BF37
:1005200052EA033541F4801143F4801338D0A0FB24
:1005300002CE4FF00005E1FB02E506F00042E0FBD1
:1005400003E54FF00006E1FB03569CF0000F18BFD7
:100550004EF0010EA4F1FF04B6F5007F64F540747F
:1005600004D25FEA4E0E6D4146EB060642EAC62112
:1005700041EA55514FEAC52040EA5E504FEACE2E7F
:10058000B4F1FD0C88BFBCF5E06F1ED8BEF1004F82
:1005900008BF5FEA500E50F1000041EB045170BDFE
:1005A00006F0004646EA010140EA020081EA030142
:1005B000B4EB5C04C2BFD4EB0C0541EA045170BD3E
:1005C00041F480114FF0000E013C00F3AB8014F1B8
:1005D000360FDEBF002001F0004170BDC4F1000401
:1005E000203C35DA0C341BDC04F11404C4F1200582
:1005F00000FA05F320FA04F001FA05F240EA0200DD
:1006000001F0004221F0004110EBD37021FA04F612
:1006100042EB06015EEA430E08BF20EAD37070BDCC
:10062000C4F10C04C4F1200500FA04F320FA05F02B
:1006300001FA04F240EA020001F0004110EBD3702D
:1006400041F100015EEA430E08BF20EAD37070BD9D
:10065000C4F1200500FA05F24EEA020E20FA04F376
:1006600001FA05F243EA020321FA04F001F0004125
:1006700021FA04F220EA020000EBD3705EEA430E96
:1006800008BF20EAD37070BD94F0000F0FD101F0C5
:100690000046400041EB010111F4801F08BF013CFE
:1006A000F7D041EA060195F0000F18BF704703F03C
:1006B0000046520043EB030313F4801F08BF013DC3
:1006C000F7D043EA0603704794EA0C0F0CEA13557F
:1006D00018BF95EA0C0F0CD050EA410618BF52EA39
:1006E0004306D1D181EA030101F000414FF000003F
:1006F00070BD50EA410606BF1046194652EA43064D
:1007000019D094EA0C0F02D150EA013613D195EAC0
:100710000C0F05D152EA03361CBF104619460AD108
:1007200081EA030101F0004141F0FE4141F4700112
:100730004FF0000070BD41F0FE4141F4780170BD02
:1007400070B54FF0FF0C4CF4E06C1CEA11541DBF67
:100750001CEA135594EA0C0F95EA0C0F00F0A7F869
:10076000A4EB050481EA030E52EA03354FEA013196
:1007700000F088804FEA03334FF0805545EA1313A9
:1007800043EA12634FEA022245EA111545EA106571
:100790004FEA00260EF000419D4208BF964244F108
:1007A000FD0404F5407402D25B084FEA3202B61A27
:1007B00065EB03055B084FEA32024FF480104FF4FB
:1007C000002CB6EB020E75EB030E22BFB61A75466F
:1007D00040EA0C005B084FEA3202B6EB020E75EB02
:1007E000030E22BFB61A754640EA5C005B084FEA6A
:1007F0003202B6EB020E75EB030E22BFB61A754637
:1008000040EA9C005B084FEA3202B6EB020E75EB41
:10081000030E22BFB61A754640EADC0055EA060E02
:1008200018D04FEA051545EA16754FEA06164FEA45
:10083000C30343EA52734FEAC2025FEA1C1CC0D1F1
:1008400011F4801F0BD141EA00014FF000004FF07E
:10085000004CB6E711F4801F04BF01430020B4F13F
:10086000FD0C88BFBCF5E06F3FF6AFAEB5EB030CF7
:1008700004BFB6EB020C5FEA500C50F1000041EBF4
:10088000045170BD0EF0004E4EEA113114EB5C04C1
:10089000C2BFD4EB0C0541EA045170BD41F4801194
:1008A0004FF0000E013C90E645EA060E8DE60CEA9C
:1008B000135594EA0C0F08BF95EA0C0F3FF43BAFB9
:1008C00094EA0C0F0AD150EA01347FF434AF95EA70
:1008D0000C0F7FF425AF104619462CE795EA0C0F54
:1008E00006D152EA03353FF4FDAE1046194622E721
:1008F00050EA410618BF52EA43067FF4C5AE50EAFB
:1009000041047FF40DAF52EA43057FF4EBAE12E7EA
:100910004FF0FF3C06E000BF4FF0010C02E000BFCB
:100920004FF0010C4DF804CD4FEA410C7FEA6C5CAE
:100930004FEA430C18BF7FEA6C5C1BD001B050EA51
:10094000410C0CBF52EA430C91EA030F02BF90EA3C
:10095000020F0020704710F1000F91EA030F58BFFB
:10096000994208BF90422CBFD8176FEAE37040F05D
:10097000010070474FEA410C7FEA6C5C02D150EAFB
:10098000013C07D14FEA430C7FEA6C5CD6D152EAB6
:10099000033CD3D05DF8040B704700BF844610467B
:1009A00062468C461946634600E000BF01B5FFF77A
:1009B000B7FF002848BF10F1000F01BD4DF808ED4A
:1009C000FFF7F4FF0CBF012000205DF808FB00BF1B
:1009D0004DF808EDFFF7EAFF34BF012000205DF875
:1009E00008FB00BF4DF808EDFFF7E0FF94BF0120C2
:1009F00000205DF808FB00BF4DF808EDFFF7CEFFC3
:100A000094BF012000205DF808FB00BF4DF808ED01
:100A1000FFF7C4FF34BF012000205DF808FB00BFD2
:100A20004FEA410C7FEA6C5C02D150EA013C0AD1EA
:100A30004FEA430C7FEA6C5C02D152EA033C02D1DC
:100A40004FF0000070474FF0010070474FEA41023D
:100A500012F5001215D211D56FF47873B3EB625210
:100A600012D94FEAC12343F0004343EA505311F037
:100A7000004F23FA02F018BF404270474FF00000C9
:100A8000704750EA013005D111F0004008BF6FF007
:100A9000004070474FF00000704700BF80F00040FA
:100AA00002E000BF81F0004142001FBF5FEA410346
:100AB00092EA030F7FEA226C7FEA236C6AD04FEA46
:100AC0001262D2EB1363C1BFD2184140484041408B
:100AD000B8BF5B42192B88BF704710F0004F40F43D
:100AE000000020F07F4018BF404211F0004F41F459
:100AF000000121F07F4118BF494292EA030F3FD025
:100B0000A2F1010241FA03FC10EB0C00C3F1200337
:100B100001FA03F100F0004302D5494260EB4000C6
:100B2000B0F5000F13D3B0F1807F06D340084FEA31
:100B3000310102F10102FE2A51D2B1F1004F40EB26
:100B4000C25008BF20F0010040EA0300704749008E
:100B500040EB0000013A28BFB0F5000FEDD2B0FA2B
:100B600080FCACF1080CB2EB0C0200FA0CF0AABF4E
:100B700000EBC25052421843BCBFD04018437047EC
:100B800092F0000F81F4000106BF80F400000132F2
:100B9000013BB5E74FEA41037FEA226C18BF7FEAC9
:100BA000236C21D092EA030F04D092F0000F08BF0B
:100BB0000846704790EA010F1CBF0020704712F0F2
:100BC0007F4F04D1400028BF40F00040704712F131
:100BD00000723CBF00F50000704700F0004343F096
:100BE000FE4040F4000070477FEA226216BF0846CC
:100BF0007FEA23630146420206BF5FEA412390EA8F
:100C0000010F40F4800070474FF0000304E000BF84
:100C100010F0004348BF40425FEA000C08BF704735
:100C200043F0964301464FF000001CE050EA0102F9
:100C300008BF70474FF000030AE000BF50EA01020E
:100C400008BF704711F0004302D5404261EB4101FB
:100C50005FEA010C02BF84460146002043F0B64320
:100C600008BFA3F18053A3F50003BCFA8CF2083A45
:100C7000A3EBC25310DB01FA02FC634400FA02FC4E
:100C8000C2F12002BCF1004F20FA02F243EB020055
:100C900008BF20F00100704702F1200201FA02FCB7
:100CA000C2F1200250EA4C0021FA02F243EB0200AA
:100CB00008BF20EADC7070474FF0FF0C1CEAD052EE
:100CC0001EBF1CEAD15392EA0C0F93EA0C0F6FD0AF
:100CD0001A4480EA010C400218BF5FEA41211ED08D
:100CE0004FF0006343EA501043EA5111A0FB013179
:100CF0000CF00040B1F5000F3EBF490041EAD3714E
:100D00005B0040EA010062F17F02FD2A1DD8B3F1C9
:100D1000004F40EBC25008BF20F00100704790F038
:100D2000000F0CF0004C08BF49024CEA502040EA8A
:100D300051207F3AC2BFD2F1FF0340EAC250704750
:100D400040F400004FF00003013A5DDC12F1190F8E
:100D5000DCBF00F000407047C2F10002410021FA00
:100D600002F1C2F1200200FA02FC5FEA310040F118
:100D7000000053EA4C0308BF20EADC70704792F091
:100D8000000F00F0004C02BF400010F4000F013AC9
:100D9000F9D040EA0C0093F0000F01F0004C02BFC4
:100DA000490011F4000F013BF9D041EA0C018FE733
:100DB0000CEAD15392EA0C0F18BF93EA0C0F0AD039
:100DC00030F0004C18BF31F0004CD8D180EA01005F
:100DD00000F00040704790F0000F17BF90F0004FF8
:100DE000084691F0000F91F0004F14D092EA0C0FDA
:100DF00001D142020FD193EA0C0F03D14B0218BF6D
:100E0000084608D180EA010000F0004040F0FE40B2
:100E100040F40000704740F0FE4040F4400070474E
:100E20004FF0FF0C1CEAD0521EBF1CEAD15392EACD
:100E30000C0F93EA0C0F69D0A2EB030280EA010CBD
:100E400049024FEA402037D04FF0805343EA111156
:100E500043EA10130CF000408B4238BF5B0042F1B4
:100E60007D024FF4000C8B4224BF5B1A40EA0C0059
:100E7000B3EB510F24BFA3EB510340EA5C00B3EB8B
:100E8000910F24BFA3EB910340EA9C00B3EBD10F79
:100E900024BFA3EBD10340EADC001B0118BF5FEACB
:100EA0001C1CE0D1FD2A3FF650AF8B4240EBC250F4
:100EB00008BF20F0010070470CF0004C4CEA5020B5
:100EC0007F32C2BFD2F1FF0340EAC250704740F404
:100ED00000004FF00003013A37E792F0000F00F0F6
:100EE000004C02BF400010F4000F013AF9D040EA74
:100EF0000C0093F0000F01F0004C02BF490011F408
:100F0000000F013BF9D041EA0C0195E70CEAD153FF
:100F100092EA0C0F08D142027FF47DAF93EA0C0FE6
:100F20007FF470AF084676E793EA0C0F04D14B02CA
:100F30003FF44CAF08466EE730F0004C18BF31F07C
:100F4000004CCAD130F000427FF45CAF31F0004376
:100F50007FF43CAF5FE700BF4FF0FF3C06E000BF0F
:100F60004FF0010C02E000BF4FF0010C4DF804CD32
:100F70004FEA40024FEA41037FEA226C18BF7FEA42
:100F8000236C11D001B052EA530C18BF90EA010F44
:100F900058BFB2EB030088BFC81738BF6FEAE170D3
:100FA00018BF40F0010070477FEA226C02D15FEA6F
:100FB000402C05D17FEA236CE4D15FEA412CE1D0DB
:100FC0005DF8040B704700BF844608466146FFE7A2
:100FD0000FB5FFF7C9FF002848BF10F1000F0FBD84
:100FE0004DF808EDFFF7F4FF0CBF012000205DF87D
:100FF00008FB00BF4DF808EDFFF7EAFF34BF012002
:1010000000205DF808FB00BF4DF808EDFFF7E0FF9A
:1010100094BF012000205DF808FB00BF4DF808EDEB
:10102000FFF7D2FF94BF012000205DF808FB00BF4E
:101030004DF808EDFFF7C8FF34BF012000205DF830
:1010400008FB00BF4FEA40024FEA41037FEA226CEF
:1010500002D15FEA402C08D17FEA236C02D15FEA1B
:10106000412C02D14FF0000070474FF00100704753
:101070004FEA4002B2F1FE4F0FD34FF09E03B3EBA5
:1010800012620DD94FEA002343F0004310F0004FE5
:1010900023FA02F018BF404270474FF0000070473B
:1010A00012F1610F01D1420205D110F0004008BFDA
:1010B0006FF0004070474FF00000704742000ED2C2
:1010C000B2F1FE4F0BD34FF09E03B3EB126209D483
:1010D0004FEA002343F0004323FA02F070474FF039
:1010E0000000704712F1610F01D1420202D14FF0AE
:1010F000FF3070474FF00000704700BF80B582B0EE
:1011000000AF7860084611461A460346FB700B464E
:10111000BB7013467B702F4A7B681360FB785B00C3
:10112000DAB22C4B1A712B4ABB785371294A7B785F
:101130009371284B0822DA71322004F01FFA254BF4
:10114000DB79184600F030F94FF47A7004F016FAA3
:10115000302000F017F9052004F010FA302000F0DC
:1011600011F9052004F00AFA302000F00BF90120F3
:1011700004F004FA202000F005F9164B00221A7240
:10118000144B9B79012B06D9124B1B7A43F00803B1
:10119000DAB2104B1A720F4B1B7A43F02003DBB20A
:1011A000184600F09DF80B4B04225A7200F01EF80E
:1011B000084B02229A72074B9B7A43F00403DBB27E
:1011C000184600F08DF800F007F800BF0837BD465C
:1011D00080BD00BF0C02002080B500AF012000F0F0
:1011E0007FF8022004F0CAF900BF80BD80B500AFCF
:1011F000084B5B7A43F00403DAB2064B5A72054B94
:101200005B7A43F00803DBB2184600F069F800BFD0
:1012100080BD00BF0C02002080B500AF084B5B7A98
:1012200023F00103DAB2064B5A72054B5B7A43F0A6
:101230000803DBB2184600F053F800BF80BD00BFC2
:101240000C02002080B500AF084B5B7A43F001032D
:10125000DAB2064B5A72054B5B7A43F00803DBB2F5
:10126000184600F03DF800BF80BD00BF0C02002012
:1012700080B500AF034B0822DA71002000F094F82B
:1012800000BF80BD0C02002080B584B000AF0346D3
:101290000A46FB711346BB710F4BFB600F4B9B79EA
:1012A000BA799A4203D30D4B9B79013BBB71BB7951
:1012B00010333B4413F8042CFB791344DBB25BB2CC
:1012C00063F07F035BB2DBB2184600F009F800BFA1
:1012D0001037BD4680BD00BF004014540C020020F2
:1012E00080B582B000AF0346FB71FB790021184640
:1012F00000F027F800BF0837BD4680BD80B582B03A
:1013000000AF0346FB71FB790121184600F019F884
:1013100000BF0837BD4680BD80B582B000AF7860A1
:1013200006E07B685A1C7A601B781846FFF7E6FFD8
:101330007B681B78002BF4D100BF00BF0837BD4687
:1013400080BD80B584B000AF03460A46FB711346EA
:10135000BB71FB7923F00F03FB73FB791B01BB739C
:10136000FA7BBB791343DBB2184600F00BF8BA7B6B
:10137000BB791343DBB2184600F004F800BF103706
:10138000BD4680BD80B582B000AF0346FB71FB79DE
:10139000184600F009F8FB79184600F023F800BF62
:1013A0000837BD4680BD000080B586B002AF034659
:1013B000FB710B4BDA79FB791343DBB23B73084BC0
:1013C0001868074B1B79194607F10C020A23009392
:1013D000012304F0FDFE00BF1037BD4680BD00BFF5
:1013E0000C02002080B582B000AF0346FB71FB7990
:1013F00043F00403DBB21846FFF7D6FFFB7923F076
:101400000403DBB21846FFF7CFFF00BF0837BD4625
:1014100080BD80B500AFFFF715FF00BF80BD80B570
:1014200000AFFFF7F9FE00BF80BD80B584B000AF0C
:1014300078600B46FB701346BB70FB7863F07F034C
:10144000FB70FB783B73BB787B737B6858687B6869
:101450001B890022194604F047FD7B68186807F1D4
:101460000C014FF0FF33022205F08AFE7B685868BA
:101470007B681B890122194604F036FD00BF103736
:10148000BD4680BD80B584B000AFF8607A601A4672
:101490000B46FB721346BB72FB7A03F07F03DBB291
:1014A000FB72FB685868FB681B890022194604F030
:1014B0001BFDFB68186807F10B014FF0FF33012299
:1014C00005F05EFEFB681868BB7A9AB24FF0FF33F6
:1014D000796805F099FFFB685868FB681B89012251
:1014E000194604F001FD00BF1037BD4680BD80B530
:1014F00084B000AF78600B46FB700023FB7307F1EC
:101500000F02F97801237868FFF7BCFFFB7B1846D0
:101510001037BD4680BD80B584B000AF78600B4603
:10152000FB7007F1080300210A461A800A469A70E8
:1015300007F10802F97803237868FFF7A3FF3B7AE5
:10154000FB60FB681B02FB607B7A1A46FB68134357
:10155000FB60FB681B02FB60BB7A1A46FB68134307
:10156000FB60FB6818461037BD4680BD80B584B06F
:1015700000AFF860B9607A607B80FB68002B05D013
:10158000BB68002B02D07B68002B01D100232BE02D
:10159000FB68BA681A60FB687A685A60FB687A88E8
:1015A0001A81FB680122DA72FB685868FB681B89A4
:1015B0000122194604F098FC00220221F868FFF786
:1015C00034FF10220021F868FFF72FFF00220921C5
:1015D000F868FFF72AFF0321F86800F037F80021C8
:1015E000F86800F005F8012318461037BD4680BDA5
:1015F00080B584B000AF78600B46FB707B68FA78EA
:101600009A7200217868FFF772FF0346FB737B68CC
:101610009B7A022B08D1FB7B63F07F03FB73FB7B80
:1016200023F04003FB7307E0FB7B03F07F03FB73B6
:10163000FB7B43F04003FB73FB7B1A460021786879
:10164000FFF7F3FE00BF1037BD4680BD80B584B004
:1016500000AF78600B46FB7001217868FFF747FF09
:101660000346FB73FB7B23F00F03FB7397F90330F7
:1016700003F00F035AB297F90F3013435BB2FB73B9
:10168000FB7B1A4601217868FFF7CFFE00BF1037B9
:10169000BD4680BD80B582B000AF78600F2178680C
:1016A000FFF725FF034618460837BD4680BD80B5C5
:1016B00084B000AF78600B46FB7000217868FFF7BC
:1016C00016FF0346FB73FB78002B04D1FB7B43F032
:1016D0000103FB7303E0FB7B23F00103FB73FB7B44
:1016E0001A4600217868FFF7A0FE00BF1037BD46FC
:1016F00080BD80B584B000AF78607B689B7A022B98
:1017000014D000217868FFF7F2FE0346FB73FB7BE1
:1017100003F07F03FB73FB7B43F04003FB73FB7B16
:101720001A4600217868FFF780FE00E000BF1037FE
:10173000BD4680BD80B582B000AF78607B689B7A83
:10174000022B01D101230BE000217868FFF7CFFEC7
:10175000034603F04003002B0CBF01230023DBB240
:1017600018460837BD4680BD80B584B000AF7860AC
:101770007B689B7A002B1BD17868FFF7BAFF03F0D8
:10178000F3FEB8600BE003F0EFFE0246BB68D31A2D
:10179000FA2B01D9164B27E00A2003F0EFFE7868F8
:1017A000FFF7C8FF034683F00103DBB2002BEAD149
:1017B0000C217868FFF7AFFE0346FB60FB6803F47B
:1017C0000003002B03D0FB6843F07F43FB60FB6802
:1017D0005B11FB60F868FFF71BFA03464FF070518E
:1017E0001846FFF769FA034618461037BD4680BD14
:1017F0000000C07F80B582B000AF78607B68002BAE
:1018000031D07B681B6A002B2DD07B68DB69002BF5
:1018100029D07B681B6A1A687B68DA627B68DB699F
:101820001A687B681A637B68DA6A7B68DB6B194627
:101830001046FFF7FDFB0346002B04D07B68DA6BF4
:101840007B68DA6210E07B68DA6A7B689B6B19461A
:101850001046FFF7CFFB0346002B05D07B689A6B41
:101860007B68DA6200E000BF0837BD4680BD00003B
:1018700080B586B002AFF860B9607A603B60FB6803
:10188000002B2CD0FB687A681A62FB68BA68DA61B0
:10189000FB683A685A62FB680022DA76124A4FF017
:1018A0000001F86800F0B5F9FB6864225A6397F804
:1018B00028301946F86800F035FA97F8243000937C
:1018C0003B6AFA69B969F86800F0E8F803F04CFE81
:1018D0000246FB685B6BD21AFB689A6200E000BFAD
:1018E0001037BD4680BD00BF00007F4390B58BB070
:1018F00000AF78607B68002B06D07B68DB7E83F0CE
:101900000103DBB2002B01D00023C3E07B68DB695D
:10191000002B07D07B681B6A002B03D07B685B6AB7
:10192000002B01D10023B5E003F01EFE38627B6876
:101930009B6A3A6AD31AFB617B685B6BFA699A42CD
:10194000C0F0A7807B68DB691B68BB617B685B6A52
:101950001B687B61B9697869FFF7A4F803463B61AE
:101960007B681B6B1946B869FFF79CF80346FB6060
:101970007B68DC6A7B681B6939691846FFF79CF94C
:10198000034619462046FFF78FF803461A467B6840
:10199000DA627B689B7E83F00103DBB2002B10D000
:1019A0007B68DC6A7B68DB68F9681846FFF784F9B6
:1019B000034619462046FFF775F803461A467B682A
:1019C000DA627B68DA6A7B68DB6B19461046FFF7E0
:1019D0002FFB0346002B04D07B68DA6B7B68DA624E
:1019E0000EE07B68DA6A7B689B6B19461046FFF74E
:1019F00001FB0346002B03D07B689A6B7B68DA629D
:101A00007B689B7E002B08D07B68DB6819463869B1
:101A1000FFF752F903467B6202E04FF000037B625E
:101A20007B68DC6A7B685B69F9681846FFF744F9F4
:101A3000034619462046FFF735F803461946786AEB
:101A4000FFF732F803467B627B68DB6B1946786AE6
:101A5000FFF7EEFA0346002B03D07B68DB6B7B625B
:101A60000BE07B689B6B1946786AFFF7C3FA034665
:101A7000002B02D07B689B6B7B627B681B6A7A6A57
:101A80001A607B68BA691A637B683A6A9A620123B2
:101A900000E0002318462C37BD4690BD80B586B0C7
:101AA00000AFF860B9607A603B60FB68002B72D0D1
:101AB0004FF00001B868FFF79DFA0346002B6AD18A
:101AC0004FF000017868FFF795FA0346002B62D1CA
:101AD0004FF000013868FFF78DFA0346002B5AD10A
:101AE000FB6897F820205A7697F82030012B0CBF1E
:101AF00001230023DAB2FB689A76FB68BA681A60A1
:101B0000FB687A685A60FB683A689A60FB685B6BAE
:101B10001846FFF779F8034621491846FFF780F980
:101B200003467B61FB68BA68DA6079697868FFF719
:101B3000C3F803461A46FB681A6179693868FFF7EB
:101B40006FF903461A46FB685A61FB681B7E012B3E
:101B500022D1FB68DB6819464FF00000FEF7A2FFB8
:101B600003461A46FB68DA60FB681B6919464FF0AA
:101B70000000FEF797FF03461A46FB681A61FB68F0
:101B80005B6919464FF00000FEF78CFF03461A46CA
:101B9000FB685A6100E000BF1837BD4680BD00BF3A
:101BA00000007A4490B585B000AF786039607B68FA
:101BB000002B2AD03B68002B28D03868FFF724F888
:101BC00004467B685B6B1846FFF71EF80346194610
:101BD0002046FFF725F90346FB607B681B69F9681F
:101BE0001846FFF769F803461A467B681A617B6856
:101BF0005B69F9681846FFF713F903461A467B68D4
:101C00005A617B683A685A6300E000BF1437BD46EA
:101C100090BD80B584B000AFF860B9607A60FB68B1
:101C2000002B57D07968B868FFF7F8F90346002B06
:101C300050D1FB68BA689A63FB687A68DA63FB681C
:101C4000DB7E002B47D0FB681B6A002B22D0FB6891
:101C50001B6A1A68FB68DB6B19461046FFF7E8F948
:101C60000346002B05D0FB681B6AFA68D26B1A602A
:101C700010E0FB681B6A1A68FB689B6B19461046EC
:101C8000FFF7B8F90346002B04D0FB681B6AFA681B
:101C9000926B1A60FB68DA6AFB68DB6B19461046C8
:101CA000FFF7C6F90346002B04D0FB68DA6BFB682C
:101CB000DA6210E0FB68DA6AFB689B6B1946104633
:101CC000FFF798F90346002B05D0FB689A6BFB6879
:101CD000DA6200E000BF1037BD4680BD80B584B039
:101CE00000AF78600B46FB707B68002B16D0FB784A
:101CF000012B0CBF01230023FB73FB7B002B09D0BE
:101D00007B68DB7E83F00103DBB2002B02D07868B6
:101D1000FFF770FD7B68FA7BDA7600E000BF1037D2
:101D2000BD4680BD80B582B000AF78600B46FB70C9
:101D30007B68002B2DD07B68DB7E002B25D07B6859
:101D40001B7EFA789A4220D07B68DB6819464FF0F8
:101D50000000FEF7A7FE03461A467B68DA607B6840
:101D60001B6919464FF00000FEF79CFE03461A4619
:101D70007B681A617B685B6919464FF00000FEF7CB
:101D800091FE03461A467B685A617B68FA781A7698
:101D900000E000BF0837BD4680BD80B483B000AF0F
:101DA00078607B681B6818460C37BD4680BC70475E
:101DB00080B483B000AF78607B685B6818460C37EE
:101DC000BD4680BC704780B483B000AF78607B684C
:101DD0009B6818460C37BD4680BC704780B483B002
:101DE00000AF78607B68DB7E18460C37BD4680BC50
:101DF0007047000080B584B000AF0346FB8003F05D
:101E0000B3FBF860FB88B3F5807F0CD12A4B1B68CD
:101E1000FA68D31AC82B06D9284B01221A70264A11
:101E2000FB68136043E0FB88B3F5007F0CD1244BC3
:101E30001B68FA68D31AC82B06D9224B01221A70E4
:101E40001F4AFB68136032E0FB88B3F5004F0CD1EA
:101E50001D4B1B68FA68D31AC82B06D91B4B0122ED
:101E60001A70194AFB68136021E0FB88B3F5006F14
:101E70000CD1174B1B68FA68D31AC82B06D9154B1F
:101E800001221A70124AFB68136010E0FB88B3F558
:101E9000806F0CD1104B1B68FA68D31AC82B06D977
:101EA0000E4B01221A700C4AFB681360FFE700BF5B
:101EB0001037BD4680BD00BF7C030020900300208A
:101EC00080030020910300208C0300209203002057
:101ED0008803002093030020840300209403002043
:101EE00080B483B000AF78607B681B68B3F1804F2B
:101EF00016D10E4B1B78DBB2012B11D10C4B1B788A
:101F0000DBB2002B0CD10B4B1B680133094A136069
:101F1000094B1B78DBB2002B02D1084B01221A704F
:101F200000BF0C37BD4680BC704700BFE0030020F7
:101F300079030020E4030020E103002014000020C6
:101F400080B584B000AF786039603868FEF70AF970
:101F5000F860FB68102B01D91023FB60FA68396820
:101F6000786807F03AF800BF1037BD4680BD000022
:101F700080B483B000AF0346FB71FB79082B01D915
:101F800000231AE0FB790F4ADB0013441B791A4641
:101F90004FF4616303FB02F2FB790A49DB000B4457
:101FA0005B7919460B461B015B1A9B001A44FB79AF
:101FB0000449DB000B449B79134418460C37BD469B
:101FC00080BC70479803002080B483B000AF2A4BD8
:101FD0001B78002B03D0284B1B78092B02D9264BEA
:101FE00001221A700023FB713CE0FB79234A12F8AE
:101FF0003330002B0AD0FB79204A12F83330012B02
:1020000004D0FB791D4A002102F83310FB791B4AEA
:10201000DB0013445B88B3F5A06F06D9FB79174A40
:10202000DB0013444FF4A0625A80FB79134ADB00B3
:1020300013445B793B2B05D9FB79104ADB00134431
:102040003B225A71FB790D4ADB0013449B793B2BF1
:1020500005D9FB79094ADB0013443B229A71FB79CD
:102060000133FB71FB79082BBFD900BF00BF0C37D0
:10207000BD4680BC704700BF1100002098030020BF
:1020800080B400AF2C4B1B78002B50D02A4B1A7811
:102090002A4B1B789A424AD8294B1B78DBB2032B78
:1020A00013D1284B1B88B3F5A06F03D9254B4FF4F0
:1020B000A0621A80204B1B78013B224A1188224AD9
:1020C000DB0013440A465A8032E01D4B1B78DBB21A
:1020D000042B2DD11D4B1B783B2B02D91B4B3B22D4
:1020E0001A701B4B1B783B2B02D9194B3B221A70E1
:1020F000114B1B78013B174A1178134ADB0013443C
:102100000A461A710C4B1B78013B104A11780E4A93
:10211000DB0013440A465A71074B1B78013B0C4AFB
:102120001178094ADB0013440A469A7100E000BFA7
:10213000BD4680BC704700BF130000201100002086
:10214000E1030020FC03002098030020FF0300208F
:1021500000040020FE03002080B500AF0022802193
:10216000234803F0C1FE2348FFF738FE0346002B47
:1021700003D000211F48FFF7B1FD1F4B4FF00002B5
:102180001A601E4B4FF000021A601A4B4FF000020B
:10219000DA621B4B00221A701A4B1B681A4A136032
:1021A0001A4B4FF000021A60194B4FF000021A60F0
:1021B000184B00221A70184BFF221A70114B1B6823
:1021C000164A13600F4B1B68154A1360154B4FF0EE
:1021D00000021A60144B4FF000021A60094B1B6892
:1021E000124A1360124B00221A7000BF80BD00BF5C
:1021F000000C0140180300205C030020680300204D
:102200003D04002058030020400400204404002026
:10221000480400204C040020160000205004002038
:1022200054040020580400205C04002060040020B6
:102230006404002080B582B000AF0346FB71FB79D7
:10224000002B0BD0074AFB791370074B00221A7042
:10225000FFF782FF054B01221A7000E000BF08372C
:10226000BD4680BD79030020E0030020140000205B
:1022700080B582B000AFFFF7A7FE504B1B78DBB2F2
:10228000002B06D14E4B1B7883F00103DBB2002BF1
:1022900015D04B4B1B7883F00103DBB2002B07D02A
:1022A000464B1B78DBB2002B02D1444B02221A7042
:1022B000444B00221A70FFF74FFF002379E0EFF341
:1022C00010833B603B687B6072B600BF3E4B0022D0
:1022D0001A603E4B01221A703D4B00221A603D4BA2
:1022E0001B683D4A13600020FFF742FE03463B4A4D
:1022F0001360344B01221A707B68002B01D162B647
:1023000000BF344B1B68364A1360354B1B68354A97
:102310001360354B4FF000021A60344B4FF000024F
:102320001A60334B4FF00002DA622A4B1B68304AC6
:10233000136303F019F902462D4B5B6BD31A2C4A39
:1023400093622C4A4FF000012B4800F067FF2B4BA3
:1023500000221A7003F008F90346294A1360294B3A
:10236000294A1A601B4B1B68284A1360194B1B68CB
:10237000274A1360274B4FF000021A60264B4FF09C
:1023800000021A60134B1B68244A1360244B00227E
:102390001A701B4B1B68184600F010FE002000F05E
:1023A00041F8084B1B78DBB2012B0CBF0123002343
:1023B000DBB218460837BD4680BD00BF7903002058
:1023C00077030020E0030020E40300201200002037
:1023D000F003002058030020F4030020E80300204D
:1023E00060030020700300205C03002068030020CD
:1023F0001803002000007A430000A04110000020D4
:1024000064030020180000200000A04050040020B9
:1024100054040020580400205C04002060040020C4
:102420006404002080B586B000AF78600023FB759F
:102430006BE03E4B1B78013BBB75BB7D1846FFF73D
:1024400097FD3861BB7D3A4A12F83330012B0CBF3F
:1024500001230023FB73FB7B002B10D03B69002B77
:102460000DD0BB7D184600F0EDF8034683F0010364
:10247000DBB2002B03D02F4B01221A7052E02D4B00
:1024800000221A70FB7D0133FB75284B1A782A4B0A
:102490001B789A4231D2294B1B687A68934238BF25
:1024A0001346BB60214B1B780133DAB21F4B1A7005
:1024B000234ABB681360234B1B78002B02D0224BAE
:1024C0001B6808E0BB7D1A4ADB0013445B88184692
:1024D000FEF79AFB03461D4A1360144B1B78013B21
:1024E000DBB21846FFF744FD0246BB681344134AAB
:1024F0001360174B01221A7007E0164B02221A7064
:10250000FFF72AFE124B01221A70124B1B78DBB226
:10251000012B07D1094B1B687A689A4202D3FB7DD5
:10252000082B86D91837BD4680BD00BF1200002099
:10253000980300206404002011000020E80300201C
:10254000F00300207703002058030020F40300204C
:1025500014000020E003002090B589B000AF78603F
:10256000334B1B78013BFB75FB7D324ADB00134488
:102570005B881846FEF748FB03463B61FB7D2D4A0E
:1025800012F83330002B01D13B694CE0FB7D18463B
:10259000FFF7EEFCF860FB68002B01D13B6942E0DD
:1025A000254B1B687A68D31AFB61FA69FB689A426B
:1025B00001D9FB68FB61F869FEF726FB0446F86861
:1025C000FEF722FB034619462046FEF729FC034688
:1025D000BB601A4B1B6819463869FEF763FA03465D
:1025E000B9681846FEF768FB03461A46134B1B688A
:1025F00019461046FEF758FA0346BB614FF000013A
:10260000B869FEF7F7FC0346002B02D04FF0000339
:10261000BB610B49B869FEF70BFD0346002B01D0E7
:10262000074BBB61BB6918462437BD4690BD00BF50
:102630001200002098030020F0030020F403002083
:102640000000A04490B585B000AF0346FB71FB7954
:10265000082B2AD8394B1B7883F00103DBB2002BFF
:1026600023D1374B1B6823F0004436492046FEF740
:10267000E9FC0346002B18D132492046FEF7D8FC6E
:102680000346002B11D1304B1B6823F000442D4929
:102690002046FEF7D7FC0346002B06D129492046E9
:1026A000FEF7C6FC0346002B01D0002342E0FB7975
:1026B000264ADB0013445B881846FEF7A5FA03465A
:1026C000FB60234B1B684FF07E511846FEF7EAF97A
:1026D00003461946F868FEF78DFC0346002B01D02F
:1026E000012327E0164B1B68F9681846FEF7DAF954
:1026F000034623F000434FF07E511846FEF784FC5A
:102700000346002B12D0104B1B68F9681846FEF7E1
:10271000C9F9034623F000434FF080411846FEF705
:1027200073FC0346002B01D0012300E0002303F0DB
:102730000103DBB218461437BD4690BD7703002075
:1027400058030020FFFF7F7F6C03002098030020C8
:10275000F403002090B58FB000AF78603960944BDF
:102760001B78013B87F82F3097F82F30914ADB0018
:1027700013445B881846FEF747FA0346BB6297F896
:102780002F301846FFF7F4FB78628B4A3B681360E2
:102790008A4B4FF000021A607B6A002B08D0884BEE
:1027A0001B681946B86AFEF72FFC0346002B04D0BD
:1027B000844ABB6A1360BB6AF5E0834B1B687A6886
:1027C0009A4204D2804B1A687B68D31A00E0002337
:1027D0003B627E4B1B681946B86AFEF763F90346F5
:1027E000FB61774B1B681946B86AFEF75BF9034635
:1027F00077491846FEF760FA03461C46786AFEF7EA
:1028000003FA034619462046FEF70AFB0346BB615E
:102810003B6A002B1AD04FF00001F869FEF708FC64
:102820000346002B12D0386AFEF7EEF903466849DA
:102830001846FEF7F5FA03467B617969F869FEF7F9
:10284000EFFA03461A465D4B1A600AE04FF07E51DC
:10285000F869FEF7EDFB0346002B02D0574B5D4AAB
:102860001A60564B1B685B491846FEF7E1FB0346AE
:10287000002B02D0514B574A1A60504B1B684FF047
:1028800000011846FEF7B6FB0346002B03D04B4B66
:102890004FF000021A604D4B1B6819463868FEF76E
:1028A00001F903463B614C4B1B684FF00001184691
:1028B000FEF7BEFB0346002B02D0474B1B6801E02E
:1028C0004FF00003FB603D4B1B68F9681846FEF7AC
:1028D000E9F80346BB60BB697B634FF000013869D0
:1028E000FEF7A6FB0346002B0AD03C493869FEF7E9
:1028F000E3F903461946786BFEF7D6F803467B6387
:102900004FF00001B868FEF793FB0346002B0AD096
:102910003249B868FEF7D0F903461946786BFEF7DE
:10292000C3F803467B634FF00001786BFEF762FB50
:102930000346002B02D04FF000037B632849786BDD
:10294000FEF776FB0346002B01D0254B7B63796BAA
:102950003868FEF7A9F803463B633B6A002B01D1B8
:10296000BB6A3B63B96A386BFEF762FB0346002B18
:1029700001D0BB6A3B634FF00001386BFEF73AFBB6
:102980000346002B02D04FF000033B631549386B20
:10299000FEF74EFB0346002B01D0124B3B63094A66
:1029A0003B6B13603B6B18463C37BD4690BD00BF88
:1029B000120000209803002050040020580400203A
:1029C000F403002054040020E803002058030020F2
:1029D0000000704200002042300400209A99993F84
:1029E000000034420000A04490B585B000AF4C4BCD
:1029F0001B78DBB2012B40F08A804A4B1B78012BFD
:102A000040F08580484B1B6848491846FEF7F2FAAB
:102A10000346002B7BD1464B1B6846491846FEF700
:102A2000E9FA0346002B72D1434B1B78013BFB7242
:102A3000424B1A68424B1B68D31A7B60FB7A414AAF
:102A4000DB0013445B881846FEF7DEF802463E4B77
:102A50001B6819461046FEF725F803463B607B6865
:102A60003B2B56D939493868FEF7CEFA0346002B7E
:102A70004FD12D4B1B6819463548FEF7D1F9034657
:102A80001A462B4B1B6819461046FEF715F90346EC
:102A9000FB60FB6823F000442E492046FEF7D2FA83
:102AA0000346002B37D12B492046FEF7C1FA0346D7
:102AB000002B30D14FF07C51F868FEF79BFA0346AB
:102AC000002B03D04FF07C53FB6008E02249F868EC
:102AD000FEF7AEFA0346002B01D01F4BFB601F4BE5
:102AE0001B681946F868FDF7DDFF03461C491846C8
:102AF000FEF7E2F803461A46184B1B6819461046C3
:102B0000FDF7D2FF03461A46144B1A6004E000BFDB
:102B100002E000BF00E000BF1437BD4690BD00BF1B
:102B2000E0030020160000206803002000007A4324
:102B300030040020CDCCCC3D12000020E403002066
:102B4000F0030020980300205803002000002041DB
:102B500000007A44FFFF7F7F000020421800002021
:102B60000AD7A33D80B590B000AF78603960794B4B
:102B70001B78013B87F82F3097F82F30764ADB001F
:102B800013445B881846FEF73FF80346BB6297F88C
:102B90002F301846FFF7ECF97862704B1B683A68E3
:102BA0009A4204D26D4B1A683B68D31A00E00023A6
:102BB0003B626B4B1B681946B86AFDF773FF03460F
:102BC000FB61684B1B68664A126811461846FDF7A0
:102BD00069FF0346BB61644B1B684FF00001184658
:102BE000FEF726FA0346002B02D05F4B1B6801E07C
:102BF0004FF000037B615D4B1B6879691846FDF758
:102C000051FF03463B617B6A002B08D0584B1B6881
:102C10001946B86AFEF7F8F90346002B19D0504B55
:102C20001B681946B86AFEF7EFF90346002B0ED071
:102C3000504B4FF000021A604F4B4FF00002DA6227
:102C40004E4B4FF000021A604FF0000396E17B6894
:102C500094E14FF07C51B86AFDF726FF03461A460F
:102C60003F4B1B6819461046FEF7CEF90346002B72
:102C70000FD14FF07C51B86AFDF716FF03461A4694
:102C80003F4B1B6819461046FEF7BEF90346002B62
:102C90000ED0384B4FF000021A60374B4FF0000255
:102CA000DA62364B4FF000021A604FF0000365E124
:102CB000344B1B68FB634FF07C51F86BFEF79AF9BD
:102CC0000346002B02D04FF07C53FB63274B1B685D
:102CD000F96B1846FEF7A4F803462B491846FDF792
:102CE000EBFF034629491846FDF7E6FF0346FB6064
:102CF0004FF00003BB634FF00001B869FEF798F98D
:102D00000346002B0AD02249B869FDF7D5FF0346D8
:102D10001946B86BFDF7C8FE0346BB634FF00001D0
:102D20003869FEF785F90346002B0AD0194938693E
:102D3000FDF7C2FF03461946B86BFDF7B5FE034623
:102D4000BB63B96BF868FEF773F90346002B23D019
:102D5000FB6822E01200002098030020E803002016
:102D600058030020500400203004002058040020A4
:102D7000F40300205C030020180300205C04002002
:102D80006C0300201800002000007A446666863F2D
:102D90000000A04100000C42BB6B7A4A13603B6A02
:102DA000002B0AD14FF07E51F869FEF741F9034636
:102DB000002B02D0734B744A1A60724B1B684FF0A1
:102DC00000011846FEF716F90346002B03D06D4BA1
:102DD0004FF000021A606B4B1B686B491846FEF7F8
:102DE00027F90346002B02D0664B674A1A607B68BE
:102DF0007B63644B1B681946786BFEF7FBF8034650
:102E0000002B02D05F4B1B687B6360497869FDF73C
:102E100053FF03461A465E4B1B6819461046FDF7E2
:102E200043FE03461A465B4B1A605B49F869FEF79E
:102E3000EBF80346002B22D058497869FEF7EEF8EC
:102E40000346002B1BD04FF07A51B86AFDF72AFEDB
:102E500003461A464F4B1B6819461046FEF7D4F836
:102E60000346002B0BD04FF000037B634C4B4FF01D
:102E700000021A604B4B4FF00002DA622BE0424B2B
:102E80003B634FF07F51F869FEF7BEF80346002B15
:102E900002D0454B3B6309E04FF08141F869FEF7F2
:102EA000B3F80346002B01D0404B3B63396B786B82
:102EB000FEF7BEF80346002B01D03B6B7B63394B1A
:102EC000DB6A1946386BFEF795F80346002B02D0F3
:102ED000344A3B6BD3624FF00001F869FEF794F877
:102EE0000346002B0AD04FF000037B632C4B4FF0BE
:102EF00000021A602B4B4FF00002DA622C49786B0B
:102F0000FEF796F80346002B17D02A49786BFEF798
:102F100071F80346002B10D04FF07C51B869FEF7D2
:102F200087F80346002B06D123493869FEF780F85D
:102F30000346002B01D01F4B7B634FF00001786BE1
:102F4000FEF758F80346002B02D04FF000037B63D6
:102F50000D49786BFEF76CF80346002B01D00A4B45
:102F60007B630F4B1B681946786BFEF743F80346EB
:102F7000002B02D00A4A7B6B13607B6B18464037EC
:102F8000BD4680BD5C04002000007A440000204063
:102F90005803002060040020000020410AD7A33D10
:102FA0005C03002018030020000034430000AF43FE
:102FB0000000A04100002042CDCC4C3EB0B582B014
:102FC00000AF7860254B00221A70254B1B68254AFC
:102FD0001360254B4FF000021A60244B4FF00002A3
:102FE0001A60234B4FF000021A601D4B1B68214AE8
:102FF0001360214A7B681360204B1B78002B1DD087
:10300000174B1B6823F0004401231D461C49204632
:10301000FEF718F80346002B08D119492046FEF7A1
:1030200007F80346002B01D100231D46EBB283F0C5
:103030000103DBB2002B01D0012300E0002303F0E9
:103040000103DAB20F4B1A700F4B00221A700F4BAC
:10305000FF221A7000BF0837BD46B0BD3D040020F6
:1030600058030020400400204404002048040020AD
:1030700030040020340400203804002077030020AE
:10308000FFFF7F7F3C0400204C040020160000203E
:1030900090B587B000AF7860564B1B7883F0010382
:1030A000DBB2002B40F09E80534B1B6823F00044A2
:1030B00052492046FDF7C6FF0346002B40F09280A0
:1030C0004E492046FDF7B4FF0346002B40F08A80AE
:1030D0004B4B1B7883F00103DBB2002B0ED0494B26
:1030E0004FF000021A60444B1B68474A1360474A7E
:1030F0007B681360424B01221A7078E0434B1B68D7
:103100007A68D31A3B613B6941F2873293426BD9AB
:103110003869FDF779FD03463D491846FDF780FE05
:103120000346FB604FF00001F868FDF76DFF0346B2
:10313000002B5BD1304B1B68334A1268114618468E
:10314000FDF7B0FC0346F9681846FDF769FE034633
:103150007B617B6923F0004428492046FDF772FF1C
:103160000346002B06D125492046FDF761FF0346A3
:10317000002B02D04FF000037B6126497869FDF7F0
:1031800057FF0346002B02D0224B7B6108E0224907
:103190007869FDF72FFF0346002B01D01E4B7B61A2
:1031A000184B1B6819467869FDF77CFC03464FF005
:1031B0007A511846FDF780FD03461A46114B1B68ED
:1031C00019461046FDF770FC03461A460D4B1A606F
:1031D000094B1B680C4A13600C4A7B681360FFF7AD
:1031E00003FC04E000BF02E000BF00E000BF1C37AA
:1031F000BD4690BD7703002058030020FFFF7F7F6E
:103200003C04002030040020340400203804002056
:1032100000606A470000A0420000A0C290B589B0DB
:1032200002AFF860B9607A602D48FEF7B6FD03463C
:10323000F9681846FDF736FC034623F00043294998
:103240001846FDF7F5FE0346002B23D12448FEF770
:10325000AFFD0346B9681846FDF724FC034623F08A
:10326000004320491846FDF7E3FE0346002B11D129
:103270001B48FEF7A8FD034679681846FDF712FCC7
:10328000034623F0004317491846FDF7D1FE0346D5
:10329000002B01D0012300E00023FB75FB7D03F030
:1032A0000103FB75FB7D002B07D0012300937B6896
:1032B000BA68F9680A48FEF7F1FB01231C464FF093
:1032C0000001B868FDF7B4FE0346002B01D10023CE
:1032D0001C46E2B2044B1A7000BF1C37BD4690BDBD
:1032E0001803002017B7D1381000002080B584B033
:1032F00000AF786010497868FDF7DEFC03460F499F
:103300001846FDF7D1FB0346FB600D49F868FDF751
:1033100071FE0346002B01D0094BFB600949F86898
:10332000FDF786FE0346002B01D0064BFB60FB68D1
:1033300018461037BD4680BD6666E63E0000344341
:1033400000007A430080544480B584B000AF034647
:103350003960FB71384B1B78FA799A4267D0FB7958
:10336000012B1AD1354B1B684FF000011846FDF7B1
:103370005FFE0346002B03D0304B1B68304A1360BE
:10338000304B4FF000021A602C4B4FF000021A60D5
:103390002D4B4FF00002DA6245E0FB79002B0CD197
:1033A000284B4FF000021A60244B4FF000021A60C5
:1033B000254B4FF00002DA6235E0214B1B684FF0DD
:1033C0007A511846FDF778FC0346FB603868FFF732
:1033D0008DFFB860B968F868FDF72AFE0346002B38
:1033E00001D0BB68FB604FF00001F868FDF702FEFA
:1033F0000346002B02D04FF00003FB60124AFB682B
:10340000D362104AFB6813600C4AFB6813600F4BD1
:103410001B680D4A136302F0A7F802460A4B5B6B68
:10342000D31A094A9362044AFB79137000E000BF83
:103430001037BD4680BD00BF3D040020680300205A
:10344000480400205C0300201803002058030020DB
:1034500080B584B000AF7860396039687868FDF76E
:1034600021FB0346FB608B4B1B684FF000011846A5
:10347000FDF7DEFD0346002B02D0864B1B6801E002
:103480004FF00003BB604FF08141B868FDF714FCBA
:10349000034639681846FDF707FB03461A467E4B7C
:1034A0001A607E4B1B78002B02D0012B62D0A5E066
:1034B0004FF07C517868FDF7F7FA034619463868F3
:1034C000FDF7ACFD0346002B0FD14FF07C5178681F
:1034D000FDF7EAFA03461A46714B1B681946104677
:1034E000FDF792FD0346002B04D079680120FFF719
:1034F0002BFF3EE06B49F868FDF786FD0346002B85
:103500001AD06949B868FDF789FD0346002B13D02E
:1035100066497868FDF7C6FA03461A465E4B1B6893
:1035200019461046FDF770FD0346002B04D079685C
:103530000120FFF709FF1CE0FB6823F000434FF078
:103540007F511846FDF760FD0346002B00D19DE03A
:10355000504B1B6823F0004355491846FDF754FDB6
:103560000346002B00D191E079680220FFF7ECFEC2
:103570008CE08BE04F49F868FDF75AFD0346002BBD
:103580000ED0444B1B684FF000011846FDF73CFD80
:103590000346002B04D079680020FFF7D5FE75E0C4
:1035A0004FF07E51F868FDF739FD0346002B08D037
:1035B000384B1B6840491846FDF726FD0346002B93
:1035C00017D1FB6823F000434FF07F511846FDF7F9
:1035D0001BFD0346002B00D158E02E4B1B6823F047
:1035E000004333491846FDF70FFD0346002B00D179
:1035F0004CE079680220FFF7A7FE47E04FF07C51CE
:103600007868FDF751FA034619463868FDF706FD5C
:103610000346002B28D14FF07C517868FDF744FA1F
:1036200003461A461E4B1B6819461046FDF7ECFC74
:103630000346002B18D1174B1B681D491846FDF790
:10364000F7FC0346002B14D04FF07C517868FDF74F
:103650002BFA03461A46104B1B6819461046FDF715
:10366000D3FC0346002B04D079680120FFF76CFEE1
:103670000BE01049F868FDF7DBFC0346002B00D196
:1036800003E079680020FFF75FFE00BF00BF10373E
:10369000BD4680BD30040020400400203D040020D1
:1036A0006C030020000040410AD7A33D9A99993E3F
:1036B000CDCC4C3E000040409A99193E80B586B072
:1036C00000AFF860B9607A60FB687B617968B868C0
:1036D000FDF7E8F903463B618B4B1B78012B1CD0AF
:1036E0004FF07C51B868FDF7DFF90346194678685A
:1036F000FDF794FC0346002B0FD14FF07C51B868C6
:10370000FDF7D2F903461A46804B1B68194610464E
:10371000FDF77AFC0346002B0ED07D4B4FF00002E4
:103720001A607C4B4FF00002DA627B4B4FF00002D4
:103730001A604FF00003E2E0734B1B78002B69D155
:103740004FF000013869FDF75FFC0346002B0ED0F7
:103750006F4B4FF000021A606E4B4FF00002DA62BE
:103760006D4B4FF000021A604FF00003C7E06B4949
:103770003869FDF75DFC0346002B03D0664B684AB1
:103780001A607BE067493869FDF752FC0346002B5D
:1037900003D0614B644A1A6070E064493869FDF7F0
:1037A00047FC0346002B03D05B4B614A1A6065E07F
:1037B00060493869FDF73CFC0346002B03D0564BAB
:1037C0005D4A1A605AE05D493869FDF731FC0346ED
:1037D000002B03D0504B5A4A1A604FE04FF0804103
:1037E0003869FDF725FC0346002B03D04A4B554AA8
:1037F0001A6043E04FF07E513869FDF719FC03462B
:10380000002B03D0444B504A1A6037E0424B4F4ADA
:103810001A6033E0B868FFF769FD03463E4A13605B
:103820004FF000013869FDF7EFFB0346002B02D093
:103830004FF000037B614FF07A513869FDF7F8FBD8
:103840000346002B1AD0424B1B684FF0000118466C
:10385000FDF7D0FB0346002B10D04FF00001786934
:10386000FDF7E6FB0346002B08D02C497869FDF7ED
:10387000C1FB0346002B01D0284B7B61264B1B6804
:1038800019467869FDF7D4FB0346002B02D0224B82
:103890001B687B614FF000017869FDF7ABFB0346C5
:1038A000002B02D04FF000037B611A4BDB6A1A4AEF
:1038B000126811461846FDF7BBFB0346002B03D0E8
:1038C000154B1B68134AD362124BDB6A4FF00001A1
:1038D0001846FDF78FFB0346002B03D00D4B4FF02E
:1038E0000002DA620A4B1B6819467869FDF782FB11
:1038F0000346002B02D0064A7B6913607B69184699
:103900001837BD4680BD00BF3D0400206C03002079
:103910005C03002018030020440400200000204223
:1039200000007A440000A04100004844000020410B
:10393000008009440000A0400000A0430000404077
:1039400000005C43000020430000F0420000B4424D
:1039500030040020B0B584B000AF7860984B1B688D
:103960007A68D31AF92B40F22581954A7B68136057
:10397000944B1B7883F00103DBB2002B03D00220B1
:10398000FEF758FC19E19048FDF784FE03461A46FD
:103990008E4B1A708D4B1B78002B09D08C4B00225C
:1039A0001A708C4B00221A700120FEF743FC04E1D0
:1039B0008548FDF7D9FEF860FB6823F00044012339
:1039C0001D4685492046FDF73DFB0346002B08D1E7
:1039D00081492046FDF72CFB0346002B01D1002333
:1039E0001D46EBB283F00103DBB2002B0FD07B4905
:1039F000F868FDF713FB0346002B08D07849F868F8
:103A0000FDF702FB0346002B01D0012300E0002359
:103A1000FB72FB7A03F00103FB72FB7A83F0010374
:103A2000DBB2002B15D06B4B00221A70684B1B7851
:103A3000FF2B05D0664B1B780133DAB2644B1A704A
:103A4000634B1B78022B40F2B7800220FEF7F2FB9B
:103A5000B2E05F4B00221A70624AFB681360624B4F
:103A60001B7883F00103DBB2002B11D15F4B1B6885
:103A700023F0004458492046FDF7E4FA0346002BA2
:103A800006D155492046FDF7D3FA0346002B03D053
:103A9000564AFB68136016E0544B1B681946F868D9
:103AA000FDF700F8034652491846FDF705F90346AD
:103AB0001A464E4B1B6819461046FCF7F5FF0346A5
:103AC0001A464A4B1A60494B1B684A4A1360474BD7
:103AD0001B68494A1360444B01221A707868FFF74B
:103AE000D7FA4649F868FDF799FA0346002B08D142
:103AF0003E4B1B6841491846FDF790FA0346002BE0
:103B000006D0344B00221A700320FEF793FB48E0E6
:103B10003B4B1B78DBB2032B21D1344B1B6839495B
:103B20001846FDF771FA0346002B14D0294B1B7879
:103B3000FF2B05D0274B1B780133DAB2254B1A70C7
:103B4000244B1B78032B2CD92D4B00221A70214BB0
:103B500000221A7025E01F4B00221A7021E0284B2A
:103B60001B78DBB2012B04D0254B1B78DBB2022B78
:103B700014D1184B1B78FF2B05D0164B1B78013343
:103B8000DAB2144B1A70134B1B78032B09D91C4B58
:103B900000221A700F4B00221A7002E00D4B002217
:103BA0001A70194B1B78DBB2002B06D1174B012280
:103BB0001A7002E000BF00E000BF1037BD46B0BD84
:103BC0002C040020780300200C0300207403002044
:103BD0007503002076030020FFFF7F7F000048C2AE
:103BE0000000E1446C030020770300200C0000205B
:103BF000CDCC4C3EEC030020580300200080A244B2
:103C00007903002000409C44E103002014000020C0
:103C100080B588B000AF786039608C4B1B78DBB220
:103C2000012B0BD18A4B1B78DBB2002B06D1894BC1
:103C30001B7883F00103DBB2002B02D0FEF78CFA75
:103C4000A8E1854B1B78013BFB77FB7F834A12F889
:103C50003330BB77BB7F002B0CBF012300237B7766
:103C60007F4B1A787C4B1B789A4204D17D4B1B7892
:103C7000BA7F9A4244D07C4B00221A707B4B1B685F
:103C80007B4A13607B4B4FF000021A607A4B4FF077
:103C900000021A60794B4FF00002DA62784B4FF065
:103CA00000021A60774B4FF000021A606A4B1A78D4
:103CB0006B4B1A706B4ABB7F13706C4B1B68724A5C
:103CC00013606A4B1B68714A1360714B4FF000021E
:103CD0001A60704B4FF000021A60644B1B686E4A0A
:103CE00013606E4B00221A707B7F83F00103DBB2FE
:103CF000002B05D06A4A4FF000016A48FFF78EFAA0
:103D00003868FEF729FCB8617B7F002B05D1B969C3
:103D10003868FEF71FFD034600E0BB69624A136086
:103D20005648FEF75BF80346012B03D001215348A8
:103D3000FDF7D4FF5C4B1B684C4A126811461846CD
:103D4000FCF7B0FE03467B617B6923F000433B61D7
:103D5000564B1B684FF07A511846FCF7A3FE0346FA
:103D60001A46514B1B6819461046FDF761F9034688
:103D7000002B03D0414B4FF00002DA627B7F002B17
:103D80001CD0494B1B68394A126811461846FFF788
:103D90005FFB354B1B78022B05D1454A4549464808
:103DA000FFF73CFA37E03E4A4FF000014348FFF787
:103DB00035FA324B4FF00002DA622CE02A4B002237
:103DC0001A70354B1B682A4A13602A4B3C4A1A600A
:103DD0003C493869FDF718F90346002B05D0304AF5
:103DE00039493048FFF71AFA09E02D4A4FF000012F
:103DF0002C48FFF713FA214B4FF00002DA624FF024
:103E00003F417869FDF7F6F80346002B03D01B4BC2
:103E10004FF00002DA621948FDF768FD0346002BF7
:103E200003D0174B1B68174A13607B7F002B4DD0C4
:103E3000144B1B681C4A11680C4A12681846FFF79D
:103E40003DFC03460F4A136049E000BFE003002039
:103E5000790300207703002012000020980300203F
:103E60004C040020160000203D04002058030020D0
:103E700040040020440400204804002018030020CF
:103E80005C0300206803002050040020540400203C
:103E9000580400205C04002060040020640400201A
:103EA00000007A4300000C426003002070030020F1
:103EB00000009643CDCCCC3E0000A0420000A041C3
:103EC00000007A440000F041CDCCCC3D334B1B6860
:103ED00039681846FEF746FE0346304A13602F4BFA
:103EE0001B684FF000011846FDF784F80346002BCD
:103EF00003D02A4B4FF000021A60284B1B68284958
:103F00001846FDF795F80346002B02D0234B244AB0
:103F10001A60244B1B68244A1360244B1B687A6880
:103F2000D31A234AA2FB031292094FF47A7101FBC0
:103F300002F29B1AFB60194B1B681E491846FDF7DD
:103F400063F80346002B05D0002280211A4801F0B7
:103F5000CBFF1FE0114B1B6818491846FDF75EF8B0
:103F60000346002B05D001228021134801F0BCFF3D
:103F700010E00A4B1B681846FDF7A0F80246FB68E4
:103F8000934234BF01230023DBB21A4680210A4842
:103F900001F0AAFF2037BD4680BD00BF68030020A6
:103FA00000007A44600300207003002064030020B6
:103FB000D34D62100000A041000C01400000754488
:103FC00080B586B000AFEFF31083BB60BB687B6148
:103FD00072B600BF9E4B1B78FB749D4B00221A707B
:103FE0009C4B1B78BB749B4B00221A709A4B1B781E
:103FF0007B74994B00221A70984B1B783B74974B3B
:1040000000221A70964B1B78FB73954B00221A7096
:104010007B69002B01D162B600BFFB7C002B1CD05A
:10402000904B1B78DBB2002B08D18E4B01221A700B
:104030008D4B00221A70FEF78FF80AE0FEF720F889
:10404000FDF7C2FF00F0DCFC864B00221A70FEF781
:104050000FF9864B01221A7041E2BB7C002B39D04C
:10406000804B1B78DBB2022B0FD1814B1B780133C5
:10407000DAB27F4B1A707E4B1A787E4B1B789A42CD
:1040800025D97B4B01221A7021E0764B1B78DBB2DD
:10409000032B09D1784B1B780133DBB203F0030308
:1040A000DAB2754B1A7012E06E4B1B78DBB2042B40
:1040B0000DD1724B1B78591C714BA3FB01235A087D
:1040C00013465B001344CA1AD2B26C4B1A70674B8A
:1040D00001221A707B7C002B6ED0624B1B78DBB206
:1040E000042B65DC032B5DDA012B02D0022B0CD0F4
:1040F0005EE0FDF769FF5B4B02221A705C4B012208
:104100001A70604B00221A7053E05E4B1B78002B34
:1041100012D1574B1B78013B5B4A12F83330002B0E
:104120000CBF01230023DAB2514B1B78013B11462F
:10413000554A02F833103CE0524B1B78012B0FD14B
:104140004B4B1B78013B504ADB0013445A884F4BC2
:104150001A80494B00221A70424B03221A7028E041
:10416000434B1B78013B484ADB0013441A79484B08
:104170001A703F4B1B78013B434ADB0013445A79CA
:10418000444B1A703A4B1B78013B3F4ADB00134407
:104190009A79414B1A70394B00221A70314B042224
:1041A0001A7006E0FDF76CFF2E4B02221A7000E039
:1041B00000BF2E4B01221A703B7C002B14BF012341
:1041C0000023DAB2FB7B002B14BF01230023DBB2F8
:1041D0005340DBB2002B00F082813B7C002B14BFEC
:1041E00001230023BB731F4B1B78DBB2013B032B66
:1041F00000F26D8101A252F823F000BF0D420008C9
:104200009D420008D742000811440008BB7B002BE8
:104210000AD0184B1B78082B06D8164B1B78013395
:10422000DAB2144B1A7054E1BB7B83F00103DBB2AA
:10423000002B00F04E810F4B1B78012B40F249817F
:104240000C4B1B78013BDAB20A4B1A7041E100BFFC
:10425000900300209103002092030020930300208C
:1042600094030020E1030020E0030020140000205C
:104270001300002011000020F9030020FA030020A1
:10428000ABAAAAAAF803002098030020FC03002090
:10429000FE030020FF03002000040020BB7B002B56
:1042A0000CD0904B1B78002B04D08E4B1B78013B1D
:1042B000DBB200E002238B4A13700DE1894B1B78BF
:1042C000012B04D8874B1B780133DBB200E00023BD
:1042D000844A137000E1844B1B88844AA2FB0323A9
:1042E0009B099BB2DBB23B717F4B1B88804AA2FBD0
:1042F00003235B099AB27F4BA3FB0213D9080B4639
:104300009B000B445B00D31A9BB2DBB27B71764BF4
:104310001B88784AA2FB0323DB089AB2754BA3FBE8
:104320000213D9080B469B000B445B00D31A9BB2C7
:10433000DBB2BB716C4B1A886E4BA3FB0213D9081E
:104340000B469B000B445B00D31A9BB2DBB2FB71A4
:10435000BB7B002B18D0684B1B7818333B4413F8F9
:10436000143C092B08D0644B1B7818333B4413F8DA
:10437000143C0133DAB200E000225F4B1B781833A3
:104380003B4403F8142C17E05B4B1B7818333B4479
:1043900013F8143C002B08D0574B1B7818333B44C0
:1043A00013F8143C013BDAB200E00922524B1B78AF
:1043B00018333B4403F8142C3B791A465201D21AA5
:1043C00092001344DB009AB27B79194689000B44B2
:1043D00019468800194603460B449B009BB21344C0
:1043E0009AB2BB79194689000B445B009BB2134417
:1043F0009BB2FA7913449AB23B4B1A803A4B1B8812
:10440000B3F5A06F67D9384B4FF4A0621A8062E011
:104410003A4B1B78002B1CD1BB7B002B0CD0384BAC
:104420001B78632B04D0364B1B780133DBB200E0E2
:104430000023334A13704FE0314B1B78002B04D01C
:104440002F4B1B78013BDBB200E063232C4A137037
:1044500042E02A4B1B78012B1CD1BB7B002B0CD0DC
:10446000284B1B783B2B04D0264B1B780133DBB247
:1044700000E00023234A13702EE0224B1B78002B10
:1044800004D0204B1B78013BDBB200E03B231D4AEC
:10449000137021E0BB7B002B0CD01B4B1B783B2BFC
:1044A00004D0194B1B780133DBB200E00023164A1D
:1044B000137011E0144B1B78002B04D0124B1B78A7
:1044C000013BDBB200E03B230F4A137004E000BF66
:1044D00002E000BF00E000BF0C4B01221A70183749
:1044E000BD4680BDF8030020FC030020D34D6210C0
:1044F0001F85EB51CDCCCCCCF9030020FA03002072
:10450000FE030020FF030020000400201400002010
:1045100080B59AB002AFB54B1B78DBB283F00103D4
:10452000DBB2002B40F00F82B04B00221A7007F173
:10453000380310222021184604F0B9FC002387F824
:10454000483007F1240310222021184604F0AFFC64
:10455000002387F83430A64B1B78DBB2042B00F223
:10456000918101A252F823F07D450008C54600085C
:10457000EF46000867470008A14700089D4B1B78DD
:10458000DBB2002B1FD09B4B1B78DBB2032B06D179
:104590003B1D994A2021184604F010FC05E03B1D04
:1045A000964A2021184604F009FC3A1D07F1380309
:1045B00011461846FDF7C4FC07F12403904918463C
:1045C000FDF7BEFC5FE18F4B1B78002B06D08E4BB6
:1045D0001B68184606F04AFD034600E00023FB6511
:1045E0008A4B1B78DBB2002B09D1894B1B78381D15
:1045F0000093FB6D874A202104F0E0FB18E0834B19
:104600001B78DBB2022B06D1381DFB6D824A2021BC
:1046100004F0D4FB0CE0814B1B781A467C4B1B78D2
:10462000381D01930092FB6D7D4A202104F0C6FBEA
:104630003A1D07F1380311461846FDF781FC794B06
:104640001B68BB65BB6D784AA2FB0323DB0A7B6555
:10465000BB6D764AA2FB03235A09744BA3FB0213DA
:1046600059090B461B015B1A9B00D31A3B65BA6DB7
:104670006E4BA3FB021359090B461B015B1A9B00EF
:10468000D31AFB647B6D632B0AD8381DFB6C019336
:104690003B6D00937B6D664A202104F08FFB09E09F
:1046A000381DFB6C01933B6D00937B6D614A2021AB
:1046B00004F084FB3A1D07F1240311461846FDF768
:1046C0003FFCE0E007F138035B491846FDF738FC92
:1046D0004F4B1B78381D594A202104F06FFB3A1DBF
:1046E00007F1240311461846FDF72AFCCBE0544B92
:1046F0001B78381D534A202104F060FB3A1D07F156
:10470000380311461846FDF71BFC4F4B1B78002B56
:1047100010D14B4B1B78013B4C4A12F83330002B25
:1047200001D14B4B00E04B4B381D4B4A202104F08C
:1047300045FB10E0444B1B78012B06D13B1D474A3B
:104740002021184604F03AFB05E03B1D444A202195
:10475000184604F033FB3A1D07F1240311461846AE
:10476000FDF7EEFB8FE0364B1B78381D3D4A2021CC
:1047700004F024FB3A1D07F1380311461846FDF7F3
:10478000DFFB394B1B88381D384A202104F016FB0B
:104790003A1D07F1240311461846FDF7D1FB72E0DC
:1047A000274B1B78381D324A202104F007FB3A1DA5
:1047B00007F1380311461846FDF7C2FB2D4B1B7855
:1047C00019462D4B1B781A462C4B1B78381D01932C
:1047D00000920B462A4A202104F0F0FA3A1D07F114
:1047E000240311461846FDF7ABFB4CE014000020F3
:1047F000E103002079030020E0B00008F0B00008D9
:1048000004B1000877030020EC030020E00300203F
:104810001100002010B1000824B10008120000208F
:1048200034B10008E4030020C5B3A29189888888C8
:1048300048B1000860B1000878B1000888B10008EC
:104840001300002098B10008F8030020980300200E
:10485000ACB10008B0B10008B8B10008C4B100089C
:10486000D0B10008DCB10008FC030020ECB1000866
:10487000FCB10008FE030020FF030020000400201C
:104880000CB2000800BF07F1380331491846FBF7A6
:104890005FFC0346002B0ED000210020FCF7F4FC47
:1048A00007F138031846FCF737FD07F138031946BE
:1048B000274804F07CFB07F1240326491846FBF740
:1048C00047FC0346002B0ED001210020FCF7DCFC46
:1048D00007F124031846FCF71FFD07F124031946CE
:1048E0001C4804F064FB1C4B1B78DBB2032B0AD181
:1048F0001A4B1B780733DBB201211846FCF7C4FCC6
:10490000FCF787FD20E0144B1B78DBB2042B17D19A
:10491000134B1B78002B07D0114B1B78012B01D1B7
:10492000092302E00C2300E0062387F84B3097F8B8
:104930004B3001211846FCF7A7FCFCF76AFD03E0A9
:10494000FCF76DFD00E000BF6037BD4680BD00BFD5
:104950000404002018040020E1030020F9030020D3
:10496000FA03002080B582B000AF482200210C4835
:1049700004F09DFA0023FB7107E0FB79084A00214F
:1049800002F83310FB790133FB71FB79082BF4D962
:10499000044B01221A7000BF0837BD4680BD00BF1E
:1049A000980300201100002080B487B000AF786029
:1049B0007B68FB605423BB600F4B7B6100233B6132
:1049C0000FE0FA683B6913441B781A467B69534031
:1049D0007B617B69094A02FB03F37B613B6901331D
:1049E0003B613A69BB689A42EBD37B6918461C3736
:1049F000BD4680BC704700BFC59D1C81930100016E
:104A0000B0B5A2B000AFFDF7DFFA07F118035822E6
:104A10000021184604F04BFA534BBB610223FB61A3
:104A2000524B1B783B62524A07F12403114648223D
:104A3000184604F0D2FA07F118031846FFF7B4FF3E
:104A40000346FB6607F11803C7F880301623A7F862
:104A50007E3007F1080300221A605A609A60DA601B
:104A600000237B60434B00221A70EFF310833B67F7
:104A70003B6FBB6772B600BF00F022FF034687F8AA
:104A8000873097F88730002B45D10023BB60012386
:104A9000FB60394B3B6101237B613A1D07F1080341
:104AA0001146184600F0F4FF034687F8873097F860
:104AB0008730002B2DD10023A7F8843021E0B7F8F0
:104AC000843003F1007303F57C539900B7F8843008
:104AD0009B00D7F8802013441B6800221C46154613
:104AE00022462B46022000F07BFE034687F88730E3
:104AF00097F88730002B0BD1B7F884300133A7F833
:104B00008430B7F88420B7F87E309A42D7D300E0DB
:104B100000BF00F0FBFEBB6F002B01D162B600BFEF
:104B200097F88730002B1AD1134B7B677B6F1B687C
:104B30000D4A93420DD17B6F5B68022B09D17B6FCD
:104B40005C6D786FFFF730FF03469C4201D1012373
:104B500000E0002303F00103DAB2064B1A7000BF35
:104B60008837BD46B0BD00BFDECCBBAA1100002017
:104B7000980300201500002000FC000890B583B0C9
:104B800000AF1E4B7B607B681B681D4A93420DD1B2
:104B90007B685B68022B09D17B689B68002B05D082
:104BA0007B689B68092B01D8012300E00023FB7080
:104BB000FB7803F00103FB70FB78002B16D07B68B9
:104BC0005C6D7868FFF7F0FE03469C420ED17B686F
:104BD0009B68DAB20B4B1A707B680C33482219467B
:104BE000094804F0FAF9FDF7EFF902E0FFF7BAFE21
:104BF00000BF00BF0C37BD4690BD00BF00FC0008E1
:104C0000DECCBBAA110000209803002080B588B03C
:104C100006AF00F051FC00F0A5F800F09BF900F0A1
:104C20004BF900F0E5F800F011F9FFF7A7FF0223B8
:104C3000102227213848FCF761FAFCF719FBFCF732
:104C4000CBFA364802F0FCFF4023354A3549364856
:104C5000FCF78CFC03461A46344B1A70334B1B7816
:104C6000002B14D006213048FCF7F0FC00212E4820
:104C7000FCF71DFD02212C48FCF7BAFC00F074FC87
:104C800003462B4A13602B4B00221A7002E02A4B7A
:104C900002221A70294B4FF000021A60284B1B6841
:104CA000284A1268284909680020049001200390CE
:104CB000029101920093214B244A25492548FCF793
:104CC000D7FD00212348FDF709F8234A4FF00001E2
:104CD0002048FCF79EFF4FF47A711E48FCF762FFF4
:104CE00000F042FC03461D4A136000F03DFC786072
:104CF0007868FEF72FFEFFF763F9194B1B683B60DE
:104D00003868FDF78FFB39687868FEF781FFFFF799
:104D1000FFFB00BFE9E700BF18020020C40200202B
:104D2000000C01406C0200200C03002078030020DE
:104D30002C0400207703002079030020600300206A
:104D40000000002004000020080000205C03002078
:104D5000580300201803002000007A446403002058
:104D6000E403002080B590B000AF07F118032822BB
:104D70000021184604F09BF83B1D00221A605A607F
:104D80009A60DA601A610123BB614FF48033FB61E2
:104D900000233B620123BB6202237B634FF4803319
:104DA000BB634FF4E013FB6307F11803184601F0EF
:104DB00067FD0346002B01D000F048F90F237B600C
:104DC0000223BB600023FB604FF480633B61002340
:104DD0007B613B1D0221184601F0D4FF0346002BE6
:104DE00001D000F033F900BF4037BD4680BD000060
:104DF00080B500AF124B134A1A60114B124A5A6029
:104E00000F4B00229A600E4B0022DA600C4B4FF4DD
:104E100080421A610A4B00225A61094B00229A61B2
:104E2000074B0022DA61064B00221A62044801F0A7
:104E30008BF80346002B01D000F008F900BF80BDBD
:104E40001802002000580040A086010080B500AF85
:104E5000174B184A1A60164B4FF482725A60144B63
:104E600000229A60124B0022DA60114B00221A6174
:104E70000F4B01225A610E4B4FF400729A610C4B9A
:104E80001822DA610A4B00221A62094B00225A6288
:104E9000074B00229A62064B0A22DA62044802F0AB
:104EA000EBF80346002B01D000F0D0F800BF80BD26
:104EB0006C0200200030014080B586B000AF07F1E1
:104EC000080300221A605A609A60DA603B460022AA
:104ED0001A605A601E4B4FF080421A601C4B41F61C
:104EE0001F425A601A4B00229A60194B42F20F720D
:104EF000DA60174B00221A61154B80229A61144820
:104F000002F04FFE0346002B01D000F09FF84FF453
:104F10008053BB6007F1080319460D4802F0D2FF29
:104F20000346002B01D000F091F800233B600023E2
:104F30007B603B461946064803F0B4F90346002B54
:104F400001D000F083F800BF1837BD4680BD00BF18
:104F5000C402002080B588B000AF07F11003002222
:104F60001A605A609A60DA60344B9B69334A43F0A6
:104F700020039361314B9B6903F02003FB60FB68C6
:104F80002E4B9B692D4A43F0080393612B4B9B6981
:104F900003F00803BB60BB68284B9B69274A43F0BA
:104FA00004039361254B9B6903F004037B607B68DA
:104FB00001224021224800F097FF00228021204852
:104FC00000F092FF4FF400433B611E4B7B610023D6
:104FD000BB6107F110031946194800F001FE4FF4B8
:104FE00070633B61174B7B610023BB6107F11003CA
:104FF0001946154800F0F4FDC0233B6101237B6195
:105000000023BB610223FB6107F1100319460C4822
:1050100000F0E6FD00220021172000F0AAFB172077
:1050200000F0C3FB00220021282000F0A2FB282072
:1050300000F0BBFB00BF2037BD4680BD0010024022
:10504000000C0140000011100008014080B400AFC6
:1050500072B600BF00BFFDE780B485B000AF154B4E
:105060009B69144A43F001039361124B9B6903F05F
:105070000103BB60BB680F4BDB690E4A43F08053F2
:10508000D3610C4BDB6903F080537B607B680A4B78
:105090005B68FB60FB6823F0E063FB60FB6843F048
:1050A0000073FB60044AFB68536000BF1437BD46C1
:1050B00080BC7047001002400000014080B588B0FD
:1050C00000AF786007F1100300221A605A609A60FE
:1050D000DA607B681B68164A934224D1154B9B69A2
:1050E000144A43F008039361124B9B6903F00803D1
:1050F000FB60FB684FF440633B6112237B61032339
:10510000FB6107F1100319460B4800F069FD094BDC
:10511000DB69084A43F48003D361064BDB6903F47F
:105120008003BB60BB6800BF2037BD4680BD00BFA9
:105130000058004000100240000C014080B58AB0C9
:1051400000AF786007F1140300221A605A609A6079
:10515000DA607B681B68224A93423DD1214B9B69F0
:10516000204A43F4805393611E4B9B6903F48053A0
:105170003B613B691B4B9B691A4A43F008039361EF
:10518000184B9B6903F00803FB60FB6828237B61D5
:105190000223BB6103233B6207F114031946124843
:1051A00000F01EFD10237B610023BB610023FB6127
:1051B00007F1140319460C4800F012FD0B4B5B6815
:1051C0007B627B6A43F0E0637B627B6A43F00103AE
:1051D0007B62064A7B6A536000BF2837BD4680BDAC
:1051E0000030014000100240000C0140000001406E
:1051F00080B584B000AF78607B681B68B3F1804FE6
:1052000013D10C4BDB690B4A43F00103D361094B0B
:10521000DB6903F00103FB60FB68002200211C2016
:1052200000F0A7FA1C2000F0C0FA00BF1037BD46FE
:1052300080BD00BF0010024080B400AF00BFFDE79A
:1052400080B400AF00BFFDE780B400AF00BFFDE752
:1052500080B400AF00BFFDE780B400AF00BFFDE742
:1052600080B400AF00BFBD4680BC704780B400AFC3
:1052700000BFBD4680BC704780B400AF00BFBD46D4
:1052800080BC704780B500AF00F05CF900BF80BD06
:1052900080B500AF4FF4807000F03EFE4FF4007018
:1052A00000F03AFE00BF80BD80B500AF024802F0BA
:1052B00019FD00BF80BD00BFC402002080B500AF53
:1052C0004FF4806000F028FE4FF4006000F024FEF0
:1052D0004FF4004000F020FE00BF80BD80B400AF5E
:1052E00001231846BD4680BC704780B582B000AF30
:1052F0007860396003F02EFE034616221A604FF0E4
:10530000FF3318460837BD4680BD80B582B000AF78
:1053100078604FF0FF317868FFF7E7FF00BFFDE7E7
:1053200080B586B000AFF860B9607A6000237B6119
:105330000AE0AFF300800146BB685A1CBA60CAB2EB
:105340001A707B6901337B617A697B689A42F0DB72
:105350007B6818461837BD4680BD80B586B000AF63
:10536000F860B9607A6000237B6109E0BB685A1C71
:10537000BA601B781846AFF300807B6901337B610C
:105380007A697B689A42F1DB7B6818461837BD461C
:1053900080BD80B483B000AF78604FF0FF33184613
:1053A0000C37BD4680BC704780B483B000AF7860D6
:1053B00039603B684FF400525A60002318460C379E
:1053C000BD4680BC704780B483B000AF78600123D5
:1053D00018460C37BD4680BC704780B485B000AF1E
:1053E000F860B9607A60002318461437BD4680BC67
:1053F0007047000080B586B000AF7860144A154B46
:10540000D31A7B617B693B61134B1B68002B02D174
:10541000114B124A1A60104B1A687B6813443A69A0
:105420009A4207D203F096FD03460C221A604FF011
:10543000FF3309E0084B1B68FB60074B1A687B6869
:105440001344054A1360FB6818461837BD4680BDF3
:10545000005000200004000068040020E005002047
:1054600080B400AF00BFBD4680BC7047FFF7F8FFB7
:105470000B480C490C4A002302E0D458C4500433B2
:10548000C4188C42F9D3094A094C002301E0136087
:105490000432A242FBD303F063FDFFF7B7FB704772
:1054A00000000020F0010020D4B50008F001002029
:1054B000DC050020FEE7000080B500AF084B1B684C
:1054C000074A43F010031360032000F047F90F2050
:1054D00000F008F8FFF7C0FD0023184680BD00BFAC
:1054E0000020024080B582B000AF7860124B1A688D
:1054F000124B1B7819464FF47A73B3FBF1F3B2FBEE
:10550000F3F3184600F05FF90346002B01D00123A6
:105510000EE07B680F2B0AD8002279684FF0FF302D
:1055200000F027F9064A7B681360002300E001239E
:1055300018460837BD4680BD1C000020240000200E
:105540002000002080B400AF054B1B781A46054BA5
:105550001B681344034A136000BFBD4680BC7047FC
:10556000240000206C04002080B400AF024B1B68B4
:105570001846BD4680BC70476C04002080B584B0DE
:1055800000AF7860FFF7F0FFB8607B68FB60FB68F6
:10559000B3F1FF3F05D00A4B1B781A46FB68134452
:1055A000FB6000BFFFF7E0FF0246BB68D31AFA6852
:1055B0009A42F7D800BF00BF1037BD4680BD00BF7C
:1055C0002400002080B485B000AF78607B6803F0D1
:1055D0000703FB600C4BDB68BB60BA684FF6FF0348
:1055E0001340BB60FB681A02BB68134343F0BF6300
:1055F00043F40033BB60044ABB68D36000BF143778
:10560000BD4680BC704700BF00ED00E080B400AF35
:10561000044BDB681B0A03F007031846BD4680BC39
:10562000704700BF00ED00E080B483B000AF0346D8
:10563000FB7197F90730002B0BDBFB7903F01F029E
:10564000064997F907305B09012000FA02F241F898
:10565000232000BF0C37BD4680BC704700E100E04E
:1056600080B483B000AF03463960FB7197F907300F
:10567000002B0ADB3B68DAB20C4997F907301201BC
:10568000D2B20B4483F800230AE03B68DAB208493F
:10569000FB7903F00F03043B1201D2B20B441A76DC
:1056A00000BF0C37BD4680BC704700BF00E100E082
:1056B00000ED00E080B489B000AFF860B9607A60B6
:1056C000FB6803F00703FB61FB69C3F10703042BCD
:1056D00028BF0423BB61FB690433062B02D9FB6995
:1056E000033B00E000237B614FF0FF32BB6902FA0D
:1056F00003F3DA43BB681A407B699A404FF0FF31ED
:105700007B6901FA03F3D9437B680B4013431846C6
:105710002437BD4680BC704780B582B000AF78604A
:105720007B68013BB3F1807F01D301230FE00A4A7C
:105730007B68013B53600F214FF0FF30FFF790FF74
:10574000054B00229A60044B07221A60002318467A
:105750000837BD4680BD00BF10E000E080B582B0D4
:1057600000AF78607868FFF72DFF00BF0837BD46AF
:1057700080BD80B586B000AF0346B9607A60FB7328
:1057800000237B61FFF742FF78617A68B968786926
:10579000FFF790FF024697F90F3011461846FFF7C2
:1057A0005FFF00BF1837BD4680BD80B582B000AF37
:1057B0000346FB7197F907301846FFF735FF00BF26
:1057C0000837BD4680BD80B582B000AF786078688C
:1057D000FFF7A2FF034618460837BD4680BD00000C
:1057E000F0B587B000AFF860B960C7E900230123C6
:1057F000FB750023BB7500237B752F4B1B7E012B94
:1058000001D1022354E02C4B01221A764CF2503085
:1058100000F0A8F80346FB75FB7D002B44D1FB6824
:10582000012B02D101237B7507E0FB68022B02D11B
:1058300002237B7501E004237B750023BB752DE0FB
:10584000BB7D5A00BB6802EB030CBB7D1901D7E995
:105850000023C1F12006A1F1200022FA01F403FA8D
:1058600006F6344323FA00F0044323FA01F5A3B209
:105870001946604600F05AF84CF2503000F072F8C9
:105880000346FB750D4B1B690C4A23F001031361A2
:10589000FB7D002B07D1BB7D0133BB75BA7D7B7DC2
:1058A0009A42CDD300E000BF034B00221A76FB7D65
:1058B00018461C37BD46F0BD700400200020024091
:1058C00080B483B000AF0023FB710D4B1B6903F064
:1058D0008003002B0DD00A4B0A4A5A60084B0A4A33
:1058E0005A60074B1B6903F08003002B01D0012392
:1058F000FB71FB7918460C37BD4680BC704700BF72
:105900000020024023016745AB89EFCD80B400AF92
:10591000054B1B69044A43F08003136100231846BA
:10592000BD4680BC704700BF0020024080B483B0F9
:1059300000AF78600B467B80084B0022DA61084B91
:105940001B69074A43F0010313617B687A881A8058
:1059500000BF0C37BD4680BC704700BF70040020FC
:105960000020024080B584B000AF7860FFF7FCFDF6
:10597000F86010E07B68B3F1FF3F0CD07B68002B30
:1059800007D0FFF7F1FD0246FB68D31A7A689A4206
:1059900001D2032325E0154BDB6803F00103002B44
:1059A000E8D1124BDB6803F02003002B02D00F4B31
:1059B0002022DA600D4BDB6803F01003002B0BD1C3
:1059C0000A4BDB6903F00103002B05D1074BDB68B1
:1059D00003F00403002B03D000F00AF8012300E0D9
:1059E000002318461037BD4680BD00BF002002408E
:1059F00080B483B000AF00237B60234BDB6803F0EF
:105A00001003002B09D0214BDB6943F002031F4A2E
:105A1000D3617B6843F010037B601B4BDB6803F0B2
:105A20000403002B09D0194BDB6943F00103174A2B
:105A3000D3617B6843F004037B60134BDB6903F0A5
:105A40000103002B0BD0114BDB6943F004030F4A19
:105A5000D3610D4BDB690C4A23F00103D3617B68F2
:105A600040F20112934206D1074BDB69064A23F04C
:105A70000103D36102E0044A7B68D36000BF0C37A6
:105A8000BD4680BC704700BF00200240700400206B
:105A900080B584B000AF786039600123FB730023C8
:105AA000BB602F4B1B7E012B01D1022353E02C4BFB
:105AB00001221A767B681B68022B16D14CF25030FB
:105AC000FFF750FF0346002B41D1012000F04CF8B6
:105AD0004CF25030FFF746FF0346FB73214B1B6926
