:020000040800F2
:1000000000500020951300087912000881120008A2
:1000100089120008911200089912000800000000DF
:10002000000000000000000000000000A112000815
:10003000AD12000800000000B9120008C512000847
:10004000DD130008DD130008DD130008DD130008D0
:10005000DD130008DD130008DD130008DD130008C0
:10006000DD130008DD130008DD130008DD130008B0
:10007000DD130008DD130008DD130008DD130008A0
:10008000DD130008DD130008DD130008DD13000890
:10009000DD130008DD130008DD130008D11200088D
:1000A000DD130008DD130008DD130008DD13000870
:1000B000E9120008DD130008DD130008DD13000855
:1000C000DD130008DD130008DD130008DD13000850
:1000D000DD130008DD130008DD130008DD13000840
:1000E000FD120008DD130008DD1300080000000009
:1000F0000000000000000000000000000000000000
:0C01000000000000000000005FF808F1A3
:10010C0010B5054C237833B9044B13B10448AFF345
:10011C0000800123237010BD680000200000000047
:10012C003C41000808B5034B1BB103490348AFF32E
:10013C00008008BD000000006C0000203C4100085D
:10014C0080B582B000AF7860084611461A46034667
:10015C00FB700B46BB7013467B702F4A7B68136099
:10016C00FB785B00DAB22C4B1A712B4ABB785371BB
:10017C00294A7B789371284B0822DA71322001F0DE
:10018C008BF9254BDB79184600F0F8F84FF47A70B0
:10019C0001F082F9302000F0DFF8052001F07CF945
:1001AC00302000F0D9F8052001F076F9302000F06D
:1001BC00D3F8012001F070F9202000F0CDF8164B97
:1001CC0000221A72144B9B79012B06D9124B1B7A05
:1001DC0043F00803DAB2104B1A720F4B1B7A43F040
:1001EC002003DBB2184600F065F80B4B04225A7260
:1001FC0000F01EF8084B02229A72074B9B7A43F0D0
:10020C000403DBB2184600F055F800F007F800BF05
:10021C000837BD4680BD00BF8400002080B500AF0C
:10022C00012000F047F8022001F036F900BF80BD34
:10023C0080B500AF084B5B7A43F00403DAB2064B8F
:10024C005A72054B5B7A43F00803DBB2184600F098
:10025C0031F800BF80BD00BF8400002080B584B0A1
:10026C0000AF03460A46FB711346BB710F4BFB6094
:10027C000F4B9B79BA799A4203D30D4B9B79013B77
:10028C00BB71BB7910333B4413F8042CFB7913443A
:10029C00DBB25BB263F07F035BB2DBB2184600F0FB
:1002AC0009F800BF1037BD4680BD00BF0040145494
:1002BC008400002080B582B000AF0346FB71FB794F
:1002CC000021184600F027F800BF0837BD4680BD56
:1002DC0080B582B000AF0346FB71FB790121184653
:1002EC0000F019F800BF0837BD4680BD80B582B05C
:1002FC0000AF786006E07B685A1C7A601B78184661
:10030C00FFF7E6FF7B681B78002BF4D100BF00BF22
:10031C000837BD4680BD80B584B000AF03460A46A1
:10032C00FB711346BB71FB7923F00F03FB73FB7955
:10033C001B01BB73FA7BBB791343DBB2184600F08D
:10034C000BF8BA7BBB791343DBB2184600F004F808
:10035C0000BF1037BD4680BD80B582B000AF0346EC
:10036C00FB71FB79184600F009F8FB79184600F090
:10037C0023F800BF0837BD4680BD000080B586B0AD
:10038C0002AF0346FB710B4BDA79FB791343DBB2FB
:10039C003B73084B1868074B1B79194607F10C0285
:1003AC000A230093012301F0B9FE00BF1037BD46AC
:1003BC0080BD00BF8400002080B582B000AF034632
:1003CC00FB71FB7943F00403DBB21846FFF7D6FF51
:1003DC00012001F061F8FB7923F00403DBB218462D
:1003EC00FFF7CCFF012001F057F800BF0837BD46DE
:1003FC0080BD00002DE9B04F88B000AF01F0EEF9E0
:10040C000023FB6000233B61254BBB610123FB6197
:10041C0007F10C0207F110031146184601F0C6FA59
:10042C000346002B34D11F4B1B881BB29BB29BB2D3
:10043C0000223B607A60D7E900231949012001F0C2
:10044C005DF9194B1B78DBB2DBB200229A4693465E
:10045C0052465B461549012001F050F9144B1B78AC
:10046C00DBB2DBB200229846914642464B4611491C
:10047C00012001F043F9104B1B78DBB2DBB20022F8
:10048C001C46154622462B460C49012001F036F934
:10049C0001F0CAF900BF2037BD46BDE8B08F00BFE0
:1004AC0000FC0008000000203A01002002FC0008BB
:1004BC003B01002004FC00083C01002006FC000865
:1004CC0080B483B000AF114B1B88FB80FB884FF6C8
:1004DC00FF72934215D0B7F906200D4B1A800D4BC5
:1004EC001B889BB2DAB20C4B1A700C4B1B889BB25C
:1004FC00DAB20B4B1A700B4B1B889BB2DAB20A4B5D
:10050C001A7000BF0C37BD4680BC704700FC000859
:10051C000000002002FC00083A01002004FC000846
:10052C003B01002006FC00083C01002080B584B093
:10053C0000AF0346FB8000F0A5FFF860194B1B6869
:10054C00FA68D31AC82B29D9FB88B3F5006F03D1ED
:10055C00154B01221A701EE0FB88B3F5004F03D136
:10056C00124B01221A7016E0FB88B3F5806F03D191
:10057C000F4B01221A700EE0FB88B3F5007F03D1FC
:10058C000C4B01221A7006E0FB88B3F5807F02D178
:10059C00094B01221A70034AFB68136000BF103725
:1005AC00BD4680BD2C01002030010020310100200F
:1005BC0032010020330100203401002080B582B0CC
:1005CC0000AF78607B681B68B3F1804F57D12E4B1E
:1005DC001B78DBB2002B52D12C4B1B78DBB2012BDE
:1005EC004DD12B4B1B78DBB20133DAB2284B1A708E
:1005FC00274B1B78DBB23B2B20D9254B00221A70E2
:10060C00244B1B78DBB20133DAB2224B1A70214B2C
:10061C001B78DBB23B2B11D91E4B00221A701E4BE0
:10062C001B78DBB20133DAB21B4B1A701A4B1B78F6
:10063C00DBB2172B02D9184B00221A70164B1B7801
:10064C00DAB2164B1B78DBB29A4218D1114B1B78DD
:10065C00DAB2134B1B78DBB29A4210D10C4B1B78DD
:10066C00DAB2104B1B78DBB29A4208D1074B00224E
:10067C001A7000224FF400710B4801F0DAFB00BF36
:10068C000837BD4680BD00BF350100203D0100206C
:10069C003901002038010020370100203A010020E8
:1006AC003B0100203C010020000C014080B582B0D1
:1006BC0000AF00F08FFE00F027F800F0E7F800F034
:1006CC0097F800F067F80223102227210C48FFF757
:1006DC0037FDFFF7F5FE0B4802F0C4FC00237B60EE
:1006EC0000F062F900F0CEFE02467B68D31A3B2B79
:1006FC00F6D900F0C7FE786000F0F2FBF0E700BF1F
:10070C0090000020E400002080B590B000AF07F10D
:10071C00180328220021184603F07CF83B1D002208
:10072C001A605A609A60DA601A610123BB614FF457
:10073C008033FB6100233B620123BB6202237B639A
:10074C004FF48033BB634FF4E013FB6307F11803E2
:10075C00184602F03BF80346002B01D000F0EAFCEF
:10076C000F237B600223BB600023FB604FF480638C
:10077C003B6100237B613B1D0221184602F0A8FA65
:10078C000346002B01D000F0D5FC00BF4037BD461E
:10079C0080BD000080B500AF124B134A1A60114B9C
:1007AC00124A5A600F4B00229A600E4B0022DA60FC
:1007BC000C4B4FF480421A610A4B00225A61094BD0
:1007CC0000229A61074B0022DA61064B00221A6262
:1007DC00044801F05FFB0346002B01D000F0AAFC9B
:1007EC0000BF80BD9000002000580040A086010092
:1007FC0080B586B000AF07F1080300221A605A607A
:10080C009A60DA603B4600221A605A601E4B4FF029
:10081C0080421A601C4B41F61F425A601A4B002250
:10082C009A60194B42F20F72DA60174B00221A6170
:10083C00154B80229A61144802F0C4FB0346002B2E
:10084C0001D000F077FC4FF48053BB6007F1080334
:10085C0019460D4802F048FD0346002B01D000F06C
:10086C0069FC00233B6000237B603B46194606482D
:10087C0002F02AFF0346002B01D000F05BFC00BF06
:10088C001837BD4680BD00BFE400002080B588B09D
:10089C0000AF07F1100300221A605A609A60DA6008
:1008AC003D4B9B693C4A43F0200393613A4B9B6957
:1008BC0003F02003FB60FB68374B9B69364A43F01F
:1008CC0008039361344B9B6903F00803BB60BB685E
:1008DC00314B9B69304A43F0040393612E4B9B6967
:1008EC0003F004037B607B6800224FF400412B482B
:1008FC0001F09FFA00224FF40071294801F099FA97
:10090C004FF400433B61274B7B610023BB6107F134
:10091C0010031946224801F0F1F84FF470633B6163
:10092C00204B7B610023BB6107F1100319461B4868
:10093C0001F0E4F84FF400433B6101237B61002399
:10094C00BB610223FB6107F110031946134801F048
:10095C00D5F84FF400733B6101237B610023BB612D
:10096C000223FB6107F1100319460D4801F0C6F88C
:10097C0000220021172000F08AFE172000F0A3FEB1
:10098C0000220021282000F082FE282000F09BFE8F
:10099C0000BF2037BD4680BD00100240000801405A
:1009AC00000C01400000111080B584B000AFA24BC8
:1009BC001B78DBB2002B7CD09F4B00221A709F4B14
:1009CC001B78DBB2002B32D0FFF728FC9B4B0022AC
:1009DC001A70FFF70FFD9A4B00221A70994B0022E8
:1009EC001A70994B00221A70984B1B78DBB2002BB3
:1009FC0009D1974B1B78DBB2002B04D1954B1B789C
:100A0C00DBB2002B09D0944B01221A7001224FF457
:100A1C000071924801F00DFA3FE28F4B00221A70E0
:100A2C0000224FF400718D4801F003FA35E28A4B35
:100A3C001B78DBB2012B09D1874B00221A700022E4
:100A4C004FF40071854801F0F4F926E27F4B1B78D6
:100A5C00DBB2002B0AD17E4B1B78DBB2002B05D10D
:100A6C007C4B1B78DBB2002B00F01782744B1B788D
:100A7C00DAB2764B1B78DBB29A4210D1714B1B78F1
:100A8C00DAB2734B1B78DBB29A4208D16E4B1B78EF
:100A9C00DAB2704B1B78DBB29A4200F0FE816E4BDF
:100AAC0001221A7001224FF400716C4801F0C1F957
:100ABC00F3E16B4B1B78DBB2002B29D0684B002287
:100ACC001A705E4B1B78DBB2002B05D1FFF7A6FB2F
:100ADC005A4B01221A70E2E1584B1B78DBB2022B05
:100AEC0040F0DD815F4B1B78DBB2002B03D15D4BFB
:100AFC0001221A70D3E15B4B1B78DBB2012B03D1C3
:100B0C00584B02221A70CAE1564B00221A70C6E1E9
:100B1C004A4B1B78DBB2002B09D1534B00221A70C5
:100B2C00524B00221A70524B00221A70BAE14E4BF3
:100B3C001B78DBB2002B1AD04B4B00221A70FFF73C
:100B4C006DFB3E4B1B78DBB2012B06D13B4B0222DB
:100B5C001A70444B00221A70A3E1384B1B78DBB29D
:100B6C00022B40F09E81354B01221A7099E1002333
:100B7C00FB730023BB730123BB813C4B1B78DBB2A3
:100B8C00002B0FD0394B00221A700123FB7300F09D
:100B9C0079FC0346374A136000F074FC0346364A6E
:100BAC00136034E04FF40071344801F02BF9034624
:100BBC00012B2CD100F066FC02462E4B1B68D31A7D
:100BCC00BB60BB68B3F5C87F21D900F05BFC024663
:100BDC00294B1B68D31A142B19D900F053FC03466C
:100BEC00254A13600123FB73144B1B78DBB2012BDA
:100BFC000DD1BB6840F6C412934202D90A23BB81C3
:100C0C0005E0BB68B3F5966F01D90523BB81184B82
:100C1C001B78DBB2002B37D0154B00221A70012346
:100C2C00BB7300F02FFC0346154A136000F02AFC3E
:100C3C000346144A13605CE03201002035010020A9
:100C4C003701002038010020390100203A01002032
:100C5C003B0100203C0100203D010020000C014024
:100C6C00300100203601002031010020330100202A
:100C7C0034010020440100204801002000080140FC
:100C8C004C010020500100204FF48071874801F086
:100C9C00B9F80346012B2CD100F0F4FB0246844B2F
:100CAC001B68D31A7B607B68B3F5C87F21D900F031
:100CBC00E9FB02467F4B1B68D31A142B19D900F0A1
:100CCC00E1FB03467B4A13600123BB737A4B1B7811
:100CDC00DBB2012B0DD17B6840F6C412934202D9D2
:100CEC000A23BB8105E07B68B3F5966F01D9052318
:100CFC00BB81FB7B002B03D1BB7B002B00F0D28094
:100D0C006E4B01221A7000F0BDFB03466C4A136057
:100D1C00694B1B78DBB2012B2ED1FB7B002B13D044
:100D2C00684B1B881BB29AB2BB8913449BB21AB294
:100D3C00644B1A80634B1B881BB2B3F57A7F03DDBF
:100D4C00604B4FF47A721A80BB7B002B00F0AA80A8
:100D5C005C4B1B881BB29AB2BB89D31A9BB21AB2DA
:100D6C00584B1A80574B1B881BB2002B80F29A8071
:100D7C00544B00221A8095E04F4B1B78DBB2022BB0
:100D8C0040F09080FB7B002B48D04F4B1B78DBB2A4
:100D9C00002B12D14D4B1B78DBB25A1C4C4B83FBF6
:100DAC0002139910D317C91A0B465B000B44DB00D6
:100DBC00D11ACAB2454B1A7030E0434B1B78DBB2E8
:100DCC00012B13D1434B1B78DBB25A1C424B83FBD8
:100DDC00021313445911D317C91A0B461B015B1A82
:100DEC009B00D11ACAB23B4B1A7017E0364B1B78DA
:100DFC00DBB2022B12D1394B1B78DBB25A1C364BAF
:100E0C0083FB021313445911D317C91A0B461B0148
:100E1C005B1A9B00D11ACAB2304B1A70BB7B002BE9
:100E2C0040D0294B1B78DBB2002B0ED1274B1B7803
:100E3C00DBB2002B05D0254B1B78DBB2013BDBB2C0
:100E4C0000E01723214A13702CE01F4B1B78DBB2F8
:100E5C00012B0ED11F4B1B78DBB2002B05D01D4B89
:100E6C001B78DBB2013BDBB200E03B23194A137069
:100E7C0018E0154B1B78DBB2022B13D1174B1B78E8
:100E8C00DBB2002B05D0154B1B78DBB2013BDBB280
:100E9C0000E03B23114A137004E000BF02E000BFE6
:100EAC0000E000BF1037BD4680BD00BF0008014008
:100EBC004C010020500100203501002004000020CE
:100ECC004001002000000020360100203A010020E3
:100EDC00ABAAAA2A3B010020898888883C01002003
:100EEC0080B58EB002AF00F0CDFA02467B4B1B688A
:100EFC00D31AB3F5967F0ED300F0C4FA0346774AA3
:100F0C001360774B1B78002B0CBF01230023DBB243
:100F1C001A46734B1A70734B1B78DBB2022B69D0D9
:100F2C00022B00F3D680002B02D0012B3DD0D0E059
:100F3C006D4B1B78DAB26D4B1B789A4200F0C8806F
:100F4C00694B1B78DAB2694B1A70694BB3F90030F4
:100F5C0007F11800674A182102F026FC0021002036
:100F6C00FFF77CF907F118031846FFF7BFF9624B3E
:100F7C001B78DBB21946614B1B78DBB21A465A4B15
:100F8C001B78DBB207F11800019300920B465C4A08
:100F9C00182102F009FC01210020FFF75FF907F18D
:100FAC0018031846FFF7A2F992E0504BFF221A7073
:100FBC0000210020FFF752F95248FFF797F9012161
:100FCC000020FFF74BF9464B1B78002B0ED04E4BF5
:100FDC001B881BB207F118004C4A182102F0E4FBE5
:100FEC0007F118031846FFF781F972E04848FFF73C
:100FFC007DF96EE03D4BFF221A7000210020FFF7B7
:10100C002DF94448FFF772F9434B1B78DBB2002BE8
:10101C000BD1334B1B78002B07D107F110033F4A40
:10102C000521184602F0C0FB08E03D4B1B78DBB2F3
:10103C0007F110003B4A052102F0B6FB364B1B783A
:10104C00DBB2012B0BD1264B1B78002B07D107F100
:10105C000803324A0521184602F0A6FB08E0324B81
:10106C001B78DBB207F108002E4A052102F09CFB2D
:10107C00294B1B78DBB2022B0AD1194B1B78002BA6
:10108C0006D13B46254A0521184602F08DFB07E0A8
:10109C00264B1B78DBB23846224A052102F084FB32
:1010AC0007F1100207F118003B46019307F1080302
:1010BC00009313461E4A182102F076FB01210020F2
:1010CC00FFF7CCF807F118031846FFF70FF900E00B
:1010DC0000BF00BF3037BD4680BD00BF40010020BF
:1010EC0004000020350100203901002005000020FB
:1010FC000200002054410008370100203801002074
:10110C006C41000884410008000000209841000850
:10111C00A8410008B841000836010020CC41000865
:10112C003A010020D04100083B0100203C01002086
:10113C00D841000880B400AF72B600BF00BFFDE715
:10114C0080B485B000AF154B9B69144A43F0010382
:10115C009361124B9B6903F00103BB60BB680F4B9F
:10116C00DB690E4A43F08053D3610C4BDB6903F00F
:10117C0080537B607B680A4B5B68FB60FB6823F0E9
:10118C00E063FB60FB6843F00073FB60044AFB68A0
:10119C00536000BF1437BD4680BC7047001002403E
:1011AC000000014080B588B000AF786007F11003F3
:1011BC0000221A605A609A60DA607B681B68164AD3
:1011CC00934224D1154B9B69144A43F00803936155
:1011DC00124B9B6903F00803FB60FB684FF4406300
:1011EC003B6112237B610323FB6107F1100319465A
:1011FC000B4800F083FC094BDB69084A43F480037D
:10120C00D361064BDB6903F48003BB60BB6800BF92
:10121C002037BD4680BD00BF005800400010024082
:10122C00000C014080B584B000AF78607B681B680F
:10123C00B3F1804F13D10C4BDB690B4A43F0010324
:10124C00D361094BDB6903F00103FB60FB680022EF
:10125C0000211C2000F01BFA1C2000F034FA00BF07
:10126C001037BD4680BD00BF0010024080B400AFF7
:10127C0000BFFDE780B400AF00BFFDE780B400AF56
:10128C0000BFFDE780B400AF00BFFDE780B400AF46
:10129C0000BFFDE780B400AF00BFBD4680BC704707
:1012AC0080B400AF00BFBD4680BC704780B400AFB7
:1012BC0000BFBD4680BC704780B500AF00F0D0F8D1
:1012CC0000BF80BD80B500AF4FF4807000F0CAFD48
:1012DC004FF4007000F0C6FD00BF80BD80B500AFBC
:1012EC00024801F011FF00BF80BD00BFE4000020E8
:1012FC0080B500AF4FF4806000F0B4FD4FF4006097
:10130C0000F0B0FD4FF4004000F0ACFD00BF80BD1C
:10131C0080B586B000AF7860144A154BD31A7B6148
:10132C007B693B61134B1B68002B02D1114B124A9A
:10133C001A60104B1A687B6813443A699A4207D2B8
:10134C0002F070FA03460C221A604FF0FF3309E0EA
:10135C00084B1B68FB60074B1A687B681344054AF3
:10136C001360FB6818461837BD4680BD005000203E
:10137C000004000054010020C802002080B400AF1B
:10138C0000BFBD4680BC7047FFF7F8FF0B480C4907
:10139C000C4A002302E0D458C4500433C4188C42C5
:1013AC00F9D3094A094C002301E013600432A2422C
:1013BC00FBD302F03DFAFFF779F9704700000020EB
:1013CC00640000205442000868000020C80200207D
:1013DC00FEE7000080B500AF084B1B68074A43F0DE
:1013EC0010031360032000F047F90F2000F008F8F9
:1013FC00FFF7A6FE0023184680BD00BF0020024068
:10140C0080B582B000AF7860124B1A68124B1B7813
:10141C0019464FF47A73B3FBF1F3B2FBF3F31846AE
:10142C0000F05FF90346002B01D001230EE07B682E
:10143C000F2B0AD8002279684FF0FF3000F027F903
:10144C00064A7B681360002300E001231846083726
:10145C00BD4680BD08000020100000200C000020BC
:10146C0080B400AF054B1B781A46054B1B68134420
:10147C00034A136000BFBD4680BC704710000020BB
:10148C005801002080B400AF024B1B681846BD46C3
:10149C0080BC70475801002080B584B000AF7860E4
:1014AC00FFF7F0FFB8607B68FB60FB68B3F1FF3FB0
:1014BC0005D00A4B1B781A46FB681344FB6000BF2F
:1014CC00FFF7E0FF0246BB68D31AFA689A42F7D8D6
:1014DC0000BF00BF1037BD4680BD00BF100000200C
:1014EC0080B485B000AF78607B6803F00703FB60C5
:1014FC000C4BDB68BB60BA684FF6FF031340BB6054
:10150C00FB681A02BB68134343F0BF6343F4003318
:10151C00BB60044ABB68D36000BF1437BD4680BCB7
:10152C00704700BF00ED00E080B400AF044BDB68F7
:10153C001B0A03F007031846BD4680BC704700BF6A
:10154C0000ED00E080B483B000AF0346FB7197F967
:10155C000730002B0BDBFB7903F01F02064997F9D0
:10156C0007305B09012000FA02F241F8232000BF8A
:10157C000C37BD4680BC704700E100E080B483B0FE
:10158C0000AF03463960FB7197F90730002B0ADB7B
:10159C003B68DAB20C4997F907301201D2B20B440E
:1015AC0083F800230AE03B68DAB20849FB7903F0C0
:1015BC000F03043B1201D2B20B441A7600BF0C3756
:1015CC00BD4680BC704700BF00E100E000ED00E0CC
:1015DC0080B489B000AFF860B9607A60FB6803F042
:1015EC000703FB61FB69C3F10703042B28BF04232A
:1015FC00BB61FB690433062B02D9FB69033B00E09A
:10160C0000237B614FF0FF32BB6902FA03F3DA432C
:10161C00BB681A407B699A404FF0FF317B6901FA35
:10162C0003F3D9437B680B40134318462437BD465C
:10163C0080BC704780B582B000AF78607B68013B9E
:10164C00B3F1807F01D301230FE00A4A7B68013B91
:10165C0053600F214FF0FF30FFF790FF054B002236
:10166C009A60044B07221A60002318460837BD46BF
:10167C0080BD00BF10E000E080B582B000AF7860A4
:10168C007868FFF72DFF00BF0837BD4680BD80B5D9
:10169C0086B000AF0346B9607A60FB7300237B61B0
:1016AC00FFF742FF78617A68B9687869FFF790FFB5
:1016BC00024697F90F3011461846FFF75FFF00BF3F
:1016CC001837BD4680BD80B582B000AF0346FB71B4
:1016DC0097F907301846FFF735FF00BF0837BD46AE
:1016EC0080BD80B582B000AF78607868FFF7A2FF4C
:1016FC00034618460837BD4680BD0000F0B587B0DC
:10170C0000AFF860B960C7E900230123FB75002323
:10171C00BB7500237B752F4B1B7E012B01D1022344
:10172C0054E02C4B01221A764CF2503000F0A8F801
:10173C000346FB75FB7D002B44D1FB68012B02D1CA
:10174C0001237B7507E0FB68022B02D102237B751A
:10175C0001E004237B750023BB752DE0BB7D5A0093
:10176C00BB6802EB030CBB7D1901D7E90023C1F167
:10177C002006A1F1200022FA01F403FA06F6344304
:10178C0023FA00F0044323FA01F5A3B2194660468C
:10179C0000F05AF84CF2503000F072F80346FB752A
:1017AC000D4B1B690C4A23F001031361FB7D002BCD
:1017BC0007D1BB7D0133BB75BA7D7B7D9A42CDD3FE
:1017CC0000E000BF034B00221A76FB7D18461C3745
:1017DC00BD46F0BD600100200020024080B483B003
:1017EC0000AF0023FB710D4B1B6903F08003002B32
:1017FC000DD00A4B0A4A5A60084B0A4A5A60074BEA
:10180C001B6903F08003002B01D00123FB71FB79D2
:10181C0018460C37BD4680BC704700BF0020024004
:10182C0023016745AB89EFCD80B400AF054B1B6935
:10183C00044A43F08003136100231846BD4680BC64
:10184C00704700BF0020024080B483B000AF7860C6
:10185C000B467B80084B0022DA61084B1B69074A58
:10186C0043F0010313617B687A881A8000BF0C3740
:10187C00BD4680BC704700BF6001002000200240C4
:10188C0080B584B000AF7860FFF7FCFDF86010E025
:10189C007B68B3F1FF3F0CD07B68002B07D0FFF7C0
:1018AC00F1FD0246FB68D31A7A689A4201D20323EF
:1018BC0025E0154BDB6803F00103002BE8D1124B3C
:1018CC00DB6803F02003002B02D00F4B2022DA60E0
:1018DC000D4BDB6803F01003002B0BD10A4BDB69BB
:1018EC0003F00103002B05D1074BDB6803F0040365
:1018FC00002B03D000F00AF8012300E00023184667
:10190C001037BD4680BD00BF0020024080B483B0BC
:10191C0000AF00237B60234BDB6803F01003002B2C
:10192C0009D0214BDB6943F002031F4AD3617B686A
:10193C0043F010037B601B4BDB6803F00403002BAC
:10194C0009D0194BDB6943F00103174AD3617B685B
:10195C0043F004037B60134BDB6903F00103002BA2
:10196C000BD0114BDB6943F004030F4AD3610D4BD1
:10197C00DB690C4A23F00103D3617B6840F201124E
:10198C00934206D1074BDB69064A23F00103D3616E
:10199C0002E0044A7B68D36000BF0C37BD4680BCB4
:1019AC00704700BF002002406001002080B584B069
:1019BC0000AF786039600123FB730023BB602F4BB1
:1019CC001B7E012B01D1022353E02C4B01221A76F2
:1019DC007B681B68022B16D14CF25030FFF750FF7E
:1019EC000346002B41D1012000F04CF84CF2503052
:1019FC00FFF746FF0346FB73214B1B69204A23F07C
:101A0C000403136131E04CF25030FFF739FF034609
:101A1C00002B2AD13B684FF0FF321A607B689B6821
:101A2C00BB6019E0B86800F049F84CF25030FFF791
:101A3C0027FF0346FB73124B1B69114A23F0020369
:101A4C001361FB7B002B03D03B68BA681A600CE077
:101A5C00BB6803F58063BB607B68DB689A027B68BC
:101A6C009B681344BA689A42DCD3044B00221A7662
:101A7C00FB7B18461037BD4680BD00BF60010020BF
:101A8C000020024080B483B000AF7860094B002284
:101A9C00DA61094B1B69084A43F004031361064BD6
:101AAC001B69054A43F04003136100BF0C37BD4668
:101ABC0080BC7047600100200020024080B483B0DD
:101ACC0000AF78600B4B0022DA610B4B1B690A4AA2
:101ADC0043F002031361084A7B685361064B1B6990
:101AEC00054A43F04003136100BF0C37BD4680BC70
:101AFC00704700BF600100200020024080B48BB012
:101B0C0000AF7860396000237B6200233B6269E19F
:101B1C0001227B6A02FA03F3FB613B681B68FA69DA
:101B2C001340BB61BA69FB699A4240F058813B682B
:101B3C005B689A4A93425ED0984A934275D8984A09
:101B4C00934258D0964A93426FD8964A934252D0B9
:101B5C00944A934269D8944A93424CD0924A934205
:101B6C0063D8924A934246D0904A93425DD8122B46
:101B7C002AD8122B59D801A252F823F0031C0008C2
:101B8C00DD1B0008EF1B0008311C0008371C000887
:101B9C00371C0008371C0008371C0008371C0008CD
:101BAC00371C0008371C0008371C0008371C0008BD
:101BBC00371C0008371C0008371C0008371C0008AD
:101BCC00E51B0008F91B0008794A934213D02CE05E
:101BDC003B68DB683B6229E03B68DB6804333B62B3
:101BEC0024E03B68DB6808333B621FE03B68DB6842
:101BFC000C333B621AE03B689B68002B02D1042338
:101C0C003B6213E03B689B68012B05D108233B62C8
:101C1C007B68FA691A6109E008233B627B68FA6900
:101C2C005A6103E000233B6200E000BFBB69FF2B5D
:101C3C0001D87B6801E07B6804337B61BB69FF2BB7
:101C4C0002D87B6A9B0002E07B6A083B9B003B61ED
:101C5C007B691A680F213B6901FA03F3DB431A40D5
:101C6C00396A3B6901FA03F31A437B691A603B68D2
:101C7C005B6803F08053002B00F0B1804D4B9B69E7
:101C8C004C4A43F0010393614A4B9B6903F00103F7
:101C9C00BB60BB68484A7B6A9B08023352F823300E
:101CAC00FB607B6A03F003039B000F2202FA03F331
:101CBC00DB43FA681340FB607B68404A934213D0C5
:101CCC007B683F4A93420DD07B683E4A934207D0D3
:101CDC007B683D4A934201D1032306E0042304E0D0
:101CEC00022302E0012300E000237A6A02F00302DF
:101CFC0092009340FA681343FB602F497B6A9B0860
:101D0C000233FA6841F823203B685B6803F48013C4
:101D1C00002B06D02D4B9A682C49BB6913438B6062
:101D2C0006E02A4B9A68BB69DB43284913408B6059
:101D3C003B685B6803F40013002B06D0234BDA6876
:101D4C002249BB691343CB6006E0204BDA68BB69C0
:101D5C00DB431E491340CB603B685B6803F40033E4
:101D6C00002B06D0194B5A681849BB6913434B60BA
:101D7C0006E0164B5A68BB69DB43144913404B60B1
:101D8C003B685B6803F48033002B21D00F4B1A683F
:101D9C000E49BB6913430B6021E000BF00003210F9
:101DAC000000311000002210000021100000121061
:101DBC00000011100010024000000140000801401A
:101DCC00000C0140001001400014014000040140CF
:101DDC000B4B1A68BB69DB43094913400B607B6AE8
:101DEC0001337B623B681A687B6A22FA03F3002B8F
:101DFC007FF48EAE00BF00BF2C37BD4680BC704751
:101E0C000004014080B485B000AF78600B467B8045
:101E1C007B689A687B881340002B02D00123FB73EC
:101E2C0001E00023FB73FB7B18461437BD4680BCD6
:101E3C00704780B483B000AF78600B467B8013464C
:101E4C007B707B78002B03D07A887B681A6103E067
:101E5C007B881A047B681A6100BF0C37BD4680BCB6
:101E6C007047000080B582B000AF0346FB80084B82
:101E7C005A69FB881340002B06D0054AFB88536136
:101E8C00FB881846FEF752FB00BF0837BD4680BDE5
:101E9C000004014080B584B000AF78607B68002BF3
:101EAC0001D101232BE17B6893F83D30DBB2002B91
:101EBC0006D17B68002283F83C207868FFF772F922
:101ECC007B68242283F83D207B681B681A687B683A
:101EDC001B6822F001021A607B681B681A687B6819
:101EEC001B6842F400421A607B681B681A687B68A6
:101EFC001B6822F400421A6001F032F8F8607B682B
:101F0C005B68814A934207D8FB68804A934294BF2E
:101F1C0001230023DBB206E0FB687D4A934294BFA9
:101F2C0001230023DBB2002B01D00123E7E0FB6887
:101F3C00784AA2FB03239B0CBB607B681B685B6825
:101F4C0023F03F017B681B68BA680A435A607B68C0
:101F5C001B681B6A23F03F017B685B686A4A9342EB
:101F6C0002D8BB68013309E0BB684FF4967202FBE0
:101F7C0003F3694AA2FB03239B0901337A681268B5
:101F8C000B4313627B681B68DB6923F44F4222F01E
:101F9C00FF027B685B685C498B4219D8FB68591E51
:101FAC007B685B685B00B1FBF3F3591C40F6FC7378
:101FBC000B40002B0AD0FB68591E7B685B685B00EA
:101FCC00B1FBF3F30133C3F30B0351E004234FE0F4
:101FDC007B689B68002B11D1FB68581E7B68596885
:101FEC000B465B000B44B0FBF3F30133C3F30B0361
:101FFC00002B0CBF01230023DBB212E0FB68581E40
:10200C007B6859680B469B000B4499000B44B0FB52
:10201C00F3F30133C3F30B03002B0CBF0123002399
:10202C00DBB2002B01D0012322E07B689B68002BE4
:10203C000ED1FB68581E7B6859680B465B000B443D
:10204C00B0FBF3F30133C3F30B0343F400430FE092
:10205C00FB68581E7B6859680B469B000B44990023
:10206C000B44B0FBF3F30133C3F30B0343F44043D2
:10207C00796809681343CB617B681B681B6823F084
:10208C00C0017B68DA697B681B6A1A437B681B6832
:10209C000A431A607B681B689B6823F4034323F094
:1020AC00FF037A6811697A68D26811437A681268FA
:1020BC000B4393607B681B68DB6823F0FF017B6834
:1020CC005A697B689B691A437B681B680A43DA6010
:1020DC007B681B681A687B681B6842F001021A60F7
:1020EC007B6800221A647B68202283F83D207B6881
:1020FC0000221A637B68002283F83E2000231846D6
:10210C001037BD4680BD00BFA08601007F841E0035
:10211C00FF083D0083DE1B43D34D621080B588B0B1
:10212C0002AFF8607A601A460B467B8113463B81FE
:10213C00FFF7A8F97861FB6893F83D30DBB2202BF0
:10214C0040F0E0807B690093192301227049F86804
:10215C0000F064F90346002B01D00223D3E0FB68A6
:10216C0093F83C30012B01D10223CCE0FB68012217
:10217C0083F83C20FB681B681B6803F00103012BF0
:10218C0007D0FB681B681A68FB681B6842F00102E9
:10219C001A60FB681B681A68FB681B6822F40062F3
:1021AC001A60FB68212283F83D20FB68102283F81B
:1021BC003E20FB6800221A64FB687A685A62FB684E
:1021CC003A895A85FB685B8D9AB2FB681A85FB6865
:1021DC00504ADA6279897B693A6AF86800F09CF8AF
:1021EC000346002B01D001238DE000233B61FB68EB
:1021FC001B685B693B61FB681B689B693B613B69C6
:10220C0066E07A69396AF86800F022FA0346002B16
:10221C000DD0FB681B6C042B07D1FB681B681A687C
:10222C00FB681B6842F400721A6001236BE0FB68C8
:10223C005B6A1A78FB681B681A61FB685B6A5A1C3C
:10224C00FB685A62FB685B8D9BB2013B9AB2FB68E0
:10225C005A85FB681B8D013B9AB2FB681A85FB689B
:10226C001B685B6903F00403042B1BD1FB681B8DFB
:10227C00002B17D0FB685B6A1A78FB681B681A6125
:10228C00FB685B6A5A1CFB685A62FB685B8D9BB2ED
:10229C00013B9AB2FB685A85FB681B8D013B9AB2D5
:1022AC00FB681A857A69396AF86800F019FA0346EE
:1022BC00002B0DD0FB681B6C042B07D1FB681B6833
:1022CC001A68FB681B6842F400721A6001231AE05A
:1022DC00FB681B8D002B94D1FB681B681A68FB688C
:1022EC001B6842F400721A60FB68202283F83D20C0
:1022FC00FB68002283F83E20FB68002283F83C2018
:10230C00002300E0022318461837BD4680BD00BFED
:10231C00020010000000FFFF80B588B002AFF8602B
:10232C007A603B600B467B81FB68DB6A7B617B6977
:10233C00082B06D07B69012B03D07B6913F5803FFA
:10234C0008D1FB681B681A68FB681B6842F4807232
:10235C001A600BE0FB681B6B122B07D1FB681B6828
:10236C001A68FB681B6842F480721A603B68009321
:10237C007B6800224FF00111F86800F04FF803461B
:10238C00002B0DD0FB681B681B6803F48073B3F53E
:10239C00807F03D1FB684FF400721A64032335E08D
:1023AC00FB681B69B3F5804F08D17B89DBB21A46F9
:1023BC00FB681B6802F0FE021A611BE07B89DB11D3
:1023CC00DBB203F00603DBB263F00F03DAB2FB6897
:1023DC001B681A613B687A680E49F86800F098F837
:1023EC000346002B01D0012310E07B89DAB2FB6895
:1023FC001B681A613B687A680749F86800F088F82E
:10240C000346002B01D0012300E0002318461837A7
:10241C00BD4680BD080001000200010080B584B0FB
:10242C0000AFF860B9603B601346FB7148E03B6855
:10243C00B3F1FF3F44D0FFF725F80246BB69D31A2E
:10244C003A689A4202D33B68002B39D1BB681B0C0B
:10245C00DBB2012B0DD1FB681B685B69DA43BB68EF
:10246C0013409BB2002B0CBF01230023DBB21A4696
:10247C000CE0FB681B689B69DA43BB6813409BB29A
:10248C00002B0CBF01230023DBB21A46FB799A42C6
:10249C0016D1FB6800221A63FB68202283F83D20CA
:1024AC00FB68002283F83E20FB681B6C43F0200283
:1024BC00FB681A64FB68002283F83C20012323E0AC
:1024CC00BB681B0CDBB2012B0DD1FB681B685B6975
:1024DC00DA43BB6813409BB2002B0CBF01230023D3
:1024EC00DBB21A460CE0FB681B689B69DA43BB68DD
:1024FC0013409BB2002B0CBF01230023DBB21A4606
:10250C00FB799A4293D0002318461037BD4680BD04
:10251C0080B584B000AFF860B9607A603B6071E060
:10252C00FB681B685B6903F48063B3F5806F23D190
:10253C00FB681B681A68FB681B6842F400721A601F
:10254C00FB681B686FF480625A61FB6800221A6397
:10255C00FB68202283F83D20FB68002283F83E2094
:10256C00FB681B6C43F00402FB681A64FB680022D6
:10257C0083F83C20012367E07B68B3F1FF3F41D037
:10258C00FEF780FF02463B68D31A7A689A4202D360
:10259C007B68002B36D1BB681B0CDBB2012B0CD13A
:1025AC00FB681B685B69DA43BB6813409BB2002B6A
:1025BC0014BF01230023DBB20BE0FB681B689B6993
:1025CC00DA43BB6813409BB2002B14BF01230023DA
:1025DC00DBB2002B16D0FB6800221A63FB682022AA
:1025EC0083F83D20FB68002283F83E20FB681B6CBF
:1025FC0043F02002FB681A64FB68002283F83C203D
:10260C00012321E0BB681B0CDBB2012B0CD1FB6856
:10261C001B685B69DA43BB6813409BB2002B14BF89
:10262C0001230023DBB20BE0FB681B689B69DA43D8
:10263C00BB6813409BB2002B14BF01230023DBB2F9
:10264C00002B7FF46DAF002318461037BD4680BDBC
:10265C0080B584B000AFF860B9607A6034E0F86897
:10266C0000F086F80346002B01D0012334E0BB6850
:10267C00B3F1FF3F28D0FEF705FF02467B68D31A63
:10268C00BA689A4202D3BB68002B1DD1FB681B6849
:10269C005B6903F08003802B16D0FB6800221A6361
:1026AC00FB68202283F83D20FB68002283F83E2043
:1026BC00FB681B6C43F02002FB681A64FB68002269
:1026CC0083F83C20012307E0FB681B685B6903F07F
:1026DC008003802BC3D1002318461037BD4680BD24
:1026EC0080B584B000AFF860B9607A6034E0F86807
:1026FC0000F03EF80346002B01D0012334E0BB6808
:10270C00B3F1FF3F28D0FEF7BDFE02467B68D31A1B
:10271C00BA689A4202D3BB68002B1DD1FB681B68B8
:10272C005B6903F00403042B16D0FB6800221A63C8
:10273C00FB68202283F83D20FB68002283F83E20B2
:10274C00FB681B6C43F02002FB681A64FB680022D8
:10275C0083F83C20012307E0FB681B685B6903F0EE
:10276C000403042BC3D1002318461037BD4680BD8B
:10277C0080B483B000AF78607B681B685B6903F43E
:10278C008063B3F5806F1BD17B681B686FF480622C
:10279C005A617B6800221A637B68202283F83D20F3
:1027AC007B68002283F83E207B681B6C43F004029C
:1027BC007B681A647B68002283F83C20012300E0CC
:1027CC00002318460C37BD4680BC704780B586B0D8
:1027DC0000AF78607B68002B01D1012372E27B682B
:1027EC001B6803F00103002B00F08780924B5B68A1
:1027FC0003F00C03042B0CD08F4B5B6803F00C0321
:10280C00082B12D18C4B5B6803F48033B3F5803FFB
:10281C000BD1894B1B6803F40033002B6CD07B6805
:10282C005B68002B68D101234CE27B685B68B3F5D5
:10283C00803F06D1804B1B687F4A43F48033136082
:10284C002EE07B685B68002B0CD17B4B1B687A4AB3
:10285C0023F480331360784B1B68774A23F480236E
:10286C0013601DE07B685B68B3F5A02F0CD1724B35
:10287C001B68714A43F4802313606F4B1B686E4ACC
:10288C0043F4803313600BE06B4B1B686A4A23F4F0
:10289C0080331360684B1B68674A23F480231360F2
:1028AC007B685B68002B13D0FEF7ECFD386108E009
:1028BC00FEF7E8FD02463B69D31A642B01D90323CA
:1028CC0000E25D4B1B6803F40033002BF0D014E0E6
:1028DC00FEF7D8FD386108E0FEF7D4FD02463B69EF
:1028EC00D31A642B01D90323ECE1534B1B6803F47B
:1028FC000033002BF0D100E000BF7B681B6803F0B5
:10290C000203002B63D04C4B5B6803F00C03002BD1
:10291C000BD0494B5B6803F00C03082B1CD1464BC6
:10292C005B6803F48033002B16D1434B1B6803F018
:10293C000203002B05D07B681B69012B01D00123FE
:10294C00C0E13D4B1B6823F0F8027B685B69DB0040
:10295C00394913430B603AE07B681B69002B20D08C
:10296C00364B01221A60FEF78DFD386108E0FEF748
:10297C0089FD02463B69D31A022B01D90323A1E13D
:10298C002D4B1B6803F00203002BF0D02A4B1B6865
:10299C0023F0F8027B685B69DB00274913430B606B
:1029AC0015E0264B00221A60FEF76CFD386108E03A
:1029BC00FEF768FD02463B69D31A022B01D90323AB
:1029CC0080E11D4B1B6803F00203002BF0D17B68E8
:1029DC001B6803F00803002B3AD07B689B69002B23
:1029EC0019D0174B01221A60FEF74CFD386108E034
:1029FC00FEF748FD02463B69D31A022B01D903238B
:102A0C0060E10D4B5B6A03F00203002BF0D0012058
:102A1C0000F0BAFA1CE00A4B00221A60FEF732FDF5
:102A2C0038610FE0FEF72EFD02463B69D31A022BEC
:102A3C0008D9032346E100BF0010024000004242C7
:102A4C0080044242924B5B6A03F00203002BE9D1F3
:102A5C007B681B6803F00403002B00F0A6800023A6
:102A6C00FB758B4BDB6903F08053002B0DD1884B2E
:102A7C00DB69874A43F08053D361854BDB6903F0F4
:102A8C008053BB60BB680123FB75824B1B6803F44E
:102A9C008073002B18D17F4B1B687E4A43F48073E4
:102AAC001360FEF7EFFC386108E0FEF7EBFC024622
:102ABC003B69D31A642B01D9032303E1754B1B68C3
:102ACC0003F48073002BF0D07B68DB68012B06D1FC
:102ADC006F4B1B6A6E4A43F0010313622DE07B6857
:102AEC00DB68002B0CD16A4B1B6A694A23F001038B
:102AFC001362674B1B6A664A23F0040313621CE0E3
:102B0C007B68DB68052B0CD1614B1B6A604A43F078
:102B1C00040313625E4B1B6A5D4A43F001031362AC
:102B2C000BE05B4B1B6A5A4A23F001031362584BB0
:102B3C001B6A574A23F0040313627B68DB68002B83
:102B4C0015D0FEF79FFC38610AE0FEF79BFC0246AD
:102B5C003B69D31A41F28832934201D90323B1E085
:102B6C004B4B1B6A03F00203002BEED014E0FEF774
:102B7C0089FC38610AE0FEF785FC02463B69D31AF2
:102B8C0041F28832934201D903239BE0404B1B6AEC
:102B9C0003F00203002BEED1FB7D012B05D13C4B46
:102BAC00DB693B4A23F08053D3617B68DB69002BE4
:102BBC0000F08780364B5B6803F00C03082B61D068
:102BCC007B68DB69022B46D1334B00221A60FEF77F
:102BDC0059FC386108E0FEF755FC02463B69D31AF4
:102BEC00022B01D903236DE0294B1B6803F0007302
:102BFC00002BF0D17B681B6AB3F5803F08D1244BC6
:102C0C005B6823F400327B689B68214913434B605B
:102C1C001F4B5B6823F474127B68196A7B685B6AD0
:102C2C000B431B4913434B601B4B01221A60FEF7ED
:102C3C0029FC386108E0FEF725FC02463B69D31AF3
:102C4C00022B01D903233DE0114B1B6803F00073E9
:102C5C00002BF0D035E0104B00221A60FEF712FC6E
:102C6C00386108E0FEF70EFC02463B69D31A022BD2
:102C7C0001D9032326E0064B1B6803F00073002BDD
:102C8C00F0D11EE07B68DB69012B07D1012319E031
:102C9C000010024000700040600042420B4B5B6829
:102CAC00FB60FB6803F480327B681B6A9A4206D196
:102CBC00FB6803F470127B685B6A9A4201D00123B3
:102CCC0000E0002318461837BD4680BD00100240B6
:102CDC0080B584B000AF786039607B68002B01D17F
:102CEC000123D0E06A4B1B6803F007033A689A4251
:102CFC0010D9674B1B6823F0070265493B681343E7
:102D0C000B60634B1B6803F007033A689A4201D0CF
:102D1C000123B8E07B681B6803F00203002B20D072
:102D2C007B681B6803F00403002B05D0594B5B68D0
:102D3C00584A43F4E06353607B681B6803F0080354
:102D4C00002B05D0534B5B68524A43F460535360DD
:102D5C00504B5B6823F0F0027B689B684D49134332
:102D6C004B607B681B6803F00103002B40D07B6831
:102D7C005B68012B07D1474B1B6803F40033002B16
:102D8C0015D101237FE07B685B68022B07D1414B97
:102D9C001B6803F00073002B09D1012373E03D4B3A
:102DAC001B6803F00203002B01D101236BE0394BAC
:102DBC005B6823F003027B685B68364913434B6006
:102DCC00FEF760FBF8600AE0FEF75CFB0246FB686E
:102DDC00D31A41F28832934201D9032353E02D4B8D
:102DEC005B6803F00C027B685B689B009A42EBD13A
:102DFC00274B1B6803F007033A689A4210D2244B06
:102E0C001B6823F0070222493B6813430B60204BDD
:102E1C001B6803F007033A689A4201D0012332E0A1
:102E2C007B681B6803F00403002B08D0194B5B680C
:102E3C0023F4E0627B68DB68164913434B607B68C4
:102E4C001B6803F00803002B09D0124B5B6823F4BA
:102E5C0060527B681B69DB000E4913434B6000F02A
:102E6C0021F802460B4B5B681B0903F00F030A4960
:102E7C00CB5C22FA03F3094A1360094B1B68184612
:102E8C00FEF7BEFA002318461037BD4680BD00BFC2
:102E9C000020024000100240EC4100080800002015
:102EAC000C00002080B487B000AF0023FB6000232F
:102EBC00BB6000237B6100237B6000233B611E4BC6
:102ECC005B68FB60FB6803F00C03042B02D0082B3F
:102EDC0003D027E0194B3B6127E0FB689B0C03F008
:102EEC000F03174AD35C7B60FB6803F48033002B21
:102EFC0010D0114B5B685B0C03F00103114AD35CDF
:102F0C00BB607B680D4A03FB02F2BB68B2FBF3F3B8
:102F1C007B6104E07B680C4A02FB03F37B617B69F9
:102F2C003B6102E0054B3B6100BF3B6918461C3717
:102F3C00BD4680BC704700BF0010024000127A00F2
:102F4C00044200081442000800093D0080B400AFA0
:102F5C00024B1B681846BD4680BC70470800002019
:102F6C0080B500AFFFF7F2FF0246054B5B681B0A0A
:102F7C0003F007030349CB5C22FA03F3184680BD28
:102F8C0000100240FC41000880B485B000AF7860AE
:102F9C000A4B1B680A4AA2FB03235B0A7A6802FBF2
:102FAC0003F3FB6000BFFB685A1EFA60002BF9D1DB
:102FBC0000BF00BF1437BD4680BC7047080000201E
:102FCC00D34D621080B582B000AF78607B68002B67
:102FDC0001D1012341E07B6893F83D30DBB2002B3B
:102FEC0006D17B68002283F83C207868FEF71AF93A
:102FFC007B68022283F83D207B681A687B68043367
:10300C001946104600F05CFA7B68012283F84620D2
:10301C007B68012283F83E207B68012283F83F20E5
:10302C007B68012283F840207B68012283F84120D1
:10303C007B68012283F842207B68012283F84320BD
:10304C007B68012283F844207B68012283F84520A9
:10305C007B68012283F83D20002318460837BD46C3
:10306C0080BD000080B485B000AF78607B6893F8B9
:10307C003D30DBB2012B01D001233AE07B68022208
:10308C0083F83D207B681B68DA687B681B6842F01C
:10309C000102DA607B681B68184A93420ED07B6889
:1030AC001B68B3F1804F09D07B681B68144A9342AC
:1030BC0004D07B681B68134A934211D17B681B6850
:1030CC009B6803F00703FB60FB68062B10D07B6842
:1030DC001B681A687B681B6842F001021A6007E0E3
:1030EC007B681B681A687B681B6842F001021A60D7
:1030FC00002318461437BD4680BC7047002C014095
:10310C00000400400008004080B584B000AF786037
:10311C007B681B68DB68FB607B681B681B69BB609A
:10312C00BB6803F00203002B20D0FB6803F0020302
:10313C00002B1BD07B681B686FF002021A617B6846
:10314C0001221A777B681B689B6903F00303002B31
:10315C0003D0786800F098F905E0786800F08BF9F6
:10316C00786800F09AF97B6800221A77BB6803F044
:10317C000403002B20D0FB6803F00403002B1BD0AE
:10318C007B681B686FF004021A617B6802221A7755
:10319C007B681B689B6903F44073002B03D0786831
:1031AC0000F072F905E0786800F065F9786800F0D5
:1031BC0074F97B6800221A77BB6803F00803002BB4
:1031CC0020D0FB6803F00803002B1BD07B681B6826
:1031DC006FF008021A617B6804221A777B681B68FF
:1031EC00DB6903F00303002B03D0786800F04CF983
:1031FC0005E0786800F03FF9786800F04EF97B68DC
:10320C0000221A77BB6803F01003002B20D0FB6858
:10321C0003F01003002B1BD07B681B686FF01002AF
:10322C001A617B6808221A777B681B68DB6903F4D8
:10323C004073002B03D0786800F026F905E078681D
:10324C0000F019F9786800F028F97B6800221A77E9
:10325C00BB6803F00103002B0CD0FB6803F00103E7
:10326C00002B07D07B681B686FF001021A6178682D
:10327C00FDF7A4F9BB6803F08003002B0CD0FB68AE
:10328C0003F08003002B07D07B681B686FF0800273
:10329C001A61786800F07FFABB6803F04003002BDA
:1032AC000CD0FB6803F04003002B07D07B681B6835
:1032BC006FF040021A61786800F0F8F8BB6803F010
:1032CC002003002B0CD0FB6803F02003002B07D04D
:1032DC007B681B686FF020021A61786800F052FA64
:1032EC0000BF1037BD4680BD80B584B000AF78609C
:1032FC0039600023FB737B6893F83C30012B01D1C0
:10330C000223B4E07B68012283F83C207B68022214
:10331C0083F83D207B681B689B68BB60BB6823F00F
:10332C007703BB60BB6823F47F43BB607B681B687F
:10333C00BA689A603B681B68B3F5005F3ED0B3F582
:10334C00005F00F28780B3F5805F00F08680B3F5F4
:10335C00805F7FD8702B1AD0702B7BD8602B50D00D
:10336C00602B77D8502B3CD0502B73D8402B58D097
:10337C00402B6FD8302B64D0302B6BD8202B60D0E7
:10338C00202B67D8002B5CD0102B5AD062E07B68C6
:10339C0018683B6899683B685A683B68DB6800F0C2
:1033AC0074F97B681B689B68BB60BB6843F0770350
:1033BC00BB607B681B68BA689A604FE07B681868D2
:1033CC003B6899683B685A683B68DB6800F05DF9BC
:1033DC007B681B689A687B681B6842F480429A6021
:1033EC003CE07B6818683B6859683B68DB681A46A8
:1033FC0000F0D4F87B681B685021184600F02BF9BC
:10340C002CE07B6818683B6859683B68DB681A4697
:10341C0000F0F2F87B681B686021184600F01BF97D
:10342C001CE07B6818683B6859683B68DB681A4687
:10343C0000F0B4F87B681B684021184600F00BF9CB
:10344C000CE07B681A683B681B681946104600F054
:10345C0002F903E00123FB7300E000BF7B6801224B
:10346C0083F83D207B68002283F83C20FB7B1846C8
:10347C001037BD4680BD80B483B000AF786000BF0C
:10348C000C37BD4680BC704780B483B000AF786009
:10349C0000BF0C37BD4680BC704780B483B000AF12
:1034AC00786000BF0C37BD4680BC704780B483B0D9
:1034BC0000AF786000BF0C37BD4680BC7047000081
:1034CC0080B485B000AF786039607B681B68FB60A6
:1034DC007B682F4A93420BD07B68B3F1804F07D0A7
:1034EC007B682C4A934203D07B682B4A934208D1C9
:1034FC00FB6823F07003FB603B685B68FA6813435E
:10350C00FB607B68224A93420BD07B68B3F1804FFF
:10351C0007D07B681F4A934203D07B681E4A9342B4
:10352C0008D1FB6823F44073FB603B68DB68FA68E6
:10353C001343FB60FB6823F080023B685B69134319
:10354C00FB607B68FA681A603B689A687B68DA6291
:10355C003B681A687B689A627B680D4A934203D178
:10356C003B681A697B681A637B6801225A617B6825
:10357C001B6903F00103002B05D07B681B6923F04A
:10358C0001027B681A6100BF1437BD4680BC7047CE
:10359C00002C0140000400400008004080B487B0BB
:1035AC0000AFF860B9607A60FB681B6A7B61FB68EE
:1035BC001B6A23F00102FB681A62FB689B693B6182
:1035CC003B6923F0F0033B617B681B013A691343B1
:1035DC003B617B6923F00A037B617A69BB68134307
:1035EC007B61FB683A699A61FB687A691A6200BF71
:1035FC001C37BD4680BC704780B487B000AFF86004
:10360C00B9607A60FB681B6A7B61FB681B6A23F0FC
:10361C001002FB681A62FB689B693B613B6923F4EF
:10362C0070433B617B681B033A6913433B617B69C5
:10363C0023F0A0037B61BB681B017A6913437B6198
:10364C00FB683A699A61FB687A691A6200BF1C3799
:10365C00BD4680BC704780B485B000AF78603960DF
:10366C007B689B68FB60FB6823F07003FB603A6827
:10367C00FB68134343F00703FB607B68FA689A60AE
:10368C0000BF1437BD4680BC704780B487B000AF14
:10369C00F860B9607A603B60FB689B687B617B6912
:1036AC0023F47F437B613B681A027B681A43BB6837
:1036BC0013437A6913437B61FB687A699A6000BF94
:1036CC001C37BD4680BC704780B485B000AF7860B5
:1036DC0039607B6893F83C30012B01D1022346E022
:1036EC007B68012283F83C207B68022283F83D2012
:1036FC007B681B685B68FB607B681B689B68BB60B6
:10370C00FB6823F07003FB603B681B68FA6813438B
:10371C00FB607B681B68FA685A607B681B68164AFA
:10372C0093420ED07B681B68B3F1804F09D07B6845
:10373C001B68124A934204D07B681B68104A934260
:10374C000CD1BB6823F08003BB603B685B68BA6834
:10375C001343BB607B681B68BA689A607B68012264
:10376C0083F83D207B68002283F83C200023184618
:10377C001437BD4680BC7047002C0140000400404B
:10378C000008004080B483B000AF786000BF0C37F5
:10379C00BD4680BC704780B483B000AF786000BF7A
:1037AC000C37BD4680BC70470CB430B5184B0C1EA2
:1037BC001D689DB008DA8B234FF0FF302B601DB0D5
:1037CC00BDE8304002B070474FF40273ADF81430CE
:1037DC004FF000031B930CBF234604F1FF330493FB
:1037EC0007934FF6FF7302900690ADF816302846FB
:1037FC0021AB209A02A9019300F092F9431CBCBFA3
:10380C008B232B60002CDAD00022029B1A70D6E797
:10381C001400002003460244934200D1704703F881
:10382C00011BF9E7014B1868704700BF140000201A
:10383C0070B500260C4D0D4C641BA410A64209D18A
:10384C0000F076FC00260A4D0A4C641BA410A6421C
:10385C0005D170BD55F8043B98470136EEE755F895
:10386C00043B98470136F2E74C4200084C420008F2
:10387C004C420008504200087047704738B5054666
:10388C00002940D051F8043C0C1F002BB8BFE418A1
:10389C0000F0DEF81C4A136833B9636014602846E4
:1038AC00BDE8384000F0DAB8A34208D920682118E6
:1038BC008B4201BF19685B6809182160EDE71A4655
:1038CC005B680BB1A342FAD911685018A0420BD116
:1038DC0020680144501883421160E0D118685B687D
:1038EC00084410605360DAE702D90C232B60D6E74A
:1038FC00206821188B4201BF19685B680918216088
:10390C0063605460CBE738BDC402002070B50F4E25
:10391C000C463168054611B900F0A8FB3060214611
:10392C00284600F0A3FB431C03D14FF0FF34204684
:10393C0070BDC41C24F00304A042F8D0211A284600
:10394C0000F094FB0130F2D1EFE700BFC002002081
:10395C002DE9F843CD1C25F0030508350C2D38BF97
:10396C000C25002D064601DBA94204D90C2333603B
:10397C000020BDE8F883DFF8D48000F069F8D8F8AF
:10398C0000301C4644BB29463046FFF7BFFF431CA2
:10399C00044658D1D8F800402746002F43D1002CBC
:1039AC004BD023683946304604EB030900F05EFB2C
:1039BC00814542D1216830466D1A2946FFF7A6FF92
:1039CC0001303AD023682B442360D8F800305A6871
:1039DC0062BBC8F800700FE02268521B20D40B2A7F
:1039EC0017D96119A342256018BF5960636808BFD5
:1039FC00C8F8001062514B60304600F02FF804F10B
:103A0C000B00231D20F00700C21A1CBF1B1AA35069
:103A1C00AFE76268A3420CBFC8F800205A60EBE71E
:103A2C0023466468AEE73C467F68B6E71A465B6897
:103A3C00A342FBD100235360DEE70C2330463360F6
:103A4C0000F00CF894E70560D6E700BFC402002034
:103A5C000148FFF711BF00BFBC0200200148FFF76F
:103A6C000CBF00BFBC0200202DE9F0471F468E683A
:103A7C008246BE420C4690460B682DD8B1F90C20FC
:103A8C0012F4906F26D06569096905EB4505A3EB27
:103A9C00010905EBD5757B1C4B446D109D4238BF5D
:103AAC001D46530527D52946FFF752FF064660B33E
:103ABC004A46216900F0F8FAA38923F4906343F095
:103ACC008003A38126614E4426603E466561A5EBCA
:103ADC000905A560BE4200D93E46324641462068E3
:103AEC0000F0AAFA0020A3689B1BA3602368334450
:103AFC002360BDE8F0872A4600F0E4FA0646002869
:103B0C00E0D150462169FFF7B9FE0C23CAF800300A
:103B1C00A3894FF0FF3043F04003A381E9E7000095
:103B2C002DE9F04F98468B8907461B060D46144627
:103B3C009DB010D50B6973B94021FFF709FF2860C0
:103B4C00286130B90C233B604FF0FF301DB0BDE84D
:103B5C00F08F40236B610023099320238DF82930CB
:103B6C0030234FF00109CDF80C80DFF898818DF8E7
:103B7C002A3023469A4613F8012B0AB1252AF9D18B
:103B8C00BAEB040B0BD05B46224629463846FFF7AE
:103B9C006BFF013000F0A780099A5A4409929AF8F9
:103BAC000030002B00F09F8000234FF0FF32CDE956
:103BBC0005230AF1010A049307938DF853301A93E5
:103BCC005446052214F8011B4E4800F05FFA049A83
:103BDC00D8B9D00644BF20238DF85330110744BF09
:103BEC002B238DF853309AF800302A2B15D05446DD
:103BFC0000204FF00A0C079A214611F8013B303B8C
:103C0C00092B4BD9B0B1079214E0A0EB080309FAC9
:103C1C0003F31343A2460493D2E7039B191D1B68BD
:103C2C000391002BBBBF5B4242F002020793079348
:103C3C00B8BF049223782E2B0AD163782A2B32D169
:103C4C00039B02341A1D1B68039243EAE37305932A
:103C5C00DFF8B4A003225046217800F017FA38B1EF
:103C6C004022049BA0EB0A008240134301340493CE
:103C7C0014F8011B062225488DF8281000F006FACE
:103C8C00002836D0224B1BBB039B073323F00703C2
:103C9C0008330393099B334409936AE70C460120CC
:103CAC000CFB0232A8E700234FF00A0C1946013432
:103CBC000593204610F8012B303A092A03D9002B22
:103CCC00C6D00591C4E7044601230CFB0121F0E7A3
:103CDC0003AB00932A4638460E4B04A9AFF3008081
:103CEC00421C0646D6D1AB895B063FF52DAF099831
:103CFC002CE703AB00932A463846064B04A900F088
:103D0C007DF8EDE7164200081C420008204200082E
:103D1C0000000000753A00082DE9F0471646984659
:103D2C008A680B6907469342B8BF1346336091F813
:103D3C0043200C46DDF820900AB101333360236830
:103D4C00990642BF336802333360256815F00605C7
:103D5C0006D104F1190AE36832689B1AAB422BDCDA
:103D6C0094F843302268003B18BF0123920630D4EC
:103D7C004146384604F14302C847013023D023683A
:103D8C00226903F00603042B14BF002533684FF09F
:103D9C00000608BFE56804F11A0408BFED1A54F8D0
:103DAC00123C08BF25EAE5759342C4BF9B1AED1877
:103DBC00B5421AD1002008E001235246414638464C
:103DCC00C847013003D14FF0FF30BDE8F087013513
:103DDC00C1E73020E11881F843005A1C94F84510D3
:103DEC002244023382F84310C2E7012322464146A3
:103DFC003846C8470130E6D00136D9E72DE9FF47F0
:103E0C000F7E9146782F80460C469A460C9E01F107
:103E1C00430207D8622F0AD8002F00F0D180582F08
:103E2C0000F0B88004F1420684F842703AE0A7F141
:103E3C006303152BF6D801A151F823F0A13E00081D
:103E4C00B53E0008313E0008313E0008313E000806
:103E5C00313E0008B53E0008313E0008313E0008F6
:103E6C00313E0008313E0008B33F0008DF3E000839
:103E7C006D3F0008313E0008313E0008D53F000878
:103E8C00313E0008DF3E0008313E0008313E00089C
:103E9C00753F000833681A1D1B68326004F1420636
:103EAC0084F8423001239CE033682068191D31608E
:103EBC00060601D51D6803E04506FBD5B3F9005095
:103ECC00002D03DA2D236D4284F843300A23584821
:103EDC0011E021683368080653F8045B02D44906E4
:103EEC0048BFADB26F2F336014BF0A23082350486C
:103EFC00002184F843106668002EA66005DB21685B
:103F0C002E4321F0040121604BD01646B5FBF3F192
:103F1C0003FB1157C75D06F8017D2F46BB420D46CA
:103F2C00F4D9082B0BD12368DF0708D52369616806
:103F3C009942DEBF302306F8013C06F1FF36921B96
:103F4C0022614B4621464046CDF800A003AAFFF75C
:103F5C00E3FE01304AD14FF0FF3004B0BDE8F087EA
:103F6C00236843F0200323607827324884F8457097
:103F7C00236831681F0651F8045B02D45F0648BF02
:103F8C00ADB23160D90744BF43F0200323601DB1AB
:103F9C001023ADE72648E9E7236823F020032360CC
:103FAC00F6E71646BDE733682568181D6169306071
:103FBC002E061B6801D5196002E06806FBD5198036
:103FCC00002316462361BCE7336800211A1D3260BA
:103FDC001E686268304600F059F808B1801B6060BA
:103FEC0063682361002384F84330AAE732464946CC
:103FFC0040462369D0470130ADD023689B0713D4CA
:10400C00E068039B9842B8BF1846A6E701233246E6
:10401C0049464046D04701309DD00135E3680399AD
:10402C005B1AAB42F2DCEBE7002504F11906F5E76D
:10403C002742000838420008884210B501EB020400
:10404C0002D98442234607D8431EA14208D011F856
:10405C00012B03F8012FF8E7014602448A4200D1F4
:10406C0010BD13F8014D02F8014DF7E738B50023E8
:10407C00054D044608462B60FDF74AF9431C02D156
:10408C002B6803B1236038BDB8020020034610B57D
:10409C00C9B202449342184601D1002003E00478CF
:1040AC0001338C42F6D110BD0A44914200F1FF332A
:1040BC0000D1704710B511F8014B914203F8014F34
:1040CC00F9D110BD2DE9F041074614460D4621B932
:1040DC001146BDE8F041FFF73BBC2AB9FFF7CEFB18
:1040EC0025462846BDE8F08100F01AF884420646C1
:1040FC0002D8B4EB500FF4D821463846FFF728FC11
:10410C00804608B94546ECE7B4422246294628BF0A
:10411C003246FFF7C9FF29463846FFF7AFFBF1E7F8
:10412C0051F8043C181F002BBCBF0B58C01870472B
:10413C00F8B500BFF8BC08BC9E467047F8B500BF88
:08414C00F8BC08BC9E46704758
:1041540054656D703A20253264DF432020202020EE
:10416400202020200000000054696D653A2025308D
:1041740032643A253032643A25303264200000003B
:104184005B5345542054454D505D20202020202071
:104194000000000054687265733A20253364DF43DD
:1041A4002000000054687265733A20202020DF4309
:1041B400200000005B5345542054494D455D2020A8
:1041C4002020202000000000202000002530326440
:1041D4000000000054696D653A2025733A25733A4E
:1041E40025732020000000000000000000000000F3
:1041F4000102030406070809000000000102030489
:1042040002030405060708090A0B0C0D0E0F101013
:104214000102232D302B2000686C4C006566674535
:10422400464700303132333435363738394142432A
:1042340044454600303132333435363738396162DB
:084244006364656600000000E0
:04424C003101000834
:044250000D01000854
:104254001E001C0001FF000000127A001000000084
:104264000100000018000020000000008001002070
:10427400E8010020500200200000000000000000BF
:10428400000000000000000000000000000000002A
:10429400000000000000000000000000000000001A
:1042A400000000000000000000000000000000000A
:0442B4000000000006
:040000050800139547
:00000001FF
