:020000040800F2
:1000000000500020C9370008953500089D350008CC
:10001000A5350008AD350008B53500080000000022
:10002000000000000000000000000000BD350008D6
:10003000C935000800000000D5350008E13500088A
:10004000113800081138000811380008113800086C
:10005000113800081138000811380008113800085C
:10006000113800081138000811380008113800084C
:10007000113800081138000811380008113800083C
:10008000113800081138000811380008113800082C
:10009000113800081138000811380008ED35000843
:1000A000113800081138000811380008113800080C
:1000B000053600081138000811380008113800080A
:1000C00011380008113800081138000811380008EC
:1000D00011380008113800081138000811380008DC
:1000E0001936000811380008113800080000000017
:1000F0000000000000000000000000000000000000
:0C01000000000000000000005FF808F1A3
:1001100010B5054C237833B9044B13B10448AFF341
:1001200000800123237010BDF001002000000000BA
:10013000A493000808B5034B1BB103490348AFF370
:10014000008008BD00000000F4010020A493000816
:1001500010F8012B11F8013B012A28BF9A42F7D071
:10016000D01A7047034613F8012B002AFBD1181A46
:100170000138704781F0004102E000BF83F0004386
:1001800030B54FEA41044FEA430594EA050F08BF32
:1001900090EA020F1FBF54EA000C55EA020C7FEAF6
:1001A000645C7FEA655C00F0E2804FEA5454D4EB73
:1001B0005555B8BF6D420CDD2C4480EA020281EA3D
:1001C000030382EA000083EA010180EA020281EA75
:1001D0000303362D88BF30BD11F0004F4FEA0131C7
:1001E0004FF4801C4CEA113102D0404261EB4101D6
:1001F00013F0004F4FEA03334CEA133302D052425C
:1002000063EB430394EA050F00F0A780A4F1010417
:10021000D5F1200E0DDB02FA0EFC22FA05F2801851
:1002200041F1000103FA0EF2801843FA05F3594137
:100230000EE0A5F120050EF1200E012A03FA0EFCB6
:1002400028BF4CF0020C43FA05F3C01851EBE371E0
:1002500001F0004507D54FF0000EDCF1000C7EEBFD
:1002600000006EEB0101B1F5801F1BD3B1F5001F3B
:100270000CD349085FEA30004FEA3C0C04F101045A
:100280004FEA445212F5800F80F09A80BCF1004F83
:1002900008BF5FEA500C50F1000041EB045141EA05
:1002A000050130BD5FEA4C0C404141EB0101013CCE
:1002B00028BFB1F5801FE9D291F0000F04BF0146BD
:1002C0000020B1FA81F308BF2033A3F10B03B3F18F
:1002D00020020CDA0C3208DD02F1140CC2F10C021F
:1002E00001FA0CF021FA02F10CE002F11402D8BF7D
:1002F000C2F1200C01FA02F120FA0CFCDCBF41EA49
:100300000C019040E41AA2BF01EB0451294330BD17
:100310006FEA04041F3C1CDA0C340EDC04F11404F4
:10032000C4F1200220FA04F001FA02F340EA0300CB
:1003300021FA04F345EA030130BDC4F10C04C4F111
:10034000200220FA02F001FA04F340EA03002946F1
:1003500030BD21FA04F0294630BD94F0000F83F43B
:10036000801306BF81F480110134013D4EE77FEA1E
:10037000645C18BF7FEA655C29D094EA050F08BF6A
:1003800090EA020F05D054EA000C04BF194610464B
:1003900030BD91EA030F1EBF0021002030BD5FEA8F
:1003A000545C05D14000494128BF41F0004130BDB7
:1003B00014F580043CBF01F5801130BD01F000450B
:1003C00045F0FE4141F470014FF0000030BD7FEA7E
:1003D000645C1ABF194610467FEA655C1CBF0B4679
:1003E000024650EA013406BF52EA033591EA030F90
:1003F00041F4002130BD00BF90F0000F04BF002188
:10040000704730B54FF4806404F132044FF00005BA
:100410004FF0000150E700BF90F0000F04BF002133
:10042000704730B54FF4806404F1320410F0004599
:1004300048BF40424FF000013EE700BF42004FEA94
:10044000E2014FEA31014FEA02701FBF12F07F4311
:1004500093F07F4F81F06051704732F07F4208BFC8
:10046000704793F07F4F04BF41F40021704730B5CF
:100470004FF4607401F0004521F000411CE700BF1B
:1004800050EA010208BF704730B54FF000050AE09E
:1004900050EA010208BF704730B511F0004502D59F
:1004A000404261EB41014FF4806404F132045FEAA1
:1004B000915C3FF4D8AE4FF003025FEADC0C18BF4A
:1004C00003325FEADC0C18BF033202EBDC02C2F13C
:1004D000200300FA03FC20FA02F001FA03FE40EACE
:1004E0000E0021FA02F11444BDE600BF70B54FF0D2
:1004F000FF0C4CF4E06C1CEA11541DBF1CEA1355B0
:1005000094EA0C0F95EA0C0F00F0DEF82C4481EA17
:10051000030621EA4C5123EA4C5350EA013518BF37
:1005200052EA033541F4801143F4801338D0A0FB24
:1005300002CE4FF00005E1FB02E506F00042E0FBD1
:1005400003E54FF00006E1FB03569CF0000F18BFD7
:100550004EF0010EA4F1FF04B6F5007F64F540747F
:1005600004D25FEA4E0E6D4146EB060642EAC62112
:1005700041EA55514FEAC52040EA5E504FEACE2E7F
:10058000B4F1FD0C88BFBCF5E06F1ED8BEF1004F82
:1005900008BF5FEA500E50F1000041EB045170BDFE
:1005A00006F0004646EA010140EA020081EA030142
:1005B000B4EB5C04C2BFD4EB0C0541EA045170BD3E
:1005C00041F480114FF0000E013C00F3AB8014F1B8
:1005D000360FDEBF002001F0004170BDC4F1000401
:1005E000203C35DA0C341BDC04F11404C4F1200582
:1005F00000FA05F320FA04F001FA05F240EA0200DD
:1006000001F0004221F0004110EBD37021FA04F612
:1006100042EB06015EEA430E08BF20EAD37070BDCC
:10062000C4F10C04C4F1200500FA04F320FA05F02B
:1006300001FA04F240EA020001F0004110EBD3702D
:1006400041F100015EEA430E08BF20EAD37070BD9D
:10065000C4F1200500FA05F24EEA020E20FA04F376
:1006600001FA05F243EA020321FA04F001F0004125
:1006700021FA04F220EA020000EBD3705EEA430E96
:1006800008BF20EAD37070BD94F0000F0FD101F0C5
:100690000046400041EB010111F4801F08BF013CFE
:1006A000F7D041EA060195F0000F18BF704703F03C
:1006B0000046520043EB030313F4801F08BF013DC3
:1006C000F7D043EA0603704794EA0C0F0CEA13557F
:1006D00018BF95EA0C0F0CD050EA410618BF52EA39
:1006E0004306D1D181EA030101F000414FF000003F
:1006F00070BD50EA410606BF1046194652EA43064D
:1007000019D094EA0C0F02D150EA013613D195EAC0
:100710000C0F05D152EA03361CBF104619460AD108
:1007200081EA030101F0004141F0FE4141F4700112
:100730004FF0000070BD41F0FE4141F4780170BD02
:1007400070B54FF0FF0C4CF4E06C1CEA11541DBF67
:100750001CEA135594EA0C0F95EA0C0F00F0A7F869
:10076000A4EB050481EA030E52EA03354FEA013196
:1007700000F088804FEA03334FF0805545EA1313A9
:1007800043EA12634FEA022245EA111545EA106571
:100790004FEA00260EF000419D4208BF964244F108
:1007A000FD0404F5407402D25B084FEA3202B61A27
:1007B00065EB03055B084FEA32024FF480104FF4FB
:1007C000002CB6EB020E75EB030E22BFB61A75466F
:1007D00040EA0C005B084FEA3202B6EB020E75EB02
:1007E000030E22BFB61A754640EA5C005B084FEA6A
:1007F0003202B6EB020E75EB030E22BFB61A754637
:1008000040EA9C005B084FEA3202B6EB020E75EB41
:10081000030E22BFB61A754640EADC0055EA060E02
:1008200018D04FEA051545EA16754FEA06164FEA45
:10083000C30343EA52734FEAC2025FEA1C1CC0D1F1
:1008400011F4801F0BD141EA00014FF000004FF07E
:10085000004CB6E711F4801F04BF01430020B4F13F
:10086000FD0C88BFBCF5E06F3FF6AFAEB5EB030CF7
:1008700004BFB6EB020C5FEA500C50F1000041EBF4
:10088000045170BD0EF0004E4EEA113114EB5C04C1
:10089000C2BFD4EB0C0541EA045170BD41F4801194
:1008A0004FF0000E013C90E645EA060E8DE60CEA9C
:1008B000135594EA0C0F08BF95EA0C0F3FF43BAFB9
:1008C00094EA0C0F0AD150EA01347FF434AF95EA70
:1008D0000C0F7FF425AF104619462CE795EA0C0F54
:1008E00006D152EA03353FF4FDAE1046194622E721
:1008F00050EA410618BF52EA43067FF4C5AE50EAFB
:1009000041047FF40DAF52EA43057FF4EBAE12E7EA
:100910004FF0FF3C06E000BF4FF0010C02E000BFCB
:100920004FF0010C4DF804CD4FEA410C7FEA6C5CAE
:100930004FEA430C18BF7FEA6C5C1BD001B050EA51
:10094000410C0CBF52EA430C91EA030F02BF90EA3C
:10095000020F0020704710F1000F91EA030F58BFFB
:10096000994208BF90422CBFD8176FEAE37040F05D
:10097000010070474FEA410C7FEA6C5C02D150EAFB
:10098000013C07D14FEA430C7FEA6C5CD6D152EAB6
:10099000033CD3D05DF8040B704700BF844610467B
:1009A00062468C461946634600E000BF01B5FFF77A
:1009B000B7FF002848BF10F1000F01BD4DF808ED4A
:1009C000FFF7F4FF0CBF012000205DF808FB00BF1B
:1009D0004DF808EDFFF7EAFF34BF012000205DF875
:1009E00008FB00BF4DF808EDFFF7E0FF94BF0120C2
:1009F00000205DF808FB00BF4DF808EDFFF7CEFFC3
:100A000094BF012000205DF808FB00BF4DF808ED01
:100A1000FFF7C4FF34BF012000205DF808FB00BFD2
:100A20004FEA410C7FEA6C5C02D150EA013C0AD1EA
:100A30004FEA430C7FEA6C5C02D152EA033C02D1DC
:100A40004FF0000070474FF0010070474FEA41023D
:100A500012F5001215D211D56FF47873B3EB625210
:100A600012D94FEAC12343F0004343EA505311F037
:100A7000004F23FA02F018BF404270474FF00000C9
:100A8000704750EA013005D111F0004008BF6FF007
:100A9000004070474FF00000704700BF80F00040FA
:100AA00002E000BF81F0004142001FBF5FEA410346
:100AB00092EA030F7FEA226C7FEA236C6AD04FEA46
:100AC0001262D2EB1363C1BFD2184140484041408B
:100AD000B8BF5B42192B88BF704710F0004F40F43D
:100AE000000020F07F4018BF404211F0004F41F459
:100AF000000121F07F4118BF494292EA030F3FD025
:100B0000A2F1010241FA03FC10EB0C00C3F1200337
:100B100001FA03F100F0004302D5494260EB4000C6
:100B2000B0F5000F13D3B0F1807F06D340084FEA31
:100B3000310102F10102FE2A51D2B1F1004F40EB26
:100B4000C25008BF20F0010040EA0300704749008E
:100B500040EB0000013A28BFB0F5000FEDD2B0FA2B
:100B600080FCACF1080CB2EB0C0200FA0CF0AABF4E
:100B700000EBC25052421843BCBFD04018437047EC
:100B800092F0000F81F4000106BF80F400000132F2
:100B9000013BB5E74FEA41037FEA226C18BF7FEAC9
:100BA000236C21D092EA030F04D092F0000F08BF0B
:100BB0000846704790EA010F1CBF0020704712F0F2
:100BC0007F4F04D1400028BF40F00040704712F131
:100BD00000723CBF00F50000704700F0004343F096
:100BE000FE4040F4000070477FEA226216BF0846CC
:100BF0007FEA23630146420206BF5FEA412390EA8F
:100C0000010F40F4800070474FF0000304E000BF84
:100C100010F0004348BF40425FEA000C08BF704735
:100C200043F0964301464FF000001CE050EA0102F9
:100C300008BF70474FF000030AE000BF50EA01020E
:100C400008BF704711F0004302D5404261EB4101FB
:100C50005FEA010C02BF84460146002043F0B64320
:100C600008BFA3F18053A3F50003BCFA8CF2083A45
:100C7000A3EBC25310DB01FA02FC634400FA02FC4E
:100C8000C2F12002BCF1004F20FA02F243EB020055
:100C900008BF20F00100704702F1200201FA02FCB7
:100CA000C2F1200250EA4C0021FA02F243EB0200AA
:100CB00008BF20EADC7070474FF0FF0C1CEAD052EE
:100CC0001EBF1CEAD15392EA0C0F93EA0C0F6FD0AF
:100CD0001A4480EA010C400218BF5FEA41211ED08D
:100CE0004FF0006343EA501043EA5111A0FB013179
:100CF0000CF00040B1F5000F3EBF490041EAD3714E
:100D00005B0040EA010062F17F02FD2A1DD8B3F1C9
:100D1000004F40EBC25008BF20F00100704790F038
:100D2000000F0CF0004C08BF49024CEA502040EA8A
:100D300051207F3AC2BFD2F1FF0340EAC250704750
:100D400040F400004FF00003013A5DDC12F1190F8E
:100D5000DCBF00F000407047C2F10002410021FA00
:100D600002F1C2F1200200FA02FC5FEA310040F118
:100D7000000053EA4C0308BF20EADC70704792F091
:100D8000000F00F0004C02BF400010F4000F013AC9
:100D9000F9D040EA0C0093F0000F01F0004C02BFC4
:100DA000490011F4000F013BF9D041EA0C018FE733
:100DB0000CEAD15392EA0C0F18BF93EA0C0F0AD039
:100DC00030F0004C18BF31F0004CD8D180EA01005F
:100DD00000F00040704790F0000F17BF90F0004FF8
:100DE000084691F0000F91F0004F14D092EA0C0FDA
:100DF00001D142020FD193EA0C0F03D14B0218BF6D
:100E0000084608D180EA010000F0004040F0FE40B2
:100E100040F40000704740F0FE4040F4400070474E
:100E20004FF0FF0C1CEAD0521EBF1CEAD15392EACD
:100E30000C0F93EA0C0F69D0A2EB030280EA010CBD
:100E400049024FEA402037D04FF0805343EA111156
:100E500043EA10130CF000408B4238BF5B0042F1B4
:100E60007D024FF4000C8B4224BF5B1A40EA0C0059
:100E7000B3EB510F24BFA3EB510340EA5C00B3EB8B
:100E8000910F24BFA3EB910340EA9C00B3EBD10F79
:100E900024BFA3EBD10340EADC001B0118BF5FEACB
:100EA0001C1CE0D1FD2A3FF650AF8B4240EBC250F4
:100EB00008BF20F0010070470CF0004C4CEA5020B5
:100EC0007F32C2BFD2F1FF0340EAC250704740F404
:100ED00000004FF00003013A37E792F0000F00F0F6
:100EE000004C02BF400010F4000F013AF9D040EA74
:100EF0000C0093F0000F01F0004C02BF490011F408
:100F0000000F013BF9D041EA0C0195E70CEAD153FF
:100F100092EA0C0F08D142027FF47DAF93EA0C0FE6
:100F20007FF470AF084676E793EA0C0F04D14B02CA
:100F30003FF44CAF08466EE730F0004C18BF31F07C
:100F4000004CCAD130F000427FF45CAF31F0004376
:100F50007FF43CAF5FE700BF4FF0FF3C06E000BF0F
:100F60004FF0010C02E000BF4FF0010C4DF804CD32
:100F70004FEA40024FEA41037FEA226C18BF7FEA42
:100F8000236C11D001B052EA530C18BF90EA010F44
:100F900058BFB2EB030088BFC81738BF6FEAE170D3
:100FA00018BF40F0010070477FEA226C02D15FEA6F
:100FB000402C05D17FEA236CE4D15FEA412CE1D0DB
:100FC0005DF8040B704700BF844608466146FFE7A2
:100FD0000FB5FFF7C9FF002848BF10F1000F0FBD84
:100FE0004DF808EDFFF7F4FF0CBF012000205DF87D
:100FF00008FB00BF4DF808EDFFF7EAFF34BF012002
:1010000000205DF808FB00BF4DF808EDFFF7E0FF9A
:1010100094BF012000205DF808FB00BF4DF808EDEB
:10102000FFF7D2FF94BF012000205DF808FB00BF4E
:101030004DF808EDFFF7C8FF34BF012000205DF830
:1010400008FB00BF4FEA4002B2F1FE4F0FD34FF052
:101050009E03B3EB12620DD94FEA002343F0004325
:1010600010F0004F23FA02F018BF404270474FF0D3
:101070000000704712F1610F01D1420205D110F05A
:10108000004008BF6FF0004070474FF0000070470D
:1010900080B582B000AF7860084611461A46034614
:1010A000FB700B46BB7013467B702F4A7B68136046
:1010B000FB785B00DAB22C4B1A712B4ABB78537168
:1010C000294A7B789371284B0822DA71322002F08A
:1010D00003FC254BDB79184600F030F94FF47A70A9
:1010E00002F0FAFB302000F017F9052002F0F4FBC3
:1010F000302000F011F9052002F0EEFB302000F066
:101100000BF9012002F0E8FB202000F005F9164B56
:1011100000221A72144B9B79012B06D9124B1B7AB1
:1011200043F00803DAB2104B1A720F4B1B7A43F0EC
:101130002003DBB2184600F09DF80B4B04225A72D4
:1011400000F01EF8084B02229A72074B9B7A43F07C
:101150000403DBB2184600F08DF800F007F800BF7A
:101160000837BD4680BD00BF0C02002080B500AF2F
:10117000012000F07FF8022002F0AEFB00BF80BD2E
:1011800080B500AF084B5B7A43F00403DAB2064B3C
:101190005A72054B5B7A43F00803DBB2184600F045
:1011A00069F800BF80BD00BF0C02002080B500AF11
:1011B000084B5B7A23F00103DAB2064B5A72054BF7
:1011C0005B7A43F00803DBB2184600F053F800BF27
:1011D00080BD00BF0C02002080B500AF084B5B7AD9
:1011E00043F00103DAB2064B5A72054B5B7A43F0C7
:1011F0000803DBB2184600F03DF800BF80BD00BF19
:101200000C02002080B500AF034B0822DA710020E9
:1012100000F094F800BF80BD0C02002080B584B0BF
:1012200000AF03460A46FB711346BB710F4BFB60D0
:101230000F4B9B79BA799A4203D30D4B9B79013BB3
:10124000BB71BB7910333B4413F8042CFB79134476
:10125000DBB25BB263F07F035BB2DBB2184600F037
:1012600009F800BF1037BD4680BD00BF00401454D0
:101270000C02002080B582B000AF0346FB71FB7901
:101280000021184600F027F800BF0837BD4680BD92
:1012900080B582B000AF0346FB71FB79012118468F
:1012A00000F019F800BF0837BD4680BD80B582B098
:1012B00000AF786006E07B685A1C7A601B7818469D
:1012C000FFF7E6FF7B681B78002BF4D100BF00BF5F
:1012D0000837BD4680BD80B584B000AF03460A46DE
:1012E000FB711346BB71FB7923F00F03FB73FB7992
:1012F0001B01BB73FA7BBB791343DBB2184600F0CA
:101300000BF8BA7BBB791343DBB2184600F004F844
:1013100000BF1037BD4680BD80B582B000AF034628
:10132000FB71FB79184600F009F8FB79184600F0CC
:1013300023F800BF0837BD4680BD000080B586B0E9
:1013400002AF0346FB710B4BDA79FB791343DBB237
:101350003B73084B1868074B1B79194607F10C02C1
:101360000A230093012303F0E1F800BF1037BD46C4
:1013700080BD00BF0C02002080B582B000AF0346E4
:10138000FB71FB7943F00403DBB21846FFF7D6FF8D
:10139000FB7923F00403DBB21846FFF7CFFF00BF51
:1013A0000837BD4680BD80B500AFFFF715FF00BF11
:1013B00080BD80B500AFFFF7F9FE00BF80BD80B5EE
:1013C00084B000AF78600B46FB701346BB70FB78AF
:1013D00063F07F03FB70FB783B73BB787B737B68A8
:1013E00058687B681B890022194602F02BFF7B6836
:1013F000186807F10C014FF0FF33022204F06EF879
:101400007B6858687B681B890122194602F01AFF25
:1014100000BF1037BD4680BD80B584B000AFF86016
:101420007A601A460B46FB721346BB72FB7A03F0D6
:101430007F03DBB2FB72FB685868FB681B890022E4
:10144000194602F0FFFEFB68186807F10B014FF028
:10145000FF33012204F042F8FB681868BB7A9AB2A5
:101460004FF0FF33796804F07DF9FB685868FB683A
:101470001B890122194602F0E5FE00BF1037BD4668
:1014800080BD80B584B000AF78600B46FB70002350
:10149000FB7307F10F02F97801237868FFF7BCFFAF
:1014A000FB7B18461037BD4680BD80B584B000AFC9
:1014B00078600B46FB7007F1080300210A461A808A
:1014C0000A469A7007F10802F97803237868FFF753
:1014D000A3FF3B7AFB60FB681B02FB607B7A1A462A
:1014E000FB681343FB60FB681B02FB60BB7A1A4678
:1014F000FB681343FB60FB6818461037BD4680BD90
:1015000080B584B000AFF860B9607A607B80FB681A
:10151000002B05D0BB68002B02D07B68002B01D1CB
:1015200000232BE0FB68BA681A60FB687A685A608F
:10153000FB687A881A81FB680122DA72FB685868B6
:10154000FB681B890122194602F07CFE0022022161
:10155000F868FFF734FF10220021F868FFF72FFF2B
:1015600000220921F868FFF72AFF0321F86800F03C
:1015700037F80021F86800F005F801231846103705
:10158000BD4680BD80B584B000AF78600B46FB706F
:101590007B68FA789A7200217868FFF772FF034639
:1015A000FB737B689B7A022B08D1FB7B63F07F0384
:1015B000FB73FB7B23F04003FB7307E0FB7B03F033
:1015C0007F03FB73FB7B43F04003FB73FB7B1A46FB
:1015D00000217868FFF7F3FE00BF1037BD4680BDDD
:1015E00080B584B000AF78600B46FB70012178684D
:1015F000FFF747FF0346FB73FB7B23F00F03FB73EF
:1016000097F9033003F00F035AB297F90F301343E1
:101610005BB2FB73FB7B1A4601217868FFF7CFFEB4
:1016200000BF1037BD4680BD80B582B000AF786086
:101630000F217868FFF725FF034618460837BD4697
:1016400080BD80B584B000AF78600B46FB70002190
:101650007868FFF716FF0346FB73FB78002B04D175
:10166000FB7B43F00103FB7303E0FB7B23F00103EF
:10167000FB73FB7B1A4600217868FFF7A0FE00BFD2
:101680001037BD4680BD80B584B000AF78607B6800
:101690009B7A022B14D000217868FFF7F2FE0346F4
:1016A000FB73FB7B03F07F03FB73FB7B43F0400387
:1016B000FB73FB7B1A4600217868FFF780FE00E091
:1016C00000BF1037BD4680BD80B582B000AF7860E6
:1016D0007B689B7A022B01D101230BE00021786803
:1016E000FFF7CFFE034603F04003002B0CBF01239E
:1016F0000023DBB218460837BD4680BD80B584B0F4
:1017000000AF78607B689B7A002B1BD17868FFF76D
:10171000BAFF02F0D7F8B8600BE002F0D3F8024647
:10172000BB68D31AFA2B01D9164B27E00A2002F026
:10173000D3F87868FFF7C8FF034683F00103DBB2F4
:10174000002BEAD10C217868FFF7AFFE0346FB605F
:10175000FB6803F40003002B03D0FB6843F07F43D6
:10176000FB60FB685B11FB60F868FFF751FA03460A
:101770004FF070511846FFF79FFA0346184610378E
:10178000BD4680BD0000C07F80B582B000AF7860EC
:101790007B68002B31D07B681B6A002B2DD07B68C7
:1017A000DB69002B29D07B681B6A1A687B68DA62C8
:1017B0007B68DB691A687B681A637B68DA6A7B6816
:1017C000DB6B19461046FFF733FC0346002B04D0B1
:1017D0007B68DA6B7B68DA6210E07B68DA6A7B68C8
:1017E0009B6B19461046FFF705FC0346002B05D0FE
:1017F0007B689A6B7B68DA6200E000BF0837BD4601
:1018000080BD000080B586B002AFF860B9607A6034
:101810003B60FB68002B2CD0FB687A681A62FB687F
:10182000BA68DA61FB683A685A62FB680022DA76C5
:10183000124A4FF00001F86800F0B5F9FB68642225
:101840005A6397F828301946F86800F035FA97F887
:10185000243000933B6AFA69B969F86800F0E8F847
:1018600002F030F80246FB685B6BD21AFB689A62A2
:1018700000E000BF1037BD4680BD00BF00007F43C1
:1018800090B58BB000AF78607B68002B06D07B688A
:10189000DB7E83F00103DBB2002B01D00023C3E029
:1018A0007B68DB69002B07D07B681B6A002B03D0A9
:1018B0007B685B6A002B01D10023B5E002F002F8DF
:1018C00038627B689B6A3A6AD31AFB617B685B6B00
:1018D000FA699A42C0F0A7807B68DB691B68BB612C
:1018E0007B685B6A1B687B61B9697869FFF7DAF826
:1018F00003463B617B681B6B1946B869FFF7D2F85A
:101900000346FB607B68DC6A7B681B6939691846A3
:10191000FFF7D2F9034619462046FFF7C5F80346FC
:101920001A467B68DA627B689B7E83F00103DBB238
:10193000002B10D07B68DC6A7B68DB68F96818468E
:10194000FFF7BAF9034619462046FFF7ABF80346FE
:101950001A467B68DA627B68DA6A7B68DB6B194659
:101960001046FFF765FB0346002B04D07B68DA6B5B
:101970007B68DA620EE07B68DA6A7B689B6B1946EB
:101980001046FFF737FB0346002B03D07B689A6BAA
:101990007B68DA627B689B7E002B08D07B68DB6803
:1019A00019463869FFF788F903467B6202E04FF079
:1019B00000037B627B68DC6A7B685B69F9681846B8
:1019C000FFF77AF9034619462046FFF76BF80346FE
:1019D0001946786AFFF768F803467B627B68DB6B21
:1019E0001946786AFFF724FB0346002B03D07B6877
:1019F000DB6B7B620BE07B689B6B1946786AFFF7B9
:101A0000F9FA0346002B02D07B689B6B7B627B68F4
:101A10001B6A7A6A1A607B68BA691A637B683A6AD9
:101A20009A62012300E0002318462C37BD4690BD82
:101A300080B586B000AFF860B9607A603B60FB6843
:101A4000002B72D04FF00001B868FFF7D3FA0346BD
:101A5000002B6AD14FF000017868FFF7CBFA0346FC
:101A6000002B62D14FF000013868FFF7C3FA03463C
:101A7000002B5AD1FB6897F820205A7697F820302F
:101A8000012B0CBF01230023DAB2FB689A76FB68B6
:101A9000BA681A60FB687A685A60FB683A689A60AC
:101AA000FB685B6B1846FFF7AFF803462149184601
:101AB000FFF7B6F903467B61FB68BA68DA607969BB
:101AC0007868FFF7F9F803461A46FB681A617969E6
:101AD0003868FFF7A5F903461A46FB685A61FB68A8
:101AE0001B7E012B22D1FB68DB6819464FF00000FA
:101AF000FEF7D8FF03461A46FB68DA60FB681B69ED
:101B000019464FF00000FEF7CDFF03461A46FB686A
:101B10001A61FB685B6919464FF00000FEF7C2FFCF
:101B200003461A46FB685A6100E000BF1837BD46FD
:101B300080BD00BF00007A4490B585B000AF7860EA
:101B400039607B68002B2AD03B68002B28D038688E
:101B5000FFF75AF804467B685B6B1846FFF754F8AA
:101B6000034619462046FFF75BF90346FB607B6896
:101B70001B69F9681846FFF79FF803461A467B6809
:101B80001A617B685B69F9681846FFF749F90346F3
:101B90001A467B685A617B683A685A6300E000BF66
:101BA0001437BD4690BD80B584B000AFF860B96011
:101BB0007A60FB68002B57D07968B868FFF72EFA77
:101BC0000346002B50D1FB68BA689A63FB687A68B9
:101BD000DA63FB68DB7E002B47D0FB681B6A002BB7
:101BE00022D0FB681B6A1A68FB68DB6B194610463B
:101BF000FFF71EFA0346002B05D0FB681B6AFA6844
:101C0000D26B1A6010E0FB681B6A1A68FB689B6B5A
:101C100019461046FFF7EEF90346002B04D0FB6887
:101C20001B6AFA68926B1A60FB68DA6AFB68DB6B06
:101C300019461046FFF7FCF90346002B04D0FB6859
:101C4000DA6BFB68DA6210E0FB68DA6AFB689B6BB0
:101C500019461046FFF7CEF90346002B05D0FB6866
:101C60009A6BFB68DA6200E000BF1037BD4680BDAA
:101C700080B584B000AF78600B46FB707B68002BAA
:101C800016D0FB78012B0CBF01230023FB73FB7BD9
:101C9000002B09D07B68DB7E83F00103DBB2002BD5
:101CA00002D07868FFF770FD7B68FA7BDA7600E097
:101CB00000BF1037BD4680BD80B582B000AF7860F0
:101CC0000B46FB707B68002B2DD07B68DB7E002BE6
:101CD00025D07B681B7EFA789A4220D07B68DB682F
:101CE00019464FF00000FEF7DDFE03461A467B68FA
:101CF000DA607B681B6919464FF00000FEF7D2FEE0
:101D000003461A467B681A617B685B6919464FF087
:101D10000000FEF7C7FE03461A467B685A617B68DF
:101D2000FA781A7600E000BF0837BD4680BD80B45F
:101D300083B000AF78607B68DB7E18460C37BD4609
:101D400080BC704780B584B000AF0346FB8001F0D3
:101D5000B9FDF860FB88B3F5807F0CD12A4B1B6876
:101D6000FA68D31AC82B06D9284B01221A70264AC2
:101D7000FB68136043E0FB88B3F5007F0CD1244B74
:101D80001B68FA68D31AC82B06D9224B01221A7095
:101D90001F4AFB68136032E0FB88B3F5004F0CD19B
:101DA0001D4B1B68FA68D31AC82B06D91B4B01229E
:101DB0001A70194AFB68136021E0FB88B3F5006FC5
:101DC0000CD1174B1B68FA68D31AC82B06D9154BD0
:101DD00001221A70124AFB68136010E0FB88B3F509
:101DE000806F0CD1104B1B68FA68D31AC82B06D928
:101DF0000E4B01221A700C4AFB681360FFE700BF0C
:101E00001037BD4680BD00BF700300208403002052
:101E10007403002085030020800300208603002037
:101E20007C03002087030020780300208803002023
:101E300080B483B000AF78607B681B68B3F1804FDB
:101E40002AD1184B1B78012B26D1174B1B78013355
:101E5000DAB2154B1A70144B1B783B2B15D9124B69
:101E600000221A70114B1B780133DAB20F4B1A7033
:101E70000E4B1B783B2B08D90C4B00221A700C4BD5
:101E80001B780133DAB20A4B1A700A4B1B78002B0D
:101E900002D1094B01221A7000BF0C37BD4680BC2D
:101EA000704700BFD4030020D8030020D7030020D0
:101EB000D6030020D50300201400002080B582B096
:101EC00000AF9F4B1B78DBB2002B4CD09C4B002209
:101ED0001A709C4B1B78002B06D19A4B01221A706A
:101EE000994B00221A703BE000F046FD954B002212
:101EF0001A70964B00221A70954B00221A70954B5F
:101F000000221A70944B01221A708F4B01221A7012
:101F1000924B00221A60924B1B684FF0000118464A
:101F2000FFF786F80346002B02D08D4B1B6800E0BC
:101F30008C4B8D4A13608D4B1B791A464FF46163AD
:101F400003FB02F2894B5B7919460B461B015B1AB6
:101F50009B001344854A927913441A46844B1A60B5
:101F6000844B01221A70844B1B78DBB2002B3ED0CD
:101F7000814B00221A70734B1B78022B0FD17F4BC1
:101F80001B780133DAB27D4B1A707C4B1A787C4B8C
:101F90001B789A4228D9794B01221A7024E0694BA8
:101FA0001B78032B0DD1774B1B7801335A4203F07A
:101FB000030302F0030258BF5342DAB2714B1A70A6
:101FC00012E0604B1B78042B0ED16F4B1B785A1C10
:101FD0006E4B83FB0231D317C91A0B465B000B44CF
:101FE000D11ACAB2684B1A70624B01221A70684B40
:101FF0001B78DBB2002B00F0DB80654B00221A70EF
:10200000504B1B78013B032B00F2988001A252F841
:1020100023F000BF2520000839200008DD2000083B
:10202000F9200008474B02221A70544B01221A7003
:10203000584B00221A70B8E0564B1B78002B12D177
:102040004E4B1B78013B494A12F83330002B0CBF32
:1020500001230023DAB2494B1B78013B1146434A66
:1020600002F83310A0E04B4B1B78012B0FD1434BF0
:102070001B78013B3D4ADB0013445A88464B1A80CB
:10208000404B00221A702F4B03221A708CE0414BF8
:102090001B78022B40F08880384B1B78013B334A79
:1020A000DB0013441A793D4B1A70344B1B78013B0B
:1020B0002E4ADB0013445A79394B1A702F4B1B7888
:1020C000013B2A4ADB0013449A79364B1A702E4B97
:1020D00000221A701B4B04221A7065E0274B1B78F4
:1020E000013B2D4A1188214ADB0013440A465A80DD
:1020F000144B02221A7058E0204B1B78013B274AF0
:1021000011781A4ADB0013440A461A711B4B1B78DC
:10211000013B234A1178154ADB0013440A465A71E1
:10212000164B1B78013B1F4A1178104ADB00134401
:102130000A469A71034B02221A7036E000BF34E05F
:1021400084030020D5030020D4030020D603002000
:10215000D7030020D803002012000020E403002051
:10216000E00300200000C841E80300208C030020A9
:10217000DC03002014000020850300201300002051
:1021800011000020ED030020EE03002056555555A8
:1021900086030020EC030020F0030020F20300205F
:1021A000F3030020F403002000BFA04B01221A70AB
:1021B0009F4B1B78DBB2002B05D19E4B1B78DBB20B
:1021C000002B00F078819A4B1B78DBB2002B14BFF8
:1021D00001230023FB71964B00221A70954B0022BD
:1021E0001A70954B1B78013B032B00F25C8101A216
:1021F00052F823F005220008472200088122000837
:10220000A9230008FB79002B0AD08C4B1B78082BE4
:1022100006D88A4B1B780133DAB2884B1A7044E136
:10222000FB7983F00103DBB2002B00F03E81834B8E
:102230001B78012B40F23981804B1B78013BDAB2CD
:102240007E4B1A7031E1FB79002B0CD07C4B1B7854
:10225000002B04D07A4B1B78013BDBB200E0022359
:10226000774A137024E1764B1B78012B04D8744B0A
:102270001B780133DBB200E00023714A137017E1D1
:10228000704B1B88704AA2FB03239B099BB2DBB2F5
:102290003B706C4B1B886D4AA2FB03235B099AB20F
:1022A0006B4BA3FB0213D9080B469B000B445B004E
:1022B000D31A9BB2DBB27B70624B1B88644AA2FBD1
:1022C0000323DB089AB2624BA3FB0213D9080B4627
:1022D0009B000B445B00D31A9BB2DBB2BB70594B23
:1022E0001A885B4BA3FB0213D9080B469B000B44D7
:1022F0005B00D31A9BB2DBB2FB70FB79002B18D0CA
:10230000544B1B7808333B4413F8083C092B08D086
:10231000504B1B7808333B4413F8083C0133DAB2C6
:1023200000E000224B4B1B7808333B4403F8082C99
:1023300017E0484B1B7808333B4413F8083C002B4C
:1023400008D0444B1B7808333B4413F8083C013B4E
:10235000DAB200E009223F4B1B7808333B4403F814
:10236000082C3B781A465201D21A92001344DB0023
:102370009AB27B78194689000B44194688001946A1
:1023800003460B449B009BB213449AB2BB78194698
:1023900089000B445B009BB213449BB2FA78134450
:1023A0009AB2284B1A8083E02B4B1B78002B1CD150
:1023B000FB79002B0CD0294B1B78632B04D0274BC7
:1023C0001B780133DBB200E00023244A13706EE077
:1023D000224B1B78002B04D0204B1B78013BDBB237
:1023E00000E063231D4A137061E01B4B1B78012B37
:1023F00038D1FB79002B0CD0194B1B783B2B04D028
:10240000174B1B780133DBB200E00023144A137032
:102410004DE0134B1B78002B04D0114B1B78013B74
:10242000DBB200E03B230E4A137040E014000020B2
:102430008703002088030020D5030020110000201E
:10244000EC030020F0030020D34D62101F85EB51F8
:10245000CDCCCCCCED030020EE030020F203002015
:10246000F3030020164B1B78022B20D1FB79002BA5
:102470000CD0144B1B783B2B04D0124B1B78013330
:10248000DBB200E000230F4A137010E00D4B1B7805
:10249000002B04D00B4B1B78013BDBB200E03B234D
:1024A000084A137003E000BF02E000BF00E000BF75
:1024B000054B01221A7000BF0837BD4680BD00BF22
:1024C000EE030020F40300201400002080B592B039
:1024D00002AF9F4B1B7883F00103DBB2002B40F06F
:1024E000FE819B4B00221A7007F12C031022202141
:1024F000184604F076FE002387F83C3007F11803F5
:1025000010222021184604F06CFE002387F82830A2
:10251000904B1B78042B00F2848101A252F823F027
:10252000352500082D260008752600080327000819
:10253000C9270008884B1B78002B20D03B468749D1
:10254000184604F0E9FD3B461846FDF70BFE02462F
:10255000394607F12C03184604F0D9FE3B46804962
:10256000184604F0D9FD3B461846FDF7FBFD024630
:10257000394607F11803184604F0C9FE51E1794BBA
:102580001B78002B0CD1784B1B681846FEF75AFDC0
:102590000246764B1B783846754904F0BDFD20E0B5
:1025A000704B1B78022B0BD16F4B1B681846FEF744
:1025B00049FD02463B466F49184604F0ADFD10E068
:1025C000694B1B681846FEF73DFD02466A4B1B78B7
:1025D0001946664B1B78384600930B46674904F052
:1025E0009BFD3B461846FDF7BDFD0246394607F107
:1025F0002C03184604F08BFE614B1B781A46614B86
:102600001B781946604B1B78384600930B465F4990
:1026100004F082FD3B461846FDF7A4FD024639460C
:1026200007F11803184604F072FEFAE03B465849D9
:10263000184604F071FD3B461846FDF793FD02462F
:10264000394607F12C03184604F061FE474B1B780E
:102650001A463B464F49184604F05EFD3B46184675
:10266000FDF780FD0246394607F11803184604F0CD
:102670004EFED6E0484B1B781A463B464749184663
:1026800004F04AFD3B461846FDF76CFD024639460C
:1026900007F12C03184604F03AFE414B1B78002B3F
:1026A00010D13D4B1B78013B3E4A12F83330002BD2
:1026B00001D13D4A00E03D4A3B463D49184604F001
:1026C0002BFD12E0364B1B78012B05D13B463949D7
:1026D000184604F021FD08E0314B1B78022B04D191
:1026E0003B463549184604F017FD3B461846FDF7B2
:1026F00039FD0246394607F11803184604F007FE73
:102700008FE0254B1B781A463B462C49184604F0AF
:1027100003FD3B461846FDF725FD0246394607F105
:102720002C03184604F0F3FD254B1B881A463B4644
:102730002449184604F0F0FC3B461846FDF712FD0C
:102740000246394607F11803184604F0E0FD68E038
:1027500014000020D50300206C030020C093000863
:10276000D4930008D4030020E003002011000020CF
:10277000E8930008FC930008120000200C94000865
:10278000D6030020D7030020D8030020209400089F
:10279000389400084894000813000020589400085A
:1027A000EC0300208C0300206C9400087094000857
:1027B0007894000884940008909400089C94000881
:1027C000F0030020AC940008474B1B781A463B46A8
:1027D0004649184604F0A0FC3B461846FDF7C2FCEB
:1027E0000246394607F12C03184604F090FD404B91
:1027F0001B781A463F4B1B7819463F4B1B783846CF
:1028000000930B463D4904F087FC3B461846FDF714
:10281000A9FC0246394607F11803184604F077FD73
:1028200000BF07F12C0336491846FDF791FC03461B
:10283000002B0ED000210020FEF7F0FC07F12C0346
:102840001846FEF733FD07F12C0319462C4804F017
:1028500048FD07F118032B491846FDF779FC03469C
:10286000002B0ED001210020FEF7D8FC07F1180341
:102870001846FEF71BFD07F118031946214804F01E
:1028800030FD214B1B78032B0AD1204B1B780733DB
:10289000DBB201211846FEF7C1FCFEF784FD1FE004
:1028A000194B1B78042B17D1194B1B78002B07D021
:1028B000174B1B78012B01D10A2302E00D2300E006
:1028C000072387F83F3097F83F3001211846FEF77D
:1028D000A5FCFEF768FD03E0FEF76BFD00E000BF1E
:1028E0004037BD4680BD00BF13000020BC940008E7
:1028F000F2030020F3030020F403002020940008DA
:10290000F80300200C040020D5030020ED03002074
:10291000EE03002080B483B000AF00237B601FE093
:10292000144A7B68002102F83310124A7B68DB00EE
:10293000134400225A800F4A7B68DB0013440022B4
:102940001A710C4A7B68DB00134400225A71094A51
:102950007B68DB00134400229A717B6801337B6043
:102960007B68082BDCDD00BF00BF0C37BD4680BC98
:10297000704700BF8C030020B0B59CB000AF2B4B5C
:102980007B612B4B1B78BB612A4A07F11C03114664
:102990004822184604F0BBFC07F11403BB6614235D
:1029A000A7F8663072B600BF01F038F900233B602B
:1029B00000237B600123BB601F4BFB6001233B6155
:1029C0003A463B1D1146184601F010FA0346002B0B
:1029D00024D10023A7F86E301AE0B7F86E3003F167
:1029E000007303F57C539B001946B7F86E309B00CB
:1029F000BA6E13441B6800221C46154622462B461D
:102A0000022001F09BF8B7F86E300133A7F86E3062
:102A1000B7F86E20B7F866309A42DED301F024F999
:102A200062B600BF00BF7037BD46B0BDDDCCBBAAEB
:102A3000110000208C03002000FC000880B582B04B
:102A400000AF124B7B607B681B68114A934217D121
:102A50007B685B68DAB20F4B1A700E4B1B78002B49
:102A600003D00C4B1B78092B02D90A4B01221A7098
:102A70007B68083348221946074804F048FC01E007
:102A8000FFF748FF00BF0837BD4680BD00FC0008C7
:102A9000DDCCBBAA110000208C03002090B591B0C2
:102AA00006AF00F0B7FE00F0FBFA00F0F1FB00F01B
:102AB000A1FB00F03BFB00F067FBFFF7BFFF022329
:102AC000102227218C48FEF7E3FAFEF79BFBFEF766
:102AD0004DFB8A4803F062FA4FF40043884A894963
:102AE0008948FEF70DFD06218748FEF779FD002194
:102AF0008548FEF7A6FD02218348FEF743FD834B80
:102B00004FF000021A60824B1B68824A12688249A9
:102B10000968002004900120039002910192009323
:102B20007A4B7E4A7E497F48FEF76CFE00217D4845
:102B3000FFF79EF87C4A4FF000017A48FFF733F820
:102B40004FF47A717748FEF7F7FF00F0BBFE0346BB
:102B5000764A136000F0B6FE0246754B1B68D31A26
:102B6000F92B58D900F0AEFE0346714A136066484F
:102B7000FEF75AFD03461A466E4B1A706D4B1B78D2
:102B8000002B41D16048FEF7B9FD03466A4A136045
:102B9000694B1B6869491846FEF74AFA0346002B41
:102BA00032D0654B1B6866491846FEF72DFA03467E
:102BB000002B29D0634B1B684FF000011846FEF72D
:102BC00019FA0346002B04D05B4B1B685D4A136067
:102BD00016E05C4B1B685C491846FEF76DF803462F
:102BE0001C46554B1B6859491846FEF765F80346C5
:102BF00019462046FDF758FF03461A46514B1A6006
:102C0000504B1B68464A1360514B1B78002B02D176
:102C1000504B01221A70FFF751F94F4B1B781A469F
:102C20004FF4616303FB02F24C4B1B7819460B46D1
:102C30001B015B1A9B001344494A127813443B6200
:102C4000484B1B78012B40F0A180474B1B683A6A28
:102C50009A42C0F09B80454B1A78454B1B789A42AC
:102C600080F08E80414B1B780133DAB23F4B1A70F3
:102C7000404A3B6A13603D4B1B78012B04D12E4B1D
:102C80001B683D4A13600CE0384B1B78023B3B4A03
:102C9000DB0013445B881846FDF7B6FF0346364A4F
:102CA0001360324B1B78013B344ADB0013441B7921
:102CB0001A464FF4616303FB02F22C4B1B78013B75
:102CC0002E49DB000B445B7919460B461B015B1A4E
:102CD0009B001A44254B1B78013B2849DB000B4421
:102CE0009B7913441A46204B1B6813441E4A1360F9
:102CF000184B01221A7049E018020020C40200207B
:102D0000000801406C0200200C030020600300203A
:102D10000000002004000020080000205C030020C8
:102D2000580300201803002000007A4464030020A8
:102D3000200400206C030020E0030020CDCCCCBD9B
:102D40000000A0440C000020CDCC4C3FCDCC4C3E2C
:102D5000D503002014000020D6030020D703002054
:102D6000D8030020D4030020DC0300201200002040
:102D700011000020E4030020E80300208C03002061
:102D8000984B02221A70984B01221A70954B1B78AF
:102D9000012B40F0F580954B1B78002B40F0F08024
:102DA0009348FEF7C4FF0346012B03D0012190484E
:102DB000FEF75EFF8F4B1B78013B8F4ADB0013440D
:102DC0005B881846FDF720FF0346FB61894B1B78A3
:102DD000013B894A12F83330002B03D1874AFB6943
:102DE000136078E0834B1B78013B834A12F8333041
:102DF000012B70D1824B1B683A6AD31ABB617D4BA1
:102E00001B78013B7C4ADB0013441B791A464FF4C4
:102E1000616303FB02F2774B1B78013B7649DB00D1
:102E20000B445B7919460B461B015B1A9B001A4445
:102E3000704B1B78013B7049DB000B449B791344BA
:102E40007B617B69002B43D06E4B1B681946F86988
:102E5000FDF728FE03461C467869FDF7D5FE0346BC
:102E600019462046FDF7DCFF03463B61B869FDF7D4
:102E7000CBFE034639691846FDF71EFF03461A4686
:102E8000604B1B6819461046FDF70EFE03467B6239
:102E90005C4B1B681946F869FEF7C0F80346002B27
:102EA00009D0F969786AFEF7C3F80346002B0BD006
:102EB000FB697B6208E0F969786AFEF79BF80346D4
:102EC000002B01D0FB697B624C4A7B6A136002E0F5
:102ED0004A4AFB691360494B1B684B4A126811460A
:102EE0001846FDF7DFFD0346FB60FB6823F0004357
:102EF000BB604649B868FEF79BF80346002B12D02A
:102F0000434B1B78002B0ED0424B1968424B1B6879
:102F1000012200924FF000023548FEF789FD3C4B3C
:102F200000221A701CE04FF08141B868FEF762F889
:102F30000346002B14D0364B1B7883F00103DBB221
:102F4000002B0DD0334B1968344B1A68324B1B6879
:102F5000012000902648FEF76BFD2D4B01221A70D0
:102F60002348FEF78DFC0346002B1CD000F0AAFC82
:102F700003462B4A13602B4B1B682B4A136012E04D
:102F80001B48FEF7D4FE0346002B03D0002118484F
:102F9000FEF76EFE244B4FF000021A60214B4FF0FB
:102FA00000021A6000E000BF0E4B1B78012B69D1B4
:102FB0000E4B1B78002B65D100F084FC0246184BA9
:102FC0001B68D31A7B60184B1B6818491846FEF71C
:102FD0001BF80346002B2DD000228021144801F05D
:102FE00031F954E0D4030020140000206C030020C9
:102FF00018030020120000208C0300206003002032
:10300000E4030020E80300205803002000002041D2
:103010001000002000000020080000200400002014
:10302000640300205C030020680300200000A0412E
:10303000000C0140174B1B6817491846FDF7EEFFBF
:103040000346002B05D001228021144801F0FAF834
:103050001DE07868FDF7D8FD02460E4B1B68194647
:103060001046FDF7C7FF0346002B05D00122802143
:103070000A4801F0E7F80AE000228021074801F041
:10308000E1F804E000228021044801F0DBF8FFF7BA
:103090001DFA5FE56803002000007544000C014044
:1030A00080B590B000AF07F1180328220021184620
:1030B00004F097F83B1D00221A605A609A60DA60AB
:1030C0001A610123BB614FF48033FB6100233B6233
:1030D0000123BB6202237B634FF48033BB634FF455
:1030E000E013FB6307F11803184601F077FD034670
:1030F000002B01D000F058F90F237B600223BB6046
:103100000023FB604FF480633B6100237B613B1D28
:103110000221184601F0E4FF0346002B01D000F025
:1031200043F900BF4037BD4680BD000080B500AF09
:10313000124B134A1A60114B124A5A600F4B00226D
:103140009A600E4B0022DA600C4B4FF480421A61F9
:103150000A4B00225A61094B00229A61074B002258
:10316000DA61064B00221A62044801F09BF803461C
:10317000002B01D000F018F900BF80BD180200201C
:1031800000580040A086010080B500AF174B184AD8
:103190001A60164B4FF482725A60144B00229A60E8
:1031A000124B0022DA60114B00221A610F4B0122F0
:1031B0005A610E4B4FF400729A610C4B1822DA617F
:1031C0000A4B00221A62094B00225A62074B002266
:1031D0009A62064B0A22DA62044802F0FBF80346C0
:1031E000002B01D000F0E0F800BF80BD6C02002091
:1031F0000030014080B586B000AF07F1080300221F
:103200001A605A609A60DA603B4600221A605A607F
:103210001E4B4FF080421A601C4B41F61F425A6011
:103220001A4B00229A60194B42F20F72DA60174B68
:1032300000221A61154B80229A61144802F05FFE49
:103240000346002B01D000F0AFF84FF48053BB6071
:1032500007F1080319460D4802F0E2FF0346002B70
:1032600001D000F0A1F800233B6000237B603B46C7
:103270001946064803F0C4F90346002B01D000F0BC
:1032800093F800BF1837BD4680BD00BFC4020020C0
:1032900080B588B000AF07F1100300221A605A60B1
:1032A0009A60DA603C4B9B693B4A43F02003936190
:1032B000394B9B6903F02003FB60FB68364B9B692D
:1032C000354A43F008039361334B9B6903F00803CD
:1032D000BB60BB68304B9B692F4A43F0040393618A
:1032E0002D4B9B6903F004037B607B6801224FF444
:1032F00000412A4800F0A6FF00228021284800F063
:10330000A1FF4FF400433B61264B7B610023BB616F
:1033100007F110031946224800F010FE4FF47063C5
:103320003B61204B7B610023BB6107F11003194611
:103330001A4800F003FE4FF400433B6101237B6118
:103340000023BB610223FB6107F1100319461348F8
:1033500000F0F4FD80233B6101237B610023BB610E
:103360000223FB6107F1100319460D4800F0E6FD4A
:1033700000220021172000F0AAFB172000F0C3FB59
:1033800000220021282000F0A2FB282000F0BBFB37
:1033900000BF2037BD4680BD00100240000801403C
:1033A000000C01400000111080B400AF72B600BFE5
:1033B00000BFFDE780B485B000AF154B9B69144A90
:1033C00043F001039361124B9B6903F00103BB605F
:1033D000BB680F4BDB690E4A43F08053D3610C4B43
:1033E000DB6903F080537B607B680A4B5B68FB60A2
:1033F000FB6823F0E063FB60FB6843F00073FB6055
:10340000044AFB68536000BF1437BD4680BC704758
:10341000001002400000014080B588B000AF786025
:1034200007F1100300221A605A609A60DA607B6824
:103430001B68164A934224D1154B9B69144A43F0EA
:1034400008039361124B9B6903F00803FB60FB6860
:103450004FF440633B6112237B610323FB6107F15F
:10346000100319460B4800F069FD094BDB69084A57
:1034700043F48003D361064BDB6903F48003BB6034
:10348000BB6800BF2037BD4680BD00BF005800406C
:1034900000100240000C014080B58AB000AF786097
:1034A00007F1140300221A605A609A60DA607B68A0
:1034B0001B68224A93423DD1214B9B69204A43F429
:1034C000805393611E4B9B6903F480533B613B69BE
:1034D0001B4B9B691A4A43F008039361184B9B6985
:1034E00003F00803FB60FB6828237B610223BB61B8
:1034F00003233B6207F114031946124800F01EFD36
:1035000010237B610023BB610023FB6107F11403DF
:1035100019460C4800F012FD0B4B5B687B627B6A1E
:1035200043F0E0637B627B6A43F001037B62064AFF
:103530007B6A536000BF2837BD4680BD0030014024
:1035400000100240000C01400000014080B584B032
:1035500000AF78607B681B68B3F1804F13D10C4BD0
:10356000DB690B4A43F00103D361094BDB6903F0CC
:103570000103FB60FB68002200211C2000F0A7FA79
:103580001C2000F0C0FA00BF1037BD4680BD00BF50
:103590000010024080B400AF00BFFDE780B400AF70
:1035A00000BFFDE780B400AF00BFFDE780B400AF0F
:1035B00000BFFDE780B400AF00BFFDE780B400AFFF
:1035C00000BFBD4680BC704780B400AF00BFBD46A1
:1035D00080BC704780B400AF00BFBD4680BC704760
:1035E00080B500AF00F05CF900BF80BD80B500AFD2
:1035F0004FF4807000F03EFE4FF4007000F03AFE91
:1036000000BF80BD80B500AF024802F019FD00BFC9
:1036100080BD00BFC402002080B500AF4FF48060C1
:1036200000F028FE4FF4006000F024FE4FF400404C
:1036300000F020FE00BF80BD80B400AF012318461B
:10364000BD4680BC704780B582B000AF78603960FD
:1036500003F01AFE034616221A604FF0FF33184695
:103660000837BD4680BD80B582B000AF78604FF0AE
:10367000FF317868FFF7E7FF00BFFDE780B586B050
:1036800000AFF860B9607A6000237B610AE0AFF3B5
:1036900000800146BB685A1CBA60CAB21A707B69C6
:1036A00001337B617A697B689A42F0DB7B6818465C
:1036B0001837BD4680BD80B586B000AFF860B960F0
:1036C0007A6000237B6109E0BB685A1CBA601B78F2
:1036D0001846AFF300807B6901337B617A697B68B0
:1036E0009A42F1DB7B6818461837BD4680BD80B42E
:1036F00083B000AF78604FF0FF3318460C37BD46FB
:1037000080BC704780B483B000AF786039603B689C
:103710004FF400525A60002318460C37BD4680BC57
:10372000704780B483B000AF7860012318460C372F
:10373000BD4680BC704780B485B000AFF860B9600A
:103740007A60002318461437BD4680BC70470000DD
:1037500080B586B000AF7860144A154BD31A7B61F0
:103760007B693B61134B1B68002B02D1114B124A42
:103770001A60104B1A687B6813443A699A4207D260
:1037800003F082FD03460C221A604FF0FF3309E07C
:10379000084B1B68FB60074B1A687B681344054A9B
:1037A0001360FB6818461837BD4680BD00500020E6
:1037B0000004000024040020A005002080B400AF15
:1037C00000BFBD4680BC7047FFF7F8FF0B480C49AF
:1037D0000C4A002302E0D458C4500433C4188C426D
:1037E000F9D3094A094C002301E013600432A242D4
:1037F000FBD303F04FFDFFF751F9704700000020A5
:10380000EC0100207C980008F00100209C050020BD
:10381000FEE7000080B500AF084B1B68074A43F085
:1038200010031360032000F047F90F2000F008F8A0
:10383000FFF7C0FD0023184680BD00BF00200240F6
:1038400080B582B000AF7860124B1A68124B1B78BB
:1038500019464FF47A73B3FBF1F3B2FBF3F3184656
:1038600000F05FF90346002B01D001230EE07B68D6
:103870000F2B0AD8002279684FF0FF3000F027F9AB
:10388000064A7B681360002300E0012318460837CE
:10389000BD4680BD18000020200000201C00002034
:1038A00080B400AF054B1B781A46054B1B681344C8
:1038B000034A136000BFBD4680BC70472000002053
:1038C0002804002080B400AF024B1B681846BD4698
:1038D00080BC70472804002080B584B000AF7860B9
:1038E000FFF7F0FFB8607B68FB60FB68B3F1FF3F58
:1038F00005D00A4B1B781A46FB681344FB6000BFD7
:10390000FFF7E0FF0246BB68D31AFA689A42F7D87D
:1039100000BF00BF1037BD4680BD00BF20000020A3
:1039200080B485B000AF78607B6803F00703FB606C
:103930000C4BDB68BB60BA684FF6FF031340BB60FB
:10394000FB681A02BB68134343F0BF6343F40033C0
:10395000BB60044ABB68D36000BF1437BD4680BC5F
:10396000704700BF00ED00E080B400AF044BDB689F
:103970001B0A03F007031846BD4680BC704700BF12
:1039800000ED00E080B483B000AF0346FB7197F90F
:103990000730002B0BDBFB7903F01F02064997F978
:1039A00007305B09012000FA02F241F8232000BF32
:1039B0000C37BD4680BC704700E100E080B483B0A6
:1039C00000AF03463960FB7197F90730002B0ADB23
:1039D0003B68DAB20C4997F907301201D2B20B44B6
:1039E00083F800230AE03B68DAB20849FB7903F068
:1039F0000F03043B1201D2B20B441A7600BF0C37FE
:103A0000BD4680BC704700BF00E100E000ED00E073
:103A100080B489B000AFF860B9607A60FB6803F0E9
:103A20000703FB61FB69C3F10703042B28BF0423D1
:103A3000BB61FB690433062B02D9FB69033B00E041
:103A400000237B614FF0FF32BB6902FA03F3DA43D4
:103A5000BB681A407B699A404FF0FF317B6901FADD
:103A600003F3D9437B680B40134318462437BD4604
:103A700080BC704780B582B000AF78607B68013B46
:103A8000B3F1807F01D301230FE00A4A7B68013B39
:103A900053600F214FF0FF30FFF790FF054B0022DE
:103AA0009A60044B07221A60002318460837BD4667
:103AB00080BD00BF10E000E080B582B000AF78604C
:103AC0007868FFF72DFF00BF0837BD4680BD80B581
:103AD00086B000AF0346B9607A60FB7300237B6158
:103AE000FFF742FF78617A68B9687869FFF790FF5D
:103AF000024697F90F3011461846FFF75FFF00BFE7
:103B00001837BD4680BD80B582B000AF0346FB715B
:103B100097F907301846FFF735FF00BF0837BD4655
:103B200080BD80B582B000AF78607868FFF7A2FFF3
:103B3000034618460837BD4680BD0000F0B587B083
:103B400000AFF860B960C7E900230123FB750023CB
:103B5000BB7500237B752F4B1B7E012B01D10223EC
:103B600054E02C4B01221A764CF2503000F0A8F8A9
:103B70000346FB75FB7D002B44D1FB68012B02D172
:103B800001237B7507E0FB68022B02D102237B75C2
:103B900001E004237B750023BB752DE0BB7D5A003B
:103BA000BB6802EB030CBB7D1901D7E90023C1F10F
:103BB0002006A1F1200022FA01F403FA06F63443AC
:103BC00023FA00F0044323FA01F5A3B21946604634
:103BD00000F05AF84CF2503000F072F80346FB75D2
:103BE0000D4B1B690C4A23F001031361FB7D002B75
:103BF00007D1BB7D0133BB75BA7D7B7D9A42CDD3A6
:103C000000E000BF034B00221A76FB7D18461C37EC
:103C1000BD46F0BD300400200020024080B483B0D7
:103C200000AF0023FB710D4B1B6903F08003002BD9
:103C30000DD00A4B0A4A5A60084B0A4A5A60074B91
:103C40001B6903F08003002B01D00123FB71FB797A
:103C500018460C37BD4680BC704700BF00200240AC
:103C600023016745AB89EFCD80B400AF054B1B69DD
:103C7000044A43F08003136100231846BD4680BC0C
:103C8000704700BF0020024080B483B000AF78606E
:103C90000B467B80084B0022DA61084B1B69074A00
:103CA00043F0010313617B687A881A8000BF0C37E8
:103CB000BD4680BC704700BF300400200020024099
:103CC00080B584B000AF7860FFF7FCFDF86010E0CD
:103CD0007B68B3F1FF3F0CD07B68002B07D0FFF768
:103CE000F1FD0246FB68D31A7A689A4201D2032397
:103CF00025E0154BDB6803F00103002BE8D1124BE4
:103D0000DB6803F02003002B02D00F4B2022DA6087
:103D10000D4BDB6803F01003002B0BD10A4BDB6962
:103D200003F00103002B05D1074BDB6803F004030C
:103D3000002B03D000F00AF8012300E0002318460E
:103D40001037BD4680BD00BF0020024080B483B064
:103D500000AF00237B60234BDB6803F01003002BD4
:103D600009D0214BDB6943F002031F4AD3617B6812
:103D700043F010037B601B4BDB6803F00403002B54
:103D800009D0194BDB6943F00103174AD3617B6803
:103D900043F004037B60134BDB6903F00103002B4A
:103DA0000BD0114BDB6943F004030F4AD3610D4B79
:103DB000DB690C4A23F00103D3617B6840F20112F6
:103DC000934206D1074BDB69064A23F00103D36116
:103DD00002E0044A7B68D36000BF0C37BD4680BC5C
:103DE000704700BF002002403004002080B584B03E
:103DF00000AF786039600123FB730023BB602F4B59
:103E00001B7E012B01D1022353E02C4B01221A7699
:103E10007B681B68022B16D14CF25030FFF750FF25
:103E20000346002B41D1012000F04CF84CF25030F9
:103E3000FFF746FF0346FB73214B1B69204A23F023
:103E40000403136131E04CF25030FFF739FF0346B1
:103E5000002B2AD13B684FF0FF321A607B689B68C9
:103E6000BB6019E0B86800F049F84CF25030FFF739
:103E700027FF0346FB73124B1B69114A23F0020311
:103E80001361FB7B002B03D03B68BA681A600CE01F
:103E9000BB6803F58063BB607B68DB689A027B6864
:103EA0009B681344BA689A42DCD3044B00221A760A
:103EB000FB7B18461037BD4680BD00BF3004002094
:103EC0000020024080B483B000AF7860094B00222C
:103ED000DA61094B1B69084A43F004031361064B7E
:103EE0001B69054A43F04003136100BF0C37BD4610
:103EF00080BC7047300400200020024080B483B0B2
:103F000000AF78600B4B0022DA610B4B1B690A4A49
:103F100043F002031361084A7B685361064B1B6937
:103F2000054A43F04003136100BF0C37BD4680BC17
:103F3000704700BF300400200020024080B48BB0E6
:103F400000AF7860396000237B6200233B6269E147
:103F500001227B6A02FA03F3FB613B681B68FA6982
:103F60001340BB61BA69FB699A4240F058813B68D3
:103F70005B689A4A93425ED0984A934275D8984AB1
:103F8000934258D0964A93426FD8964A934252D061
:103F9000944A934269D8944A93424CD0924A9342AD
:103FA00063D8924A934246D0904A93425DD8122BEE
:103FB0002AD8122B59D801A252F823F03740000812
:103FC0001140000823400008654000086B400008CD
:103FD0006B4000086B4000086B4000086B40000815
:103FE0006B4000086B4000086B4000086B40000805
:103FF0006B4000086B4000086B4000086B400008F5
:10400000194000082D400008794A934213D02CE053
:104010003B68DB683B6229E03B68DB6804333B625A
:1040200024E03B68DB6808333B621FE03B68DB68E9
:104030000C333B621AE03B689B68002B02D10423DF
:104040003B6213E03B689B68012B05D108233B6270
:104050007B68FA691A6109E008233B627B68FA69A8
:104060005A6103E000233B6200E000BFBB69FF2B05
:1040700001D87B6801E07B6804337B61BB69FF2B5F
:1040800002D87B6A9B0002E07B6A083B9B003B6195
:104090007B691A680F213B6901FA03F3DB431A407D
:1040A000396A3B6901FA03F31A437B691A603B687A
:1040B0005B6803F08053002B00F0B1804D4B9B698F
:1040C0004C4A43F0010393614A4B9B6903F001039F
:1040D000BB60BB68484A7B6A9B08023352F82330B6
:1040E000FB607B6A03F003039B000F2202FA03F3D9
:1040F000DB43FA681340FB607B68404A934213D06D
:104100007B683F4A93420DD07B683E4A934207D07A
:104110007B683D4A934201D1032306E0042304E077
:10412000022302E0012300E000237A6A02F0030286
:1041300092009340FA681343FB602F497B6A9B0807
:104140000233FA6841F823203B685B6803F480136C
:10415000002B06D02D4B9A682C49BB6913438B600A
:1041600006E02A4B9A68BB69DB43284913408B6001
:104170003B685B6803F40013002B06D0234BDA681E
:104180002249BB691343CB6006E0204BDA68BB6968
:10419000DB431E491340CB603B685B6803F400338C
:1041A000002B06D0194B5A681849BB6913434B6062
:1041B00006E0164B5A68BB69DB43144913404B6059
:1041C0003B685B6803F48033002B21D00F4B1A68E7
:1041D0000E49BB6913430B6021E000BF00003210A1
:1041E0000000311000002210000021100000121009
:1041F00000001110001002400000014000080140C2
:10420000000C014000100140001401400004014076
:104210000B4B1A68BB69DB43094913400B607B6A8F
:1042200001337B623B681A687B6A22FA03F3002B36
:104230007FF48EAE00BF00BF2C37BD4680BC7047F8
:104240000004014080B483B000AF78600B467B80EF
:1042500013467B707B78002B03D07A887B681A61C9
:1042600003E07B881A047B681A6100BF0C37BD46E7
:1042700080BC704780B582B000AF0346FB80084B1E
:104280005A69FB881340002B06D0054AFB8853610E
:10429000FB881846FDF756FD00BF0837BD4680BDB8
:1042A0000004014080B584B000AF78607B68002BCB
:1042B00001D101232BE17B6893F83D30DBB2002B69
:1042C00006D17B68002283F83C207868FFF7A4F8C9
:1042D0007B68242283F83D207B681B681A687B6812
:1042E0001B6822F001021A607B681B681A687B68F1
:1042F0001B6842F400421A607B681B681A687B687E
:104300001B6822F400421A6001F032F8F8607B6802
:104310005B68814A934207D8FB68804A934294BF06
:1043200001230023DBB206E0FB687D4A934294BF81
:1043300001230023DBB2002B01D00123E7E0FB685F
:10434000784AA2FB03239B0CBB607B681B685B68FD
:1043500023F03F017B681B68BA680A435A607B6898
:104360001B681B6A23F03F017B685B686A4A9342C3
:1043700002D8BB68013309E0BB684FF4967202FBB8
:1043800003F3694AA2FB03239B0901337A6812688D
:104390000B4313627B681B68DB6923F44F4222F0F6
:1043A000FF027B685B685C498B4219D8FB68591E29
:1043B0007B685B685B00B1FBF3F3591C40F6FC7350
:1043C0000B40002B0AD0FB68591E7B685B685B00C2
:1043D000B1FBF3F30133C3F30B0351E004234FE0CC
:1043E0007B689B68002B11D1FB68581E7B6859685D
:1043F0000B465B000B44B0FBF3F30133C3F30B0339
:10440000002B0CBF01230023DBB212E0FB68581E17
:104410007B6859680B469B000B4499000B44B0FB2A
:10442000F3F30133C3F30B03002B0CBF0123002371
:10443000DBB2002B01D0012322E07B689B68002BBC
:104440000ED1FB68581E7B6859680B465B000B4415
:10445000B0FBF3F30133C3F30B0343F400430FE06A
:10446000FB68581E7B6859680B469B000B449900FB
:104470000B44B0FBF3F30133C3F30B0343F44043AA
:10448000796809681343CB617B681B681B6823F05C
:10449000C0017B68DA697B681B6A1A437B681B680A
:1044A0000A431A607B681B689B6823F4034323F06C
:1044B000FF037A6811697A68D26811437A681268D2
:1044C0000B4393607B681B68DB6823F0FF017B680C
:1044D0005A697B689B691A437B681B680A43DA60E8
:1044E0007B681B681A687B681B6842F001021A60CF
:1044F0007B6800221A647B68202283F83D207B6859
:1045000000221A637B68002283F83E2000231846AD
:104510001037BD4680BD00BFA08601007F841E000D
:10452000FF083D0083DE1B43D34D621080B588B089
:1045300002AFF8607A601A460B467B8113463B81D6
:10454000FFF7C0F97861FB6893F83D30DBB2202BB0
:1045500040F0E0807B690093192301227049F868DC
:1045600000F064F90346002B01D00223D3E0FB687E
:1045700093F83C30012B01D10223CCE0FB680122EF
:1045800083F83C20FB681B681B6803F00103012BC8
:1045900007D0FB681B681A68FB681B6842F00102C1
:1045A0001A60FB681B681A68FB681B6822F40062CB
:1045B0001A60FB68212283F83D20FB68102283F8F3
:1045C0003E20FB6800221A64FB687A685A62FB6826
:1045D0003A895A85FB685B8D9AB2FB681A85FB683D
:1045E000504ADA6279897B693A6AF86800F09CF887
:1045F0000346002B01D001238DE000233B61FB68C3
:104600001B685B693B61FB681B689B693B613B699D
:1046100066E07A69396AF86800F022FA0346002BEE
:104620000DD0FB681B6C042B07D1FB681B681A6854
:10463000FB681B6842F400721A6001236BE0FB68A0
:104640005B6A1A78FB681B681A61FB685B6A5A1C14
:10465000FB685A62FB685B8D9BB2013B9AB2FB68B8
:104660005A85FB681B8D013B9AB2FB681A85FB6873
:104670001B685B6903F00403042B1BD1FB681B8DD3
:10468000002B17D0FB685B6A1A78FB681B681A61FD
:10469000FB685B6A5A1CFB685A62FB685B8D9BB2C5
:1046A000013B9AB2FB685A85FB681B8D013B9AB2AD
:1046B000FB681A857A69396AF86800F019FA0346C6
:1046C000002B0DD0FB681B6C042B07D1FB681B680B
:1046D0001A68FB681B6842F400721A6001231AE032
:1046E000FB681B8D002B94D1FB681B681A68FB6864
:1046F0001B6842F400721A60FB68202283F83D2098
:10470000FB68002283F83E20FB68002283F83C20EF
:10471000002300E0022318461837BD4680BD00BFC5
:10472000020010000000FFFF80B588B002AFF86003
:104730007A603B600B467B81FB68DB6A7B617B694F
:10474000082B06D07B69012B03D07B6913F5803FD2
:1047500008D1FB681B681A68FB681B6842F480720A
:104760001A600BE0FB681B6B122B07D1FB681B6800
:104770001A68FB681B6842F480721A603B680093F9
:104780007B6800224FF00111F86800F04FF80346F3
:10479000002B0DD0FB681B681B6803F48073B3F516
:1047A000807F03D1FB684FF400721A64032335E065
:1047B000FB681B69B3F5804F08D17B89DBB21A46D1
:1047C000FB681B6802F0FE021A611BE07B89DB11AB
:1047D000DBB203F00603DBB263F00F03DAB2FB686F
:1047E0001B681A613B687A680E49F86800F098F80F
:1047F0000346002B01D0012310E07B89DAB2FB686D
:104800001B681A613B687A680749F86800F088F805
:104810000346002B01D0012300E00023184618377F
:10482000BD4680BD080001000200010080B584B0D3
:1048300000AFF860B9603B601346FB7148E03B682D
:10484000B3F1FF3F44D0FFF73DF80246BB69D31AEE
:104850003A689A4202D33B68002B39D1BB681B0CE3
:10486000DBB2012B0DD1FB681B685B69DA43BB68C7
:1048700013409BB2002B0CBF01230023DBB21A466E
:104880000CE0FB681B689B69DA43BB6813409BB272
:10489000002B0CBF01230023DBB21A46FB799A429E
:1048A00016D1FB6800221A63FB68202283F83D20A2
:1048B000FB68002283F83E20FB681B6C43F020025B
:1048C000FB681A64FB68002283F83C20012323E084
:1048D000BB681B0CDBB2012B0DD1FB681B685B694D
:1048E000DA43BB6813409BB2002B0CBF01230023AB
:1048F000DBB21A460CE0FB681B689B69DA43BB68B5
:1049000013409BB2002B0CBF01230023DBB21A46DD
:10491000FB799A4293D0002318461037BD4680BDDC
:1049200080B584B000AFF860B9607A603B6071E038
:10493000FB681B685B6903F48063B3F5806F23D168
:10494000FB681B681A68FB681B6842F400721A60F7
:10495000FB681B686FF480625A61FB6800221A636F
:10496000FB68202283F83D20FB68002283F83E206C
:10497000FB681B6C43F00402FB681A64FB680022AE
:1049800083F83C20012367E07B68B3F1FF3F41D00F
:10499000FEF798FF02463B68D31A7A689A4202D320
:1049A0007B68002B36D1BB681B0CDBB2012B0CD112
:1049B000FB681B685B69DA43BB6813409BB2002B42
:1049C00014BF01230023DBB20BE0FB681B689B696B
:1049D000DA43BB6813409BB2002B14BF01230023B2
:1049E000DBB2002B16D0FB6800221A63FB68202282
:1049F00083F83D20FB68002283F83E20FB681B6C97
:104A000043F02002FB681A64FB68002283F83C2014
:104A1000012321E0BB681B0CDBB2012B0CD1FB682E
:104A20001B685B69DA43BB6813409BB2002B14BF61
:104A300001230023DBB20BE0FB681B689B69DA43B0
:104A4000BB6813409BB2002B14BF01230023DBB2D1
:104A5000002B7FF46DAF002318461037BD4680BD94
:104A600080B584B000AFF860B9607A6034E0F8686F
:104A700000F086F80346002B01D0012334E0BB6828
:104A8000B3F1FF3F28D0FEF71DFF02467B68D31A23
:104A9000BA689A4202D3BB68002B1DD1FB681B6821
:104AA0005B6903F08003802B16D0FB6800221A6339
:104AB000FB68202283F83D20FB68002283F83E201B
:104AC000FB681B6C43F02002FB681A64FB68002241
:104AD00083F83C20012307E0FB681B685B6903F057
:104AE0008003802BC3D1002318461037BD4680BDFC
:104AF00080B584B000AFF860B9607A6034E0F868DF
:104B000000F03EF80346002B01D0012334E0BB68DF
:104B1000B3F1FF3F28D0FEF7D5FE02467B68D31ADB
:104B2000BA689A4202D3BB68002B1DD1FB681B6890
:104B30005B6903F00403042B16D0FB6800221A63A0
:104B4000FB68202283F83D20FB68002283F83E208A
:104B5000FB681B6C43F02002FB681A64FB680022B0
:104B600083F83C20012307E0FB681B685B6903F0C6
:104B70000403042BC3D1002318461037BD4680BD63
:104B800080B483B000AF78607B681B685B6903F416
:104B90008063B3F5806F1BD17B681B686FF4806204
:104BA0005A617B6800221A637B68202283F83D20CB
:104BB0007B68002283F83E207B681B6C43F0040274
:104BC0007B681A647B68002283F83C20012300E0A4
:104BD000002318460C37BD4680BC704780B586B0B0
:104BE00000AF78607B68002B01D1012372E27B6803
:104BF0001B6803F00103002B00F08780924B5B6879
:104C000003F00C03042B0CD08F4B5B6803F00C03F8
:104C1000082B12D18C4B5B6803F48033B3F5803FD3
:104C20000BD1894B1B6803F40033002B6CD07B68DD
:104C30005B68002B68D101234CE27B685B68B3F5AD
:104C4000803F06D1804B1B687F4A43F4803313605A
:104C50002EE07B685B68002B0CD17B4B1B687A4A8B
:104C600023F480331360784B1B68774A23F4802346
:104C700013601DE07B685B68B3F5A02F0CD1724B0D
:104C80001B68714A43F4802313606F4B1B686E4AA4
:104C900043F4803313600BE06B4B1B686A4A23F4C8
:104CA00080331360684B1B68674A23F480231360CA
:104CB0007B685B68002B13D0FEF704FE386108E0C8
:104CC000FEF700FE02463B69D31A642B01D9032389
:104CD00000E25D4B1B6803F40033002BF0D014E0BE
:104CE000FEF7F0FD386108E0FEF7ECFD02463B6997
:104CF000D31A642B01D90323ECE1534B1B6803F453
:104D00000033002BF0D100E000BF7B681B6803F08C
:104D10000203002B63D04C4B5B6803F00C03002BA9
:104D20000BD0494B5B6803F00C03082B1CD1464B9E
:104D30005B6803F48033002B16D1434B1B6803F0F0
:104D40000203002B05D07B681B69012B01D00123D6
:104D5000C0E13D4B1B6823F0F8027B685B69DB0018
:104D6000394913430B603AE07B681B69002B20D064
:104D7000364B01221A60FEF7A5FD386108E0FEF708
:104D8000A1FD02463B69D31A022B01D90323A1E1FD
:104D90002D4B1B6803F00203002BF0D02A4B1B683D
:104DA00023F0F8027B685B69DB00274913430B6043
:104DB00015E0264B00221A60FEF784FD386108E0FA
:104DC000FEF780FD02463B69D31A022B01D903236B
:104DD00080E11D4B1B6803F00203002BF0D17B68C0
:104DE0001B6803F00803002B3AD07B689B69002BFB
:104DF00019D0174B01221A60FEF764FD386108E0F4
:104E0000FEF760FD02463B69D31A022B01D903234A
:104E100060E10D4B5B6A03F00203002BF0D0012030
:104E200000F0BAFA1CE00A4B00221A60FEF74AFDB5
:104E300038610FE0FEF746FD02463B69D31A022BAC
:104E400008D9032346E100BF00100240000042429F
:104E500080044242924B5B6A03F00203002BE9D1CB
:104E60007B681B6803F00403002B00F0A68000237E
:104E7000FB758B4BDB6903F08053002B0DD1884B06
:104E8000DB69874A43F08053D361854BDB6903F0CC
:104E90008053BB60BB680123FB75824B1B6803F426
:104EA0008073002B18D17F4B1B687E4A43F48073BC
:104EB0001360FEF707FD386108E0FEF703FD0246C8
:104EC0003B69D31A642B01D9032303E1754B1B689B
:104ED00003F48073002BF0D07B68DB68012B06D1D4
:104EE0006F4B1B6A6E4A43F0010313622DE07B682F
:104EF000DB68002B0CD16A4B1B6A694A23F0010363
:104F00001362674B1B6A664A23F0040313621CE0BA
:104F10007B68DB68052B0CD1614B1B6A604A43F050
:104F2000040313625E4B1B6A5D4A43F00103136284
:104F30000BE05B4B1B6A5A4A23F001031362584B88
:104F40001B6A574A23F0040313627B68DB68002B5B
:104F500015D0FEF7B7FC38610AE0FEF7B3FC024655
:104F60003B69D31A41F28832934201D90323B1E05D
:104F70004B4B1B6A03F00203002BEED014E0FEF74C
:104F8000A1FC38610AE0FEF79DFC02463B69D31A9A
:104F900041F28832934201D903239BE0404B1B6AC4
:104FA00003F00203002BEED1FB7D012B05D13C4B1E
:104FB000DB693B4A23F08053D3617B68DB69002BBC
:104FC00000F08780364B5B6803F00C03082B61D040
:104FD0007B68DB69022B46D1334B00221A60FEF757
:104FE00071FC386108E0FEF76DFC02463B69D31A9C
:104FF000022B01D903236DE0294B1B6803F00073DA
:10500000002BF0D17B681B6AB3F5803F08D1244B9D
:105010005B6823F400327B689B68214913434B6033
:105020001F4B5B6823F474127B68196A7B685B6AA8
:105030000B431B4913434B601B4B01221A60FEF7C5
:1050400041FC386108E0FEF73DFC02463B69D31A9B
:10505000022B01D903233DE0114B1B6803F00073C1
:10506000002BF0D035E0104B00221A60FEF72AFC2E
:10507000386108E0FEF726FC02463B69D31A022B92
:1050800001D9032326E0064B1B6803F00073002BB5
:10509000F0D11EE07B68DB69012B07D1012319E009
:1050A0000010024000700040600042420B4B5B6801
:1050B000FB60FB6803F480327B681B6A9A4206D16E
:1050C000FB6803F470127B685B6A9A4201D001238B
:1050D00000E0002318461837BD4680BD001002408E
:1050E00080B584B000AF786039607B68002B01D157
:1050F0000123D0E06A4B1B6803F007033A689A4229
:1051000010D9674B1B6823F0070265493B681343BE
:105110000B60634B1B6803F007033A689A4201D0A7
:105120000123B8E07B681B6803F00203002B20D04A
:105130007B681B6803F00403002B05D0594B5B68A8
:10514000584A43F4E06353607B681B6803F008032C
:10515000002B05D0534B5B68524A43F460535360B5
:10516000504B5B6823F0F0027B689B684D4913430A
:105170004B607B681B6803F00103002B40D07B6809
:105180005B68012B07D1474B1B6803F40033002BEE
:1051900015D101237FE07B685B68022B07D1414B6F
:1051A0001B6803F00073002B09D1012373E03D4B12
:1051B0001B6803F00203002B01D101236BE0394B84
:1051C0005B6823F003027B685B68364913434B60DE
:1051D000FEF778FBF8600AE0FEF774FB0246FB6816
:1051E000D31A41F28832934201D9032353E02D4B65
:1051F0005B6803F00C027B685B689B009A42EBD112
:10520000274B1B6803F007033A689A4210D2244BDD
:105210001B6823F0070222493B6813430B60204BB5
:105220001B6803F007033A689A4201D0012332E079
:105230007B681B6803F00403002B08D0194B5B68E4
:1052400023F4E0627B68DB68164913434B607B689C
:105250001B6803F00803002B09D0124B5B6823F492
:1052600060527B681B69DB000E4913434B6000F002
:1052700021F802460B4B5B681B0903F00F030A4938
:10528000CB5C22FA03F3094A1360094B1B681846EA
:10529000FEF7D6FA002318461037BD4680BD00BF82
:1052A0000020024000100240CC94000818000020AA
:1052B0001C00002080B487B000AF0023FB600023F7
:1052C000BB6000237B6100237B6000233B611E4B9E
:1052D0005B68FB60FB6803F00C03042B02D0082B17
:1052E00003D027E0194B3B6127E0FB689B0C03F0E0
:1052F0000F03174AD35C7B60FB6803F48033002BF9
:1053000010D0114B5B685B0C03F00103114AD35CB6
:10531000BB607B680D4A03FB02F2BB68B2FBF3F390
:105320007B6104E07B680C4A02FB03F37B617B69D1
:105330003B6102E0054B3B6100BF3B6918461C37EF
:10534000BD4680BC704700BF0010024000127A00CA
:10535000E4940008F494000800093D0080B400AF14
:10536000024B1B681846BD4680BC704718000020E1
:1053700080B500AFFFF7F2FF0246054B5B681B0AE2
:1053800003F007030349CB5C22FA03F3184680BD00
:1053900000100240DC94000880B485B000AF786053
:1053A0000A4B1B680A4AA2FB03235B0A7A6802FBCA
:1053B00003F3FB6000BFFB685A1EFA60002BF9D1B3
:1053C00000BF00BF1437BD4680BC704718000020E6
:1053D000D34D621080B582B000AF78607B68002B3F
:1053E00001D1012376E07B685B6A002B08D17B68E2
:1053F0005B68B3F5827F09D07B680022DA6105E043
:105400007B6800221A617B6800225A617B68002257
:105410009A627B6893F85130DBB2002B06D17B682F
:10542000002283F850207868FEF736F87B68022265
:1054300083F851207B681B681A687B681B6822F020
:1054400040021A607B685B6803F482727B689B6829
:1054500003F404431A437B68DB6803F400631A43D4
:105460007B681B6903F002031A437B685B6903F0E6
:1054700001031A437B689B6903F400731A437B683A
:10548000DB6903F038031A437B681B6A03F080036F
:1054900042EA03017B689B6A03F400527B681B6845
:1054A0000A431A607B689B691A0C7B681B6802F0D0
:1054B00004025A607B681B68DA697B681B6822F407
:1054C0000062DA617B6800225A657B68012283F8FA
:1054D0005120002318460837BD4680BD80B588B0EE
:1054E00000AFF860B9603B601346FB80FEF7EAF955
:1054F000F861FB887B83FB6893F85130DBB2012BAA
:1055000001D002232AE1BB68002B02D0FB88002BCC
:1055100001D1012322E1FB6893F85030012B01D126
:1055200002231BE1FB68012283F85020FB68032261
:1055300083F85120FB6800225A65FB68BA681A6339
:10554000FB68FA889A86FB68FA88DA86FB6800228C
:105550009A63FB6800229A87FB680022DA87FB685F
:1055600000225A64FB6800221A64FB689B68B3F54A
:10557000004F0FD1FB681B681A68FB681B6822F09C
:1055800040021A60FB681B681A68FB681B6842F4DB
:1055900080421A60FB681B681B6803F04003402BC5
:1055A00007D0FB681B681A68FB681B6842F0400262
:1055B0001A60FB68DB68B3F5006F52D1FB685B686B
:1055C000002B02D07B8B012B45D1FB681B6B1A880B
:1055D000FB681B68DA60FB681B6B9A1CFB681A632C
:1055E000FB68DB8E9BB2013B9AB2FB68DA8632E045
:1055F000FB681B689B6803F00203022B12D1FB6857
:105600001B6B1A88FB681B68DA60FB681B6B9A1CB3
:10561000FB681A63FB68DB8E9BB2013B9AB2FB68A6
:10562000DA8618E0FEF74EF90246FB69D31A3A68AB
:105630009A4203D83B68B3F1FF3F02D13B68002B8D
:1056400009D1FB68012283F85120FB68002283F80E
:105650005020032382E0FB68DB8E9BB2002BC7D176
:1056600053E0FB685B68002B02D07B8B012B47D19A
:10567000FB681A6BFB681B680C3312781A70FB68A6
:105680001B6B5A1CFB681A63FB68DB8E9BB2013BE9
:105690009AB2FB68DA8633E0FB681B689B6803F00C
:1056A0000203022B13D1FB681A6BFB681B680C33D7
:1056B00012781A70FB681B6B5A1CFB681A63FB6834
:1056C000DB8E9BB2013B9AB2FB68DA8618E0FEF7EC
:1056D000F9F80246FB69D31A3A689A4203D83B6844
:1056E000B3F1FF3F02D13B68002B09D1FB680122D7
:1056F00083F85120FB68002283F8502003232DE01B
:10570000FB68DB8E9BB2002BC6D1FA693968F8685A
:1057100000F0C4FB0346002B02D0FB6820225A6530
:10572000FB689B68002B0AD100237B61FB681B6828
:10573000DB687B61FB681B689B687B617B69FB683E
:10574000012283F85120FB68002283F85020FB6877
:105750005B6D002B01D0012300E0002318462037A9
:10576000BD4680BD80B588B002AFF860B9603B60CF
:105770001346FB80FB6893F85130DBB2012B01D05C
:10578000022304E1FB685B68B3F5827F12D1FB68FA
:105790009B68002B0ED1FB68042283F85120FA8805
:1057A0003B6800931346BA68B968F86800F0F3F8EC
:1057B0000346ECE0FEF786F87861BB68002B02D068
:1057C000FB88002B01D10123E1E0FB6893F8503006
:1057D000012B01D10223DAE0FB68012283F850207B
:1057E000FB68042283F85120FB6800225A65FB689D
:1057F000BA689A63FB68FA889A87FB68FA88DA873E
:10580000FB6800221A63FB6800229A86FB6800226C
:10581000DA86FB6800221A64FB6800225A64FB687F
:105820009B68B3F5004F0FD1FB681B681A68FB68D3
:105830001B6822F040021A60FB681B681A68FB684C
:105840001B6822F480421A60FB681B681B6803F027
:105850004003402B07D0FB681B681A68FB681B6875
:1058600042F040021A60FB68DB68002B70D135E023
:10587000FB681B689B6803F00103012B15D1FB68D3
:105880001B6803F10C02FB689B6B1278D2B21A7092
:10589000FB689B6B5A1CFB689A63FB68DB8F9BB2AF
:1058A000013B9AB2FB68DA8718E0FEF70BF8024674
:1058B0007B69D31A3A689A4203D83B68B3F1FF3F39
:1058C00002D13B68002B09D1FB68012283F85120EB
:1058D000FB68002283F85020032358E0FB68DB8F2D
:1058E0009BB2002BC4D138E0FB681B689B6803F0B7
:1058F0000103012B13D1FB681B68DA68FB689B6B03
:1059000092B21A80FB689B6B9A1CFB689A63FB68D7
:10591000DB8F9BB2013B9AB2FB68DA8718E0FDF798
:10592000D1FF02467B69D31A3A689A4203D83B6892
:10593000B3F1FF3F02D13B68002B09D1FB68012284
:1059400083F85120FB68002283F8502003231EE0D7
:10595000FB68DB8F9BB2002BC6D17A693968F86887
:1059600000F04AFA0346002B02D0FB6820225A6559
:10597000FB68012283F85120FB68002283F8502045
:10598000FB685B6D002B01D0012300E0002318466B
:105990001837BD4680BD80B58AB000AFF860B960E9
:1059A0007A607B8001237B62FDF78CFF3862FB68A5
:1059B00093F85130FB77FB685B68BB617B88FB82A7
:1059C000FB7F012B0CD0BB69B3F5827F06D1FB684E
:1059D0009B68002B02D1FB7F042B01D002237FE1C7
:1059E000BB68002B05D07B68002B02D07B88002B86
:1059F00001D1012374E1FB6893F85030012B01D1F0
:105A000002236DE1FB68012283F85020FB6893F8C4
:105A10005130DBB2042B03D0FB68052283F8512000
:105A2000FB6800225A65FB687A689A63FB687A888B
:105A3000DA87FB687A889A87FB68BA681A63FB681A
:105A40007A88DA86FB687A889A86FB6800221A646C
:105A5000FB6800225A64FB681B681B6803F0400364
:105A6000402B07D0FB681B681A68FB681B6842F074
:105A700040021A60FB68DB68B3F5006F7ED1FB68FB
:105A80005B68002B02D0FB8A012B6CD1FB681B6B7F
:105A90001A88FB681B68DA60FB681B6B9A1CFB6842
:105AA0001A63FB68DB8E9BB2013B9AB2FB68DA8615
:105AB00059E0FB681B689B6803F00203022B1BD1B3
:105AC000FB68DB8E9BB2002B16D07B6A012B13D1B7
:105AD000FB681B6B1A88FB681B68DA60FB681B6B32
