:020000040800F2
:1000000000500020092C0008D5290008DD2900082F
:10001000E5290008ED290008F52900080000000086
:10002000000000000000000000000000FD290008A2
:10003000092A000800000000152A0008212A0008EB
:10004000512C0008512C0008512C0008512C00089C
:10005000512C0008512C0008512C0008512C00088C
:10006000512C0008512C0008512C0008512C00087C
:10007000512C0008512C0008512C0008512C00086C
:10008000512C0008512C0008512C0008512C00085C
:10009000512C0008512C0008512C00082D2A000872
:1000A000512C0008512C0008512C0008512C00083C
:1000B000452A0008512C0008512C0008512C00083A
:1000C000512C0008512C0008512C0008512C00081C
:1000D000512C0008512C0008512C0008512C00080C
:1000E000592A0008512C0008512C0008000000007B
:1000F0000000000000000000000000000000000000
:0C01000000000000000000005FF808F1A3
:1001100010B5054C237833B9044B13B10448AFF341
:1001200000800123237010BDD801002000000000D2
:10013000E487000808B5034B1BB103490348AFF33C
:10014000008008BD00000000DC010020E4870008FA
:1001500010F8012B11F8013B012A28BF9A42F7D071
:10016000D01A7047034613F8012B002AFBD1181A46
:100170000138704781F0004102E000BF83F0004386
:1001800030B54FEA41044FEA430594EA050F08BF32
:1001900090EA020F1FBF54EA000C55EA020C7FEAF6
:1001A000645C7FEA655C00F0E2804FEA5454D4EB73
:1001B0005555B8BF6D420CDD2C4480EA020281EA3D
:1001C000030382EA000083EA010180EA020281EA75
:1001D0000303362D88BF30BD11F0004F4FEA0131C7
:1001E0004FF4801C4CEA113102D0404261EB4101D6
:1001F00013F0004F4FEA03334CEA133302D052425C
:1002000063EB430394EA050F00F0A780A4F1010417
:10021000D5F1200E0DDB02FA0EFC22FA05F2801851
:1002200041F1000103FA0EF2801843FA05F3594137
:100230000EE0A5F120050EF1200E012A03FA0EFCB6
:1002400028BF4CF0020C43FA05F3C01851EBE371E0
:1002500001F0004507D54FF0000EDCF1000C7EEBFD
:1002600000006EEB0101B1F5801F1BD3B1F5001F3B
:100270000CD349085FEA30004FEA3C0C04F101045A
:100280004FEA445212F5800F80F09A80BCF1004F83
:1002900008BF5FEA500C50F1000041EB045141EA05
:1002A000050130BD5FEA4C0C404141EB0101013CCE
:1002B00028BFB1F5801FE9D291F0000F04BF0146BD
:1002C0000020B1FA81F308BF2033A3F10B03B3F18F
:1002D00020020CDA0C3208DD02F1140CC2F10C021F
:1002E00001FA0CF021FA02F10CE002F11402D8BF7D
:1002F000C2F1200C01FA02F120FA0CFCDCBF41EA49
:100300000C019040E41AA2BF01EB0451294330BD17
:100310006FEA04041F3C1CDA0C340EDC04F11404F4
:10032000C4F1200220FA04F001FA02F340EA0300CB
:1003300021FA04F345EA030130BDC4F10C04C4F111
:10034000200220FA02F001FA04F340EA03002946F1
:1003500030BD21FA04F0294630BD94F0000F83F43B
:10036000801306BF81F480110134013D4EE77FEA1E
:10037000645C18BF7FEA655C29D094EA050F08BF6A
:1003800090EA020F05D054EA000C04BF194610464B
:1003900030BD91EA030F1EBF0021002030BD5FEA8F
:1003A000545C05D14000494128BF41F0004130BDB7
:1003B00014F580043CBF01F5801130BD01F000450B
:1003C00045F0FE4141F470014FF0000030BD7FEA7E
:1003D000645C1ABF194610467FEA655C1CBF0B4679
:1003E000024650EA013406BF52EA033591EA030F90
:1003F00041F4002130BD00BF90F0000F04BF002188
:10040000704730B54FF4806404F132044FF00005BA
:100410004FF0000150E700BF90F0000F04BF002133
:10042000704730B54FF4806404F1320410F0004599
:1004300048BF40424FF000013EE700BF42004FEA94
:10044000E2014FEA31014FEA02701FBF12F07F4311
:1004500093F07F4F81F06051704732F07F4208BFC8
:10046000704793F07F4F04BF41F40021704730B5CF
:100470004FF4607401F0004521F000411CE700BF1B
:1004800050EA010208BF704730B54FF000050AE09E
:1004900050EA010208BF704730B511F0004502D59F
:1004A000404261EB41014FF4806404F132045FEAA1
:1004B000915C3FF4D8AE4FF003025FEADC0C18BF4A
:1004C00003325FEADC0C18BF033202EBDC02C2F13C
:1004D000200300FA03FC20FA02F001FA03FE40EACE
:1004E0000E0021FA02F11444BDE600BF70B54FF0D2
:1004F000FF0C4CF4E06C1CEA11541DBF1CEA1355B0
:1005000094EA0C0F95EA0C0F00F0DEF82C4481EA17
:10051000030621EA4C5123EA4C5350EA013518BF37
:1005200052EA033541F4801143F4801338D0A0FB24
:1005300002CE4FF00005E1FB02E506F00042E0FBD1
:1005400003E54FF00006E1FB03569CF0000F18BFD7
:100550004EF0010EA4F1FF04B6F5007F64F540747F
:1005600004D25FEA4E0E6D4146EB060642EAC62112
:1005700041EA55514FEAC52040EA5E504FEACE2E7F
:10058000B4F1FD0C88BFBCF5E06F1ED8BEF1004F82
:1005900008BF5FEA500E50F1000041EB045170BDFE
:1005A00006F0004646EA010140EA020081EA030142
:1005B000B4EB5C04C2BFD4EB0C0541EA045170BD3E
:1005C00041F480114FF0000E013C00F3AB8014F1B8
:1005D000360FDEBF002001F0004170BDC4F1000401
:1005E000203C35DA0C341BDC04F11404C4F1200582
:1005F00000FA05F320FA04F001FA05F240EA0200DD
:1006000001F0004221F0004110EBD37021FA04F612
:1006100042EB06015EEA430E08BF20EAD37070BDCC
:10062000C4F10C04C4F1200500FA04F320FA05F02B
:1006300001FA04F240EA020001F0004110EBD3702D
:1006400041F100015EEA430E08BF20EAD37070BD9D
:10065000C4F1200500FA05F24EEA020E20FA04F376
:1006600001FA05F243EA020321FA04F001F0004125
:1006700021FA04F220EA020000EBD3705EEA430E96
:1006800008BF20EAD37070BD94F0000F0FD101F0C5
:100690000046400041EB010111F4801F08BF013CFE
:1006A000F7D041EA060195F0000F18BF704703F03C
:1006B0000046520043EB030313F4801F08BF013DC3
:1006C000F7D043EA0603704794EA0C0F0CEA13557F
:1006D00018BF95EA0C0F0CD050EA410618BF52EA39
:1006E0004306D1D181EA030101F000414FF000003F
:1006F00070BD50EA410606BF1046194652EA43064D
:1007000019D094EA0C0F02D150EA013613D195EAC0
:100710000C0F05D152EA03361CBF104619460AD108
:1007200081EA030101F0004141F0FE4141F4700112
:100730004FF0000070BD41F0FE4141F4780170BD02
:1007400070B54FF0FF0C4CF4E06C1CEA11541DBF67
:100750001CEA135594EA0C0F95EA0C0F00F0A7F869
:10076000A4EB050481EA030E52EA03354FEA013196
:1007700000F088804FEA03334FF0805545EA1313A9
:1007800043EA12634FEA022245EA111545EA106571
:100790004FEA00260EF000419D4208BF964244F108
:1007A000FD0404F5407402D25B084FEA3202B61A27
:1007B00065EB03055B084FEA32024FF480104FF4FB
:1007C000002CB6EB020E75EB030E22BFB61A75466F
:1007D00040EA0C005B084FEA3202B6EB020E75EB02
:1007E000030E22BFB61A754640EA5C005B084FEA6A
:1007F0003202B6EB020E75EB030E22BFB61A754637
:1008000040EA9C005B084FEA3202B6EB020E75EB41
:10081000030E22BFB61A754640EADC0055EA060E02
:1008200018D04FEA051545EA16754FEA06164FEA45
:10083000C30343EA52734FEAC2025FEA1C1CC0D1F1
:1008400011F4801F0BD141EA00014FF000004FF07E
:10085000004CB6E711F4801F04BF01430020B4F13F
:10086000FD0C88BFBCF5E06F3FF6AFAEB5EB030CF7
:1008700004BFB6EB020C5FEA500C50F1000041EBF4
:10088000045170BD0EF0004E4EEA113114EB5C04C1
:10089000C2BFD4EB0C0541EA045170BD41F4801194
:1008A0004FF0000E013C90E645EA060E8DE60CEA9C
:1008B000135594EA0C0F08BF95EA0C0F3FF43BAFB9
:1008C00094EA0C0F0AD150EA01347FF434AF95EA70
:1008D0000C0F7FF425AF104619462CE795EA0C0F54
:1008E00006D152EA03353FF4FDAE1046194622E721
:1008F00050EA410618BF52EA43067FF4C5AE50EAFB
:1009000041047FF40DAF52EA43057FF4EBAE12E7EA
:100910004FF0FF3C06E000BF4FF0010C02E000BFCB
:100920004FF0010C4DF804CD4FEA410C7FEA6C5CAE
:100930004FEA430C18BF7FEA6C5C1BD001B050EA51
:10094000410C0CBF52EA430C91EA030F02BF90EA3C
:10095000020F0020704710F1000F91EA030F58BFFB
:10096000994208BF90422CBFD8176FEAE37040F05D
:10097000010070474FEA410C7FEA6C5C02D150EAFB
:10098000013C07D14FEA430C7FEA6C5CD6D152EAB6
:10099000033CD3D05DF8040B704700BF844610467B
:1009A00062468C461946634600E000BF01B5FFF77A
:1009B000B7FF002848BF10F1000F01BD4DF808ED4A
:1009C000FFF7F4FF0CBF012000205DF808FB00BF1B
:1009D0004DF808EDFFF7EAFF34BF012000205DF875
:1009E00008FB00BF4DF808EDFFF7E0FF94BF0120C2
:1009F00000205DF808FB00BF4DF808EDFFF7CEFFC3
:100A000094BF012000205DF808FB00BF4DF808ED01
:100A1000FFF7C4FF34BF012000205DF808FB00BFD2
:100A20004FEA410C7FEA6C5C02D150EA013C0AD1EA
:100A30004FEA430C7FEA6C5C02D152EA033C02D1DC
:100A40004FF0000070474FF0010070474FEA41023D
:100A500012F5001215D211D56FF47873B3EB625210
:100A600012D94FEAC12343F0004343EA505311F037
:100A7000004F23FA02F018BF404270474FF00000C9
:100A8000704750EA013005D111F0004008BF6FF007
:100A9000004070474FF00000704700BF80F00040FA
:100AA00002E000BF81F0004142001FBF5FEA410346
:100AB00092EA030F7FEA226C7FEA236C6AD04FEA46
:100AC0001262D2EB1363C1BFD2184140484041408B
:100AD000B8BF5B42192B88BF704710F0004F40F43D
:100AE000000020F07F4018BF404211F0004F41F459
:100AF000000121F07F4118BF494292EA030F3FD025
:100B0000A2F1010241FA03FC10EB0C00C3F1200337
:100B100001FA03F100F0004302D5494260EB4000C6
:100B2000B0F5000F13D3B0F1807F06D340084FEA31
:100B3000310102F10102FE2A51D2B1F1004F40EB26
:100B4000C25008BF20F0010040EA0300704749008E
:100B500040EB0000013A28BFB0F5000FEDD2B0FA2B
:100B600080FCACF1080CB2EB0C0200FA0CF0AABF4E
:100B700000EBC25052421843BCBFD04018437047EC
:100B800092F0000F81F4000106BF80F400000132F2
:100B9000013BB5E74FEA41037FEA226C18BF7FEAC9
:100BA000236C21D092EA030F04D092F0000F08BF0B
:100BB0000846704790EA010F1CBF0020704712F0F2
:100BC0007F4F04D1400028BF40F00040704712F131
:100BD00000723CBF00F50000704700F0004343F096
:100BE000FE4040F4000070477FEA226216BF0846CC
:100BF0007FEA23630146420206BF5FEA412390EA8F
:100C0000010F40F4800070474FF0000304E000BF84
:100C100010F0004348BF40425FEA000C08BF704735
:100C200043F0964301464FF000001CE050EA0102F9
:100C300008BF70474FF000030AE000BF50EA01020E
:100C400008BF704711F0004302D5404261EB4101FB
:100C50005FEA010C02BF84460146002043F0B64320
:100C600008BFA3F18053A3F50003BCFA8CF2083A45
:100C7000A3EBC25310DB01FA02FC634400FA02FC4E
:100C8000C2F12002BCF1004F20FA02F243EB020055
:100C900008BF20F00100704702F1200201FA02FCB7
:100CA000C2F1200250EA4C0021FA02F243EB0200AA
:100CB00008BF20EADC7070474FF0FF0C1CEAD052EE
:100CC0001EBF1CEAD15392EA0C0F93EA0C0F6FD0AF
:100CD0001A4480EA010C400218BF5FEA41211ED08D
:100CE0004FF0006343EA501043EA5111A0FB013179
:100CF0000CF00040B1F5000F3EBF490041EAD3714E
:100D00005B0040EA010062F17F02FD2A1DD8B3F1C9
:100D1000004F40EBC25008BF20F00100704790F038
:100D2000000F0CF0004C08BF49024CEA502040EA8A
:100D300051207F3AC2BFD2F1FF0340EAC250704750
:100D400040F400004FF00003013A5DDC12F1190F8E
:100D5000DCBF00F000407047C2F10002410021FA00
:100D600002F1C2F1200200FA02FC5FEA310040F118
:100D7000000053EA4C0308BF20EADC70704792F091
:100D8000000F00F0004C02BF400010F4000F013AC9
:100D9000F9D040EA0C0093F0000F01F0004C02BFC4
:100DA000490011F4000F013BF9D041EA0C018FE733
:100DB0000CEAD15392EA0C0F18BF93EA0C0F0AD039
:100DC00030F0004C18BF31F0004CD8D180EA01005F
:100DD00000F00040704790F0000F17BF90F0004FF8
:100DE000084691F0000F91F0004F14D092EA0C0FDA
:100DF00001D142020FD193EA0C0F03D14B0218BF6D
:100E0000084608D180EA010000F0004040F0FE40B2
:100E100040F40000704740F0FE4040F4400070474E
:100E20004FF0FF0C1CEAD0521EBF1CEAD15392EACD
:100E30000C0F93EA0C0F69D0A2EB030280EA010CBD
:100E400049024FEA402037D04FF0805343EA111156
:100E500043EA10130CF000408B4238BF5B0042F1B4
:100E60007D024FF4000C8B4224BF5B1A40EA0C0059
:100E7000B3EB510F24BFA3EB510340EA5C00B3EB8B
:100E8000910F24BFA3EB910340EA9C00B3EBD10F79
:100E900024BFA3EBD10340EADC001B0118BF5FEACB
:100EA0001C1CE0D1FD2A3FF650AF8B4240EBC250F4
:100EB00008BF20F0010070470CF0004C4CEA5020B5
:100EC0007F32C2BFD2F1FF0340EAC250704740F404
:100ED00000004FF00003013A37E792F0000F00F0F6
:100EE000004C02BF400010F4000F013AF9D040EA74
:100EF0000C0093F0000F01F0004C02BF490011F408
:100F0000000F013BF9D041EA0C0195E70CEAD153FF
:100F100092EA0C0F08D142027FF47DAF93EA0C0FE6
:100F20007FF470AF084676E793EA0C0F04D14B02CA
:100F30003FF44CAF08466EE730F0004C18BF31F07C
:100F4000004CCAD130F000427FF45CAF31F0004376
:100F50007FF43CAF5FE700BF4FEA4002B2F1FE4FC3
:100F60000FD34FF09E03B3EB12620DD94FEA00236B
:100F700043F0004310F0004F23FA02F018BF404244
:100F800070474FF00000704712F1610F01D142022B
:100F900005D110F0004008BF6FF0004070474FF0DF
:100FA0000000704780B582B000AF786008461146F7
:100FB0001A460346FB700B46BB7013467B702F4AE4
:100FC0007B681360FB785B00DAB22C4B1A712B4AFA
:100FD000BB785371294A7B789371284B0822DA71C8
:100FE000322001F099FE254BDB79184600F030F9EC
:100FF0004FF47A7001F090FE302000F017F90520D0
:1010000001F08AFE302000F011F9052001F084FE85
:10101000302000F00BF9012001F07EFE202000F0CE
:1010200005F9164B00221A72144B9B79012B06D935
:10103000124B1B7A43F00803DAB2104B1A720F4BB3
:101040001B7A43F02003DBB2184600F09DF80B4BEF
:1010500004225A7200F01EF8084B02229A72074BC3
:101060009B7A43F00403DBB2184600F08DF800F0E1
:1010700007F800BF0837BD4680BD00BFF40100205F
:1010800080B500AF012000F07FF8022001F044FE9F
:1010900000BF80BD80B500AF084B5B7A43F004030E
:1010A000DAB2064B5A72054B5B7A43F00803DBB2A7
:1010B000184600F069F800BF80BD00BFF4010020B1
:1010C00080B500AF084B5B7A23F00103DAB2064B20
:1010D0005A72054B5B7A43F00803DBB2184600F006
:1010E00053F800BF80BD00BFF401002080B500AF01
:1010F000084B5B7A43F00103DAB2064B5A72054B98
:101100005B7A43F00803DBB2184600F03DF800BFFD
:1011100080BD00BFF401002080B500AF034B082262
:10112000DA71002000F094F800BF80BDF4010020C7
:1011300080B584B000AF03460A46FB711346BB710D
:101140000F4BFB600F4B9B79BA799A4203D30D4B3F
:101150009B79013BBB71BB7910333B4413F8042CE2
:10116000FB791344DBB25BB263F07F035BB2DBB2AB
:10117000184600F009F800BF1037BD4680BD00BF1B
:1011800000401454F401002080B582B000AF034643
:10119000FB71FB790021184600F027F800BF0837E3
:1011A000BD4680BD80B582B000AF0346FB71FB79C0
:1011B0000121184600F019F800BF0837BD4680BD70
:1011C00080B582B000AF786006E07B685A1C7A6018
:1011D0001B781846FFF7E6FF7B681B78002BF4D1DD
:1011E00000BF00BF0837BD4680BD80B584B000AFEA
:1011F00003460A46FB711346BB71FB7923F00F03CC
:10120000FB73FB791B01BB73FA7BBB791343DBB226
:10121000184600F00BF8BA7BBB791343DBB21846D3
:1012200000F004F800BF1037BD4680BD80B582B025
:1012300000AF0346FB71FB79184600F009F8FB7913
:10124000184600F023F800BF0837BD4680BD0000F7
:1012500080B586B002AF0346FB710B4BDA79FB79A0
:101260001343DBB23B73084B1868074B1B791946D5
:1012700007F10C020A230093012302F077FB00BF61
:101280001037BD4680BD00BFF401002080B582B09C
:1012900000AF0346FB71FB7943F00403DBB2184651
:1012A000FFF7D6FFFB7923F00403DBB21846FFF704
:1012B000CFFF00BF0837BD4680BD80B500AFFFF748
:1012C00015FF00BF80BD80B500AFFFF7F9FE00BF7E
:1012D00080BD80B584B000AF78600B46FB701346CC
:1012E000BB70FB7863F07F03FB70FB783B73BB78CC
:1012F0007B737B6858687B681B890022194602F063
:10130000C1F97B68186807F10C014FF0FF33022226
:1013100003F004FB7B6858687B681B89012219462F
:1013200002F0B0F900BF1037BD4680BD80B584B073
:1013300000AFF8607A601A460B46FB721346BB7228
:10134000FB7A03F07F03DBB2FB72FB685868FB6833
:101350001B890022194602F095F9FB68186807F10D
:101360000B014FF0FF33012203F0D8FAFB68186835
:10137000BB7A9AB24FF0FF33796803F013FCFB6835
:101380005868FB681B890122194602F07BF900BFEF
:101390001037BD4680BD80B584B000AF78600B4685
:1013A000FB700023FB7307F10F02F97801237868C3
:1013B000FFF7BCFFFB7B18461037BD4680BD80B5EC
:1013C00084B000AF78600B46FB7007F10803002182
:1013D0000A461A800A469A7007F10802F978032330
:1013E0007868FFF7A3FF3B7AFB60FB681B02FB609A
:1013F0007B7A1A46FB681343FB60FB681B02FB60A9
:10140000BB7A1A46FB681343FB60FB68184610372B
:10141000BD4680BD80B584B000AFF860B9607A6029
:101420007B80FB68002B05D0BB68002B02D07B685B
:10143000002B01D100232BE0FB68BA681A60FB681F
:101440007A685A60FB687A881A81FB680122DA722E
:10145000FB685868FB681B890122194602F012F9E3
:1014600000220221F868FFF734FF10220021F868FB
:10147000FFF72FFF00220921F868FFF72AFF032159
:10148000F86800F037F80021F86800F005F801234B
:1014900018461037BD4680BD80B584B000AF786077
:1014A0000B46FB707B68FA789A7200217868FFF728
:1014B00072FF0346FB737B689B7A022B08D1FB7B90
:1014C00063F07F03FB73FB7B23F04003FB7307E0B8
:1014D000FB7B03F07F03FB73FB7B43F04003FB7359
:1014E000FB7B1A4600217868FFF7F3FE00BF103738
:1014F000BD4680BD80B584B000AF78600B46FB7000
:1015000001217868FFF747FF0346FB73FB7B23F05D
:101510000F03FB7397F9033003F00F035AB297F9E7
:101520000F3013435BB2FB73FB7B1A4601217868D3
:10153000FFF7CFFE00BF1037BD4680BD80B584B039
:1015400000AF78600B46FB7000217868FFF723FF3F
:101550000346FB73FB78002B04D1FB7B43F00103B4
:10156000FB7303E0FB7B23F00103FB73FB7B1A4659
:1015700000217868FFF7ADFE00BF1037BD4680BD83
:1015800080B584B000AF78607B689B7A022B14D062
:1015900000217868FFF7FFFE0346FB73FB7B03F037
:1015A0007F03FB73FB7B43F04003FB73FB7B1A461B
:1015B00000217868FFF78DFE00E000BF1037BD46C0
:1015C00080BD80B582B000AF78607B689B7A022BCB
:1015D00001D101230BE000217868FFF7DCFE034610
:1015E00003F04003002B0CBF01230023DBB218469D
:1015F0000837BD4680BD000080B584B000AF78607C
:101600007B689B7A002B1BD17868FFF7B9FF01F04C
:1016100079FBB8600BE001F075FB0246BB68D31A9A
:10162000FA2B01D9164B27E00A2001F075FB7868E8
:10163000FFF7C7FF034683F00103DBB2002BEAD1BB
:101640000C217868FFF7BBFE0346FB60FB6803F4E0
:101650000003002B03D0FB6843F07F43FB60FB6873
:101660005B11FB60F868FFF7D3FA03464FF0705147
:101670001846FFF721FB034618461037BD4680BDCC
:101680000000C07F80B584B000AF0346FB8001F04E
:1016900039FBF860FB88B3F5807F0CD12A4B1B68BF
:1016A000FA68D31AC82B06D9284B01221A70264A89
:1016B000FB68136043E0FB88B3F5007F0CD1244B3B
:1016C0001B68FA68D31AC82B06D9224B01221A705C
:1016D0001F4AFB68136032E0FB88B3F5004F0CD162
:1016E0001D4B1B68FA68D31AC82B06D91B4B012265
:1016F0001A70194AFB68136021E0FB88B3F5006F8C
:101700000CD1174B1B68FA68D31AC82B06D9154B96
:1017100001221A70124AFB68136010E0FB88B3F5CF
:10172000806F0CD1104B1B68FA68D31AC82B06D9EE
:101730000E4B01221A700C4AFB681360FFE700BFD2
:101740001037BD4680BD00BF0003002014030020F9
:1017500004030020150300201003002016030020BE
:101760000C030020170300200803002018030020AA
:1017700080B483B000AF78607B681B68B3F1804FA2
:101780002AD1184B1B78012B26D1174B1B7801331C
:10179000DAB2154B1A70144B1B783B2B15D9124B30
:1017A00000221A70114B1B780133DAB20F4B1A70FA
:1017B0000E4B1B783B2B08D90C4B00221A700C4B9C
:1017C0001B780133DAB20A4B1A700A4B1B78002BD4
:1017D00002D1094B01221A7000BF0C37BD4680BCF4
:1017E000704700BF640300206803002067030020E7
:1017F00066030020650300200300002080B582B04E
:1018000000AF954B1B78DBB2002B39D0924B0022F6
:101810001A70924B1B78002B06D1904B01221A7044
:101820008F4B00221A7028E000F0FCFC8B4B00224A
:101830001A708C4B00221A708B4B00221A708B4B43
:1018400000221A708A4B01221A70854B01221A70ED
:10185000884B1B791A464FF4616303FB02F2854BF8
:101860005B7919460B461B015B1A9B001344814AA6
:10187000927913441A46804B1A60804B01221A70E9
:101880007F4B1B78DBB2002B3ED07D4B00221A70C1
:10189000724B1B78022B0FD17A4B1B780133DAB2D3
:1018A000784B1A70774B1A78774B1B789A4228D965
:1018B000744B01221A7024E0684B1B78032B0DD166
:1018C000724B1B7801335A4203F0030302F0030208
:1018D00058BF5342DAB26D4B1A7012E05F4B1B785F
:1018E000042B0ED16A4B1B785A1C6A4B83FB0231C6
:1018F000D317C91A0B465B000B44D11ACAB2644B0A
:101900001A705E4B01221A70634B1B78DBB2002BFE
:1019100000F0D280604B00221A70504B1B78013BC4
:10192000032B00F2978001A252F823F03D19000822
:1019300051190008F5190008111A0008474B022236
:101940001A70504B01221A70544B00221A70B0E0EA
:10195000524B1B78002B12D14A4B1B78013B454A56
:1019600012F83330002B0CBF01230023DAB2454BB1
:101970001B78013B11463F4A02F8331098E0474B71
:101980001B78012B0FD13F4B1B78013B394ADB0001
:1019900013445A88424B1A803C4B00221A702F4B3A
:1019A00003221A7084E03D4B1B78022B40F08080AC
:1019B000344B1B78013B2F4ADB0013441A79394B17
:1019C0001A70304B1B78013B2A4ADB0013445A79CA
:1019D000354B1A702B4B1B78013B264ADB00134416
:1019E0009A79324B1A702A4B00221A701B4B042230
:1019F0001A705DE0234B1B78013B294A11881D4A70
:101A0000DB0013440A465A80144B02221A7050E03D
:101A10001C4B1B78013B234A1178164ADB00134408
:101A20000A461A71174B1B78013B1F4A1178114A5D
:101A3000DB0013440A465A71124B1B78013B1B4AC8
:101A400011780C4ADB0013440A469A71034B0222B8
:101A50001A702EE000BF2CE0140300206503002064
:101A60006403002066030020670300206803002051
:101A7000010000201C0300206C0300200300002054
:101A80001503002002000020000000207503002044
:101A90007603002056555555160300207403002088
:101AA000780300207A0300207B0300207C030020C1
:101AB00000BFA04B01221A709F4B1B78DBB2002B9A
:101AC00005D19E4B1B78DBB2002B00F078819A4B3E
:101AD0001B78DBB2002B14BF01230023FB71964B54
:101AE00000221A70954B00221A70954B1B78013B0F
:101AF000032B00F25C8101A252F823F00D1B0008B9
:101B00004F1B0008891B0008B11C0008FB79002B43
:101B10000AD08C4B1B78082B06D88A4B1B780133D4
:101B2000DAB2884B1A7044E1FB7983F00103DBB22F
:101B3000002B00F03E81834B1B78012B40F2398152
:101B4000804B1B78013BDAB27E4B1A7031E1FB7996
:101B5000002B0CD07C4B1B78002B04D07A4B1B78CD
:101B6000013BDBB200E00223774A137024E1764B9D
:101B70001B78012B04D8744B1B780133DBB200E0D7
:101B80000023714A137017E1704B1B88704AA2FB47
:101B900003239B099BB2DBB23B706C4B1B886D4AE5
:101BA000A2FB03235B099AB26B4BA3FB0213D90878
:101BB0000B469B000B445B00D31A9BB2DBB27B70DD
:101BC000624B1B88644AA2FB0323DB089AB2624B78
:101BD000A3FB0213D9080B469B000B445B00D31AEE
:101BE0009BB2DBB2BB70594B1A885B4BA3FB021351
:101BF000D9080B469B000B445B00D31A9BB2DBB2A7
:101C0000FB70FB79002B18D0544B1B7808333B44F6
:101C100013F8083C092B08D0504B1B7808333B4481
:101C200013F8083C0133DAB200E000224B4B1B787A
:101C300008333B4403F8082C17E0484B1B78083363
:101C40003B4413F8083C002B08D0444B1B78083366
:101C50003B4413F8083C013BDAB200E009223F4B59
:101C60001B7808333B4403F8082C3B781A46520192
:101C7000D21A92001344DB009AB27B78194689008D
:101C80000B4419468800194603460B449B009BB23F
:101C900013449AB2BB78194689000B445B009BB28F
:101CA00013449BB2FA7813449AB2284B1A8083E00B
:101CB0002B4B1B78002B1CD1FB79002B0CD0294B14
:101CC0001B78632B04D0274B1B780133DBB200E079
:101CD0000023244A13706EE0224B1B78002B04D0A3
:101CE000204B1B78013BDBB200E063231D4A1370DD
:101CF00061E01B4B1B78012B38D1FB79002B0CD0FA
:101D0000194B1B783B2B04D0174B1B780133DBB2EC
:101D100000E00023144A13704DE0134B1B78002B96
:101D200004D0114B1B78013BDBB200E03B230E4A91
:101D3000137040E003000020170300201803002068
:101D400065030020000000207403002078030020B9
:101D5000D34D62101F85EB51CDCCCCCC7503002048
:101D6000760300207A0300207B030020164B1B78AB
:101D7000022B20D1FB79002B0CD0144B1B783B2B72
:101D800004D0124B1B780133DBB200E000230F4A72
:101D9000137010E00D4B1B78002B04D00B4B1B78FD
:101DA000013BDBB200E03B23084A137003E000BFB5
:101DB00002E000BF00E000BF054B01221A7000BF27
:101DC0000837BD4680BD00BF760300207C0300209D
:101DD0000300002080B592B002AFC34B1B7883F0A4
:101DE0000103DBB2002B40F0E281BF4B00221A70EE
:101DF00007F12C0310222021184604F012FC0023C6
:101E000087F83C3007F1180310222021184604F00F
:101E100008FC002387F82830B44B1B78042B00F211
:101E2000238101A252F823F03D1E0008EB1E00089A
:101E3000331F0008C11F00080F200008AC4B1B789F
:101E4000002B0CD1AB4B1B681846FFF785F80246F8
:101E5000A94B1B783846A94904F07EFB20E0A44B2F
:101E60001B78022B0BD1A34B1B681846FFF774F8A5
:101E700002463B46A249184604F06EFB10E09D4B1B
:101E80001B681846FFF768F802469E4B1B781946F8
:101E9000994B1B78384600930B469B4904F05CFB3A
:101EA0003B461846FEF75EF90246394607F12C0319
:101EB000184604F04CFC954B1B781A46944B1B7843
:101EC0001946944B1B78384600930B46924904F010
:101ED00043FB3B461846FEF745F90246394607F1F3
:101EE0001803184604F033FCBEE03B468B49184605
:101EF00004F032FB3B461846FEF734F902463946F9
:101F000007F12C03184604F022FC7B4B1B781A4681
:101F10003B468349184604F01FFB3B461846FEF734
:101F200021F90246394607F11803184604F00FFC60
:101F30009AE07C4B1B781A463B467B49184604F0D6
:101F40000BFB3B461846FEF70DF90246394607F1F2
:101F50002C03184604F0FBFB744B1B78002B10D1AC
:101F6000704B1B78013B724A12F83330002B01D1C1
:101F7000704A00E0704A3B467049184604F0ECFA9B
:101F800012E06A4B1B78012B05D13B466C49184681
:101F900004F0E2FA08E0654B1B78022B04D13B46C3
:101FA0006849184604F0D8FA3B461846FEF7DAF8B6
:101FB0000246394607F11803184604F0C8FB53E0FF
:101FC000584B1B781A463B465F49184604F0C4FA42
:101FD0003B461846FEF7C6F80246394607F12C0381
:101FE000184604F0B4FB594B1B881A463B46584927
:101FF000184604F0B1FA3B461846FEF7B3F802461D
:10200000394607F11803184604F0A1FB2CE0454BB4
:102010001B781A463B464F49184604F09DFA3B464A
:102020001846FEF79FF80246394607F12C0318467A
:1020300004F08DFB484B1B781A46484B1B78194619
:10204000474B1B78384600930B46334904F084FA1B
:102050003B461846FEF786F80246394607F1180354
:10206000184604F074FB00BF07F12C033D491846E5
:10207000FEF76EF80346002B0ED000210020FFF77C
:1020800057F807F12C031846FFF79AF807F12C03CD
:102090001946344804F045FB07F118033249184645
:1020A000FEF756F80346002B0ED001210020FFF763
:1020B0003FF807F118031846FFF782F807F11803F5
:1020C0001946294804F02DFB084B1B78032B4FD1F0
:1020D000264B1B780733DBB201211846FFF728F89F
:1020E000FFF7EBF864E000BF030000206503002069
:1020F0006403002070030020000000200088000816
:1021000014880008010000202488000866030020CD
:102110006703002068030020388800085088000802
:102120006088000802000020708800087403002006
:102130001C03002084880008888800089088000814
:102140009C880008A8880008B4880008780300204C
:10215000C4880008D48800087A0300207B0300208C
:102160007C030020800300209403002075030020DE
:10217000114B1B78042B17D1104B1B78002B07D069
:102180000E4B1B78012B01D10A2302E00D2300E046
:10219000072387F83F3097F83F3001211846FEF7B4
:1021A000C7FFFFF78AF803E0FFF78DF800E000BFF4
:1021B0004037BD4680BD00BF650300207603002088
:1021C00080B483B000AF00237B601FE0144A7B68BB
:1021D000002102F83310124A7B68DB00134400220E
:1021E0005A800F4A7B68DB00134400221A710C4AA4
:1021F0007B68DB00134400225A71094A7B68DB00CC
:10220000134400229A717B6801337B607B68082B42
:10221000DCDD00BF00BF0C37BD4680BC704700BF8F
:102220001C030020B0B59CB000AF2B4B7B612B4B47
:102230001B78BB612A4A07F11C0311464822184645
:1022400004F085FA07F11403BB661423A7F866307F
:1022500072B600BF00F002FF00233B6000237B60EA
:102260000123BB601F4BFB6001233B613A463B1DD2
:102270001146184600F0DAFF0346002B24D1002354
:10228000A7F86E301AE0B7F86E3003F1007303F56B
:102290007C539B001946B7F86E309B00BA6E13440E
:1022A0001B6800221C46154622462B46022000F0E1
:1022B00065FEB7F86E300133A7F86E30B7F86E20C0
:1022C000B7F866309A42DED300F0EEFE62B600BF89
:1022D00000BF7037BD46B0BDDDCCBBAA00000020FA
:1022E0001C03002000FC000880B582B000AF124B38
:1022F0007B607B681B68114A934217D17B685B68DF
:10230000DAB20F4B1A700E4B1B78002B03D00C4B1C
:102310001B78092B02D90A4B01221A707B680833FB
:1023200048221946074804F012FA01E0FFF748FF77
:1023300000BF0837BD4680BD00FC0008DDCCBBAA4D
:10234000000000201C03002080B582B000AF00F028
:1023500081FC00F0C5F800F0BBF900F06BF900F06B
:1023600005F900F031F9FFF7BFFF02231022272102
:102370004A48FEF717FEFEF7CFFEFEF781FE4848FB
:1023800003F02CF84FF40043464A47494748FFF70B
:1023900041F806214548FFF7ADF800214348FFF713
:1023A000CDF802214148FFF777F800F0ABFC024678
:1023B0003F4B1B68D31AB3F5FA7F11D300F0A2FC90
:1023C00003463B4A13603948FFF716F90346394A7A
:1023D0001360394B1B78002B02D1384B01221A7045
:1023E000FFF70CFA364B1B78012B54D1354B1B7879
:1023F0001A464FF4616303FB02F2334B1B78194614
:102400000B461B015B1A9B001344304A127813449D
:102410007B602F4B1B687A689A423CD32D4B1A780D
:102420002D4B1B789A4230D22A4B1B780133DAB2FB
:10243000284B1A70274B1B78013B284ADB001344BA
:102440001B791A464FF4616303FB02F2214B1B78A0
:10245000013B2249DB000B445B7919460B461B010B
:102460005B1A9B001A441B4B1B78013B1B49DB008A
:102470000B449B7913441A46154B1B681344144AAA
:1024800013600E4B01221A7005E00D4B02221A70E8
:102490000A4B01221A70FFF79DFC86E7000200201C
:1024A000AC0200200008014054020020F402002089
:1024B000A803002070030020650300200300002013
:1024C00064030020660300206703002068030020E7
:1024D0006C03002001000020000000201C030020ED
:1024E00080B590B000AF07F11803282200211846EC
:1024F00004F097F83B1D00221A605A609A60DA6077
:102500001A610123BB614FF48033FB6100233B62FE
:102510000123BB6202237B634FF48033BB634FF420
:10252000E013FB6307F11803184601F077FD03463B
:10253000002B01D000F058F90F237B600223BB6011
:102540000023FB604FF480633B6100237B613B1DF4
:102550000221184601F0E4FF0346002B01D000F0F1
:1025600043F900BF4037BD4680BD000080B500AFD5
:10257000124B134A1A60114B124A5A600F4B002239
:102580009A600E4B0022DA600C4B4FF480421A61C5
:102590000A4B00225A61094B00229A61074B002224
:1025A000DA61064B00221A62044801F09BF80346E8
:1025B000002B01D000F018F900BF80BD0002002000
:1025C00000580040A086010080B500AF174B184AA4
:1025D0001A60164B4FF482725A60144B00229A60B4
:1025E000124B0022DA60114B00221A610F4B0122BC
:1025F0005A610E4B4FF400729A610C4B1822DA614B
:102600000A4B00221A62094B00225A62074B002231
:102610009A62064B0A22DA62044802F0FBF803468B
:10262000002B01D000F0E0F800BF80BD5402002074
:102630000030014080B586B000AF07F108030022EA
:102640001A605A609A60DA603B4600221A605A604B
:102650001E4B4FF080421A601C4B41F61F425A60DD
:102660001A4B00229A60194B42F20F72DA60174B34
:1026700000221A61154B80229A61144802F05FFE15
:102680000346002B01D000F0AFF84FF48053BB603D
:1026900007F1080319460D4802F0E2FF0346002B3C
:1026A00001D000F0A1F800233B6000237B603B4693
:1026B0001946064803F0C4F90346002B01D000F088
:1026C00093F800BF1837BD4680BD00BFAC020020A4
:1026D00080B588B000AF07F1100300221A605A607D
:1026E0009A60DA603C4B9B693B4A43F0200393615C
:1026F000394B9B6903F02003FB60FB68364B9B69F9
:10270000354A43F008039361334B9B6903F0080398
:10271000BB60BB68304B9B692F4A43F00403936155
:102720002D4B9B6903F004037B607B6801224FF40F
:1027300000412A4800F0A6FF00228021284800F02E
:10274000A1FF4FF400433B61264B7B610023BB613B
:1027500007F110031946224800F010FE4FF4706391
:102760003B61204B7B610023BB6107F110031946DD
:102770001A4800F003FE4FF400433B6101237B61E4
:102780000023BB610223FB6107F1100319461348C4
:1027900000F0F4FD80233B6101237B610023BB61DA
:1027A0000223FB6107F1100319460D4800F0E6FD16
:1027B00000220021172000F0AAFB172000F0C3FB25
:1027C00000220021282000F0A2FB282000F0BBFB03
:1027D00000BF2037BD4680BD001002400008014008
:1027E000000C01400000111080B400AF72B600BFB1
:1027F00000BFFDE780B485B000AF154B9B69144A5C
:1028000043F001039361124B9B6903F00103BB602A
:10281000BB680F4BDB690E4A43F08053D3610C4B0E
:10282000DB6903F080537B607B680A4B5B68FB606D
:10283000FB6823F0E063FB60FB6843F00073FB6020
:10284000044AFB68536000BF1437BD4680BC704724
:10285000001002400000014080B588B000AF7860F1
:1028600007F1100300221A605A609A60DA607B68F0
:102870001B68164A934224D1154B9B69144A43F0B6
:1028800008039361124B9B6903F00803FB60FB682C
:102890004FF440633B6112237B610323FB6107F12B
:1028A000100319460B4800F069FD094BDB69084A23
:1028B00043F48003D361064BDB6903F48003BB6000
:1028C000BB6800BF2037BD4680BD00BF0058004038
:1028D00000100240000C014080B58AB000AF786063
:1028E00007F1140300221A605A609A60DA607B686C
:1028F0001B68224A93423DD1214B9B69204A43F4F5
:10290000805393611E4B9B6903F480533B613B6989
:102910001B4B9B691A4A43F008039361184B9B6950
:1029200003F00803FB60FB6828237B610223BB6183
:1029300003233B6207F114031946124800F01EFD01
:1029400010237B610023BB610023FB6107F11403AB
:1029500019460C4800F012FD0B4B5B687B627B6AEA
:1029600043F0E0637B627B6A43F001037B62064ACB
:102970007B6A536000BF2837BD4680BD00300140F0
:1029800000100240000C01400000014080B584B0FE
:1029900000AF78607B681B68B3F1804F13D10C4B9C
:1029A000DB690B4A43F00103D361094BDB6903F098
:1029B0000103FB60FB68002200211C2000F0A7FA45
:1029C0001C2000F0C0FA00BF1037BD4680BD00BF1C
:1029D0000010024080B400AF00BFFDE780B400AF3C
:1029E00000BFFDE780B400AF00BFFDE780B400AFDB
:1029F00000BFFDE780B400AF00BFFDE780B400AFCB
:102A000000BFBD4680BC704780B400AF00BFBD466C
:102A100080BC704780B400AF00BFBD4680BC70472B
:102A200080B500AF00F05CF900BF80BD80B500AF9D
:102A30004FF4807000F03EFE4FF4007000F03AFE5C
:102A400000BF80BD80B500AF024802F019FD00BF95
:102A500080BD00BFAC02002080B500AF4FF48060A5
:102A600000F028FE4FF4006000F024FE4FF4004018
:102A700000F020FE00BF80BD80B400AF01231846E7
:102A8000BD4680BC704780B582B000AF78603960C9
:102A900003F01AFE034616221A604FF0FF33184661
:102AA0000837BD4680BD80B582B000AF78604FF07A
:102AB000FF317868FFF7E7FF00BFFDE780B586B01C
:102AC00000AFF860B9607A6000237B610AE0AFF381
:102AD00000800146BB685A1CBA60CAB21A707B6992
:102AE00001337B617A697B689A42F0DB7B68184628
:102AF0001837BD4680BD80B586B000AFF860B960BC
:102B00007A6000237B6109E0BB685A1CBA601B78BD
:102B10001846AFF300807B6901337B617A697B687B
:102B20009A42F1DB7B6818461837BD4680BD80B4F9
:102B300083B000AF78604FF0FF3318460C37BD46C6
:102B400080BC704780B483B000AF786039603B6868
:102B50004FF400525A60002318460C37BD4680BC23
:102B6000704780B483B000AF7860012318460C37FB
:102B7000BD4680BC704780B485B000AFF860B960D6
:102B80007A60002318461437BD4680BC70470000A9
:102B900080B586B000AF7860144A154BD31A7B61BC
:102BA0007B693B61134B1B68002B02D1114B124A0E
:102BB0001A60104B1A687B6813443A699A4207D22C
:102BC00003F082FD03460C221A604FF0FF3309E048
:102BD000084B1B68FB60074B1A687B681344054A67
:102BE0001360FB6818461837BD4680BD00500020B2
:102BF00000040000AC0300202805002080B400AFD2
:102C000000BFBD4680BC7047FFF7F8FF0B480C497A
:102C10000C4A002302E0D458C4500433C4188C4238
:102C2000F9D3094A094C002301E013600432A2429F
:102C3000FBD303F04FFDFFF787FB70470000002038
:102C4000D8010020948C0008D80100202405002021
:102C5000FEE7000080B500AF084B1B68074A43F051
:102C600010031360032000F047F90F2000F008F86C
:102C7000FFF7C0FD0023184680BD00BF00200240C2
:102C800080B582B000AF7860124B1A68124B1B7887
:102C900019464FF47A73B3FBF1F3B2FBF3F3184622
:102CA00000F05FF90346002B01D001230EE07B68A2
:102CB0000F2B0AD8002279684FF0FF3000F027F977
:102CC000064A7B681360002300E00123184608379A
:102CD000BD4680BD040000200C000020080000203C
:102CE00080B400AF054B1B781A46054B1B68134494
:102CF000034A136000BFBD4680BC70470C00002033
:102D0000B003002080B400AF024B1B681846BD46DC
:102D100080BC7047B003002080B584B000AF7860FD
:102D2000FFF7F0FFB8607B68FB60FB68B3F1FF3F23
:102D300005D00A4B1B781A46FB681344FB6000BFA2
:102D4000FFF7E0FF0246BB68D31AFA689A42F7D849
:102D500000BF00BF1037BD4680BD00BF0C00002083
:102D600080B485B000AF78607B6803F00703FB6038
:102D70000C4BDB68BB60BA684FF6FF031340BB60C7
:102D8000FB681A02BB68134343F0BF6343F400338C
:102D9000BB60044ABB68D36000BF1437BD4680BC2B
:102DA000704700BF00ED00E080B400AF044BDB686B
:102DB0001B0A03F007031846BD4680BC704700BFDE
:102DC00000ED00E080B483B000AF0346FB7197F9DB
:102DD0000730002B0BDBFB7903F01F02064997F944
:102DE00007305B09012000FA02F241F8232000BFFE
:102DF0000C37BD4680BC704700E100E080B483B072
:102E000000AF03463960FB7197F90730002B0ADBEE
:102E10003B68DAB20C4997F907301201D2B20B4481
:102E200083F800230AE03B68DAB20849FB7903F033
:102E30000F03043B1201D2B20B441A7600BF0C37C9
:102E4000BD4680BC704700BF00E100E000ED00E03F
:102E500080B489B000AFF860B9607A60FB6803F0B5
:102E60000703FB61FB69C3F10703042B28BF04239D
:102E7000BB61FB690433062B02D9FB69033B00E00D
:102E800000237B614FF0FF32BB6902FA03F3DA43A0
:102E9000BB681A407B699A404FF0FF317B6901FAA9
:102EA00003F3D9437B680B40134318462437BD46D0
:102EB00080BC704780B582B000AF78607B68013B12
:102EC000B3F1807F01D301230FE00A4A7B68013B05
:102ED00053600F214FF0FF30FFF790FF054B0022AA
:102EE0009A60044B07221A60002318460837BD4633
:102EF00080BD00BF10E000E080B582B000AF786018
:102F00007868FFF72DFF00BF0837BD4680BD80B54C
:102F100086B000AF0346B9607A60FB7300237B6123
:102F2000FFF742FF78617A68B9687869FFF790FF28
:102F3000024697F90F3011461846FFF75FFF00BFB2
:102F40001837BD4680BD80B582B000AF0346FB7127
:102F500097F907301846FFF735FF00BF0837BD4621
:102F600080BD80B582B000AF78607868FFF7A2FFBF
:102F7000034618460837BD4680BD0000F0B587B04F
:102F800000AFF860B960C7E900230123FB75002397
:102F9000BB7500237B752F4B1B7E012B01D10223B8
:102FA00054E02C4B01221A764CF2503000F0A8F875
:102FB0000346FB75FB7D002B44D1FB68012B02D13E
:102FC00001237B7507E0FB68022B02D102237B758E
:102FD00001E004237B750023BB752DE0BB7D5A0007
:102FE000BB6802EB030CBB7D1901D7E90023C1F1DB
:102FF0002006A1F1200022FA01F403FA06F6344378
:1030000023FA00F0044323FA01F5A3B219466046FF
:1030100000F05AF84CF2503000F072F80346FB759D
:103020000D4B1B690C4A23F001031361FB7D002B40
:1030300007D1BB7D0133BB75BA7D7B7D9A42CDD371
:1030400000E000BF034B00221A76FB7D18461C37B8
:10305000BD46F0BDB80300200020024080B483B01C
:1030600000AF0023FB710D4B1B6903F08003002BA5
:103070000DD00A4B0A4A5A60084B0A4A5A60074B5D
:103080001B6903F08003002B01D00123FB71FB7946
:1030900018460C37BD4680BC704700BF0020024078
:1030A00023016745AB89EFCD80B400AF054B1B69A9
:1030B000044A43F08003136100231846BD4680BCD8
:1030C000704700BF0020024080B483B000AF78603A
:1030D0000B467B80084B0022DA61084B1B69074ACC
:1030E00043F0010313617B687A881A8000BF0C37B4
:1030F000BD4680BC704700BFB803002000200240DE
:1031000080B584B000AF7860FFF7FCFDF86010E098
:103110007B68B3F1FF3F0CD07B68002B07D0FFF733
:10312000F1FD0246FB68D31A7A689A4201D2032362
:1031300025E0154BDB6803F00103002BE8D1124BAF
:10314000DB6803F02003002B02D00F4B2022DA6053
:103150000D4BDB6803F01003002B0BD10A4BDB692E
:1031600003F00103002B05D1074BDB6803F00403D8
:10317000002B03D000F00AF8012300E000231846DA
:103180001037BD4680BD00BF0020024080B483B030
:1031900000AF00237B60234BDB6803F01003002BA0
:1031A00009D0214BDB6943F002031F4AD3617B68DE
:1031B00043F010037B601B4BDB6803F00403002B20
:1031C00009D0194BDB6943F00103174AD3617B68CF
:1031D00043F004037B60134BDB6903F00103002B16
:1031E0000BD0114BDB6943F004030F4AD3610D4B45
:1031F000DB690C4A23F00103D3617B6840F20112C2
:10320000934206D1074BDB69064A23F00103D361E1
:1032100002E0044A7B68D36000BF0C37BD4680BC27
:10322000704700BF00200240B803002080B584B082
:1032300000AF786039600123FB730023BB602F4B24
:103240001B7E012B01D1022353E02C4B01221A7665
:103250007B681B68022B16D14CF25030FFF750FFF1
:103260000346002B41D1012000F04CF84CF25030C5
:10327000FFF746FF0346FB73214B1B69204A23F0EF
:103280000403136131E04CF25030FFF739FF03467D
:10329000002B2AD13B684FF0FF321A607B689B6895
:1032A000BB6019E0B86800F049F84CF25030FFF705
:1032B00027FF0346FB73124B1B69114A23F00203DD
:1032C0001361FB7B002B03D03B68BA681A600CE0EB
:1032D000BB6803F58063BB607B68DB689A027B6830
:1032E0009B681344BA689A42DCD3044B00221A76D6
:1032F000FB7B18461037BD4680BD00BFB8030020D9
:103300000020024080B483B000AF7860094B0022F7
:10331000DA61094B1B69084A43F004031361064B49
:103320001B69054A43F04003136100BF0C37BD46DB
:1033300080BC7047B80300200020024080B483B0F6
:1033400000AF78600B4B0022DA610B4B1B690A4A15
:1033500043F002031361084A7B685361064B1B6903
:10336000054A43F04003136100BF0C37BD4680BCE3
:10337000704700BFB80300200020024080B48BB02B
:1033800000AF7860396000237B6200233B6269E113
:1033900001227B6A02FA03F3FB613B681B68FA694E
:1033A0001340BB61BA69FB699A4240F058813B689F
:1033B0005B689A4A93425ED0984A934275D8984A7D
:1033C000934258D0964A93426FD8964A934252D02D
:1033D000944A934269D8944A93424CD0924A934279
:1033E00063D8924A934246D0904A93425DD8122BBA
:1033F0002AD8122B59D801A252F823F077340008AA
:103400005134000863340008A5340008AB340008C8
:10341000AB340008AB340008AB340008AB34000810
:10342000AB340008AB340008AB340008AB34000800
:10343000AB340008AB340008AB340008AB340008F0
:10344000593400086D340008794A934213D02CE0B7
:103450003B68DB683B6229E03B68DB6804333B6226
:1034600024E03B68DB6808333B621FE03B68DB68B5
:103470000C333B621AE03B689B68002B02D10423AB
:103480003B6213E03B689B68012B05D108233B623C
:103490007B68FA691A6109E008233B627B68FA6974
:1034A0005A6103E000233B6200E000BFBB69FF2BD1
:1034B00001D87B6801E07B6804337B61BB69FF2B2B
:1034C00002D87B6A9B0002E07B6A083B9B003B6161
:1034D0007B691A680F213B6901FA03F3DB431A4049
:1034E000396A3B6901FA03F31A437B691A603B6846
:1034F0005B6803F08053002B00F0B1804D4B9B695B
:103500004C4A43F0010393614A4B9B6903F001036A
:10351000BB60BB68484A7B6A9B08023352F8233081
:10352000FB607B6A03F003039B000F2202FA03F3A4
:10353000DB43FA681340FB607B68404A934213D038
:103540007B683F4A93420DD07B683E4A934207D046
:103550007B683D4A934201D1032306E0042304E043
:10356000022302E0012300E000237A6A02F0030252
:1035700092009340FA681343FB602F497B6A9B08D3
:103580000233FA6841F823203B685B6803F4801338
:10359000002B06D02D4B9A682C49BB6913438B60D6
:1035A00006E02A4B9A68BB69DB43284913408B60CD
:1035B0003B685B6803F40013002B06D0234BDA68EA
:1035C0002249BB691343CB6006E0204BDA68BB6934
:1035D000DB431E491340CB603B685B6803F4003358
:1035E000002B06D0194B5A681849BB6913434B602E
:1035F00006E0164B5A68BB69DB43144913404B6025
:103600003B685B6803F48033002B21D00F4B1A68B2
:103610000E49BB6913430B6021E000BF000032106C
:1036200000003110000022100000211000001210D4
:10363000000011100010024000000140000801408D
:10364000000C014000100140001401400004014042
:103650000B4B1A68BB69DB43094913400B607B6A5B
:1036600001337B623B681A687B6A22FA03F3002B02
:103670007FF48EAE00BF00BF2C37BD4680BC7047C4
:103680000004014080B483B000AF78600B467B80BB
:1036900013467B707B78002B03D07A887B681A6195
:1036A00003E07B881A047B681A6100BF0C37BD46B3
:1036B00080BC704780B582B000AF0346FB80084BEA
:1036C0005A69FB881340002B06D0054AFB885361DA
:1036D000FB881846FDF7D6FF00BF0837BD4680BD02
:1036E0000004014080B584B000AF78607B68002B97
:1036F00001D101232BE17B6893F83D30DBB2002B35
:1037000006D17B68002283F83C207868FFF7A4F894
:103710007B68242283F83D207B681B681A687B68DD
:103720001B6822F001021A607B681B681A687B68BC
:103730001B6842F400421A607B681B681A687B6849
:103740001B6822F400421A6001F032F8F8607B68CE
:103750005B68814A934207D8FB68804A934294BFD2
:1037600001230023DBB206E0FB687D4A934294BF4D
:1037700001230023DBB2002B01D00123E7E0FB682B
:10378000784AA2FB03239B0CBB607B681B685B68C9
:1037900023F03F017B681B68BA680A435A607B6864
:1037A0001B681B6A23F03F017B685B686A4A93428F
:1037B00002D8BB68013309E0BB684FF4967202FB84
:1037C00003F3694AA2FB03239B0901337A68126859
:1037D0000B4313627B681B68DB6923F44F4222F0C2
:1037E000FF027B685B685C498B4219D8FB68591EF5
:1037F0007B685B685B00B1FBF3F3591C40F6FC731C
:103800000B40002B0AD0FB68591E7B685B685B008D
:10381000B1FBF3F30133C3F30B0351E004234FE097
:103820007B689B68002B11D1FB68581E7B68596828
:103830000B465B000B44B0FBF3F30133C3F30B0304
:10384000002B0CBF01230023DBB212E0FB68581EE3
:103850007B6859680B469B000B4499000B44B0FBF6
:10386000F3F30133C3F30B03002B0CBF012300233D
:10387000DBB2002B01D0012322E07B689B68002B88
:103880000ED1FB68581E7B6859680B465B000B44E1
:10389000B0FBF3F30133C3F30B0343F400430FE036
:1038A000FB68581E7B6859680B469B000B449900C7
:1038B0000B44B0FBF3F30133C3F30B0343F4404376
:1038C000796809681343CB617B681B681B6823F028
:1038D000C0017B68DA697B681B6A1A437B681B68D6
:1038E0000A431A607B681B689B6823F4034323F038
:1038F000FF037A6811697A68D26811437A6812689E
:103900000B4393607B681B68DB6823F0FF017B68D7
:103910005A697B689B691A437B681B680A43DA60B3
:103920007B681B681A687B681B6842F001021A609A
:103930007B6800221A647B68202283F83D207B6824
:1039400000221A637B68002283F83E200023184679
:103950001037BD4680BD00BFA08601007F841E00D9
:10396000FF083D0083DE1B43D34D621080B588B055
:1039700002AFF8607A601A460B467B8113463B81A2
:10398000FFF7C0F97861FB6893F83D30DBB2202B7C
:1039900040F0E0807B690093192301227049F868A8
:1039A00000F064F90346002B01D00223D3E0FB684A
:1039B00093F83C30012B01D10223CCE0FB680122BB
:1039C00083F83C20FB681B681B6803F00103012B94
:1039D00007D0FB681B681A68FB681B6842F001028D
:1039E0001A60FB681B681A68FB681B6822F4006297
:1039F0001A60FB68212283F83D20FB68102283F8BF
:103A00003E20FB6800221A64FB687A685A62FB68F1
:103A10003A895A85FB685B8D9AB2FB681A85FB6808
:103A2000504ADA6279897B693A6AF86800F09CF852
:103A30000346002B01D001238DE000233B61FB688E
:103A40001B685B693B61FB681B689B693B613B6969
:103A500066E07A69396AF86800F022FA0346002BBA
:103A60000DD0FB681B6C042B07D1FB681B681A6820
:103A7000FB681B6842F400721A6001236BE0FB686C
:103A80005B6A1A78FB681B681A61FB685B6A5A1CE0
:103A9000FB685A62FB685B8D9BB2013B9AB2FB6884
:103AA0005A85FB681B8D013B9AB2FB681A85FB683F
:103AB0001B685B6903F00403042B1BD1FB681B8D9F
:103AC000002B17D0FB685B6A1A78FB681B681A61C9
:103AD000FB685B6A5A1CFB685A62FB685B8D9BB291
:103AE000013B9AB2FB685A85FB681B8D013B9AB279
:103AF000FB681A857A69396AF86800F019FA034692
:103B0000002B0DD0FB681B6C042B07D1FB681B68D6
:103B10001A68FB681B6842F400721A6001231AE0FD
:103B2000FB681B8D002B94D1FB681B681A68FB682F
:103B30001B6842F400721A60FB68202283F83D2063
:103B4000FB68002283F83E20FB68002283F83C20BB
:103B5000002300E0022318461837BD4680BD00BF91
:103B6000020010000000FFFF80B588B002AFF860CF
:103B70007A603B600B467B81FB68DB6A7B617B691B
:103B8000082B06D07B69012B03D07B6913F5803F9E
:103B900008D1FB681B681A68FB681B6842F48072D6
:103BA0001A600BE0FB681B6B122B07D1FB681B68CC
:103BB0001A68FB681B6842F480721A603B680093C5
:103BC0007B6800224FF00111F86800F04FF80346BF
:103BD000002B0DD0FB681B681B6803F48073B3F5E2
:103BE000807F03D1FB684FF400721A64032335E031
:103BF000FB681B69B3F5804F08D17B89DBB21A469D
:103C0000FB681B6802F0FE021A611BE07B89DB1176
:103C1000DBB203F00603DBB263F00F03DAB2FB683A
:103C20001B681A613B687A680E49F86800F098F8DA
:103C30000346002B01D0012310E07B89DAB2FB6838
:103C40001B681A613B687A680749F86800F088F8D1
:103C50000346002B01D0012300E00023184618374B
:103C6000BD4680BD080001000200010080B584B09F
:103C700000AFF860B9603B601346FB7148E03B68F9
:103C8000B3F1FF3F44D0FFF73DF80246BB69D31ABA
:103C90003A689A4202D33B68002B39D1BB681B0CAF
:103CA000DBB2012B0DD1FB681B685B69DA43BB6893
:103CB00013409BB2002B0CBF01230023DBB21A463A
:103CC0000CE0FB681B689B69DA43BB6813409BB23E
:103CD000002B0CBF01230023DBB21A46FB799A426A
:103CE00016D1FB6800221A63FB68202283F83D206E
:103CF000FB68002283F83E20FB681B6C43F0200227
:103D0000FB681A64FB68002283F83C20012323E04F
:103D1000BB681B0CDBB2012B0DD1FB681B685B6918
:103D2000DA43BB6813409BB2002B0CBF0123002376
:103D3000DBB21A460CE0FB681B689B69DA43BB6880
:103D400013409BB2002B0CBF01230023DBB21A46A9
:103D5000FB799A4293D0002318461037BD4680BDA8
:103D600080B584B000AFF860B9607A603B6071E004
:103D7000FB681B685B6903F48063B3F5806F23D134
:103D8000FB681B681A68FB681B6842F400721A60C3
:103D9000FB681B686FF480625A61FB6800221A633B
:103DA000FB68202283F83D20FB68002283F83E2038
:103DB000FB681B6C43F00402FB681A64FB6800227A
:103DC00083F83C20012367E07B68B3F1FF3F41D0DB
:103DD000FEF798FF02463B68D31A7A689A4202D3EC
:103DE0007B68002B36D1BB681B0CDBB2012B0CD1DE
:103DF000FB681B685B69DA43BB6813409BB2002B0E
:103E000014BF01230023DBB20BE0FB681B689B6936
:103E1000DA43BB6813409BB2002B14BF012300237D
:103E2000DBB2002B16D0FB6800221A63FB6820224D
:103E300083F83D20FB68002283F83E20FB681B6C62
:103E400043F02002FB681A64FB68002283F83C20E0
:103E5000012321E0BB681B0CDBB2012B0CD1FB68FA
:103E60001B685B69DA43BB6813409BB2002B14BF2D
:103E700001230023DBB20BE0FB681B689B69DA437C
:103E8000BB6813409BB2002B14BF01230023DBB29D
:103E9000002B7FF46DAF002318461037BD4680BD60
:103EA00080B584B000AFF860B9607A6034E0F8683B
:103EB00000F086F80346002B01D0012334E0BB68F4
:103EC000B3F1FF3F28D0FEF71DFF02467B68D31AEF
:103ED000BA689A4202D3BB68002B1DD1FB681B68ED
:103EE0005B6903F08003802B16D0FB6800221A6305
:103EF000FB68202283F83D20FB68002283F83E20E7
:103F0000FB681B6C43F02002FB681A64FB6800220C
:103F100083F83C20012307E0FB681B685B6903F022
:103F20008003802BC3D1002318461037BD4680BDC7
:103F300080B584B000AFF860B9607A6034E0F868AA
:103F400000F03EF80346002B01D0012334E0BB68AB
:103F5000B3F1FF3F28D0FEF7D5FE02467B68D31AA7
:103F6000BA689A4202D3BB68002B1DD1FB681B685C
:103F70005B6903F00403042B16D0FB6800221A636C
:103F8000FB68202283F83D20FB68002283F83E2056
:103F9000FB681B6C43F02002FB681A64FB6800227C
:103FA00083F83C20012307E0FB681B685B6903F092
:103FB0000403042BC3D1002318461037BD4680BD2F
:103FC00080B483B000AF78607B681B685B6903F4E2
:103FD0008063B3F5806F1BD17B681B686FF48062D0
:103FE0005A617B6800221A637B68202283F83D2097
:103FF0007B68002283F83E207B681B6C43F0040240
:104000007B681A647B68002283F83C20012300E06F
:10401000002318460C37BD4680BC704780B586B07B
:1040200000AF78607B68002B01D1012372E27B68CE
:104030001B6803F00103002B00F08780924B5B6844
:1040400003F00C03042B0CD08F4B5B6803F00C03C4
:10405000082B12D18C4B5B6803F48033B3F5803F9F
:104060000BD1894B1B6803F40033002B6CD07B68A9
:104070005B68002B68D101234CE27B685B68B3F579
:10408000803F06D1804B1B687F4A43F48033136026
:104090002EE07B685B68002B0CD17B4B1B687A4A57
:1040A00023F480331360784B1B68774A23F4802312
:1040B00013601DE07B685B68B3F5A02F0CD1724BD9
:1040C0001B68714A43F4802313606F4B1B686E4A70
:1040D00043F4803313600BE06B4B1B686A4A23F494
:1040E00080331360684B1B68674A23F48023136096
:1040F0007B685B68002B13D0FEF704FE386108E094
:10410000FEF700FE02463B69D31A642B01D9032354
:1041100000E25D4B1B6803F40033002BF0D014E089
:10412000FEF7F0FD386108E0FEF7ECFD02463B6962
:10413000D31A642B01D90323ECE1534B1B6803F41E
:104140000033002BF0D100E000BF7B681B6803F058
:104150000203002B63D04C4B5B6803F00C03002B75
:104160000BD0494B5B6803F00C03082B1CD1464B6A
:104170005B6803F48033002B16D1434B1B6803F0BC
:104180000203002B05D07B681B69012B01D00123A2
:10419000C0E13D4B1B6823F0F8027B685B69DB00E4
:1041A000394913430B603AE07B681B69002B20D030
:1041B000364B01221A60FEF7A5FD386108E0FEF7D4
:1041C000A1FD02463B69D31A022B01D90323A1E1C9
:1041D0002D4B1B6803F00203002BF0D02A4B1B6809
:1041E00023F0F8027B685B69DB00274913430B600F
:1041F00015E0264B00221A60FEF784FD386108E0C6
:10420000FEF780FD02463B69D31A022B01D9032336
:1042100080E11D4B1B6803F00203002BF0D17B688B
:104220001B6803F00803002B3AD07B689B69002BC6
:1042300019D0174B01221A60FEF764FD386108E0BF
:10424000FEF760FD02463B69D31A022B01D9032316
:1042500060E10D4B5B6A03F00203002BF0D00120FC
:1042600000F0BAFA1CE00A4B00221A60FEF74AFD81
:1042700038610FE0FEF746FD02463B69D31A022B78
:1042800008D9032346E100BF00100240000042426B
:1042900080044242924B5B6A03F00203002BE9D197
:1042A0007B681B6803F00403002B00F0A68000234A
:1042B000FB758B4BDB6903F08053002B0DD1884BD2
:1042C000DB69874A43F08053D361854BDB6903F098
:1042D0008053BB60BB680123FB75824B1B6803F4F2
:1042E0008073002B18D17F4B1B687E4A43F4807388
:1042F0001360FEF707FD386108E0FEF703FD024694
:104300003B69D31A642B01D9032303E1754B1B6866
:1043100003F48073002BF0D07B68DB68012B06D19F
:104320006F4B1B6A6E4A43F0010313622DE07B68FA
:10433000DB68002B0CD16A4B1B6A694A23F001032E
:104340001362674B1B6A664A23F0040313621CE086
:104350007B68DB68052B0CD1614B1B6A604A43F01C
:10436000040313625E4B1B6A5D4A43F00103136250
:104370000BE05B4B1B6A5A4A23F001031362584B54
:104380001B6A574A23F0040313627B68DB68002B27
:1043900015D0FEF7B7FC38610AE0FEF7B3FC024621
:1043A0003B69D31A41F28832934201D90323B1E029
:1043B0004B4B1B6A03F00203002BEED014E0FEF718
:1043C000A1FC38610AE0FEF79DFC02463B69D31A66
:1043D00041F28832934201D903239BE0404B1B6A90
:1043E00003F00203002BEED1FB7D012B05D13C4BEA
:1043F000DB693B4A23F08053D3617B68DB69002B88
:1044000000F08780364B5B6803F00C03082B61D00B
:104410007B68DB69022B46D1334B00221A60FEF722
:1044200071FC386108E0FEF76DFC02463B69D31A67
:10443000022B01D903236DE0294B1B6803F00073A5
:10444000002BF0D17B681B6AB3F5803F08D1244B69
:104450005B6823F400327B689B68214913434B60FF
:104460001F4B5B6823F474127B68196A7B685B6A74
:104470000B431B4913434B601B4B01221A60FEF791
:1044800041FC386108E0FEF73DFC02463B69D31A67
:10449000022B01D903233DE0114B1B6803F000738D
:1044A000002BF0D035E0104B00221A60FEF72AFCFA
:1044B000386108E0FEF726FC02463B69D31A022B5E
:1044C00001D9032326E0064B1B6803F00073002B81
:1044D000F0D11EE07B68DB69012B07D1012319E0D5
:1044E0000010024000700040600042420B4B5B68CD
:1044F000FB60FB6803F480327B681B6A9A4206D13A
:10450000FB6803F470127B685B6A9A4201D0012356
:1045100000E0002318461837BD4680BD0010024059
:1045200080B584B000AF786039607B68002B01D122
:104530000123D0E06A4B1B6803F007033A689A42F4
:1045400010D9674B1B6823F0070265493B6813438A
:104550000B60634B1B6803F007033A689A4201D073
:104560000123B8E07B681B6803F00203002B20D016
:104570007B681B6803F00403002B05D0594B5B6874
:10458000584A43F4E06353607B681B6803F00803F8
:10459000002B05D0534B5B68524A43F46053536081
:1045A000504B5B6823F0F0027B689B684D491343D6
:1045B0004B607B681B6803F00103002B40D07B68D5
:1045C0005B68012B07D1474B1B6803F40033002BBA
:1045D00015D101237FE07B685B68022B07D1414B3B
:1045E0001B6803F00073002B09D1012373E03D4BDE
:1045F0001B6803F00203002B01D101236BE0394B50
:104600005B6823F003027B685B68364913434B60A9
:10461000FEF778FBF8600AE0FEF774FB0246FB68E1
:10462000D31A41F28832934201D9032353E02D4B30
:104630005B6803F00C027B685B689B009A42EBD1DD
:10464000274B1B6803F007033A689A4210D2244BA9
:104650001B6823F0070222493B6813430B60204B81
:104660001B6803F007033A689A4201D0012332E045
:104670007B681B6803F00403002B08D0194B5B68B0
:1046800023F4E0627B68DB68164913434B607B6868
:104690001B6803F00803002B09D0124B5B6823F45E
:1046A00060527B681B69DB000E4913434B6000F0CE
:1046B00021F802460B4B5B681B0903F00F030A4904
:1046C000CB5C22FA03F3094A1360094B1B681846B6
:1046D000FEF7D6FA002318461037BD4680BD00BF4E
:1046E0000020024000100240E4880008040000207E
:1046F0000800002080B487B000AF0023FB600023D7
:10470000BB6000237B6100237B6000233B611E4B69
:104710005B68FB60FB6803F00C03042B02D0082BE2
:1047200003D027E0194B3B6127E0FB689B0C03F0AB
:104730000F03174AD35C7B60FB6803F48033002BC4
:1047400010D0114B5B685B0C03F00103114AD35C82
:10475000BB607B680D4A03FB02F2BB68B2FBF3F35C
:104760007B6104E07B680C4A02FB03F37B617B699D
:104770003B6102E0054B3B6100BF3B6918461C37BB
:10478000BD4680BC704700BF0010024000127A0096
:10479000FC8800080C89000800093D0080B400AFC7
:1047A000024B1B681846BD4680BC704704000020C1
:1047B00080B500AFFFF7F2FF0246054B5B681B0AAE
:1047C00003F007030349CB5C22FA03F3184680BDCC
:1047D00000100240F488000880B485B000AF786013
:1047E0000A4B1B680A4AA2FB03235B0A7A6802FB96
:1047F00003F3FB6000BFFB685A1EFA60002BF9D17F
:1048000000BF00BF1437BD4680BC704704000020C5
:10481000D34D621080B582B000AF78607B68002B0A
:1048200001D1012376E07B685B6A002B08D17B68AD
:104830005B68B3F5827F09D07B680022DA6105E00E
:104840007B6800221A617B6800225A617B68002223
:104850009A627B6893F85130DBB2002B06D17B68FB
:10486000002283F850207868FEF736F87B68022231
:1048700083F851207B681B681A687B681B6822F0EC
:1048800040021A607B685B6803F482727B689B68F5
:1048900003F404431A437B68DB6803F400631A43A0
:1048A0007B681B6903F002031A437B685B6903F0B2
:1048B00001031A437B689B6903F400731A437B6806
:1048C000DB6903F038031A437B681B6A03F080033B
:1048D00042EA03017B689B6A03F400527B681B6811
:1048E0000A431A607B689B691A0C7B681B6802F09C
:1048F00004025A607B681B68DA697B681B6822F4D3
:104900000062DA617B6800225A657B68012283F8C5
:104910005120002318460837BD4680BD80B588B0B9
:1049200000AFF860B9603B601346FB80FEF7EAF920
:10493000F861FB887B83FB6893F85130DBB2012B75
:1049400001D002232AE1BB68002B02D0FB88002B98
:1049500001D1012322E1FB6893F85030012B01D1F2
:1049600002231BE1FB68012283F85020FB6803222D
:1049700083F85120FB6800225A65FB68BA681A6305
:10498000FB68FA889A86FB68FA88DA86FB68002258
:104990009A63FB6800229A87FB680022DA87FB682B
:1049A00000225A64FB6800221A64FB689B68B3F516
:1049B000004F0FD1FB681B681A68FB681B6822F068
:1049C00040021A60FB681B681A68FB681B6842F4A7
:1049D00080421A60FB681B681B6803F04003402B91
:1049E00007D0FB681B681A68FB681B6842F040022E
:1049F0001A60FB68DB68B3F5006F52D1FB685B6837
:104A0000002B02D07B8B012B45D1FB681B6B1A88D6
:104A1000FB681B68DA60FB681B6B9A1CFB681A63F7
:104A2000FB68DB8E9BB2013B9AB2FB68DA8632E010
:104A3000FB681B689B6803F00203022B12D1FB6822
:104A40001B6B1A88FB681B68DA60FB681B6B9A1C7F
:104A5000FB681A63FB68DB8E9BB2013B9AB2FB6872
:104A6000DA8618E0FEF74EF90246FB69D31A3A6877
:104A70009A4203D83B68B3F1FF3F02D13B68002B59
:104A800009D1FB68012283F85120FB68002283F8DA
:104A90005020032382E0FB68DB8E9BB2002BC7D142
:104AA00053E0FB685B68002B02D07B8B012B47D166
:104AB000FB681A6BFB681B680C3312781A70FB6872
:104AC0001B6B5A1CFB681A63FB68DB8E9BB2013BB5
:104AD0009AB2FB68DA8633E0FB681B689B6803F0D8
:104AE0000203022B13D1FB681A6BFB681B680C33A3
:104AF00012781A70FB681B6B5A1CFB681A63FB6800
:104B0000DB8E9BB2013B9AB2FB68DA8618E0FEF7B7
:104B1000F9F80246FB69D31A3A689A4203D83B680F
:104B2000B3F1FF3F02D13B68002B09D1FB680122A2
:104B300083F85120FB68002283F8502003232DE0E6
:104B4000FB68DB8E9BB2002BC6D1FA693968F86826
:104B500000F0C4FB0346002B02D0FB6820225A65FC
:104B6000FB689B68002B0AD100237B61FB681B68F4
:104B7000DB687B61FB681B689B687B617B69FB680A
:104B8000012283F85120FB68002283F85020FB6843
:104B90005B6D002B01D0012300E000231846203775
:104BA000BD4680BD80B588B002AFF860B9603B609B
:104BB0001346FB80FB6893F85130DBB2012B01D028
:104BC000022304E1FB685B68B3F5827F12D1FB68C6
:104BD0009B68002B0ED1FB68042283F85120FA88D1
:104BE0003B6800931346BA68B968F86800F0F3F8B8
:104BF0000346ECE0FEF786F87861BB68002B02D034
:104C0000FB88002B01D10123E1E0FB6893F85030D1
:104C1000012B01D10223DAE0FB68012283F8502046
:104C2000FB68042283F85120FB6800225A65FB6868
:104C3000BA689A63FB68FA889A87FB68FA88DA8709
:104C4000FB6800221A63FB6800229A86FB68002238
:104C5000DA86FB6800221A64FB6800225A64FB684B
:104C60009B68B3F5004F0FD1FB681B681A68FB689F
:104C70001B6822F040021A60FB681B681A68FB6818
:104C80001B6822F480421A60FB681B681B6803F0F3
:104C90004003402B07D0FB681B681A68FB681B6841
:104CA00042F040021A60FB68DB68002B70D135E0EF
:104CB000FB681B689B6803F00103012B15D1FB689F
:104CC0001B6803F10C02FB689B6B1278D2B21A705E
:104CD000FB689B6B5A1CFB689A63FB68DB8F9BB27B
:104CE000013B9AB2FB68DA8718E0FEF70BF8024640
:104CF0007B69D31A3A689A4203D83B68B3F1FF3F05
:104D000002D13B68002B09D1FB68012283F85120B6
:104D1000FB68002283F85020032358E0FB68DB8FF8
:104D20009BB2002BC4D138E0FB681B689B6803F082
:104D30000103012B13D1FB681B68DA68FB689B6BCE
:104D400092B21A80FB689B6B9A1CFB689A63FB68A3
:104D5000DB8F9BB2013B9AB2FB68DA8718E0FDF764
:104D6000D1FF02467B69D31A3A689A4203D83B685E
:104D7000B3F1FF3F02D13B68002B09D1FB68012250
:104D800083F85120FB68002283F8502003231EE0A3
:104D9000FB68DB8F9BB2002BC6D17A693968F86853
:104DA00000F04AFA0346002B02D0FB6820225A6525
:104DB000FB68012283F85120FB68002283F8502011
:104DC000FB685B6D002B01D0012300E00023184637
:104DD0001837BD4680BD80B58AB000AFF860B960B5
:104DE0007A607B8001237B62FDF78CFF3862FB6871
:104DF00093F85130FB77FB685B68BB617B88FB8273
:104E0000FB7F012B0CD0BB69B3F5827F06D1FB6819
:104E10009B68002B02D1FB7F042B01D002237FE192
:104E2000BB68002B05D07B68002B02D07B88002B51
:104E300001D1012374E1FB6893F85030012B01D1BB
:104E400002236DE1FB68012283F85020FB6893F890
:104E50005130DBB2042B03D0FB68052283F85120CC
:104E6000FB6800225A65FB687A689A63FB687A8857
:104E7000DA87FB687A889A87FB68BA681A63FB68E6
:104E80007A88DA86FB687A889A86FB6800221A6438
:104E9000FB6800225A64FB681B681B6803F0400330
:104EA000402B07D0FB681B681A68FB681B6842F040
:104EB00040021A60FB68DB68B3F5006F7ED1FB68C7
:104EC0005B68002B02D0FB8A012B6CD1FB681B6B4B
:104ED0001A88FB681B68DA60FB681B6B9A1CFB680E
:104EE0001A63FB68DB8E9BB2013B9AB2FB68DA86E1
:104EF00059E0FB681B689B6803F00203022B1BD17F
:104F0000FB68DB8E9BB2002B16D07B6A012B13D182
:104F1000FB681B6B1A88FB681B68DA60FB681B6BFD
:104F20009A1CFB681A63FB68DB8E9BB2013B9AB24A
:104F3000FB68DA8600237B62FB681B689B6803F0D2
:104F40000103012B19D1FB68DB8F9BB2002B14D01E
:104F5000FB681B68DA68FB689B6B92B21A80FB687F
:104F60009B6B9A1CFB689A63FB68DB8F9BB2013BCF
:104F70009AB2FB68DA8701237B62FDF7C3FE024623
:104F80003B6AD31A3A6B9A420DD83B6BB3F1FF3FA1
:104F900009D0FB68012283F85120FB68002283F8C6
:104FA00050200323BCE0FB68DB8E9BB2002BA0D11A
:104FB000FB68DB8F9BB2002B9BD182E0FB685B68B8
:104FC000002B02D0FB8A012B71D1FB681A6BFB68A6
:104FD0001B680C3312781A70FB681B6B5A1CFB6839
:104FE0001A63FB68DB8E9BB2013B9AB2FB68DA86E0
:104FF0005DE0FB681B689B6803F00203022B1CD179
:10500000FB68DB8E9BB2002B17D07B6A012B14D17F
:10501000FB681A6BFB681B680C3312781A70FB680C
:105020001B6B5A1CFB681A63FB68DB8E9BB2013B4F
:105030009AB2FB68DA8600237B62FB681B689B6878
:1050400003F00103012B19D1FB68DB8F9BB2002B0E
:1050500014D0FB681B68DA68FB689B6BD2B21A70CD
:10506000FB689B6B5A1CFB689A63FB68DB8F9BB2E7
:10507000013B9AB2FB68DA8701237B62FDF742FEAF
:1050800002463B6AD31A3A6B9A4203D83B6BB3F1A0
:10509000FF3F02D13B6B002B09D1FB68012283F853
:1050A0005120FB68002283F85020032338E0FB687E
:1050B000DB8E9BB2002B9CD1FB68DB8F9BB2002B5D
:1050C00097D13A6A396BF86800F008F90346002B6B
:1050D00008D0FB6820225A65FB68002283F8502024
:1050E00001231DE0FB689B68002B0AD100233B6174
:1050F000FB681B68DB683B61FB681B689B683B6166
:105100003B69FB68012283F85120FB68002283F889
:105110005020FB685B6D002B01D0012300E00023D1
:1051200018462837BD4680BD80B588B000AFF8600E
:10513000B9603B601346FB71FDF7E4FD0246BB6AB4
:105140009B1A3A681344FB61FDF7DCFDB861394BEB
:105150001B685B011B0DFA6902FB03F37B6154E0E2
:105160003B68B3F1FF3F50D0FDF7CCFD0246BB6971
:10517000D31AFA699A4202D9FB69002B3DD1FB6828
:105180001B685A68FB681B6822F0E0025A60FB68E3
:105190005B68B3F5827F11D1FB689B68B3F5004F64
:1051A00004D0FB689B68B3F5806F07D1FB681B6870
:1051B0001A68FB681B6822F040021A60FB689B6A51
:1051C000B3F5005F0FD1FB681B681A68FB681B68AA
:1051D00022F400521A60FB681B681A68FB681B689F
:1051E00042F400521A60FB68012283F85120FB68E8
:1051F000002283F85020032317E07B69002B01D1A4
:105200000023FB617B69013B7B61FB681B689A683B
:10521000BB681340BA689A420CBF01230023DBB27B
:105220001A46FB799A429BD1002318462037BD4687
:1052300080BD00BF0400002080B586B002AFF860DA
:10524000B9607A60FB685B68B3F5827F11D1FB6857
:105250009B68B3F5004F04D0FB689B68B3F5806F83
:1052600007D1FB681B681A68FB681B6822F04002C4
:105270001A60FB685B68B3F5827F17D1FB689B6897
:10528000B3F5806F12D17B680093BB6800220121C7
:10529000F868FFF749FF0346002B1AD0FB685B6DE7
:1052A00043F02002FB685A65032313E07B680093F8
:1052B000BB6800228021F868FFF736FF0346002B09
:1052C00007D0FB685B6D43F02002FB685A6503233F
:1052D00000E0002318461037BD4680BD80B586B07B
:1052E00002AFF860B9607A607B680093BB68012206
:1052F0000221F868FFF718FF0346002B07D0FB6870
:105300005B6D43F02002FB685A65032313E07B6862
:105310000093BB6800228021F868FFF705FF034671
:10532000002B07D0FB685B6D43F02002FB685A65D9
:10533000032300E0002318461037BD4680BD80B52A
:1053400082B000AF78607B68002B01D1012341E07F
:105350007B6893F83D30DBB2002B06D17B680022DE
:1053600083F83C207868FDF711FB7B68022283F804
:105370003D207B681A687B6804331946104600F0AC
:105380005BFA7B68012283F846207B68012283F860
:105390003E207B68012283F83F207B68012283F84E
:1053A00040207B68012283F841207B68012283F83A
:1053B00042207B68012283F843207B68012283F826
:1053C00044207B68012283F845207B68012283F812
:1053D0003D20002318460837BD4680BD80B485B007
:1053E00000AF78607B6893F83D30DBB2012B01D0D1
:1053F00001233AE07B68022283F83D207B681B682A
:10540000DA687B681B6842F00102DA607B681B681F
:10541000184A93420ED07B681B68B3F1804F09D0C5
:105420007B681B68144A934204D07B681B68134A4C
:10543000934211D17B681B689B6803F00703FB60F4
:10544000FB68062B10D07B681B681A687B681B689A
:1054500042F001021A6007E07B681B681A687B68EB
:105460001B6842F001021A60002318461437BD463B
:1054700080BC7047002C0140000400400008004040
:1054800080B584B000AF78607B681B68DB68FB6028
:105490007B681B681B69BB60BB6803F00203002BC1
:1054A00020D0FB6803F00203002B1BD07B681B6835
:1054B0006FF002021A617B6801221A777B681B6811
:1054C0009B6903F00303002B03D0786800F098F980
:1054D00005E0786800F08BF9786800F09AF97B684D
:1054E00000221A77BB6803F00403002B20D0FB686E
:1054F00003F00403002B1BD07B681B686FF00402D1
:105500001A617B6802221A777B681B689B6903F427
:105510004073002B03D0786800F072F905E07868DA
:1055200000F065F9786800F074F97B6800221A775A
:10553000BB6803F00803002B20D0FB6803F00803CE
:10554000002B1BD07B681B686FF008021A617B6818
:1055500004221A777B681B68DB6903F00303002BC6
:1055600003D0786800F04CF905E0786800F03FF966
:10557000786800F04EF97B6800221A77BB6803F068
:105580001003002B20D0FB6803F01003002B1BD06E
:105590007B681B686FF010021A617B6808221A771B
:1055A0007B681B68DB6903F44073002B03D07868C9
:1055B00000F026F905E0786800F019F9786800F045
:1055C00028F97B6800221A77BB6803F00103002BDF
:1055D0000CD0FB6803F00103002B07D07B681B682D
:1055E0006FF001021A617868FCF7C2F8BB6803F03B
:1055F0008003002B0CD0FB6803F08003002B07D046
:105600007B681B686FF080021A61786800F07FFA8F
:10561000BB6803F04003002B0CD0FB6803F0400391
:10562000002B07D07B681B686FF040021A61786816
:1056300000F0F8F8BB6803F02003002B0CD0FB68E7
:1056400003F02003002B07D07B681B686FF020025B
:105650001A61786800F052FA00BF1037BD4680BD6D
:1056600080B584B000AF786039600023FB737B683D
:1056700093F83C30012B01D10223B4E07B68012276
:1056800083F83C207B68022283F83D207B681B68FE
:105690009B68BB60BB6823F07703BB60BB6823F4E7
:1056A0007F43BB607B681B68BA689A603B681B6875
:1056B000B3F5005F3ED0B3F5005F00F28780B3F52D
:1056C000805F00F08680B3F5805F7FD8702B1AD0A2
:1056D000702B7BD8602B50D0602B77D8502B3CD0D0
:1056E000502B73D8402B58D0402B6FD8302B64D020
:1056F000302B6BD8202B60D0202B67D8002B5CD0B0
:10570000102B5AD062E07B6818683B6899683B6848
:105710005A683B68DB6800F074F97B681B689B681B
:10572000BB60BB6843F07703BB607B681B68BA68EB
:105730009A604FE07B6818683B6899683B685A68D4
:105740003B68DB6800F05DF97B681B689A687B68E2
:105750001B6842F480429A603CE07B6818683B68B2
:1057600059683B68DB681A4600F0D4F87B681B6810
:105770005021184600F02BF92CE07B6818683B6834
:1057800059683B68DB681A4600F0F2F87B681B68D2
:105790006021184600F01BF91CE07B6818683B6824
:1057A00059683B68DB681A4600F0B4F87B681B68F0
:1057B0004021184600F00BF90CE07B681A683B6842
:1057C0001B681946104600F002F903E00123FB7341
:1057D00000E000BF7B68012283F83D207B68002247
:1057E00083F83C20FB7B18461037BD4680BD80B453
:1057F00083B000AF786000BF0C37BD4680BC7047F7
:1058000080B483B000AF786000BF0C37BD4680BC69
:10581000704780B483B000AF786000BF0C37BD46DE
:1058200080BC704780B483B000AF786000BF0C3795
:10583000BD4680BC7047000080B485B000AF786082
:1058400039607B681B68FB607B682F4A93420BD0F2
:105850007B68B3F1804F07D07B682C4A934203D01A
:105860007B682B4A934208D1FB6823F07003FB60EE
:105870003B685B68FA681343FB607B68224A93428B
:105880000BD07B68B3F1804F07D07B681F4A9342EF
:1058900003D07B681E4A934208D1FB6823F440730F
:1058A000FB603B68DB68FA681343FB60FB6823F02E
:1058B00080023B685B691343FB607B68FA681A608F
:1058C0003B689A687B68DA623B681A687B689A6210
:1058D0007B680D4A934203D13B681A697B681A635F
:1058E0007B6801225A617B681B6903F00103002B6E
:1058F00005D07B681B6923F001027B681A6100BF39
:105900001437BD4680BC7047002C014000040040A5
:105910000008004080B487B000AFF860B9607A60DA
:10592000FB681B6A7B61FB681B6A23F00102FB6852
:105930001A62FB689B693B613B6923F0F0033B61A2
:105940007B681B013A6913433B617B6923F00A03BF
:105950007B617A69BB6813437B61FB683A699A6132
:10596000FB687A691A6200BF1C37BD4680BC70476D
:1059700080B487B000AFF860B9607A60FB681B6ADA
:105980007B61FB681B6A23F01002FB681A62FB68EC
:105990009B693B613B6923F470433B617B681B035C
:1059A0003A6913433B617B6923F0A0037B61BB68C9
:1059B0001B017A6913437B61FB683A699A61FB6852
:1059C0007A691A6200BF1C37BD4680BC704780B43C
:1059D00085B000AF786039607B689B68FB60FB68CE
:1059E00023F07003FB603A68FB68134343F007033E
:1059F000FB607B68FA689A6000BF1437BD4680BCC4
:105A0000704780B487B000AFF860B9607A603B60DF
:105A1000FB689B687B617B6923F47F437B613B6808
:105A20001A027B681A43BB6813437A6913437B618C
:105A3000FB687A699A6000BF1C37BD4680BC70471E
:105A400080B485B000AF786039607B6893F83C30F3
:105A5000012B01D1022346E07B68012283F83C2020
:105A60007B68022283F83D207B681B685B68FB60D3
:105A70007B681B689B68BB60FB6823F07003FB605E
:105A80003B681B68FA681343FB607B681B68FA6815
:105A90005A607B681B68164A93420ED07B681B686D
:105AA000B3F1804F09D07B681B68124A934204D03F
:105AB0007B681B68104A93420CD1BB6823F08003BB
:105AC000BB603B685B68BA681343BB607B681B685C
:105AD000BA689A607B68012283F83D207B680022C7
